:1000000096C20000B2C20000B0C20000AEC2000042
:10001000ACC20000AAC20000A8C20000A6C2000034
:10002000A4C20000A2C200000C94820C9EC2000078
:100030009CC200009AC2000098C2000096C2000054
:1000400094C2000092C2000090C200008EC2000064
:100050008CC200008AC2000088C2000086C2000074
:1000600084C2000082C2000080C200007EC2000084
:100070007CC200007AC2000078C2000076C2000094
:1000800074C2000072C2000070C200006EC20000A4
:100090006CC200006AC200001B5B33316D446576A0
:1000A00020456E756D204572726F720D0A202D2DE0
:1000B000204572726F7220436F64652025640D0ABB
:1000C000202D2D20537562204572726F7220436F70
:1000D00064652025640D0A202D2D20496E2053745F
:1000E0006174652025640D0A1B5B33376D001B5B53
:1000F00033316D486F7374204D6F646520457272A3
:100100006F720D0A202D2D204572726F7220436F81
:1001100064652025640D0A1B5B33376D0048494434
:100120002044657669636520456E756D65726174FE
:1001300065642E0D0A004572726F722053657474E7
:10014000696E67205265706F72742050726F746FA1
:10015000636F6C204D6F64652E0D0A004572726FDF
:10016000722053657474696E6720446576696365AF
:1001700020436F6E66696775726174696F6E2E0DCC
:100180000A0041747461636865642044657669633C
:1001900065204E6F7420612056616C696420484967
:1001A00044204465766963652E0D0A004572726FBE
:1001B000722052657472696576696E6720436F6E4E
:1001C00066696775726174696F6E204465736372E6
:1001D0006970746F722E0D0A000D0A4465766963AA
:1001E0006520556E61747461636865642E0D0A0044
:1001F0004465766963652041747461636865642E43
:100200000D0A002020202020207C0D0A2020202004
:100210002020454E440D0A002020202020207C0D67
:100220000A2020202020202D20547970653A20209B
:100230003078253032580D0A2020202020202D2013
:1002400055736167653A203078253032580D0A00C1
:1002500020202B204974656D2025643A0D0A20204A
:1002600020202D205265706F72742049443A20205E
:1002700020202020202020203078253032580D0AE0
:10028000202020202D204461746120446972656320
:1002900074696F6E3A202020202025730D0A2020DB
:1002A00020202D204974656D20466C6167733A20CB
:1002B00020202020202020203078253032580D0AA0
:1002C000202020202D204974656D204F66667365BF
:1002D00074202842697473293A20307825303258C6
:1002E0000D0A202020202D204974656D2053697A45
:1002F00065202842697473293A20202030782530FF
:1003000032580D0A202020202D205573616765206A
:10031000506167653A20202020202020202030785E
:10032000253034580D0A202020202D205573616778
:10033000653A20202020202020202020202020205E
:100340003078253034580D0A202020202D20556E7D
:10035000697420547970653A2020202020202020C4
:10036000202030782530386C580D0A202020202D90
:1003700020556E6974204578706F6E656E743A20F2
:1003800020202020203078253032580D0A202020CF
:10039000202D204C6F676963616C204D696E696D1B
:1003A000756D3A2020202030782530386C580D0AA1
:1003B000202020202D204C6F676963616C204D61E7
:1003C00078696D756D3A2020202030782530386CA2
:1003D000580D0A202020202D205068797369636110
:1003E0006C204D696E696D756D3A2020203078253E
:1003F00030386C580D0A202020202D205068797349
:100400006963616C204D6178696D756D3A202020BB
:1004100030782530386C580D0A202020202D2043BC
:100420006F6C6C656374696F6E20506174683A0D0F
:100430000A000D0A5265706F7274204974656D73FD
:100440002028256420696E205461626C65293A0D6C
:100450000A0020202B205265706F727420494420BE
:100460003078253032580D0A202020202D20496E6A
:1004700070757420446174613A20202025642062E4
:1004800069747320282564206279746573290D0AC4
:10049000202020202D204F757470757420446174C5
:1004A000613A202025642062697473202825642025
:1004B0006279746573290D0A202020202D2046655D
:1004C000617475726520446174613A20256420620C
:1004D00069747320282564206279746573290D0A74
:1004E000000D0A0D0A546F74616C204465766963CF
:1004F00065205265706F7274733A2025640D0A008E
:100500001B5B33366D48494420446576696365203A
:100510005265706F727420566965776572205275E6
:100520006E6E696E672E0D0A1B5B33376D001124EA
:100530001FBECFEFD0E2DEBFCDBF11E0A0E0B1E043
:10054000E6ECF7E200E00BBF02C007900D92A83383
:10055000B107D9F715E0A8E3B1E001C01D92A333BC
:10056000B107E1F7EAD10C94E1134ACD9BB19F703A
:10057000982B9BB90895EF92FF920F931F93CF93FF
:10058000DF9300D000D0EDB7FEB7319681EE94E056
:10059000ADB7BEB712969C938E9311978091C70406
:1005A000828313820E94E7100F900F900F900F909C
:1005B00010E052E5E52E54E0F52E72C0212F30E018
:1005C000C90143E0880F991F4A95E1F7821B930BFD
:1005D000885C9E4FFC01EF56FC4F0081FC01ED56FC
:1005E000FC4FB081FC01EB56FC4FA081602F70E006
:1005F0004B2F50E02A2F30E0CDB7DEB760970FB613
:10060000F894DEBF0FBECDBFEDB7FEB73196FA82CC
:10061000E98280579C4FEC01888182831382758325
:1006200064836770707081E090E06115710511F46A
:1006300080E090E0069506950695800F911D9783C2
:100640008683518740874770507081E090E0411564
:10065000510511F480E090E0B695B695B6958B0FF4
:10066000911D93878287358724872770307081E0BA
:1006700090E02115310511F480E090E0A695A69553
:10068000A6958A0F911D978786870E94E7101F5FA6
:10069000EDB7FEB770960FB6F894FEBF0FBEEDBF74
:1006A0008091C704181708F489CFDF91CF911F916B
:1006B0000F91FF90EF900895EF92FF920F931F9389
:1006C000CF93DF93E82EE7017E01F92EE70108E1E1
:1006D00012E027C0ADB7BEB718970FB6F894BEBFEB
:1006E0000FBEADBFEDB7FEB7319612961C930E93B9
:1006F000119788818283138289819A81AB81BC8121
:1007000084839583A683B7830E94E7100D80DE81E2
:10071000C02DEDB7FEB738960FB6F894FEBF0FBEEA
:10072000EDBF2097B9F600D083E092E0ADB7BEB739
:1007300012969C938E9311970E94E7100F900F9042
:10074000DF91CF911F910F91FF90EF900895DF926D
:10075000EF92FF920F931F93CF93DF9300D000D0BF
:10076000EDB7FEB7319682E394E0ADB7BEB712960F
:100770009C938E93119780913801828313820E94FB
:10078000E7100F900F900F900F90DD240AE210E019
:1007900060E5E62E62E0F62E87C02D2D30E0209F2A
:1007A000F001219FF00D309FF00D1124E85CFE4F09
:1007B00046818381882329F0813031F48BE091E0F8
:1007C00005C088E091E002C080E091E06DB77EB79F
:1007D000685270400FB6F8947EBF0FBE6DBFEDB784
:1007E000FEB73196ADB7BEB71296FC92EE92119756
:1007F000D28213824483158297838683209FE001EF
:10080000219FD00D309FD00D1124C85CDE4F8C810C
:100810009D819187808789819A8193878287898545
:10082000848715868A859B85978786878C859D8595
:10083000918B808B8E859F85A889B989828B938BBC
:10084000A48BB58B8A89868B178A8B899C89AD8905
:10085000BE89808F918FA28FB38F8F89988DA98D3C
:10086000BA8D848F958FA68FB78F8B8D9C8DAD8D14
:10087000BE8D80A391A3A2A3B3A38F8D98A1A9A19C
:10088000BAA184A395A3A6A3B7A30E94E7106DB74E
:100890007EB7685D7F4F0FB6F8947EBF0FBE6DBF09
:1008A0008F81988509DFD39480913801D81608F498
:1008B00074CFDF91CF911F910F91FF90EF90DF9058
:1008C000089580911E058B3049F480ED4FDE53DE94
:1008D0003EDF80E64BDE80E00C94DC0E089584B7AA
:1008E000877F84BF28E10FB6F894209360001092B0
:1008F00060000FBE90E080E80FB6F894809361002E
:10090000909361000FBE83E390E09093CD008093BD
:10091000CC0086E08093CA001092C8002093C900E2
:10092000539A5A9A8AB1806F8AB98BB18F708BB9FA
:10093000CED780E090E00C94CA10D1DF80E095E043
:100940000E94061180E112DE7894BBDF0E94010F45
:10095000FCCF80EF91E00E94061180EA07CE89ED7E
:1009600091E00E94061180E101CE0F931F93DF9367
:10097000CF93CDB7DEB7C250D2400FB6F894DEBFEA
:100980000FBECDBF80EAF2DD8E010D5F1F4F81E00B
:10099000BE016F5F7F4FA80120E032E00E94190D79
:1009A000882319F08CEA91E013C069817A818FE085
:1009B00091E0A8010E94360F882319F082E891E0A7
:1009C00007C081E00E94DC0E882331F08CE591E0C5
:1009D0000E94061180E915C08FE091E00E940B1083
:1009E000882351F086E391E00E94061180E9BEDD84
:1009F00080E00E94DC0E06C08DE191E00E940611AD
:100A000080E6B4DDCE5FDD4F0FB6F894DEBF0FBEDB
:100A1000CDBFCF91DF911F910F910895DF93CF93B9
:100A20000F92CDB7DEB78983EAD600D000D0EDB7FC
:100A3000FEB731962EEE30E0ADB7BEB712963C93BE
:100A40002E9311978981828313820E94E7100F9061
:100A50000F900F900F9080E989DDFFCF90911E05D8
:100A60002DB73EB7285030400FB6F8943EBF0FBEAA
:100A70002DBFEDB7FEB7319628E930E0ADB7BEB770
:100A800012963C932E93119782831382648315826E
:100A9000968317820E94E7102DB73EB7285F3F4F1D
:100AA0000FB6F8943EBF0FBE2DBF80E95FCD81E049
:100AB00008952F923F924F925F926F927F928F9202
:100AC0009F92AF92BF92CF92DF92EF92FF920F93DD
:100AD0001F93DF93CF93CDB7DEB7C959D0400FB680
:100AE000F894DEBF0FBECDBF6C011B01BA014057A9
:100AF0005C4F89ED93E0DB019C011D922150304059
:100B0000E1F79E01255C3F4F8CE1D9011D928A954A
:100B1000E9F787E0DA011D928A95E9F7FB01E157D1
:100B2000FC4F81E08083E9961CAE1DAE1EAE1FAE69
:100B3000E997442455243201BB2488249924CB010D
:100B40008A529C4FC058DF4F99838883C058D04049
:100B5000C856DF4F39832883C859D040DB01A05BDA
:100B6000BC4FC657DF4FB983A883CA58D040CB01CA
:100B700088579C4FC457DF4F99838883CC58D04007
:100B8000DB01A75BBC4FC257DF4FB983A883CE58A8
:100B9000D040C9014C96C057DF4F99838883C05914
:100BA000D040DB01A852BC4FCE57DF4FB983A8839A
:100BB000C258D040CC57DF4FF983E883C458D040A7
:100BC000CA01CE56DF4F4883C259D040CD56DF4FC1
:100BD0009883C359D040E5967FAF6EAFE59738C391
:100BE000F60161916F01089421083108862F90E089
:100BF000EB969FAF8EAFEB9783709070823091052C
:100C000009F43FC08330910529F08130910509F046
:100C10005CC052C0DF01E380FF2400E010E01E2D25
:100C20000027FF24EE2412968C9190E0A0E0B0E023
:100C3000DC0199278827E82AF92A0A2B1B2BF601C1
:100C4000808190E0A0E0B0E0E82AF92A0A2B1B2B73
:100C5000F181ED96FFAFED97EC961FAEEC97ED9618
:100C6000EEADFFADED97CF01A0E0B0E0E82AF92AA4
:100C70000A2B1B2B8CEF9FEF280E391EA4E0B0E04F
:100C800018C0F181EF96FFAFEF97EE961FAEEE978B
:100C9000D601EC90FF24EF96EEADFFADEF97EE2A74
:100CA000FF2A00E010E08EEF9FEF280E391EA2E031
:100CB000B0E0CA0EDB1E0CC0E1906F01FF2400E023
:100CC00010E008942108310803C0EE24FF248701B6
:100CD000EB968EAD9FADEB978C7F9070843691052F
:100CE00009F4C9C0853691058CF58432910509F463
:100CF000A9C085329105ACF48830910509F431C161
:100D0000893091052CF48430910509F08FC28EC092
:100D10008431910509F48EC08831910509F086C2AD
:100D200083C28433910509F493C0853391052CF473
:100D30008832910509F07AC226C18434910509F4FC
:100D40008FC08435910509F071C290C08439910536
:100D500009F49AC085399105A4F48038910541F1D0
:100D6000813891052CF48437910509F05FC289C060
:100D70008438910509F48BC08039910509F056C279
:100D800017C0803B9105A1F0813B91054CF4803A5E
:100D9000910509F4FFC0843A910509F047C224C0C7
:100DA000843B9105B1F1803C910509F03FC24FC1F0
:100DB000AA246C7FC158DF4F6883CF57D040C80149
:100DC000B7016170707080709070CA57DF4F688390
:100DD00079838A839B83C658D040C6016A01B801D3
:100DE000A70179018C0117C2C057DF4F8881998113
:100DF000C059D0402817390709F438C2C9014C96A8
:100E0000FC01D9012AE20D9001922150E1F79C01E9
:100E10000DC2C856DF4FA881B981C859D0402A17E2
:100E20003B0709F425C22C51304000C2F901F2827F
:100E3000E182FCC1D9011A96ED92FD920D931C93AB
:100E40001D97F4C1F901E686F786008B118BEEC180
:100E5000D9015296ED92FD920D931C935597E6C1E0
:100E6000F901E68AF78A008F118FE0C1D90119963E
:100E7000EC921997DBC1F901E582F68207831087AE
:100E8000D5C1D901EC92D2C1F901E28ECFC19E2D1C
:100E9000D9015B96EC925B97CE57DF4FE881F981E1
:100EA000C258D0408081882309F44CC0CC57DF4F12
:100EB000A881B981C458D0406C91CE56DF4FE881EB
:100EC000C259D040CD56DF4FF881C359D04080E0A1
:100ED00017C040813796491791F490E0AC01F3E0D8
:100EE000440F551FFA95E1F7481B590B40575C4FCB
:100EF000E596EEADFFADE5974E0F5F1F23C08F5F08
:100F0000861738F3DCC1862F90E0AC01E3E0440F94
:100F1000551FEA95E1F7481B590B40575C4FE59682
:100F20008EAD9FADE597480F591F6F5FCC57DF4FD0
:100F3000A881B981C458D0406C9387E0DA011D9232
:100F40008A95E9F761E0CE57DF4FE881F981C25811
:100F5000D0406083D9015B968C915B97FA018083C6
:100F600065C1FB2DF83009F485C1EB2DF0E0EE0FE3
:100F7000FF1F61E070E06C0F7D1FE60FF71FF1822D
:100F8000E082B39453C1E996ECAEFDAE0EAF1FAF55
:100F9000E9974CC18114910439F4C257DF4F88801E
:100FA0009980CE58D04019C0C657DF4FE881F981EB
:100FB000CA58D0400BC0C457DF4F88819981CC58A4
:100FC000D040E817F90709F457C137968581968113
:100FD000009789F7968285824F01D401EC92F9013E
:100FE0008181928112969C938E931197BB20C1F0C0
:100FF00089819A8114969C938E931397FE01319662
:101000008B2D90E0880F991F8E0F9F1F04C0628167
:10101000738161937193E817F907C9F7BA9406C110
:10102000E9968CAD9DADAEADBFADE9978415950544
:10103000A605B70508F4FAC0D40114965C924E9246
:1010400013970894411C511C611C711CEFC0811442
:10105000910409F413C1F40185809680E7C0DE0194
:101060005996F7018AE101900D928150E1F75D8B6D
:101070004C8B988E8F8AD7015B968C915B978E8B69
:10108000BB20B1F089819A819D8F8C8FFE013196B2
:101090008B2D90E0880F991F8E0F9F1F04C0228117
:1010A000338121933193E817F907C9F7BA9412C035
:1010B000E9968CAD9DADAEADBFADE99784159505B4
:1010C000A605B70538F05D8E4C8E0894411C511C66
:1010D000611C711CC158DF4F9881CF57D0409038A8
:1010E00011F41B8A0CC0C158DF4FA881CF57D040E4
:1010F000A03919F4B1E0BB8B02C0E2E0EB8BEB89C5
:10110000F0E0EE0FFF1FEC0DFD1D818192819A8BA7
:10111000898BD7012C9181819281820F911D9283BD
:101120008183EB89F0E0EE0FFF1FEC0DFD1DC05831
:10113000DF4FA881B981C058D0408D919C91119703
:10114000218132812817390708F49C01C058DF4FEC
:10115000E881F981C058D04031832083E596AEAD57
:10116000BFADE5978C91843109F48AC090E02AE202
:1011700030E0829FF001839FF00D929FF00D1124CB
:10118000EA0FFB1F3196DE0151968AE20D90019223
:101190008150E1F7CA57DF4F88819981AA81BB81CD
:1011A000C658D0400097A105B105A1F5CE014196E2
:1011B000CC56DF4F4883C459D040CB56DF4F5883BD
:1011C000C559D040CA56DF4F6883C659D040C9566A
:1011D000DF4F7883C759D0406ADCCC56DF4F488157
:1011E000C459D040CB56DF4F5881C559D040CA565C
:1011F000DF4F6881C659D040C956DF4F7881C75943
:10120000D040882339F0E596AEADBFADE5978C911F
:101210008F5F8C93A394F701828DA81608F41FCFDB
:101220009701A601680102C027013801EB968EAD37
:101230009FADEB978C709070009751F4E9961CAEBF
:101240001DAE1EAE1FAEE997442455243201BB24C7
:101250002114310409F0C4CCE5966EAD7FADE5975D
:10126000DB018C91882371F488E00FC081E00DC010
:1012700082E00BC086E009C085E007C084E005C0BD
:1012800083E003C080E001C087E0C756DF4F0FB6A0
:10129000F894DEBF0FBECDBFCF91DF911F910F91AC
:1012A000FF90EF90DF90CF90BF90AF909F908F9086
:1012B0007F906F905F904F903F902F9008956A308D
:1012C00009F021CEE1CF80919E0090E08170907076
:1012D0002091A0002D7F2093A00020919E002260ED
:1012E00020939E0020919E0021FDFCCF20919E0026
:1012F000216020939E00109214052091A00030E000
:10130000207230704091A0004F7D4093A00040912A
:101310009F004F7D40939F004AE050919F0055FFF2
:101320000BC040919F004F7D40939F0040919F00D4
:101330004D7F40939F0008C0EFECF7E03197F1F745
:1013400000C00000415049F72115310529F02091D6
:10135000A00020622093A000009729F480919E00B5
:101360008E7F80939E008091A00082608093A00079
:10137000089540919E0050E0417050702091A0006F
:1013800030E0207230709091A0009F7D9093A0007B
:1013900090919F009F7D90939F0090919E009160FF
:1013A00090939E0026C090919F0095FF06C090915B
:1013B0009F009F7D90939F00815090911E059130DA
:1013C000D9F09091A60094FF09C01092F500809189
:1013D000A6008F7E8093A60082E00FC09091A600A9
:1013E00091FF07C08091A6008D7F8093A60083E0C7
:1013F00004C08823C1F601C081E04115510529F4DC
:1014000090919E009E7F90939E002115310529F0BA
:101410009091A00090629093A00008950F931F9365
:10142000DF93CF93CDB7DEB728970FB6F894DEBF22
:101430000FBECDBF80911E05853009F499C086305E
:1014400068F48230C1F1833018F48823A1F004C11C
:101450008330D9F1843009F0FFC062C0873009F4CD
:101460009EC0873008F48FC0883009F4B8C0893036
:1014700009F0F2C0D9C000911205109113050115B1
:10148000110509F4E9C081E074DF682F882331F089
:101490008091110580931E0581E0D2C0015010405B
:1014A00010931305009312050115110509F0D4C01E
:1014B0008091110507C088EE93E090931305809307
:1014C000120583E080931E05C7C08091120590919C
:1014D00013059C01215030403093130520931205D1
:1014E000009739F08FEC97E00197F1F700C000000A
:1014F000B3C077988091D80080618093D8008091A4
:10150000DD008B7F8093DD008091D7008061809328
:10151000D7008091DD0082608093DD0084E0D2CF2F
:1015200080919F0080FF98C080919F008E7F809364
:101530009F0080919F008D7F80939F008091DF00AE
:101540008D7F8093DF008091DE0082608093DE00DB
:1015500080919E00816080939E0017D110921E059D
:1015600084E690E0909313058093120585E059C0BE
:10157000AADE10921E0588EC90E0909313058093EC
:10158000120586E04EC080E060E040E020E430E0FC
:1015900001E06DD0882309F44FC087E093CFA6E126
:1015A000B5E0EEE2F1E088E001900D928150E1F7C4
:1015B0001092A700CE01019600D3682F882309F06E
:1015C0003EC08885809336017EDE10921E0588EC31
:1015D00090E0909313058093120588E022C020913B
:1015E000360180E060E040E030E001E040D0882358
:1015F00019F1A6E1B5E0E6E2F1E088E001900D9294
:101600008150E1F780E090E0D8D2682F8823B9F4C8
:1016100010921E0584E690E09093130580931205C6
:1016200089E08093110518C081E08093A1008AE0D1
:1016300080931E059AD910C060E084E001C083E069
:1016400090911E05913041F009DA8091DD008160B2
:101650008093DD0084D9EBD028960FB6F894DEBFD6
:101660000FBECDBFCF91DF911F910F9108950F93C2
:10167000582F5F7087FF02C080E101C080E25730C1
:1016800008F059C0662309F480E04F706295660F38
:10169000660F607C642B682B452F0260842F8F704F
:1016A0008093A7004517A1F488E090E070E003C0A4
:1016B0007F5F880F991F8217930710F47530C1F769
:1016C000872F8295807F802BF62F70E0E0E008C0A6
:1016D000F091AA008091AB00E091AD007091AE0056
:1016E00081FF20C09091A9009E7F9093A9009091C6
:1016F000AB009D7F9093AB009091A9009160909377
:10170000A900F093AA008093AB00E093AD00709322
:10171000AE008091A90080628093A9008091AC0006
:1017200087FF09C04F5F473009F0B8CF5F70509313
:10173000A70081E001C080E00F910895EF92FF9231
:101740000F931F93CF93DF93162FE82EE7017E01AF
:10175000F92EE701FF240DC08881882341F02981FB
:101760003A816C814B810D8182DF882331F0F394C3
:101770002696F11688F381E001C080E0DF91CF91D9
:101780001F910F91FF90EF9008951092F80080E064
:10179000982F9F709093A7001092AE001092A60011
:1017A0001092AB009091A9009E7F9093A9008F5F4B
:1017B000873071F708954091A7009091AA0090E0BA
:1017C000292F2F702093A7002091AC0027FF0CC079
:1017D0003091AA00532F5F7030FF02C020E001C09B
:1017E00020E8252B281749F09F5F973049F7842F71
:1017F0008F708093A70080E0089581E0089575D0F0
:101800007CD0E0EEF0E0808181608083E8EDF0E064
:1018100080818F77808319BCA7EDB0E08C918E7F9B
:101820008C9380818F7E80831092150508955DD002
:1018300064D08091D8008F778093D8008091D800B1
:1018400080688093D8008091D8008F7D8093D800E5
:101850008091D7008F778093D7008CE089BD8EE090
:1018600089BD09B400FEFDCF81E080931E05109272
:10187000140580E4809336018091D80080648093C1
:10188000D8008091DD0081608093DD008091DD00D3
:1018900084608093DD008091D7008F7E8093D70095
:1018A0006F9A779A8091DE0081608093DE0080914C
:1018B000DE0084608093DE008091E0008E7F809364
:1018C000E0008091D80080618093D8000895E8ED11
:1018D000F0E080818F7E8083E7EDF0E080818160A1
:1018E000808381E080931505A2CFE8EDF0E0808150
:1018F0008C7F80831092A00008951092DA001092DD
:101900009F0008951F920F920FB60F920BB60F9281
:1019100011242F933F934F935F936F937F938F93F4
:101920009F93AF93BF93EF93FF9380919F0085FFA9
:101930000AC08091A00085FF06C080919F008F7D26
:1019400080939F0010D180919F0081FF16C08091ED
:10195000A00081FF12C080919F008D7F80939F0027
:1019600080919F008E7F80939F008091A0008D7F4B
:101970008093A0000E94AF045ADF8091DF0081FFB6
:1019800016C08091DE0081FF12C08091DF008D7F44
:101990008093DF0077988091DD0081608093DD0087
:1019A00080E03CD80E94AF0481E080931E058091C6
:1019B000DF0080FF18C08091DE0080FF14C080919E
:1019C000DF008E7F8093DF008091DE008E7F80932A
:1019D000DE000E94A9048091A00082608093A00094
:1019E00082E080931E058091DF0082FF0FC080910E
:1019F000DE0082FF0BC08091DF008B7F8093DF00D1
:101A000082E060E02BD80E94AF0411DFFF91EF91DC
:101A1000BF91AF919F918F917F916F915F914F9106
:101A20003F912F910F900BBE0F900FBE0F901F9004
:101A30001895CF92DF92EF92FF920F931F93DF934F
:101A4000CF93CDB7DEB729970FB6F894DEBF0FBEA0
:101A5000CDBF6B018A01790190E89093160596E05D
:101A60009093170590E001979260909319058093E9
:101A7000180510921B0510921A0589E090E09093CA
:101A80001D0580931C051092A700CE01019695D0EC
:101A90008823B9F48B819C81F60191838083E816B9
:101AA000F90670F090931D0580931C05C80185D040
:101AB000882339F4F8019181923019F086E001C051
:101AC00085E029960FB6F894DEBF0FBECDBFCF914B
:101AD000DF911F910F91FF90EF90DF90CF900895CD
:101AE000AF92BF92CF92DF92EF92FF920F931F932C
:101AF000CF93DF938C01EB016A0123C0E881F98168
:101B00005F01208130E0C7012E153F0508F4C901AF
:101B1000E80FF91FF983E883F80120813181281B40
:101B2000390B3183208388819981F60109958230B0
:101B300041F0813069F4A882B982F801F182E08233
:101B400007C0F801E080F180E114F104B9F682E009
:101B5000DF91CF911F910F91FF90EF90DF90CF9089
:101B6000BF90AF90089508951F93CF93DF93182FE0
:101B7000C8EED3E007C081E0FCDB8823D1F42097D6
:101B8000B9F02197112329F48091A60083FFF3CFA8
:101B90000DC0113029F48091A60080FFECCF06C063
:101BA000123049F78091A60082FFE5CF80E001C0A6
:101BB00084E0DF91CF911F910895EF92FF920F93F0
:101BC0001F93CF93DF938C01E0909E00FF2481E070
:101BD000E822FF24C0911C05D0911D0580919E0034
:101BE000816080939E0081E0C4DB882309F0CBC034
:101BF0008091AA008F7C8093AA001092F5008091BA
:101C0000A6008F7E8093A6008091A9008F7B809391
:101C1000A900E6E1F5E081918093AF0085E0EE3127
:101C2000F807C9F78091A60087778093A60080E027
:101C30009BDF882309F0A7C08091A900806480936E
:101C4000A90081E096DB882309F09DC080911605EC
:101C500087FF4FC08091AA008F7C80618093AA008B
:101C60000115110561F52DC08091A9008F7B80932E
:101C7000A90081E079DF882309F085C08091F60012
:101C80009091F700009749F4C0E0D0E006C0809141
:101C9000AF00F80181938F0121978091F600909118
:101CA000F700009711F0209791F78091A9008064C8
:101CB0008093A9008091A6008E778093A60020973C
:101CC00099F68091AA008F7C80628093AA0080910F
:101CD000A9008F7B8093A90082E046DF882309F06A
:101CE00052C08091A6008B778093A60082E03CDFF3
:101CF0004AC00115110599F18091AA008F7C80627C
:101D00008093AA008091A9008F7B8093A9001CC0BA
:101D100082E02ADF8823B9F5F80106C081918F019E
:101D20008093AF00219759F08F012091F6003091F8
:101D3000F7008091360190E02817390778F38091F9
:101D4000A6008B778093A600209711F782E00CDF26
:101D50008823C9F48091A90080648093A9008091B0
:101D6000AA008F7C80618093AA008091A9008F7B5C
:101D70008093A90081E0F8DE882329F49091A600E1
:101D80009E779093A6009091A90090649093A900EB
:101D9000E114F10429F490919E009E7F90939E009F
:101DA00091E09093A8001092A800DF91CF911F912D
:101DB0000F91FF90EF9008951F93182F1092160522
:101DC00089E0809317051093180510921905109259
:101DD0001B0510921A0510921D0510921C051092F9
:101DE000A70080E090E0E9DE882349F41093140511
:101DF000112311F09BE001C09AE090931E051F9102
:101E000008951F931091A7001F708091AA0010924F
:101E1000A70004DB1093A7001F910895FC018181A6
:101E2000843019F48581833011F082E0089580E0D8
:101E30000895FC018181813221F0843021F481E018
:101E4000089580E0089582E00895FC018181853045
:101E500029F48281B0DC882319F404C0843021F095
:101E600082E0089580E0089581E008954F925F92A6
:101E70006F927F928F929F92AF92BF92CF92DF929A
:101E8000EF92FF920F931F93DF93CF9300D000D078
:101E9000CDB7DEB78C017A8369835C834B830F9661
:101EA000FC0188E0DF011D928A95E9F7EB81FC8156
:101EB0008181823009F095C044245524AA24BB2492
:101EC000EE24FF24CC24DD2493E0692E712C6C0ECB
:101ED0007D1E4E010894811C911CA114B10439F09F
:101EE000C401B30145E25FE0FBDD882321F1C114A9
:101EF000D10479F5C401B3014EE05FE0F1DD882340
:101F000009F071C0AB80BC80F8018485882331F072
:101F1000D50117969C911797981761F7C401B301E3
:101F200049E15FE0DDDD882309F05DC04B805C8026
:101F3000EE24FF24D2CFEB81FC81828187FF02C097
:101F40006F0101C07F01C114D10439F2E114F10421
:101F500021F2F60184819581D80112969C938E938B
:101F60001197828113968C93139783E0C82E149651
:101F7000CC92C80161E0E2DB8823B9F1E114F104FD
:101F8000A1F0F70184819581D80118969C938E93D6
:101F90001797828119968C9319971A96CC92C8013B
:101FA000069661E0CBDB882301F1F5018281D8013F
:101FB00050968C935097F2018781908555969C930B
:101FC0008E93549781E0D50116969C91169799238C
:101FD00009F480E0F801818B88E0868B81E08787B7
:101FE00004C081E003C082E001C080E00F900F9048
:101FF0000F900F90CF91DF911F910F91FF90EF9075
:10200000DF90CF90BF90AF909F908F907F906F9018
:102010005F904F900895AF92BF92CF92DF92EF9270
:10202000FF920F931F93DF93CF93CDB7DEB78C0151
:10203000CDB6DEB6DC0154964D915C915597EDB767
:10204000FEB7E41BF50B0FB6F894FEBF0FBEEDBF55
:102050002DB73EB72F5F3F4F590150966C9181E8E5
:102060008093160586E08093170580E092E29093B6
:102070001905809318057AE1E72E75E0F72E609335
:102080001A05D70111961C9250931D0540931C050B
:102090001092A700C90191DD882309F04FC0F80113
:1020A00083898823E9F0208981E2809316058BE0FB
:1020B0008093170581E090E09093190580931805AF
:1020C00020931A05D70111961C9210921D051092AB
:1020D0001C0580E090E071DD882381F5F801138A0A
:1020E000D8011D964D915C911E974115510529F11E
:1020F00054966D917C915597C5010E94590588238E
:1021000011F080681BC0D8011D96ED91FC911E97BF
:10211000EA52FC4F20813181A9014770507091E053
:102120004115510509F490E043E0369527954A950D
:10213000E1F7290FF801268B01C080E80FB6F8946B
:10214000DEBE0FBECDBECF91DF911F910F91FF90EC
:10215000EF90DF90CF90BF90AF9008959091C8001E
:1021600095FFFCCF8093CE0080E090E008958091B1
:10217000C80087FF08C08091C80087FF07C0209172
:10218000CE0030E005C02EEF3FEF02C02FEF3FEF53
:10219000C9010895FC01009751F4EFE1F5E0F093D7
:1021A0002E05E0932D05F0933005E0932F058EE08A
:1021B000DF011D928A95E9F783E083838EEA90E13F
:1021C0009187808787EB90E1938782870895DF93DB
:1021D000CF93CDB7DEB7FE013596619171918091B5
:1021E0002F0590913005DC0113962C9113972860F0
:1021F00013962C93AF0142D0E0912F05F09130055A
:102200002381277F2383CF91DF910895EF92FF925F
:102210000F931F93CF93DF938C01E0912F05F091E3
:102220003005838181FF20C0C0E0D0E00CC0DB011D
:102230001896ED91FC9119970995009711F0CFEF41
:10224000DFEF0F5F1F4FF801849160912F057091B0
:102250003005882361F7DB011896ED91FC91199701
:102260008AE00995009711F0CFEFDFEFCE01DF9103
:10227000CF911F910F91FF90EF9008952F923F9271
:102280004F925F926F927F928F929F92AF92BF9286
:10229000CF92DF92EF92FF920F931F93DF93CF9332
:1022A000CDB7DEB72C970FB6F894DEBF0FBECDBF0B
:1022B0006C011B018A01FC0117821682838181FF58
:1022C000C4C12E010894411C511CF6019381F101F7
:1022D00093FD859193FF81911F01882309F4B1C17A
:1022E000853239F493FD859193FF81911F018532E9
:1022F00021F490E0B601DBD1E8CFEE24FF2420E00A
:102300002032B0F48B3269F08C3228F4803251F0F4
:10231000833271F40BC08D3239F0803349F421607F
:102320002CC02260246029C0286027C0206125C0FD
:1023300027FD2CC0382F30533A3098F426FF08C0C0
:102340008E2D880FE82EEE0CEE0CE80EE30E15C075
:102350008F2D880FF82EFF0CFF0CF80EF30E206265
:102360000CC08E3221F426FD6CC1206406C08C3670
:1023700011F4206802C0883649F4F10193FD85917B
:1023800093FF81911F01882309F0BACF982F9554AC
:10239000933018F09052933028F40C5F1F4FFFE3F6
:1023A000F9830DC0833631F0833771F0833509F03E
:1023B0005CC021C0F801808189830E5F1F4F4201FC
:1023C00071E0A72EB12C15C062E0662E712C600E54
:1023D000711EF8018080918026FF03C06E2D70E091
:1023E00002C06FEF7FEFC4012C8756D15C018301DF
:1023F0002C852F7716C052E0652E712C600E711E51
:10240000F8018080918026FF03C06E2D70E002C02D
:102410006FEF7FEFC4012C8734D15C012C852068DD
:10242000830123FD1EC007C080E290E0B6012C8727
:102430003ED1FA942C858F2D90E0A816B906A0F312
:1024400010C0F40127FD859127FF81914F0190E095
:10245000B6012C872CD12C85F110FA940894A10890
:10246000B108A114B10469F7E9C0843611F08936C6
:1024700041F527FF08C0F801608171818281938155
:102480000C5F1F4F09C0F80160817181882777FDBB
:102490008095982F0E5F1F4F4FE6B42EB22297FF04
:1024A00009C090958095709561957F4F8F4F9F4F94
:1024B000F0E8BF2AA2012AE030E025D1782E741876
:1024C00044C0853731F43FEEB32EB2222AE030E02B
:1024D00025C099EFB92EB2228F36C1F0803720F493
:1024E000883509F0AEC00DC0803721F0883709F07B
:1024F000A8C002C020E1B22AB4FE0BC084E0B82A12
:1025000008C0B4FE09C0E6E0BE2A06C028E030E0FC
:1025100005C020E130E002C020E132E0B7FE08C093
:10252000F80160817181828193810C5F1F4F07C028
:10253000F8016081718180E090E00E5F1F4FA20181
:10254000E2D0782E7418FFE7BF22B6FE0BC02EEF44
:10255000B2227E1438F4B4FE07C0B2FC05C08FEE80
:10256000B82202C0A72C01C0AE2C8B2D90E0B4FE87
:102570000DC0FE01E70DF11D2081203319F4E9EEB5
:10258000BE2209C0A394B2FE06C004C08678907033
:10259000009709F0A3948B2C9924B3FC13C0B0FED0
:1025A0000EC0AF1428F4E72CEF0CEA18AF2C07C0CC
:1025B000E72C05C080E290E0B60179D0A394AF1477
:1025C000C8F304C0AF1410F4FA1801C0FF2484FE4D
:1025D0000EC080E390E0B6016AD082FE1DC081FE8D
:1025E00003C088E590E010C088E790E00DC0C4010A
:1025F00086789070009781F081FC02C080E201C073
:102600008BE2B7FC8DE290E0B60151D005C080E3CB
:1026100090E0B6014CD0EA947E14C8F37A94F201AB
:10262000E70DF11D808190E0B60141D07720B1F730
:1026300005C080E290E0B6013AD0FA94FF20C9F7D5
:1026400044CEF6012681378102C02FEF3FEFC9014A
:102650002C960FB6F894DEBF0FBECDBFCF91DF91A1
:102660001F910F91FF90EF90DF90CF90BF90AF90B0
:102670009F908F907F906F905F904F903F902F90A2
:102680000895FC010590615070400110D8F78095C5
:1026900090958E0F9F1F0895FC016150704001902E
:1026A0000110D8F7809590958E0F9F1F08950F9376
:1026B0001F93CF93DF938C01EB018B8181FF1BC0B4
:1026C00082FF0DC02E813F818C819D8128173907A3
:1026D00064F4E881F9810193F983E88306C0E88511
:1026E000F985802F0995009731F48E819F8101969D
:1026F0009F838E8302C00FEF1FEFC801DF91CF9140
:102700001F910F910895FA01AA27283051F1203125
:1027100081F1E8946F936E7F6E5F7F4F8F4F9F4F75
:10272000AF4FB1E03ED0B4E03CD0670F781F891FB7
:102730009A1FA11D680F791F8A1F911DA11D6A0F85
:10274000711D811D911DA11D20D009F468943F9138
:102750002AE0269F11243019305D3193DEF6CF0137
:102760000895462F4770405D4193B3E00FD0C9F7FD
:10277000F6CF462F4F70405D4A3318F0495D31FD6A
:102780004052419302D0A9F7EACFB4E0A6959795BD
:10279000879577956795BA95C9F700976105710593
:1027A00008959B01AC010A2E0694579547953795DD
:1027B0002795BA95C9F7620F731F841F951FA01D37
:0627C0000895F894FFCF1C
:1027C6004645415455524500494E004F55540081E7
:1027D60000000000010200000000010038010000B6
:1027E6000000000000000005010000000000800657
:0827F600000100000800400092
:00000001FF
