:1000000090C00000ABC00000A9C00000A7C0000065
:10001000A5C00000A3C00000A1C000009FC0000058
:100020009DC000009BC0000029C3000097C00000D5
:1000300095C0000093C0000091C000008FC0000078
:100040008DC000008BC0000089C0000087C0000088
:1000500085C0000084C0000081C000007FC0000097
:100060007DC000007BC0000079C0000077C00000A8
:1000700075C0000073C0000071C000006FC00000B8
:100080006DC000006BC0000069C0000067C00000C8
:1000900065C0000063C000001201100102000008EA
:1000A000EB03442001000102DC0109023E000201D1
:1000B00000C0320904000001020201000524001002
:1000C0000104240206052406000107058203080036
:1000D000FF09040100020A000000070504021000E5
:1000E00005070583021000050403090418034400F2
:1000F000650061006E002000430061006D00650036
:100100007200610000001A034C004500440020000A
:100110004E006F007400690066006900650072009F
:10012000000011241FBECFEFD0E2DEBFCDBF11E033
:10013000A0E0B1E0E2EEFEE000E00BBF02C00790FD
:100140000D92AC31B107D9F711E0ACE1B1E001C0DB
:100150001D92AA33B107E1F75CD0C1C651CF1F92FF
:100160000F920FB60F9211242F938F939F9380912C
:100170002D018F5F80932D0180912D018F3111F41E
:1001800010922D0190912D0180912A01981710F461
:100190008CE101C088E120912D0190912B0129175C
:1001A00008F0877F20912D0190912C01291708F0EC
:1001B0008F7E98B1937E982B98B99F918F912F91B4
:1001C0000F900FBE0F901F90189584B7877F84BF44
:1001D00088E10FB6F89480936000109260000FBE23
:1001E00090E080E80FB6F8948093610090936100EE
:1001F0000FBE87B18C6187B988B1837E88B923D25D
:1002000084E687BD82E084BD91E095BD80936E0059
:100210000895DBDF80E091E06CE171E00AD678942C
:100220008CE191E01AD6982F907E8F71292F95FF3F
:1002300002C080932A0126FF02C080932B0197FF02
:1002400002C080932C0180E091E093D53CD4E8CFAC
:1002500080E091E0FFC480E091E050C4923029F04A
:10026000933041F09130E9F417C02EE330E0EAEA30
:10027000F0E01BC0813041F0813018F0823089F409
:1002800006C0E8EEF0E005C0ECEEF0E002C0E6E00B
:10029000F1E0249130E009C022E130E0E8E9F0E04B
:1002A00004C020E030E0E0E0F0E0DA011196FC93D9
:1002B000EE93C9010895282F392FF9018091380153
:1002C000909139018617970718F4BC0120E035C0DA
:1002D00061157105D9F78091E8008E778093E80069
:1002E000F5CF8EB38823F1F18530C1F18091E8001C
:1002F00083FD36C08091E80082FD2AC08091E8002D
:1003000080FF1BC08091F2009091F30006C0219104
:100310002093F1006150704001966115710519F04C
:1003200088309105A0F321E08830910509F020E0A4
:100330008091E8008E778093E8006115710589F659
:10034000222379F605C08EB3882361F0853061F0F1
:100350008091E80082FFF7CF80E0089583E0089560
:1003600081E0089582E0089583E00895E82FF92F51
:1003700080913801909139018617970718F4BC01D4
:1003800020E037C061157105D9F78091E8008E77BC
:100390008093E800F5CF8EB3882309F43FC0853001
:1003A000C9F18091E80083FD37C08091E80082FDAB
:1003B0002BC08091E80080FF1CC08091F2009091DA
:1003C000F30007C024912093F100319661507040F2
:1003D00001966115710519F08830910598F321E0B7
:1003E0008830910509F020E08091E8008E778093B5
:1003F000E8006115710579F6222369F605C08EB310
:10040000882361F0853061F08091E80082FFF7CFAA
:1004100080E0089583E0089581E0089582E00895E2
:1004200083E00895982F2CC0292F2F702093E90086
:10043000981739F07091EC002091ED005091F00088
:1004400003C0242F762F50E021FF19C03091EB001C
:100450003E7F3093EB003091ED003D7F3093ED0017
:100460003091EB0031603093EB007093EC002093FF
:10047000ED005093F0002091EE0027FF08C09F5F31
:10048000973090F28F708093E90081E0089580E0CA
:100490000895EF92FF920F931F93CF93DF93162F40
:1004A000E82EE7017E01F92EE70100E02AC09881DD
:1004B000992329F16B81E981FA812C81892F8F7031
:1004C000873018F56295660F660F607C991F992733
:1004D000991F692B223010F096E001C092E028E0CD
:1004E00030E040E003C04F5F220F331F2E173F075D
:1004F000D0F34295407F492B95DF882331F00F5F81
:1005000025960117A0F281E001C080E0DF91CF9134
:100510001F910F91FF90EF9008958091320187FF16
:1005200011C003C08EB38823B1F08091E80082FF30
:10053000F9CF8091E8008B778093E80008958EB31F
:10054000882349F08091E80080FFF9CF8091E8008E
:100550008E778093E80008958091E4009091E50003
:1005600044E62091EC0020FF25C02091E80020FD0A
:1005700015C02EB32223A1F02530A1F02091EB006D
:1005800025FD12C02091E4003091E50028173907BD
:1005900041F3442359F04150C901E3CF80E008956D
:1005A00082E0089583E0089581E0089584E008954D
:1005B00080E008952091E80022FFDBCFF9CF0F9370
:1005C0001F93CF93DF934DD054D0C8EDD0E08881F6
:1005D0008F77888388818068888388818F7D8883EE
:1005E000E7EDF0E080818068808319BC1EBA10922C
:1005F0002E011092300110922F0100EE10E0F80150
:1006000080818B7F808388818160888380E060E047
:1006100042E008DFE1EEF0E080818E7F8083E2EE51
:10062000F0E0808181608083808188608083F80130
:1006300080818E7F8083888180618883DF91CF91E4
:100640001F910F910895E8EDF0E080818F7E808307
:10065000E7EDF0E080818160808381E0809331016B
:10066000AECFE8EDF0E080818C7F80831092E200D5
:1006700008951092DA001092E10008951F920F92EF
:100680000FB60F920BB60F9211242F933F934F93F7
:100690005F936F937F938F939F93AF93BF93EF93EA
:1006A000FF938091E10082FF0AC08091E20082FF07
:1006B00006C08091E1008B7F8093E10003D280919E
:1006C000DA0080FF1BC08091D80080FF17C08091A6
:1006D000DA008E7F8093DA008091D90080FF0BC012
:1006E0008CE089BD8EE089BD09B400FEFDCF81E0BC
:1006F0008EBBE8D103C019BC1EBAE4D18091E100E1
:1007000080FF17C08091E20080FF13C08091E2005B
:100710008E7F8093E2008091E20080618093E2000E
:100720008091D80080628093D80019BC85E08EBB90
:10073000C9D18091E10084FF2CC08091E20084FF48
:1007400028C08CE089BD8EE089BD09B400FEFDCFD4
:100750008091D8008F7D8093D8008091E1008F7EBA
:100760008093E1008091E2008F7E8093E20080918F
:10077000E20081608093E20080912E01882321F4C1
:100780008091E30087FF02C084E001C081E08EBB5E
:1007900099D18091E10083FF21C08091E20083FF25
:1007A0001DC08091E100877F8093E10082E08EBBD5
:1007B00010922E018091E1008E7F8093E100809164
:1007C000E2008E7F8093E2008091E200806180935E
:1007D000E20080E060E042E025DE74D1FF91EF911D
:1007E000BF91AF919F918F917F916F915F914F9149
:1007F0003F912F910F900BBE0F900FBE0F901F9047
:1008000018951F93DF93CF93CDB7DEB7AC970FB694
:10081000F894DEBF0FBECDBFE2E3F1E08091F100BE
:10082000819321E0EA33F207C9F715DD8091E800F2
:1008300083FF30C18091320120913301253009F4CA
:1008400084C0263040F42130A1F1213070F02330F3
:1008500009F020C12EC0283009F4EFC0293009F476
:10086000FEC0263009F016C192C0803821F08238CF
:1008700009F010C108C080912F0190913001992397
:1008800071F082600CC0809136018F708093E90016
:100890009091EB0081E095FF80E01092E90090914B
:1008A000E800977F9093E8008093F1001092F100A8
:1008B000CFC0882319F0823009F0ECC090E08F712E
:1008C0009070009729F08230910509F0E3C00BC0C9
:1008D00080913401813009F0DDC0233009F080E0DF
:1008E000809330012CC080913401882341F5209100
:1008F00036012F7009F4CEC02093E9008091EB00FF
:1009000080FF1DC080913301833021F48091EB0082
:10091000806213C08091EB0080618093EB0081E0E6
:1009200090E002C0880F991F2A95E2F78093EA00B1
:100930001092EA008091EB0088608093EB001092A7
:10094000E9008091E800877F86C0882309F0A2C073
:10095000109134011F778091E3008078812B809380
:10096000E3008091E800877F8093E800D6DD8091E6
:10097000E80080FFFCCF8091E30080688093E30073
:10098000112311F083E001C082E08EBB83C0805848
:10099000823008F07FC0809134019091350123E0CE
:1009A0008C3D920791F583E08C838AE28B835FB75D
:1009B000F894DE01159680E090E04EE061E2E42FCD
:1009C000F0E060935700E49180FF03C0E295EF7080
:1009D0004F5FEF702E2F30E0EA3018F0295C3F4F68
:1009E00002C0205D3F4F2D933D93019684319105C8
:1009F00031F75FBF8091E800877F8093E800CE01E8
:100A000003966AE270E057DC12C060913601AE01D5
:100A10004F5F5F4F23DCBC01009709F43BC080911E
:100A2000E800877F8093E80089819A819FDC80912C
:100A3000E8008B778093E8002DC0803859F58091CD
:100A4000E800877F8093E80080912E018093F10079
:100A50008091E8008E778093E8005FDD1BC08823DB
:100A6000C9F4909134019230A8F48091E800877F16
:100A70008093E80090932E0150DD80912E01882311
:100A800021F48091E30087FF02C084E001C081E08F
:100A90008EBBDEDB8091E80083FF0AC08091E80016
:100AA000877F8093E8008091EB0080628093EB0069
:100AB000AC960FB6F894DEBF0FBECDBFCF91DF91DD
:100AC0001F91089508951F938EB38823A9F08091F4
:100AD000E9008F709091EC0090FF02C010E801C017
:100AE00010E0182B1092E9008091E80083FF01C00C
:100AF00088DE1F701093E9001F910895CF93DF9354
:100B0000EC018091E80083FFA2C0888190E02091F1
:100B10003601309137012817390709F098C08091C4
:100B20003301813269F0823220F4803209F08FC0C3
:100B30003CC0823209F46AC0833209F088C079C0AF
:100B400080913201813A09F082C08091E800877F6C
:100B50008093E8008091E80080FFFCCF8C899D891C
:100B6000AE89BF898093F100292F3A2F4B2F55274B
:100B70002093F1009D01442755272093F1008B2FEE
:100B80009927AA27BB278093F100888D8093F100D5
:100B9000898D8093F1008A8D8093F1008091E80027
:100BA0008E778093E800B9DC52C0809132018132A7
:100BB00009F04DC08091E800877F8093E80004C071
:100BC0008EB3882309F443C08091E80082FFF8CFF8
:100BD0003091F1002091F1009091F1008091F100AD
:100BE0003C8B2D8B9E8B8F8B8091F100888F809119
:100BF000F100898F8091F1008A8F8091E8008B77D6
:100C00008093E8008ADCCE0127D121C08091320197
:100C10008132E9F48091E800877F8093E8007DDCF1
:100C20008091340190913501998B888BCE0114D13C
:100C30000EC080913201813251F48091E800877FAB
:100C40008093E8006ADCCE016091340105D1DF9128
:100C5000CF910895CF93DF93EC014096FC018BE098
:100C6000DF011D928A95E9F782E08C83898783E012
:100C70008E87CE01019661E00CDC882359F0CE010D
:100C8000069661E006DC882329F0CE010B9661E030
:100C900000DC01C080E0DF91CF910895DF93CF9316
:100CA0000F92CDB7DEB7FC018EB38430F9F42489FE
:100CB0003589468957892115310541055105B1F01E
:100CC00081818F708093E9008091E80085FD0AC0E2
:100CD0008091E8008E778093E80069833DDC69812C
:100CE000882329F46093F10080E001C082E00F9036
:100CF000CF91DF910895282FFB0184859585622F80
:100D0000CDDF882319F02FEF3FEF02C020E030E065
:100D1000C9010895FC018EB3843029F524893589F1
:100D2000468957892115310541055105E1F0818139
:100D30008F708093E9008091F2009091F30000970A
:100D4000A1F09091E8008091E8008E778093E80010
:100D500095FD0DC001DC882359F49091E8009E7741
:100D60009093E800089582E0089580E0089580E07F
:100D700008952EB3243099F4FC01248935894689DD
:100D80005789211531054105510549F021812F7001
:100D90002093E9002091E80020FF01C0BBCF089517
:100DA000FC018EB3843049F52489358946895789F9
:100DB000211531054105510501F186818F70809320
:100DC000E9008091E80082FF18C08091F2009091C4
:100DD000F300009721F02091F10030E002C02FEFE6
:100DE0003FEF8091F2009091F300009741F48091E1
:100DF000E8008B778093E80002C02FEF3FEFC90136
:100E00000895CF93DF93EC0107C08EB3882359F088
:100E10008C859D85AEDF57DE8C859D85C1DF9C016D
:100E200097FDF3CF02C02EEF3FEFC901DF91CF91C5
:100E30000895FB012EE0DB011D922A95E9F723E0DE
:100E400023832BE736E03187208721E037E03387A3
:100E500022879587848708950895CF93DF93EC01C7
:100E60003B8130FF36C036FF09C03F7B3B838E811C
:100E70009F8101969F838E832A8129C032FF0FC0F4
:100E8000E881F9818081992787FD9095009719F471
:100E900030623B831EC03196F983E88311C0EA8536
:100EA000FB85CE01099597FF0BC02B813FEF8F3F4C
:100EB000930711F480E101C080E2822B8B8309C08B
:100EC0002E813F812F5F3F4F3F832E83282F30E0BD
:100ED00002C02FEF3FEFC901DF91CF910895F89441
:020EE000FFCF42
:100EE20000831000000104100000018208000001CC
:0C0EF200000000000000000000000000F4
:00000001FF
