:020000021000EC
:10E000004BC0000078C0000076C0000074C0000063
:10E0100072C0000070C000006EC000006CC0000044
:10E020006AC0000068C0000017C2000064C00000A1
:10E0300062C0000060C000005EC000005CC0000064
:10E040005AC0000058C0000056C0000054C0000074
:10E0500052C0000050C000004EC000004CC0000084
:10E060004AC0000048C0000046C0000044C0000094
:10E0700042C0000040C000003EC000003CC00000A4
:10E080003AC0000038C0000036C0000034C00000B4
:10E0900032C0000030C0000011241FBECFEFD0E21C
:10E0A000DEBFCDBF04B603FE0FC080915401909136
:10E0B00055012CED8234920739F4109255011092DB
:10E0C0005401E0E0F0E0099511E0A0E0B1E0E2E108
:10E0D000F8EE01E00BBF02C007900D92AA34B10721
:10E0E000D9F711E0AAE4B1E001C01D92A435B1074F
:10E0F000E1F702D08CC384CF84B7877F84BF88E1E7
:10E100000FB6F89480936000109260000FBE81E01B
:10E1100085BF82E085BF85D1789401C05DD38091B1
:10E1200000018823D9F78091E00081608093E000AE
:10E1300082E49CED90935501809354012CE088E19A
:10E1400090E00FB6F894A895809360000FBE2093DE
:10E150006000FFCF81E061EC42E3F0C00F931F93BA
:10E1600080914C018F77813209F06CC080914D0114
:10E17000893009F067C08091E800877F8093E800CC
:10E180008091E80082FFFCCF8091F100282F8091E0
:10E19000F100382F40E050E0B42FA32F922F8827B2
:10E1A000EFEF2F3F3E0719F41092000145C023E026
:10E1B000FC01A0935B0020935700E89507B600FC94
:10E1C000FDCF10E001E02091F2003091F300211525
:10E1D000310549F42091E8002B772093E800209145
:10E1E000E80022FFFCCF2091F100622F2091F10086
:10E1F000722F212F30E0220F331F40E050E0280F14
:10E20000391F4A1F5B1F0B01F90140935B0000930C
:10E210005700E89511241F5F1038A9F625E0FC018E
:10E22000A0935B0020935700E89507B600FCFDCF54
:10E2300081E180935700E8958091E8008B77809387
:10E24000E80090D01F910F910895913049F09230DD
:10E2500061F0913279F429E030E08AE391E00EC078
:10E2600022E130E086E191E009C022E230E088E27C
:10E2700091E004C025E130E081E091E0FA01918372
:10E280008083C9010895282F392FF9018091520107
:10E29000909153018617970718F4BC0120E035C010
:10E2A00061157105D9F78091E8008E778093E800B9
:10E2B000F5CF8EB38823F1F18530C1F18091E8006C
:10E2C00083FD36C08091E80082FD2AC08091E8007D
:10E2D00080FF1BC08091F2009091F30006C0219155
:10E2E0002093F1006150704001966115710519F09D
:10E2F00088309105A0F321E08830910509F020E0F5
:10E300008091E8008E778093E8006115710589F6A9
:10E31000222379F605C08EB3882361F0853061F041
:10E320008091E80082FFF7CF80E0089583E00895B0
:10E3300081E0089582E0089583E008958F708093CE
:10E34000E900EBEEF0E0808181608083EDEEF0E0AB
:10E3500010826093EC0040838091EE00881F882734
:10E36000881F089580914C0187FF11C003C08EB3B0
:10E370008823B1F08091E80082FFF9CF8091E80016
:10E380008B778093E80008958EB3882349F08091BD
:10E39000E80080FFF9CF8091E8008E778093E80055
:10E3A00008950F931F93CF93DF9349D050D0C8EDBA
:10E3B000D0E088818F77888388818068888388818E
:10E3C0008F7D8883E7EDF0E080818068808319BCD1
:10E3D0001EBA10924A0100EE10E0F80180818B7F96
:10E3E000808388818160888380E060E042E0A6DFEE
:10E3F000E1EEF0E080818E7F8083E2EEF0E08081CC
:10E4000081608083808188608083F80180818E7F35
:10E410008083888180618883DF91CF911F910F91E4
:10E420000895E8EDF0E080818F7E8083E7EDF0E0F5
:10E4300080818160808381E080934B01B2CFE8EDE1
:10E44000F0E080818C7F80831092E200089510922A
:10E45000DA001092E10008951F920F920FB60F920A
:10E460000BB60F9211242F933F934F935F936F93AB
:10E470007F938F939F93AF93BF93EF93FF9380917D
:10E48000DA0080FF1BC08091D80080FF17C0809108
:10E49000DA008E7F8093DA008091D90080FF0BC074
:10E4A0008CE089BD8EE089BD09B400FEFDCF81E01E
:10E4B0008EBB91D103C019BC1EBA8DD18091E100F1
:10E4C00080FF17C08091E20080FF13C08091E200BE
:10E4D0008E7F8093E2008091E20080618093E20071
:10E4E0008091D80080628093D80019BC85E08EBBF3
:10E4F00072D18091E10084FF2CC08091E20084FF02
:10E5000028C08CE089BD8EE089BD09B400FEFDCF36
:10E510008091D8008F7D8093D8008091E1008F7E1C
:10E520008093E1008091E2008F7E8093E2008091F1
:10E53000E20081608093E20080914A01882321F407
:10E540008091E30087FF02C084E001C081E08EBBC0
:10E5500042D18091E10083FF21C08091E20083FFDE
:10E560001DC08091E100877F8093E10082E08EBB37
:10E5700010924A018091E1008E7F8093E1008091AA
:10E58000E2008E7F8093E2008091E20080618093C0
:10E59000E20080E060E042E0D1DE1DD1FF91EF912A
:10E5A000BF91AF919F918F917F916F915F914F91AB
:10E5B0003F912F910F900BBE0F900FBE0F901F90A9
:10E5C00018951F93DF93CF9300D0CDB7DEB7ECE45F
:10E5D000F1E08091F100819381E0E435F807C9F71B
:10E5E000BDDD8091E80083FFE2C080914C019091F5
:10E5F0004D01953009F46CC0963040F4913069F1CA
:10E60000913070F0933009F0D2C027C0983009F4EF
:10E61000A1C0993009F4B0C0963009F0C8C07AC0E2
:10E62000803881F0823809F0C2C0809150018F702B
:10E630008093E9009091EB0081E095FF80E01092DB
:10E64000E90001C080E09091E800977F9093E80096
:10E650008093F1001092F10088C0882319F0823075
:10E6600009F0A5C08F71823009F0A1C080914E01E0
:10E67000882341F5209150012F7009F498C0209310
:10E68000E9008091EB0080FF1DC080914D01833037
:10E6900021F48091EB00806213C08091EB008061D7
:10E6A0008093EB0081E090E002C0880F991F2A95CB
:10E6B000E2F78093EA001092EA008091EB00886014
:10E6C0008093EB001092E9008091E800877F50C0B2
:10E6D000882309F06CC010914E011F778091E300F0
:10E6E0008078812B8093E3008091E800877F80937E
:10E6F000E80038DE8091E80080FFFCCF8091E300E5
:10E7000080688093E300112311F083E001C082E070
:10E710008EBB4DC08058823008F049C080914E01B8
:10E7200090914F0160915001AE014F5F5F4F8DDDC1
:10E73000BC01009709F43BC08091E800877F80937B
:10E74000E80089819A819FDD8091E8008B77809332
:10E75000E8002DC0803859F58091E800877F8093CC
:10E76000E80080914A018093F1008091E8008E7763
:10E770008093E800F7DD1BC08823C9F490914E0117
:10E780009230A8F48091E800877F8093E80090930E
:10E790004A01E8DD80914A01882321F48091E30059
:10E7A00087FF02C084E001C081E08EBBD3DC809192
:10E7B000E80083FF0AC08091E800877F8093E8002B
:10E7C0008091EB0080628093EB000F900F90CF91CF
:10E7D000DF911F91089508951F938EB38823A9F0A8
:10E7E0008091E9008F709091EC0090FF02C010E8DA
:10E7F00001C010E0182B1092E9008091E80083FF1F
:10E8000001C0DFDE1F701093E9001F910895F89496
:02E81000FFCF38
:10E812000106DCFF09FBA1010902150025FF7508AD
:10E822009602019102C01201100100000008EB03E0
:10E83200672001000000000109022200010100809E
:10E842003209040000010300000009211101000146
:0AE8520022150007058103400005B0
:040000031000E00009
:00000001FF
