:10000000BFC00000DBC00000D9C00000D7C00000A6
:10001000D5C00000D3C00000D1C00000CFC0000098
:10002000CDC00000CBC00000EFC40000C7C000007E
:10003000C5C00000C3C00000C1C00000BFC00000B8
:10004000BDC00000BBC00000B9C00000B7C00000C8
:10005000B5C00000B3C00000B1C00000AFC00000D8
:10006000ADC00000ABC00000A9C00000A7C00000E8
:10007000A5C00000A3C00000A1C000009FC00000F8
:100080009DC000009BC0000099C0000097C0000008
:1000900095C0000093C0000005010906A1010507F5
:1000A00019E029E7150025017501950881029501E0
:1000B0007508810105081901290595057501910249
:1000C000950175039101150025FF0507190029FF0A
:1000D000950675088100C01201100100000008EBB0
:1000E00003422001000102DC01090222000101009B
:1000F000C0320904000001030101000921110100BF
:1001000001223F000705810308000504030904429A
:10011000034400650061006E002000430061006D33
:1001200000650072006100200061006E0064002024
:1001300000440065006E00760065007200200047F4
:100140000069006E00670065007200690063006866
:100150000000002A034D00610067006E0065007416
:100160000069006300200043006100720064002009
:10017000005200650061006400650072000000002C
:1001800011241FBECFEFD0E2DEBFCDBF11E0A0E053
:10019000B1E0E8E0F3E100E00BBF02C007900D9290
:1001A000A831B107D9F71DE0A8E1B1E001C01D9267
:1001B000A534B107E1F78DD00C94820921CF84B723
:1001C000877F84BF88E10FB6F89480936000109217
:1001D00060000FBE90E080E80FB6F8948093610055
:1001E000909361000FBE87B1807887B988B18F671F
:1001F00088B9EFC39F92AF92BF92CF92DF92EF92F6
:10020000FF920F931F93DF93CF93CDB7DEB727975E
:100210000FB6F894DEBF0FBECDBFDE011196E2E14E
:10022000F1E086E001900D928150E1F726B1209532
:100230002F7790E06E010894C11CD11C88E0A82E95
:1002400084E0B82E26C0F80131818081922F982356
:1002500091F0892181F0EA9CC001EB9C900DFA9C01
:10026000900D1124885E9E4F322361E009F460E016
:100270002F83F7D02F810894E11CF11C0E5F1F4FD4
:10028000F3E0EF16F104F9F686B18095922F282F4E
:100290002F7726FF06C08601EE24FF24922E992692
:1002A000D2CF88E191E090931101809310012796BD
:1002B0000FB6F894DEBF0FBECDBFCF91DF911F9177
:1002C0000F91FF90EF90DF90CF90BF90AF909F90F5
:1002D000089575DF88E191E0ABD080E295E0A8D089
:1002E00088E299E0A5D0789486B180958F7786FFD3
:1002F00001C080DF80E091E01DD7ABD5F5CF80E075
:1003000091E0FFD6E2EEF0E0808184608083089582
:1003100080E091E0B9C580910E0190910F010097A6
:1003200029F0019790930F0180930E010895EF92A9
:10033000FF920F931F93CF93DF93E22EE7017E018D
:10034000F32EE7018091300D91E089278093300DE5
:10035000882341F48091100190911101EDE08033E8
:100360009E0711F41A8218C0FC01E050FC4F208156
:1003700031812115310549F428E22A83885F9B4F9A
:10038000909311018093100107C0A3D0882311F02E
:100390008EE101C087E28A8388E090E0F8019183D2
:1003A000808380E0DF91CF911F910F91FF90EF90BC
:1003B00008950895933089F0943028F4913049F1EC
:1003C000923061F505C09132D1F0923239F51CC0FE
:1003D00022E230E0E9EEF0E025C0813041F08130EA
:1003E00018F08230D9F406C0EBE0F1E005C0EFE090
:1003F000F1E002C0E3E5F1E0249130E013C029E030
:1004000030E0EBEFF0E00EC02FE330E0E8E9F0E0A1
:1004100009C022E130E0E7EDF0E004C020E030E088
:10042000E0E0F0E0DA011196FC93EE93C901089543
:10043000FC01E050FC4F11821082FC01EE5FFB4F8B
:1004400080839183FC01EC5FFB4F21E02083FC0162
:10045000EB5FFB4F80839183895F9B4FFC0120837F
:100460000895662369F0FC01EE5FFB4F0190F08177
:10047000E02DDC01AC5FBB4F20813C91232B20831E
:10048000FC01E050FC4F208131812F5F3F4F3183D1
:100490002083FC01EC5FFB4F20812038B9F4FC0184
:1004A000EE5FFB4F20813181AC0141505C4F24173E
:1004B000350729F02F5F3F4F3183208302C091839E
:1004C00080838C5F9B4F21E0FC0101C0220F2083C1
:1004D00008959C01FC01EB5FFB4F0190F081E02D42
:1004E0004081DC01A95FBB4F9C91542F592381E0CF
:1004F00009F480E0909594239083F901E050FC4F3B
:10050000408151814150504051834083F901E95F5E
:10051000FB4F90819038C1F4F901EB5FFB4F4081B4
:100520005181B90161507C4F4617570729F04F5F41
:100530005F4F5183408302C031832083295F3B4F4B
:1005400091E0F90190830895990F908308958F9217
:100550009F92BF92CF92DF92EF92FF920F931F93E1
:10056000DF93CF930F92CDB7DEB7E82E4B018A0110
:100570009983B8D1B82E99818823C9F5F92E011530
:10058000110539F0F80120813181821A930AE20EB7
:10059000F31ECC24DD2426C08091E80085FD17C021
:1005A0008091E8008E778093E80053D401151105FF
:1005B00051F0F801808191818C0D9D1D9183808384
:1005C00025E0B22E14C08ED1882361F00FC0F70150
:1005D00081917F018093F10008948108910808942B
:1005E000C11CD11C81149104B9F601C0B82E8B2D09
:1005F0000F90CF91DF911F910F91FF90EF90DF90BF
:10060000CF90BF909F908F900895282F392FF90198
:100610008091430D9091440D8617970718F4BC0103
:1006200020E035C061157105D9F78091E8008E771B
:100630008093E800F5CF8EB38823F1F18530C1F1C6
:100640008091E80083FD36C08091E80082FD2AC0D9
:100650008091E80080FF1BC08091F2009091F30030
:1006600006C021912093F100615070400196611500
:10067000710519F088309105A0F321E088309105CB
:1006800009F020E08091E8008E778093E800611502
:10069000710589F6222379F605C08EB3882361F0AF
:1006A000853061F08091E80082FFF7CF80E0089507
:1006B00083E0089581E0089582E0089583E008953D
:1006C0006115710529F51FC02EB32223A1F1253034
:1006D00071F12091E80023FD2CC02091E80022FF59
:1006E000F3CFE82FF92F07C08091F1008193CF015C
:1006F0006150704041F0CF012091F2003091F30041
:100700002115310589F72091E8002B772093E80027
:1007100061157105C9F605C08EB3882361F0853077
:1007200061F08091E80080FFF7CF80E0089583E0DA
:10073000089581E0089582E0089583E00895E82F08
:10074000F92F8091430D9091440D8617970718F467
:10075000BC0120E037C061157105D9F78091E80030
:100760008E778093E800F5CF8EB3882309F43FC0DD
:100770008530C9F18091E80083FD37C08091E800A1
:1007800082FD2BC08091E80080FF1CC08091F200A8
:100790009091F30007C024912093F10031966150AD
:1007A000704001966115710519F08830910598F334
:1007B00021E08830910509F020E08091E8008E77F3
:1007C0008093E8006115710579F6222369F605C06A
:1007D0008EB3882361F0853061F08091E80082FF5C
:1007E000F7CF80E0089583E0089581E0089582E0E6
:1007F000089583E008958F708093E900EBEEF0E0B8
:10080000808181608083EDEEF0E010826093EC00E7
:1008100040838091EE00881F8827881F0895EF92FB
:10082000FF920F931F93CF93DF93162FE82EE701CC
:100830007E01F92EE70100E02AC09881992329F171
:100840006B81E981FA812C81892F8F70873018F5AF
:100850006295660F660F607C991F9927991F692B17
:10086000223010F096E001C092E028E030E040E055
:1008700003C04F5F220F331F2E173F07D0F342955F
:10088000407F492BB8DF882331F00F5F2596011791
:10089000A0F281E001C080E0DF91CF911F910F9124
:1008A000FF90EF90089580913D0D87FF11C003C028
:1008B0008EB38823B1F08091E80082FFF9CF809158
:1008C000E8008B778093E80008958EB3882349F081
:1008D0008091E80080FFF9CF8091E8008E778093C7
:1008E000E80008958091E4009091E50044E62091AD
:1008F000EC0020FF25C02091E80020FD15C02EB39C
:100900002223A1F02530A1F02091EB0025FD12C09B
:100910002091E4003091E5002817390741F3442382
:1009200059F04150C901E3CF80E0089582E0089575
:1009300083E0089581E0089584E0089580E00895BB
:100940002091E80022FFDBCFF9CF0F931F93CF93C5
:10095000DF934DD054D0C8EDD0E088818F77888365
:1009600088818068888388818F7D8883E7EDF0E0C7
:1009700080818068808319BC1EBA1092390D109254
:100980003B0D10923A0D00EE10E0F80180818B7F54
:10099000808388818160888380E060E042E02BDF93
:1009A000E1EEF0E080818E7F8083E2EEF0E08081F6
:1009B00081608083808188608083F80180818E7F60
:1009C0008083888180618883DF91CF911F910F910F
:1009D0000895E8EDF0E080818F7E8083E7EDF0E020
:1009E00080818160808381E080933C0DAECFE8ED13
:1009F000F0E080818C7F80831092E2000895109255
:100A0000DA001092E10008951F920F920FB60F9234
:100A10000BB60F9211242F933F934F935F936F93D5
:100A20007F938F939F93AF93BF93EF93FF938091A7
:100A3000E10082FF0AC08091E20082FF06C080913F
:100A4000E1008B7F8093E10066DC8091DA0080FF1B
:100A50001BC08091D80080FF17C08091DA008E7F84
:100A60008093DA008091D90080FF0BC084E189BDBA
:100A700086E189BD09B400FEFDCF81E08EBBE8D1DF
:100A800003C019BC1EBAE4D18091E10080FF17C0F9
:100A90008091E20080FF13C08091E2008E7F8093FE
:100AA000E2008091E20080618093E2008091D800B2
:100AB00080628093D80019BC85E08EBBC9D180913B
:100AC000E10084FF2CC08091E20084FF28C084E113
:100AD00089BD86E189BD09B400FEFDCF8091D800B3
:100AE0008F7D8093D8008091E1008F7E8093E1001C
:100AF0008091E2008F7E8093E2008091E20081602D
:100B00008093E2008091390D882321F48091E300E5
:100B100087FF02C084E001C081E08EBB99D1809143
:100B2000E10083FF21C08091E20083FF1DC080911E
:100B3000E100877F8093E10082E08EBB1092390D47
:100B40008091E1008E7F8093E1008091E2008E7FB2
:100B50008093E2008091E20080618093E20080E077
:100B600060E042E048DE74D1FF91EF91BF91AF9118
:100B70009F918F917F916F915F914F913F912F91B5
:100B80000F900BBE0F900FBE0F901F9018951F93E4
:100B9000DF93CF93CDB7DEB7AC970FB6F894DEBF37
:100BA0000FBECDBFEDE3FDE08091F10081932DE01C
:100BB000E534F207C9F7ACDB8091E80083FF30C170
:100BC00080913D0D20913E0D253009F484C02630E2
:100BD00040F42130A1F1213070F0233009F020C120
:100BE0002EC0283009F4EFC0293009F4FEC02630A9
:100BF00009F016C192C0803821F0823809F010C186
:100C000008C080913A0D90913B0D992371F082605C
:100C10000CC08091410D8F708093E9009091EB00A2
:100C200081E095FF80E01092E9009091E800977FC5
:100C30009093E8008093F1001092F100CFC08823D8
:100C400019F0823009F0ECC090E08F71907000973D
:100C500029F08230910509F0E3C00BC080913F0D6F
:100C6000813009F0DDC0233009F080E080933B0D36
:100C70002CC080913F0D882341F52091410D2F70AC
:100C800009F4CEC02093E9008091EB0080FF1DC0E5
:100C900080913E0D833021F48091EB00806213C07F
:100CA0008091EB0080618093EB0081E090E002C0D6
:100CB000880F991F2A95E2F78093EA001092EA00C4
:100CC0008091EB0088608093EB001092E9008091A6
:100CD000E800877F86C0882309F0A2C010913F0DED
:100CE0001F778091E3008078812B8093E3008091CF
:100CF000E800877F8093E800D6DD8091E80080FFE0
:100D0000FCCF8091E30080688093E300112311F011
:100D100083E001C082E08EBB83C08058823008F03F
:100D20007FC080913F0D9091400D23E08C3D920754
:100D300091F583E08C838AE28B835FB7F894DE01C0
:100D4000159680E090E04EE061E2E42FF0E06093E1
:100D50005700E49180FF03C0E295EF704F5FEF70A2
:100D60002E2F30E0EA3018F0295C3F4F02C0205DA2
:100D70003F4F2D933D9301968431910531F75FBF2D
:100D80008091E800877F8093E800CE0103966AE2B5
:100D900070E03BDC12C06091410DAE014F5F5F4FD0
:100DA00009DBBC01009709F43BC08091E800877F14
:100DB0008093E80089819A81C2DC8091E8008B777A
:100DC0008093E8002DC0803859F58091E800877F36
:100DD0008093E8008091390D8093F1008091E800C4
:100DE0008E778093E8005FDD1BC08823C9F4909163
:100DF0003F0D9230A8F48091E800877F8093E8004F
:100E00009093390D50DD8091390D882321F4809124
:100E1000E30087FF02C084E001C081E08EBB6FDA8F
:100E20008091E80083FF0AC08091E800877F80936B
:100E3000E8008091EB0080628093EB00AC960FB6E7
:100E4000F894DEBF0FBECDBFCF91DF911F91089503
:100E500008951F938EB38823A9F08091E9008F70C5
:100E60009091EC0090FF02C010E801C010E0182B38
:100E70001092E9008091E80083FF01C088DE1F70B6
:100E80001093E9001F9108956F927F928F929F9225
:100E9000AF92BF92CF92DF92EF92FF920F931F9388
:100EA000DF93CF9300D00F92CDB7DEB77C016DB644
:100EB0007EB68091E80083FF0DC1F701808190E04C
:100EC0002091410D3091420D2817390709F002C1D8
:100ED00080913E0D833009F4A4C0843030F4813019
:100EE00071F0823009F0F6C0D9C08A3009F4BEC072
:100EF0008B3009F4A7C0893009F0ECC04CC0809158
:100F00003D0D813A09F0E6C0CDB6DEB69DB68D2C1A
:100F10001B821A8280913F0D0091400D8983F70159
:100F20004085C41AD1080FB6F894DEBE0FBECDBE00
:100F30000894C11CD11CBC2CAD2CC60160E070E033
:100F400050E0D9D1402F4150C701BE016F5F7F4FA4
:100F500096018E010E5F1F4FEAD9F7012681378176
:100F60002115310529F04085C901B60150E0BAD1FB
:100F70001092E9008091E800877F8093E8006A8101
:100F80007B818B2D9A2D41DB8091E8008B778093BC
:100F9000E80094013EC080913D0D813209F09AC075
:100FA000CDB6DEB6BDB69D2C0091430D1091440D1B
:100FB000A0903F0D8090400D8DB79EB7801B910B88
:100FC0000FB6F8949EBF0FBE8DBFCDB6DEB60894A7
:100FD000C11CD11C8091E800877F8093E800C60186
:100FE000B8016EDB8091E8008E778093E80081E0A5
:100FF00090E0AA2011F480E090E0482D4150960145
:10100000280F391F081B190BC7016A2DD2D93B2D98
:10101000292D832F922F0FB6F8949EBF0FBE8DBF40
:1010200059C080913D0D813A09F054C08091E8008B
:10103000877F8093E8008091E80080FFFCCFF70174
:10104000818540C080913D0D813209F043C080917F
:10105000E800877F8093E80026DC90913F0D81E0D7
:10106000992309F480E0F701818734C080913D0D18
:10107000813281F58091E800877F8093E80013DC5E
:1010800080913F0D9091400D807036E09695879548
:101090003A95E1F7F701958784871CC080913D0D53
:1010A000813AC1F48091E800877F8093E8008091C5
:1010B000E80080FFFCCFF70184859585969587959C
:1010C000969587958093F1008091E8008E778093C4
:1010D000E800E9DB0FB6F8947EBE0FBE6DBE0F9040
:1010E0000F900F90CF91DF911F910F91FF90EF9094
:1010F000DF90CF90BF90AF909F908F907F906F9038
:101100000895CF93DF93FC010996DC0187E0ED01A0
:1011100019928A95E9F781E0818784EF91E09587BC
:10112000848783E08483CF01019661E078DBDF91DF
:10113000CF9108955F926F927F928F929F92AF921C
:10114000BF92CF92DF92EF92FF920F931F93DF93A4
:10115000CF9300D000D0CDB7DEB77C016DB67EB6A0
:101160008EB3843009F098C08091E4009091E5003E
:10117000F701228533852817390709F48DC081814D
:101180008F708093E9008091E80085FF85C08DB65F
:10119000572C4085CDB6DEB6C41AD1080FB6F894E8
:1011A000DEBE0FBECDBE0DB71EB70F5F1F4FB02EF8
:1011B000A12E19821B821A82C80160E070E050E003
:1011C0009AD0C701BE016F5F7F4F40E098018E014A
:1011D0000E5F1F4FACD8982EF70184859585009738
:1011E00059F081E090E0268537852115310511F011
:1011F00080E090E06C0102C0CC24DD24F701068180
:10120000178101151105A1F04A815B818B2D9A2D63
:10121000B8015BD021E0009709F420E0F701408598
:10122000C8016B2D7A2D50E02C835CD02C8101C03D
:1012300020E08A819B81009709F1992029F42223DB
:1012400019F4C114D104D1F0F701848595859787ED
:10125000868781818F708093E9008981882311F0CE
:101260008093F1006A817B818B2D9A2D40E050E0C4
:101270006ED98091E8008E778093E8008091E40039
:101280009091E500F70193878287882D952D0FB601
:10129000F8949EBF0FBE8DBF0FB6F8947EBE0FBEF2
:1012A0006DBE0F900F900F900F90CF91DF911F9117
:1012B0000F91FF90EF90DF90CF90BF90AF909F90F5
:1012C0008F907F906F905F900895FB01DC0104C0C8
:1012D0008D910190801921F441505040C8F7881B2E
:1012E000990B0895FB01DC0102C001900D92415061
:1012F0005040D8F70895DC0101C06D934150504033
:08130000E0F70895F894FFCF17
:10130800008108000001310D080000000000000005
:08131800300D01020408102051
:00000001FF
