:10000000A1C00000BCC00000BAC00000B8C0000021
:10001000B6C00000B4C00000B2C00000B0C0000014
:10002000AEC00000ACC0000015C40000A8C00000B5
:10003000A6C00000A4C00000A2C00000A0C0000034
:100040009EC000009CC000009AC0000098C0000044
:1000500096C0000094C0000092C0000090C0000054
:100060008EC000008CC000008AC0000088C0000064
:1000700086C0000084C0000082C0000080C0000074
:100080007EC000007CC000007AC0000078C0000084
:1000900076C0000074C00000050C0901A10109B080
:1000A00009B109B309B409B509B609B709CD09E21F
:1000B00009E909EA7501950B1500250181069505E9
:1000C0008101C01201100100000008EB036A200149
:1000D000000102000109022200010100C0320904EE
:1000E00000000103000000092111010001222B0082
:1000F000070581030800050403090418034400658B
:100100000061006E002000430061006D0065007218
:1001100000610000002C034C005500460041002007
:10012000004D006500640069006100200043006F1D
:10013000006E00740072006F006C006C006500724D
:100140000000000011241FBECFEFD0E2DEBFCDBF04
:1001500011E0A0E0B1E0E4E5F1E100E00BBF02C096
:1001600007900D92A031B107D9F711E0A0E1B1E0FD
:1001700001C01D92AE31B107E1F730D0E9C740CFE1
:100180009BB19F70982B9BB9089584B7877F84BFDC
:1001900088E10FB6F89480936000109260000FBE63
:1001A00090E080E80FB6F89480936100909361002E
:1001B0000FBE84B18F7184B98DB18F7C8DB985B13B
:1001C000806E85B98EB180638EB98AB1806F8AB92D
:1001D0008BB18F708BB96A98729A21C3D6DF80E198
:1001E000CFDF789480E091E0CBD659D5FBCF80EA81
:1001F000C7CF80E1C5CF80E091E0A9D69091E20021
:1002000094609093E20080FF02C080E601C080E924
:10021000B7CF80E091E05EC580910E0190910F0113
:10022000009729F0019790930F0180930E01089594
:100230000F931F93D801F90123B18CB1809590E001
:1002400080739070959587952095207E282B8CB192
:1002500091E082FD90E081818E7F892B8183922FB6
:1002600081E025FF80E0382F37953327379580814F
:100270008F77832B8083221F2227221F220F8181C9
:100280008D7F822B818381E094FF80E0282F220FD5
:10029000220F81818B7F822B818381E096FF80E01A
:1002A000282F2295220F207E80818F7D822B8083B4
:1002B00081E093FF80E0982F9295907F80818F7EE0
:1002C000892B808382E090E011969C938E9380E04E
:1002D0001F910F9108950895933089F0943028F478
:1002E000913049F1923061F505C09132D1F09232EE
:1002F00039F51CC022E230E0E5EDF0E025C08130A8
:1003000041F0813018F08230D9F406C0E7EFF0E018
:1003100005C0EBEFF0E002C0E5E1F1E0249130E050
:1003200013C029E030E0E7EEF0E00EC02BE230E051
:10033000E8E9F0E009C022E130E0E3ECF0E004C0DD
:1003400020E030E0E0E0F0E0DA011196FC93EE937B
:10035000C90108958F929F92BF92CF92DF92EF9240
:10036000FF920F931F93DF93CF930F92CDB7DEB71A
:10037000E82E4B018A019983DBD1B82E998188231D
:10038000C9F5F92E0115110539F0F80120813181E7
:10039000821A930AE20EF31ECC24DD2426C080913B
:1003A000E80085FD17C08091E8008E778093E80013
:1003B00076D40115110551F0F801808191818C0DE1
:1003C0009D1D9183808325E0B22E14C0B1D1882376
:1003D00061F00FC0F70181917F018093F1000894D3
:1003E000810891080894C11CD11C81149104B9F6AC
:1003F00001C0B82E8B2D0F90CF91DF911F910F91DF
:10040000FF90EF90DF90CF90BF909F908F900895D6
:10041000282F392FF90180911C0190911D01861719
:10042000970718F4BC0120E035C061157105D9F7B4
:100430008091E8008E778093E800F5CF8EB3882313
:10044000F1F18530C1F18091E80083FD36C08091E3
:10045000E80082FD2AC08091E80080FF1BC08091E7
:10046000F2009091F30006C021912093F1006150B9
:10047000704001966115710519F088309105A0F35F
:1004800021E08830910509F020E08091E8008E7726
:100490008093E8006115710589F6222379F605C07D
:1004A0008EB3882361F0853061F08091E80082FF8F
:1004B000F7CF80E0089583E0089581E0089582E019
:1004C000089583E008956115710529F51FC02EB3C5
:1004D0002223A1F1253071F12091E80023FD2CC0E9
:1004E0002091E80022FFF3CFE82FF92F07C0809179
:1004F000F1008193CF016150704041F0CF01209114
:10050000F2003091F3002115310589F72091E800C0
:100510002B772093E80061157105C9F605C08EB3ED
:10052000882361F0853061F08091E80080FFF7CF8B
:1005300080E0089583E0089581E0089582E00895C1
:1005400083E00895E82FF92F80911C0190911D01FF
:100550008617970718F4BC0120E037C061157105B4
:10056000D9F78091E8008E778093E800F5CF8EB3BD
:10057000882309F43FC08530C9F18091E80083FDEC
:1005800037C08091E80082FD2BC08091E80080FF99
:100590001CC08091F2009091F30007C02491209339
:1005A000F10031966150704001966115710519F0A6
:1005B0008830910598F321E08830910509F020E01A
:1005C0008091E8008E778093E8006115710579F6D7
:1005D000222369F605C08EB3882361F0853061F06F
:1005E0008091E80082FFF7CF80E0089583E00895CE
:1005F00081E0089582E0089583E00895982F2CC04B
:10060000292F2F702093E900981739F07091EC0092
:100610002091ED005091F00003C0242F762F50E080
:1006200021FF19C03091EB003E7F3093EB003091F9
:10063000ED003D7F3093ED003091EB003160309361
:10064000EB007093EC002093ED005093F0002091AC
:10065000EE0027FF08C09F5F973090F28F70809365
:10066000E90081E0089580E00895EF92FF920F93F2
:100670001F93CF93DF93162FE82EE7017E01F92E0B
:10068000E70100E02AC09881992329F16B81E98173
:10069000FA812C81892F8F70873018F56295660F4B
:1006A000660F607C991F9927991F692B223010F0E3
:1006B00096E001C092E028E030E040E003C04F5FE8
:1006C000220F331F2E173F07D0F34295407F492B4F
:1006D00095DF882331F00F5F25960117A0F281E0A6
:1006E00001C080E0DF91CF911F910F91FF90EF90BB
:1006F00008958091160187FF11C003C08EB388232F
:10070000B1F08091E80082FFF9CF8091E8008B770B
:100710008093E80008958EB3882349F08091E80023
:1007200080FFF9CF8091E8008E778093E8000895EC
:100730008091E4009091E50044E62091EC0020FFD8
:1007400025C02091E80020FD15C02EB32223A1F082
:100750002530A1F02091EB0025FD12C02091E4008E
:100760003091E5002817390741F3442359F04150EF
:10077000C901E3CF80E0089582E0089583E0089501
:1007800081E0089584E0089580E008952091E800D4
:1007900022FFDBCFF9CF0F931F93CF93DF934DD081
:1007A00054D0C8EDD0E088818F77888388818068B5
:1007B000888388818F7D8883E7EDF0E08081806881
:1007C000808319BC1EBA109212011092140110926B
:1007D000130100EE10E0F80180818B7F8083888117
:1007E0008160888380E060E042E008DFE1EEF0E0D5
:1007F00080818E7F8083E2EEF0E080818160808363
:10080000808188608083F80180818E7F80838881E9
:1008100080618883DF91CF911F910F910895E8ED5A
:10082000F0E080818F7E8083E7EDF0E08081816061
:10083000808381E080931501AECFE8EDF0E0808108
:100840008C7F80831092E20008951092DA0010925B
:10085000E10008951F920F920FB60F920BB60F9200
:1008600011242F933F934F935F936F937F938F93B5
:100870009F93AF93BF93EF93FF938091E10082FF2B
:100880000AC08091E20082FF06C08091E1008B7F68
:100890008093E100C1DC8091DA0080FF1BC0809171
:1008A000D80080FF17C08091DA008E7F8093DA0035
:1008B0008091D90080FF0BC08CE089BD8EE089BD9E
:1008C00009B400FEFDCF81E08EBB91DC03C019BCF2
:1008D0001EBA8FDC8091E10080FF17C08091E2009A
:1008E00080FF13C08091E2008E7F8093E2008091B0
:1008F000E20080618093E2008091D8008062809362
:10090000D80019BC85E08EBBC9D18091E10084FF7D
:100910002CC08091E20084FF28C08CE089BD8EE06D
:1009200089BD09B400FEFDCF8091D8008F7D8093F2
:10093000D8008091E1008F7E8093E1008091E200F9
:100940008F7E8093E2008091E20081608093E200DC
:1009500080911201882321F48091E30087FF02C077
:1009600084E001C081E08EBB99D18091E10083FFDA
:1009700021C08091E20083FF1DC08091E100877F4C
:100980008093E10082E08EBB109212018091E10021
:100990008E7F8093E1008091E2008E7F8093E20061
:1009A0008091E20080618093E20080E060E042E0BC
:1009B00025DE74D1FF91EF91BF91AF919F918F91FF
:1009C0007F916F915F914F913F912F910F900BBE4F
:1009D0000F900FBE0F901F9018951F93DF93CF932A
:1009E000CDB7DEB7AC970FB6F894DEBF0FBECDBF64
:1009F000E6E1F1E08091F100819321E0EE31F20730
:100A0000C9F707DC8091E80083FF30C180911601AF
:100A100020911701253009F484C0263040F421309C
:100A2000A1F1213070F0233009F020C12EC0283010
:100A300009F4EFC0293009F4FEC0263009F016C1D0
:100A400092C0803821F0823809F010C108C080912E
:100A5000130190911401992371F082600CC0809170
:100A60001A018F708093E9009091EB0081E095FF6F
:100A700080E01092E9009091E800977F9093E80061
:100A80008093F1001092F100CFC0882319F08230DA
:100A900009F0ECC090E08F719070009729F08230DF
:100AA000910509F0E3C00BC080911801813009F075
:100AB000DDC0233009F080E0809314012CC08091C8
:100AC0001801882341F520911A012F7009F4CEC036
:100AD0002093E9008091EB0080FF1DC080911701F9
:100AE000833021F48091EB00806213C08091EB0091
:100AF00080618093EB0081E090E002C0880F991F35
:100B00002A95E2F78093EA001092EA008091EB00C8
:100B100088608093EB001092E9008091E800877F65
:100B200086C0882309F0A2C0109118011F77809118
:100B3000E3008078812B8093E3008091E800877F39
:100B40008093E800D6DD8091E80080FFFCCF8091A3
:100B5000E30080688093E300112311F083E001C07B
:100B600082E08EBB83C08058823008F07FC08091C5
:100B700018019091190123E08C3D920791F583E0D3
:100B80008C838AE28B835FB7F894DE01159680E050
:100B900090E04EE061E2E42FF0E060935700E491D2
:100BA00080FF03C0E295EF704F5FEF702E2F30E0B3
:100BB000EA3018F0295C3F4F02C0205D3F4F2D9373
:100BC0003D9301968431910531F75FBF8091E80034
:100BD000877F8093E800CE0103966AE270E018DC1C
:100BE00012C060911A01AE014F5F5F4F75DBBC010F
:100BF000009709F43BC08091E800877F8093E8006C
:100C000089819A819FDC8091E8008B778093E8004E
:100C10002DC0803859F58091E800877F8093E800E7
:100C2000809112018093F1008091E8008E7780938B
:100C3000E8005FDD1BC08823C9F490911801923051
:100C4000A8F48091E800877F8093E80090931201D8
:100C500050DD80911201882321F48091E30087FF09
:100C600002C084E001C081E08EBBC5DA8091E8005B
:100C700083FF0AC08091E800877F8093E80080911D
:100C8000EB0080628093EB00AC960FB6F894DEBF69
:100C90000FBECDBFCF91DF911F91089508951F938F
:100CA0008EB38823A9F08091E9008F709091EC00B9
:100CB00090FF02C010E801C010E0182B1092E9006C
:100CC0008091E80083FF01C088DE1F701093E90067
:100CD0001F9108956F927F928F929F92AF92BF92D1
:100CE000CF92DF92EF92FF920F931F93DF93CF93F8
:100CF00000D00F92CDB7DEB77C016DB67EB6809185
:100D0000E80083FF0DC1F701808190E020911A0176
:100D100030911B012817390709F002C18091170192
:100D2000833009F4A4C0843030F4813071F0823013
:100D300009F0F6C0D9C08A3009F4BEC08B3009F47E
:100D4000A7C0893009F0ECC04CC080911601813AEF
:100D500009F0E6C0CDB6DEB69DB68D2C1B821A8298
:100D600080911801009119018983F7014085C41A07
:100D7000D1080FB6F894DEBE0FBECDBE0894C11CDC
:100D8000D11CBC2CAD2CC60160E070E050E0D9D184
:100D9000402F4150C701BE016F5F7F4F96018E010A
:100DA0000E5F1F4F45DAF701268137812115310586
:100DB00029F04085C901B60150E0BAD11092E9008E
:100DC0008091E800877F8093E8006A817B818B2D8A
:100DD0009A2D1EDB8091E8008B778093E8009401C8
:100DE0003EC080911601813209F09AC0CDB6DEB6C0
:100DF000BDB69D2C00911C0110911D01A090180101
:100E0000809019018DB79EB7801B910B0FB6F89497
:100E10009EBF0FBE8DBFCDB6DEB60894C11CD11CDF
:100E20008091E800877F8093E800C601B8014BDB22
:100E30008091E8008E778093E80081E090E0AA201E
:100E400011F480E090E0482D41509601280F391FA1
:100E5000081B190BC7016A2D3EDA3B2D292D832F64
:100E6000922F0FB6F8949EBF0FBE8DBF59C08091D0
:100E70001601813A09F054C08091E800877F809381
:100E8000E8008091E80080FFFCCFF701818540C039
:100E900080911601813209F043C08091E800877F7C
:100EA0008093E80026DC9091180181E0992309F4F1
:100EB00080E0F701818734C080911601813281F58D
:100EC0008091E800877F8093E80013DC809118010F
:100ED00090911901807036E0969587953A95E1F7E3
:100EE000F701958784871CC080911601813AC1F46F
:100EF0008091E800877F8093E8008091E80080FF80
:100F0000FCCFF7018485958596958795969587956D
:100F10008093F1008091E8008E778093E800E9DB10
:100F20000FB6F8947EBE0FBE6DBE0F900F900F905F
:100F3000CF91DF911F910F91FF90EF90DF90CF90B5
:100F4000BF90AF909F908F907F906F900895CF93B8
:100F5000DF93FC010996DC0187E0ED0119928A9587
:100F6000E9F781E0818784EF91E09587848783E0CA
:100F70008483CF01019661E078DBDF91CF91089502
:100F80005F926F927F928F929F92AF92BF92CF9219
:100F9000DF92EF92FF920F931F93DF93CF9300D0D6
:100FA00000D0CDB7DEB77C016DB67EB68EB384308F
:100FB00009F098C08091E4009091E500F701228546
:100FC00033852817390709F48DC081818F7080938C
:100FD000E9008091E80085FF85C08DB6572C4085DB
:100FE000CDB6DEB6C41AD1080FB6F894DEBE0FBE79
:100FF000CDBE0DB71EB70F5F1F4FB02EA12E1982A9
:101000001B821A82C80160E070E050E09AD0C701EC
:10101000BE016F5F7F4F40E098018E010E5F1F4F52
:1010200007D9982EF70184859585009759F081E0BE
:1010300090E0268537852115310511F080E090E09C
:101040006C0102C0CC24DD24F70106811781011553
:101050001105A1F04A815B818B2D9A2DB8015BD0DF
:1010600021E0009709F420E0F7014085C8016B2DCD
:101070007A2D50E02C835CD02C8101C020E08A8145
:101080009B81009709F1992029F4222319F4C114B6
:10109000D104D1F0F7018485958597878687818172
:1010A0008F708093E9008981882311F08093F1008B
:1010B0006A817B818B2D9A2D40E050E04BD9809145
:1010C000E8008E778093E8008091E4009091E5003D
:1010D000F70193878287882D952D0FB6F8949EBFD0
:1010E0000FBE8DBF0FB6F8947EBE0FBE6DBE0F90C3
:1010F0000F900F900F90CF91DF911F910F91FF9064
:10110000EF90DF90CF90BF90AF909F908F907F90A7
:101110006F905F900895FB01DC0104C08D910190F8
:10112000801921F441505040C8F7881B990B08954D
:10113000FB01DC0102C001900D9241505040D8F7F4
:101140000895DC0101C06D9341505040E0F70895CF
:04115000F894FFCF41
:1011540000810800000110010200000000000000EE
:00000001FF
