:100000004BC0000066C0000064C0000062C0000079
:1000100060C000005EC000005CC000005AC000006C
:1000200058C0000056C000006CC5000052C000005F
:1000300050C000004EC000004CC000004AC000008C
:1000400048C0000046C0000044C0000042C000009C
:1000500040C000003EC000003CC000003AC00000AC
:1000600038C0000036C0000034C0000032C00000BC
:1000700030C000002EC000002CC000002AC00000CC
:1000800028C0000026C0000024C0000022C00000DC
:1000900020C000001EC0000011241FBECFEFD0E220
:1000A000DEBFCDBF11E0A0E0B1E0E0E1F0E100E0B3
:1000B0000BBF02C007900D92A235B107D9F711E02E
:1000C000A2E5B1E001C01D92A13AB107E1F70BD161
:1000D0009DC796CF9BB19F70982B9BB9089584B70D
:1000E000877F84BF88E10FB6F894809360001092F8
:1000F00060000FBE90E080E80FB6F8948093610036
:10010000909361000FBE8AB1806F8AB98BB18F70F6
:100110008BB9DCD484B18F7184B98DB18F7C8DB9EA
:1001200085B1806E85B98EB180638EB96A98729AF6
:10013000089580EACFCF80E1CDCF80EACBDFF8D041
:10014000882321F481E031D7882311F080E901C0B0
:1001500080E6C0CF54D480E9BDDFFFCF80E9BACFBD
:100160008EB38B30E1F481E08093A7008091A900E9
:100170008F7B8093A9008091A60080FD06C08091AE
:10018000A90080648093A90008958091A6008E77CD
:100190008093A6008091A90080648093A9000895AF
:1001A0002EB32B30B9F522E02093A7002091AC00AC
:1001B00027FF17C02091A9002F7B2093A900209131
:1001C000A60022FF08C040E050E00BD38091A600BB
:1001D0008B778093A6008091A90080648093A9000A
:1001E000089521E22093990129E020939A0122E0C9
:1001F00030E030939C0120939B0121E030E030936C
:100200009E0120939D017093A00160939F01109225
:10021000A700CCC50895E4E5F1E0282F392FD901D6
:1002200088E00D9001928150E1F784E591E0B8CF2C
:10023000CF93DF93EC01809152019091530121E023
:100240008030920721F4C817D90729F414C081E03F
:10025000C030D80781F480E489B988E091E068E093
:1002600070E0D9DF80E191E068E070E0D4DFCE019A
:1002700060E470E0D0DFD0935301C0935201DF916E
:10028000CF91089523B18CB19CB192FD03C088E158
:1002900091E01CC0809590E0807390709595879553
:1002A0002095207E282B27FF03C080E291E00EC01E
:1002B00024FF03C088E291E009C026FF03C080E369
:1002C00091E004C023FF03C088E391E0B1CF8091A7
:1002D00052019091530121E08030920719F080E0A3
:1002E00091E0A6CF0895FBDE80E091E0909353016A
:1002F0008093520180E1EEDE7894C4DF31DF79D65D
:10030000FCCFFC018181843019F48581833011F0A8
:1003100082E0089580E00895FC018181853021F01C
:10032000843021F481E0089580E0089582E008950A
:100330008F929F92AF92BF92CF92DF92EF92FF92F5
:100340000F931F93DF93CF93CDB7DEB7C450D24046
:100350000FB6F894DEBF0FBECDBFAE014B5F5F4F4F
:100360005A8349838E010D5F1F4F81E0B80120E061
:1003700032E058D4853009F451C0863069F08823C2
:1003800069F4CC24DD24EE24FF2488249924580128
:100390008E010F5F1F4F04C083E045C081E043C062
:1003A0008114910439F0C501B8014CE851E091D4B1
:1003B000882379F0E114F104D1F4C501B80141E8D2
:1003C00051E087D4882361F589809A80CC24DD248C
:1003D000E7CFE981FA81828187FF02C07F0101C0F6
:1003E0006F01E114F104E1F2C114D104C9F2F70183
:1003F0002481358181E863E0428101E055D2F70133
:1004000086818093AD00C114D10461F0F60124818E
:10041000358182E063E0428147D204C082E003C0BC
:1004200084E001C080E0CC5FDD4F0FB6F894DEBF02
:100430000FBECDBFCF91DF911F910F91FF90EF9035
:10044000DF90CF90BF90AF909F908F900895809154
:100450009E0090E0817090702091A0002D7F2093ED
:10046000A00020919E00226020939E0020919E007B
:1004700021FDFCCF20919E00216020939E001092D0
:1004800097012091A00030E0207230704091A000D0
:100490004F7D4093A00040919F004F7D40939F006F
:1004A0004AE050919F0055FF0BC040919F004F7D47
:1004B00040939F0040919F004D7F40939F0008C054
:1004C000EFECF7E03197F1F700C00000415049F739
:1004D0002115310529F02091A00020622093A00071
:1004E000009729F480919E008E7F80939E008091DA
:1004F000A00082608093A000089540919E0050E08B
:10050000417050702091A00030E0207230709091C6
:10051000A0009F7D9093A00090919F009F7D90935D
:100520009F0090919E00916090939E0025C09091B5
:100530009F0095FF06C090919F009F7D90939F0024
:1005400081509EB39130D9F09091A60094FF09C0DC
:100550001092F5008091A6008F7E8093A60082E025
:100560000FC09091A60091FF07C08091A6008D7FDB
:100570008093A60083E004C08823C9F601C081E00F
:100580004115510529F490919E009E7F90939E0005
:100590002115310529F09091A00090629093A00060
:1005A00008950F931F93DF93CF93CDB7DEB72897AE
:1005B0000FB6F894DEBF0FBECDBF8EB3853009F401
:1005C00096C0863068F48230B9F1833018F48823FD
:1005D000A1F0FCC08330C9F1843009F0F7C060C0DD
:1005E000873009F49AC0873008F48BC0883009F44A
:1005F000B3C0893009F0EAC0D3C0009195011091D1
:1006000096010115110509F4E1C081E076DF682F3C
:10061000882329F0809194018EBB81E0CCC00150E9
:10062000104010939601009395010115110509F0F2
:10063000CDC08091940107C088EE93E0909396011D
:100640008093950183E08EBBC1C08091950190910C
:1006500096019C01215030403093960120939501E2
:10066000009739F08FEC97E00197F1F700C0000098
:10067000ADC077988091D80080618093D800809138
:10068000DD008B7F8093DD008091D70080618093B7
:10069000D7008091DD0082608093DD0084E0D3CFBD
:1006A00080919F0080FF92C080919F008E7F8093F9
:1006B0009F0080919F008D7F80939F008091DF003D
:1006C0008D7F8093DF008091DE0082608093DE006A
:1006D00080919E00816080939E004DD11EBA84E679
:1006E00090E0909396018093950185E056C0AFDE2F
:1006F0001EBA88EC90E0909396018093950186E075
:100700004CC080E060E040E020E430E001E0CCD08C
:10071000882309F44CC087E096CFA9E9B1E0E8E46A
:10072000F1E088E001900D928150E1F71092A7006E
:10073000CE0101963BD3682F882309F03BC0888502
:100740008093500184DE1EBA88EC90E0909396016D
:100750008093950188E021C02091500180E060E005
:1007600040E030E001E0A0D0882309F1A9E9B1E040
:10077000E0E4F1E088E001900D928150E1F780E043
:1007800090E014D3682F8823A9F41EBA84E690E081
:10079000909396018093950189E08093940116C00F
:1007A00081E08093A1008AE08EBBC7DC0FC060E0CF
:1007B00084E001C083E09EB3913041F0CFDC8091B2
:1007C000DD0081608093DD00B6DC31D128960FB664
:1007D000F894DEBF0FBECDBFCF91DF911F910F9177
:1007E00008958F929F92BF92CF92DF92EF92FF92E5
:1007F0000F931F93DF93CF930F92CDB7DEB7E82E01
:100800004B018A018091AA008F7C80628093AA00AC
:100810009983C7D0B82E99818823C1F5F92E011587
:10082000110539F0F80120813181821A930AE20E14
:10083000F31ECC24DD2425C08091A60085FD16C0C2
:100840008091A6008B778093A6000115110551F0C9
:10085000F801808191818C0D9D1D9183808324E01E
:10086000B22E14C09ED0882361F00FC0F701819191
:100870007F018093AF000894810891080894C11CFF
:10088000D11C81149104C1F601C0B82E8B2D0F909C
:10089000CF91DF911F910F91FF90EF90DF90CF905C
:1008A000BF909F908F9008950F93582F5F7087FF90
:1008B00002C080E101C080E2573008F059C06623D1
:1008C00009F480E04F706295660F660F607C642BC0
:1008D000682B452F0260842F8F708093A7004517E7
:1008E000A1F488E090E070E003C07F5F880F991F5B
:1008F0008217930710F47530C1F7872F8295807F98
:10090000802BF62F70E0E0E008C0F091AA00809103
:10091000AB00E091AD007091AE0081FF20C09091DE
:10092000A9009E7F9093A9009091AB009D7F90932A
:10093000AB009091A90091609093A900F093AA0058
:100940008093AB00E093AD007093AE008091A9005E
:1009500080628093A9008091AC0087FF09C04F5F3F
:10096000473009F0B8CF5F705093A70081E001C015
:1009700080E00F9108951092F80080E0982F9F700A
:100980009093A7001092AE001092A6001092AB00B8
:100990009091A9009E7F9093A9008F5F873071F797
:1009A00008958091A2009091A30044E62091AA00AE
:1009B0002073203129F42091A60020FF05C017C024
:1009C0002091A60022FD13C02091A60021FD11C098
:1009D0002EB3213081F02091A2003091A30028177E
:1009E000390721F3442349F04150C901DFCF80E0AA
:1009F000089581E0089582E0089583E0089574D019
:100A00007BD0E0EEF0E0808181608083E8EDF0E073
:100A100080818F77808319BCA7EDB0E08C918E7FA9
:100A20008C9380818F7E80831092980108955CD092
:100A300063D08091D8008F778093D8008091D800C0
:100A400080688093D8008091D8008F7D8093D800F3
:100A50008091D7008F778093D7008CE089BD8EE09E
:100A600089BD09B400FEFDCF81E08EBB10929701D5
:100A700080E4809350018091D80080648093D800F6
:100A80008091DD0081608093DD008091DD008460D5
:100A90008093DD008091D7008F7E8093D7006F9A7E
:100AA000779A8091DE0081608093DE008091DE0085
:100AB00084608093DE008091E0008E7F8093E00070
:100AC0008091D80080618093D8000895E8EDF0E02F
:100AD00080818F7E8083E7EDF0E08081816080837C
:100AE00081E080939801A3CFE8EDF0E080818C7FD6
:100AF00080831092A00008951092DA0010929F0057
:100B000008951F920F920FB60F920BB60F921124F9
:100B10002F933F934F935F936F937F938F939F9305
:100B2000AF93BF93EF93FF9380919F0085FF0AC01F
:100B30008091A00085FF06C080919F008F7D8093EB
:100B40009F000AD180919F0081FF15C08091A00075
:100B500081FF11C080919F008D7F80939F008091C5
:100B60009F008E7F80939F008091A0008D7F809357
:100B7000A000E1DA5CDF8091DF0081FF14C080918A
:100B8000DE0081FF10C08091DF008D7F8093DF0049
:100B900077988091DD0081608093DD0080E0DADA73
:100BA000CADA81E08EBB8091DF0080FF16C08091A1
:100BB000DE0080FF12C08091DF008E7F8093DF0017
:100BC0008091DE008E7F8093DE00B3DA8091A000FA
:100BD00082608093A00082E08EBB8091DF0082FF64
:100BE0000EC08091DE0082FF0AC08091DF008B7F03
:100BF0008093DF0082E060E0B1DA9DDA18DFFF91D8
:100C0000EF91BF91AF919F918F917F916F915F9184
:100C10004F913F912F910F900BBE0F900FBE0F90F1
:100C20001F901895CF92DF92EF92FF920F931F9330
:100C3000DF93CF93CDB7DEB729970FB6F894DEBF19
:100C40000FBECDBF6B018A01790190E890939901A5
:100C500096E090939A0190E00197926090939C01A6
:100C600080939B0110929E0110929D0189E090E07B
:100C70009093A00180939F011092A700CE0101964E
:100C800095D08823B9F48B819C81F6019183808370
:100C9000E816F90670F09093A00180939F01C801B7
:100CA00085D0882339F4F8019181923019F086E0DB
:100CB00001C085E029960FB6F894DEBF0FBECDBF08
:100CC000CF91DF911F910F91FF90EF90DF90CF9028
:100CD0000895AF92BF92CF92DF92EF92FF920F935F
:100CE0001F93CF93DF938C01EB016A0123C0E8814E
:100CF000F9815F01208130E0C7012E153F0508F41E
:100D0000C901E80FF91FF983E883F80120813181D7
:100D1000281B390B3183208388819981F60109953D
:100D2000823041F0813069F4A882B982F801F18201
:100D3000E08207C0F801E080F180E114F104B9F627
:100D400082E0DF91CF911F910F91FF90EF90DF90A4
:100D5000CF90BF90AF90089508951F93CF93DF93E6
:100D6000182FC8EED3E007C081E0C7DB8823D1F499
:100D70002097B9F02197112329F48091A60083FFD1
:100D8000F3CF0DC0113029F48091A60080FFECCF85
:100D900006C0123049F78091A60082FFE5CF80E0BF
:100DA00001C084E0DF91CF911F910895EF92FF92EF
:100DB0000F931F93CF93DF938C01E0909E00FF244D
:100DC00081E0E822FF24C0919F01D091A001809191
:100DD0009E00816080939E0081E08FDB882309F074
:100DE000CBC08091AA008F7C8093AA001092F5005E
:100DF0008091A6008F7E8093A6008091A9008F7BB2
:100E00008093A900E9E9F1E081918093AF0081E04E
:100E1000E13AF807C9F78091A60087778093A6008A
:100E200080E09BDF882309F0A7C08091A90080643F
:100E30008093A90081E061DB882309F09DC0809147
:100E4000990187FF4FC08091AA008F7C80618093B9
:100E5000AA000115110561F52DC08091A9008F7BB5
:100E60008093A90081E079DF882309F085C0809113
:100E7000F6009091F700009749F4C0E0D0E006C07A
:100E80008091AF00F80181938F0121978091F60046
:100E90009091F700009711F0209791F78091A900A9
:100EA00080648093A9008091A6008E778093A6002D
:100EB000209799F68091AA008F7C80628093AA0087
:100EC0008091A9008F7B8093A90082E046DF882370
:100ED00009F052C08091A6008B778093A60082E033
:100EE0003CDF4AC00115110599F18091AA008F7C61
:100EF00080628093AA008091A9008F7B8093A900D3
:100F00001CC082E02ADF8823B9F5F80106C0819170
:100F10008F018093AF00219759F08F012091F60047
:100F20003091F7008091500190E02817390778F34D
:100F30008091A6008B778093A600209711F782E01E
:100F40000CDF8823C9F48091A90080648093A900F4
:100F50008091AA008F7C80618093AA008091A90073
:100F60008F7B8093A90081E0F8DE882329F490919B
:100F7000A6009E779093A6009091A900906490930C
:100F8000A900E114F10429F490919E009E7F9093B2
:100F90009E0091E09093A8001092A800DF91CF915D
:100FA0001F910F91FF90EF9008951F93182F1092AB
:100FB000990189E080939A0110939B0110929C0102
:100FC00010929E0110929D011092A00110929F011B
:100FD0001092A70080E090E0E9DE882341F41093AE
:100FE0009701112311F09BE001C09AE09EBB1F9175
:100FF00008951F931091A7001F708091AA0010926E
:10100000A700CFDA1093A7001F910895F894FFCF9F
:10101000000000000000080855534243000004008F
:101020005553424300400200000000000001080840
:10103000000000010000080800000000010008088E
:10104000000100000000080800000100000008087E
:1010500000050100000000008006000100000800FB
:0210600040004E
:00000001FF
