:10000000B5C0000020C20000CFC00000CDC000007D
:10001000CBC00000C9C00000C7C00000C5C00000C0
:10002000C3C00000C1C000000C947E0EBDC0000023
:10003000BBC00000B9C00000B7C00000B5C00000E0
:10004000B3C0000024C20000AFC00000ADC000007B
:10005000ABC000003CC30000A7C00000A5C000006A
:10006000A3C00000A1C000009FC000009DC0000010
:100070009BC0000099C0000097C0000095C0000020
:100080005CC2000091C000008FC000008DC0000065
:100090008BC0000089C00000120110010200001096
:1000A000EB034B2001000102DC0109023E000201CA
:1000B0000080320904000001020201000524001042
:1000C0000104240206052406000107058203080036
:1000D000FF09040100020A000000070504021000E5
:1000E00005070583021000050403090418034400F2
:1000F000650061006E002000430061006D00650036
:1001000072006100000026034C00550046004100CB
:100110002000580050004C00410049004E002000D3
:10012000420072006900640067006500000012016F
:100130001001FF000010EB03042100020102030183
:10014000040309040C03410054004D0045004C0019
:1001500000001803410056005200490053005000AF
:1001600020006D006B0049004900000011241FBEF3
:10017000CFEFD0E2DEBFCDBF11E0A0E0B1E0ECEB0D
:10018000F4E200E00BBF02C007900D92AC3BB10758
:10019000D9F712E0ACEBB1E001C01D92AA3EB10765
:1001A000E1F7D7D00C945C122BCF95B18095906479
:1001B000892385B90895FC012FB7F8947183608372
:1001C000738362837583648360587F4F778366830C
:1001D00080E890E091878087138612862FBF08956C
:1001E0008EB3843069F4A8D382E08093E9008091D3
:1001F000E80082FF05C080E4D8DF95D280E0D5CF4B
:1002000008950F931F93CF93DF938EB3843009F03B
:1002100068C08FB7F8942091CC023091CD028FBF87
:100220008091CA029091CB022817390709F180E02A
:1002300091E00E94EE1197FD1BC0E2ECF2E0A0817C
:10024000B1818C93808191810196918380832681F5
:1002500037818217930721F484819581918380836C
:100260002FB7F894828593850196938782872FBF55
:100270008FB7F894C091D802D091D9028FBFA899B6
:1002800003C0C93CD10548F1A89A0EEC12E023C086
:10029000E091D002F091D10280E091E060810E9473
:1002A0007B118823D1F4F801828193810196938395
:1002B0008283268137818217930721F48481958177
:1002C000938382832FB7F8948285938501979387D0
:1002D00082872FBF21972097D9F680E091E00E9476
:1002E000D711DF91CF911F910F91089584B7877F28
:1002F00084BF88E10FB6F89480936000109260008C
:100300000FBE90E080E80FB6F89480936100909360
:1003100061000FBE85B7806885BF85B7806885BFDF
:100320008F9A8FE19EE40197F1F700C000008FB132
:100330008095881F8827881F8093BC0185B78F7799
:1003400085BF85B78F7785BF64D0269A2E9A0C9487
:10035000630ECCDF80E429DF78948091BC01882390
:1003600011F44FDF01C03CDF0E948F10F6CF1F93C6
:100370008091BC018823A1F480E091E00E94571194
:10038000182F117085E085BD82EC92E06DEB71E075
:1003900012DF8EEC92E06DE372E00DDF3AD008C020
:1003A00082E060E842E30E94790D182F1170A4D119
:1003B000112311F080E001C080E4F7DE1F91089561
:1003C0008091BC01882321F480E091E00C94AA1074
:1003D000089580E4EACE80E4E8CEFC0124893589E2
:1003E0004689578960E072E18AE790E00E94201216
:1003F0002150304030938900209388003093990039
:100400002093980008957091BC01772309F4F0C0FF
:100410001EC1599A519A589A22E02093690081E0AE
:100420008DBB80E493E09093890080938800909343
:1004300099008093980020936F002093710089E0C9
:100440008093910008951F920F920FB60F9211247E
:100450008F939F9388E08093BF0280918800909152
:10046000890096958795909581959F4F90938500EB
:1004700080938400489904C01DBA89E0809381006C
:100480009F918F910F900FBE0F901F9018951F9204
:100490000F920FB60F920BB60F9211242F933F932A
:1004A0008F939F93AF93BF93EF93FF9389B1817025
:1004B0002091BF02222371F09091C00296959093F3
:1004C000C00221502093BF02882341F1906890938D
:1004D000C00224C01092810091E09CBB9DBB882388
:1004E000E9F0EEECF2E0A081B1818091C0028C9342
:1004F0008081918101969183808326813781821743
:10050000930721F484819581918380832FB7F89498
:10051000828593850196938782872FBFFF91EF9104
:10052000BF91AF919F918F913F912F910F900BBEF3
:100530000F900FBE0F901F9018951F920F920FB63D
:100540000F920BB60F9211242F933F938F939F938B
:10055000AF93BF93EF93FF938091BD02882361F027
:100560009091BE0290FF02C0599801C0599A969589
:100570009093BE0281502BC08091BF02882349F521
:100580002FB7F8948091CC029091CD022FBF0097A5
:1005900001F15998E2ECF2E0A281B3812D91B3838D
:1005A000A28386819781A817B90721F48481958158
:1005B000938382833FB7F8948285938501979387CD
:1005C00082873FBF822F80958093BE0289E080930F
:1005D000BD02FF91EF91BF91AF919F918F913F919C
:1005E0002F910F900BBE0F900FBE0F901F9018957C
:1005F000D9011C92923029F0933041F09130E9F406
:1006000017C02EE330E0EAEAF0E01BC0813041F091
:10061000813018F0823089F406C0E8EEF0E005C0C1
:10062000ECEEF0E002C0E6E0F1E0249130E009C039
:1006300022E130E0E8E9F0E004C020E030E0E0E072
:10064000F0E0DA011196FC93EE93C9010895F901E7
:100650001082923029F0933049F0913071F528C022
:10066000908360E270E0EBE1F1E02BC0813051F06B
:10067000813028F0823049F08330F9F40BC0E0E497
:10068000F1E005C0E4E4F1E002C0E2E5F1E06491EC
:1006900070E017C060913B0170E082E390E09093BE
:1006A0004A018093490182E08083EBE3F1E009C0D5
:1006B00062E170E0EEE2F1E004C060E070E0E0E0F2
:1006C000F0E0DA011196FC93EE93CB010895789453
:1006D0001F920F920FB60F9211248F938AB5882321
:1006E00021F08AB581508ABD01C015BC8F910F9051
:1006F0000FBE0F901F901895EAE7F0E087EA80831D
:100700008298AEE7B0E08C9184608C9382E4809311
:100710007C008081806480838DE487BD82E084BD1D
:1007200080936E00EEC00F931F93DF93CF930F92D1
:10073000CDB7DEB71091F10084E68ABD85E085BDB6
:10074000163009F45EC0173048F4113089F01130CA
:1007500008F499C0143008F096C026C0103509F48A
:1007600089C0113509F484C01A3009F08CC06EC0FC
:100770008091E8008B778093E80082E08093E90025
:100780008091EC0081608093EC001093F100109256
:10079000F1008AE08093F10089E591E06AE070E081
:1007A00040E050E075D788C00091F100123019F494
:1007B0006091F10001C060E08091E8008B77809348
:1007C000E80082E08093E9008091EC0081608093F2
:1007D000EC001093F100802F6983C8D0698112303A
:1007E00039F481FF0CC01092F100802FCFD064C08B
:1007F00080FF05C01092F100802FC0D05BC080EC5C
:1008000059C08BED92E064E070E040E050E0FCD72E
:100810008091E8008B778093E80082E08093E90084
:100820008091EC0081608093EC008091DB029091DC
:10083000DC02A091DD02B091DE02B7FF03C081E0CF
:100840008093DA0286E08093F1000FC08091E80087
:100850008B778093E80082E08093E9008091EC0040
:1008600081608093EC001093F1001092F10024C09D
:10087000C8D127C0F6D125C08091E8008B7780933E
:10088000E8000E94F00D8091F2009091F300803416
:10089000910591F38091E8008B778093E80082E0E6
:1008A0008093E9008091EC0081608093EC001093CC
:1008B000F10089EC8093F1008091E8008E778093BD
:1008C000E80015BC0E94F00D82E08093E900809161
:1008D000EC008E7F8093EC000F90CF91DF911F9101
:1008E0000F910895E4E6F1E09081891741F091E0DD
:1008F000EF37F90711F03396F7CFE0E0F0E0CF01E2
:1009000008950F931F9380E090E00E944212082FF9
:1009100081E090E00E944212182F0F3F21F08EE9F3
:10092000E1DFFC0102831F3F21F088E9DBDFFC01EE
:1009300012831F910F91089584E9D4DFEAE7F0E074
:10094000208120612083609178007091790042E3DA
:1009500050E0649F9001659F300D749F300D11240D
:10096000232F26952695FC0122830895BBDF00974F
:1009700019F0FC018181089580E00895B3DF0097AC
:1009800019F0FC018281089580E008951F93DF93A0
:10099000CF930F92CDB7DEB7182F6983A3DFFC0189
:1009A0006981009761F062831E3919F480E090E05C
:1009B00004C0183921F481E090E00E944A120F909F
:1009C000CF91DF911F9108959B01692F782F832F7D
:1009D000922F0895282F892F922F0895AF92BF92BA
:1009E000CF92DF92EF92FF920F931F93DF93CF93FB
:1009F000CDB7DEB7C850D1400FB6F894DEBF0FBEFA
:100A0000CDBFCE01019668E070E040E050E09ED698
:100A10006B817C818D819E81D7DF6B837C838D830D
:100A20009E838F819885D6DFBC0198878F83CE0106
:100A3000099640E050E08AD68F81988509968F7399
:100A40009070009739F48091E8008B778093E800EC
:100A50000E94F00D8091E8008B778093E80082E09F
:100A60008093E9008091EC0081608093EC0080919C
:100A7000C1028823A1F5298121502630A0F430E05D
:100A8000F901EE56FE4F9081F901E856FE4F808144
:100A9000F901E256FE4F60812C553E4FF90120814D
:100AA000222399F003C066E283E29EE2EB80FC80A1
:100AB0000D811E81AF80B884492F2A8199E0C92E0B
:100AC000D12CCC0EDD1E03D412C02B813C814D8174
:100AD0005E81892FBA01A9012985D5D308C04F812C
:100AE00058858B819C81BE01675F7F4F7BD58823B2
:100AF00011F080E001C083E090E59093F10094E074
:100B00009093F1008093F1008091E8008E778093BC
:100B1000E800C85FDE4F0FB6F894DEBF0FBECDBF52
:100B2000CF91DF911F910F91FF90EF90DF90CF90C9
:100B3000BF90AF900895DF93CF93CDB7DEB7C75086
:100B4000D1400FB6F894DEBF0FBECDBFCE010196E7
:100B500067E070E040E050E0F9D56A817B818C81EC
:100B60009D8132DF6A837B838C839D838E819F810D
:100B700031DF9F838E838091E8008B778093E8003C
:100B800082E08093E9008091EC0081608093EC002A
:100B90008091C1022E813F81AE01485F5F4F882363
:100BA00031F46A817B818C819D8132D305C08A8139
:100BB0009B81BA01A901E9D4882311F080E001C02A
:100BC00083E090E59093F10095E09093F10080939D
:100BD000F100882339F46E817F81CE01089640E0D0
:100BE00050E056D58091E8008E778093E800C95F89
:100BF000DE4F0FB6F894DEBF0FBECDBFCF91DF91B1
:100C00000895DF93CF930F92CDB7DEB7CE01019653
:100C100061E070E040E050E099D58091E8008B778A
:100C20008093E80082E08093E9008091EC0081608D
:100C30008093EC0089818093C10281E58093F1006B
:100C40008981813011F080E001C080EC8093F10057
:100C50008091E8008E778093E8000F90CF91DF912C
:100C60000895DF93CF93CDB7DEB729970FB6F894E9
:100C7000DEBF0FBECDBF8091F100843009F494C077
:100C8000853048F4823089F1833008F04AC08130E1
:100C900009F027C10AC0863009F48AC0863008F4FA
:100CA00085C0873009F01DC1C7C08091E8008B77EF
:100CB0008093E80082E08093E9008091EC008160FD
:100CC0008093EC008091C102882311F41DD205C0ED
:100CD000823011F411D401C080E090E59093F100CE
:100CE00091E09093F1008927F5C09091E8009B77FF
:100CF0009093E8008093E9008091EC0081608093FC
:100D0000EC008091C102882311F440D201C032D49A
:100D100080E58093F10082E08093F1001092F10071
:100D2000DBC0CE01059665E070E040E050E00ED5F6
:100D30006E817F818885998547DE6E837F83888772
:100D400099878091E8008B778093E80082E0809318
:100D5000E9008091EC0081608093EC008091C102F9
:100D6000ED81882379F4E150E83028F4F0E0E6578B
:100D7000FE4F808101C080E04E815F81688579856A
:100D80000DD308C0E13011F480E101C084E16E812F
:100D90007F8163D4882311F080E001C083E090E577
:100DA0009093F10093E094C019DE9BC0C4DE99C01B
:100DB000CE01059661E070E040E050E0C7D480913C
:100DC000E8008B778093E80082E08093E9008091CF
:100DD000EC0081608093EC008091C102882391F443
:100DE000ED81E150E23028F4F0E0E655FE4F8081DD
:100DF00001C088E7BE016F5F7F4FD3D1882321F008
:100E000080E003C081E001C083E090E59093F100B1
:100E100096E09093F1008093F100882309F05CC084
:100E200089819A81AB81BC81CD01AA27BB278093A0
:100E3000F10099818A814CC08091F100833031F1B9
:100E4000843028F4813041F0823081F516C084303E
:100E500011F1853059F524C08091F1009091F10095
:100E60002091F1003091F1003093820120938301B1
:100E7000909384018093850117C08091F100909137
:100E8000F10090938601809387010EC08091F1005C
:100E90008093880109C08091F1008093890104C08A
:100EA0008091F1008091F10080E001C081E090919B
:100EB000E8009B779093E80092E09093E90090918E
:100EC000EC0091609093EC0090E59093F10097E036
:100ED0009093F1008093F1008091E8008E778093E9
:100EE000E80029960FB6F894DEBF0FBECDBFCF91B4
:100EF000DF9108954D99FECF4D9BFECF4D99FECFCA
:100F00005B9A539A8091C9008F7E8093C90080912B
:100F1000C90088608093C90081E08093DF02089552
:100F20008091C80086FFFCCF8091C80080648093C8
:100F3000C8008091C900877F8093C9008091C90053
:100F400080618093C90053985B981092DF020895E6
:100F50008091DF02882309F0E3DF80EC8093C800F2
:100F60001092C9001092CA008AB1877D8AB98BB1EC
:100F7000837D8BB908958091DF02882309F0D0DF4B
:100F80008091C800806C8093C8001092C9001092B4
:100F9000CA008AB1877D8AB98BB1837D8BB92498C9
:100FA0002C980895DF93CF930F92CDB7DEB7909131
:100FB000DF02992319F489839DDF89819091C8000C
:100FC00095FFFCCF9091C80090649093C8008093E7
:100FD000CE000F90CF91DF9108958091DF0288239A
:100FE00009F09EDF8091C80087FD03C08AB5882381
:100FF000C9F78091CE0008958091DF02882309F41B
:1010000079DF8CE04D99FECF4D9BFECF4D99FECF01
:101010008150C1F708951092DF02249A2C9882E043
:101020008A95F1F700C08AB188628AB952988FE038
:1010300090E09093CD008093CC0088E08093C9002D
:101040008FE68093CA00D8DFD7CF1092DF028AB133
:1010500088628AB952985B9A82E08A95F1F700C05B
:101060008FE090E09093CD008093CC0088E0809357
:10107000C9008FE68093CA00BFDFBECF1F93DF9306
:10108000CF9300D0CDB7DEB7182F862F79839A8300
:1010900089DF7981872F86DF812F84DF9A81892FED
:1010A00081DF0F900F90CF91DF911F910895682FEE
:1010B00070E080E090E020918201309183014091C6
:1010C000840150918501622B732B842B952BD6CFF5
:1010D00080E868DF82DF9AB5992321F081FFF8CF9D
:1010E00081E0089580E008958BE65CDF8FE0DFDF2C
:1010F00080E258DF72DF9AB5992321F087FDF8CF9F
:1011000081E0089580E00895CF92DF92EF92FF9200
:101110000F931F93DF93CF93CDB7DEB728970FB60A
:10112000F894DEBF0FBECDBF90DF81EC3BDF89E5D9
:1011300039DF82EC37DF82E035DF80EE33DF8E018E
:10114000075F1F4F7E010894E11CF11C6701D60167
:10115000ECEAF1E088E001900D928150E1F7F801AE
:1011600082918F011FDF0E151F0589F7B1DF2896C9
:101170000FB6F894DEBF0FBECDBFCF91DF911F91A8
:101180000F91FF90EF90DF90CF900895A1DF81EC59
:1011900009DF80E007DF81E805DF1FDF8823B9F77B
:1011A000D7CE1F93CF93DF93182FEB0118821982AC
:1011B0001A821B8299DF882331F18CE4F3DE8AE006
:1011C00076DF812FEFDE8CE4EDDE8BE070DF81E0F7
:1011D000E9DE7EDF8823B9F087DF8823A1F08BE684
:1011E000E1DE84E064DF80EADDDE82E0DBDE84E2F3
:1011F000D9DEF3DE8883F1DE8983EFDE8A839AB558
:1012000081E0992309F480E0DF91CF911F91089547
:10121000CF92DF92EF92FF920F931F93CF93DF93C2
:101220006B017C018A01E9015FDF882311F18CE405
:10123000B9DE8AE03CDF83E4B5DE8BE6B3DEC701CE
:10124000B6011CDF80EAAEDE9E012150822FAADEAD
:1012500084E2A8DE04C0C1DEF80181938F012097EB
:1012600021F08AB521978823B1F79AB581E09923B7
:1012700009F480E0DF91CF911F910F91FF90EF90E3
:10128000DF90CF900895CF92DF92EF92FF920F936D
:101290001F93D82E7A018B01C22E26DF882379F086
:1012A0008CE480DE8AE003DF8D2D7CDE8CE47ADE48
:1012B000C801B701E3DE8C2D75DE81E001C080E05E
:1012C0001F910F91FF90EF90DF90CF9008957F9244
:1012D0008F929F92AF92BF92CF92DF92EF92FF9246
:1012E0000F931F93CF93DF93882E962E742EE601D3
:1012F000D22E20FF10C0F8DE882309F440C08CE411
:1013000051DE8AE0D4DE892D4DDE8CE44BDE8BE0AD
:10131000CEDE81E047DEA114B104E9F0E5DE8823EA
:1013200071F18CE43FDE8AE0C2DE882D3BDE8BE685
:1013300039DEC801B701A2DE80EA34DE8A2D815091
:1013400031DE84E62FDE89912DDE0894A108B108F4
:10135000A114B104C1F7D1FE10C0C6DE882379F014
:101360008CE420DE8AE0A3DE872D1CDE8CE41ADE0E
:10137000C801B70183DE80E015DE81E001C080E0B6
:10138000DF91CF911F910F91FF90EF90DF90CF9061
:10139000BF90AF909F908F907F900895DF92EF92D3
:1013A000FF920F931F93D82E7A018B019DDE882325
:1013B00009F459C08D2D803431F48CE4F3DD8AE0DA
:1013C00076DE80E43AC08D2D803309F03DC08CE498
:1013D000E9DD8AE06CDE86E3E5DD8CE4E3DD8BE0CD
:1013E00066DE81E0DFDD80DE882309F43CC08CE42A
:1013F000D9DD8AE05CDE83E3D5DD8BE6D3DDC80191
:10140000B7013CDE80EACEDD809186018150CADDE5
:1014100084E6C8DD10E003C080E0C4DD1F5F212F3B
:1014200030E0809186019091870128173907A0F359
:101430008CE4B8DD8AE03BDE80E3B4DD8CE4B2DD31
:101440008BE035DE81E00CC08CE4ACDD8AE02FDE81
:101450008D2DA8DD8CE4A6DDC801B7010FDE80E08C
:10146000A1DD36DE01C080E01F910F91FF90EF906B
:10147000DF900895282F2F70206990E0807390707E
:10148000880F991F822B8ECD1F93DF93CF930F92DE
:10149000CDB7DEB7182F88E6998384DD812F82DDF2
:1014A00089E680DD9981892F7DDD0F90CF91DF91D5
:1014B0001F91089580E876DD90DD9AB5992321F09B
:1014C00081FFF8CF81E0089580E00895809189013F
:1014D000282F2F70206190E080739070880F991FE3
:1014E000822B60DD7ADD9AB5992321F087FDEECF5E
:1014F00081E0089580E00895CF92DF92EF92FF920D
:101500000F931F93DF93CF93CDB7DEB728970FB616
:10151000F894DEBF0FBECDBF7EDD82EC43DD82E0FE
:1015200041DD80EE3FDD8E01075F1F4F7E01089495
:10153000E11CF11C6701D601E4EBF1E088E00190C9
:101540000D928150E1F7F80182918F012BDD0E158C
:101550001F0589F7AFDF28960FB6F894DEBF0FBEE0
:10156000CDBFCF91DF911F910F91FF90EF90DF9052
:10157000CF9008959FDF80EC15DD80E013DD81E8DA
:1015800011DD2BDD8823B9F7F6CCEF92FF920F9394
:101590001F93CF93DF938C01EB017A0197DF8823B0
:1015A000C9F08091880166DF80E0FCDCC8016CDF57
:1015B00004C084E2F7DC11DD8993E114F10431F019
:1015C0008AB50894E108F108882399F79AB581E073
:1015D000992309F480E0DF91CF911F910F91FF9043
:1015E000EF900895EF92FF920F931F93CF93DF93A5
:1015F0008C01EB017A016ADF882339F1E0FE08C033
:10160000FE01EE0DFF1D8FEF80830894E11CF11C9D
:10161000809188012FDF8DE1C5DCC80135DF10C066
:1016200055DF882391F084E6BDDC8881BBDC84E64D
:10163000B9DC89812296B6DC8EEF9FEFE80EF91EA9
:10164000E114F10469F781E001C080E0DF91CF91FE
:101650001F910F91FF90EF9008951F93CF93DF9309
:10166000182FEB0133DF882371F08091880102DFAE
:10167000812F98DCCE01816007DF80E693DC80E07B
:1016800091DC24DF01C080E0DF91CF911F910895AC
:101690008F929F92BF92CF92DF92EF92FF920F9321
:1016A0001F93DF93CF930F92CDB7DEB7E82E4B0198
:1016B0008A01998395D2B82E99818823C9F5F92E8C
:1016C0000115110539F0F80120813181821A930A40
:1016D000E20EF31ECC24DD2426C08091E80085FDB7
:1016E00017C08091E8008E778093E80018D5011527
:1016F000110551F0F801808191818C0D9D1D918320
:10170000808325E0B22E14C06BD2882361F00FC015
:10171000F70181917F018093F1000894810891087D
:101720000894C11CD11C81149104B9F601C0B82ED3
:101730008B2D0F90CF91DF911F910F91FF90EF9024
:10174000DF90CF90BF909F908F9008958F929F923F
:10175000BF92CF92DF92EF92FF920F931F93DF938E
:10176000CF930F92CDB7DEB7E82E4B018A01998354
:1017700037D2B82E99818823C9F5F92E01151105A4
:1017800039F0F80120813181821A930AE20EF31EAA
:10179000CC24DD2426C08091E80085FD17C080910F
:1017A000E8008B778093E800BAD40115110551F059
:1017B000F801808191818C0D9D1D9183808345E08E
:1017C000B42E14C00DD2882361F00FC08091F100B7
:1017D000F70181937F010894810891080894C11C46
:1017E000D11C81149104B9F601C0B82E8B2D0F9035
:1017F000CF91DF911F910F91FF90EF90DF90CF90ED
:10180000BF909F908F900895BF92CF92DF92EF92FA
:10181000FF920F931F93CF93DF936C01EB017A013B
:10182000DFD1B82E8823D9F58E01015010400C0D60
:101830001D1DE114F10439F0F70120813181C21B33
:10184000D30B021B130BCC24DD2425C08091E800B0
:1018500085FD17C08091E8008B778093E8005FD406
:10186000E114F10451F0F701808191818C0D9D1DEF
:101870009183808355E0B52E12C0B2D1882359F0F0
:101880000DC08091F100F801808301501040219734
:101890000894C11CD11C2097C9F601C0B82E8B2D0D
:1018A000DF91CF911F910F91FF90EF90DF90CF903C
:1018B000BF900895282F392FF9018091E802909167
:1018C000E9028617970718F4BC0120E035C06115BE
:1018D0007105D9F78091E8008E778093E800F5CF05
:1018E0008EB38823F1F18530C1F18091E80083FD4A
:1018F00036C08091E80082FD2AC08091E80080FF18
:101900001BC08091F2009091F30006C021912093BA
:10191000F1006150704001966115710519F0803138
:101920009105A0F321E08031910509F020E080913C
:10193000E8008E778093E8006115710589F622230F
:1019400079F605C08EB3882361F0853061F080910F
:10195000E80082FFF7CF80E0089583E0089581E0FA
:10196000089582E0089583E00895E82FF92F80918B
:10197000E8029091E9028617970718F4BC0120E06D
:1019800037C061157105D9F78091E8008E77809393
:10199000E800F5CF8EB3882309F43FC08530C9F144
:1019A0008091E80083FD37C08091E80082FD2BC064
:1019B0008091E80080FF1CC08091F2009091F300BC
:1019C00007C024912093F100319661507040019638
:1019D0006115710519F08031910598F321E080318E
:1019E000910509F020E08091E8008E778093E8006F
:1019F0006115710579F6222369F605C08EB3882337
:101A000061F0853061F08091E80082FFF7CF80E0DF
:101A1000089583E0089581E0089582E0089583E0C9
:101A20000895EF92FF920F931F93CF93DF93EB01F3
:101A3000E82EF92E8091E8029091E9028617970727
:101A400018F4EC0180E039C02097E1F78091E800BC
:101A50008E778093E800F6CF9EB3992309F43FC0B8
:101A6000953009F43EC09091E80093FD36C0909106
:101A7000E80092FD2CC09091E80090FF1EC00091FC
:101A8000F2001091F3000AC0C701FCD48093F1006A
:101A90000894E11CF11C21970F5F1F4F209719F04C
:101AA0000031110588F381E00031110509F080E073
:101AB0009091E8009E779093E800209769F688233C
:101AC00059F605C08EB3882351F0853051F08091CE
:101AD000E80082FFF7CF80E005C081E003C082E02C
:101AE00001C083E0DF91CF911F910F91FF90EF90A4
:101AF00008958F708093E900EBEEF0E080818160C3
:101B00008083EDEEF0E010826093EC0040838091E2
:101B1000EE00881F8827881F0895EF92FF920F9389
:101B20001F93CF93DF93162FE82EE7017E01F92E46
:101B3000E70100E02AC09881992329F16B81E981AE
:101B4000FA812C81892F8F70873018F56295660F86
:101B5000660F607C991F9927991F692B223010F01E
:101B600096E001C092E028E030E040E003C04F5F23
:101B7000220F331F2E173F07D0F34295407F492B8A
:101B8000B8DF882331F00F5F25960117A0F281E0BE
:101B900001C080E0DF91CF911F910F91FF90EF90F6
:101BA00008958091E20287FF11C003C08EB388239D
:101BB000B1F08091E80082FFF9CF8091E8008B7747
:101BC0008093E80008958EB3882349F08091E8005F
:101BD00080FFF9CF8091E8008E778093E800089528
:101BE0008091E4009091E50044E62091EC0020FF14
:101BF00025C02091E80020FD15C02EB32223A1F0BE
:101C00002530A1F02091EB0025FD12C02091E400C9
:101C10003091E5002817390741F3442359F041502A
:101C2000C901E3CF80E0089582E0089583E008953C
:101C300081E0089584E0089580E008952091E8000F
:101C400022FFDBCFF9CF0F931F93CF93DF9349D0C0
:101C500050D0C8EDD0E088818F77888388818068F4
:101C6000888388818F7D8883E7EDF0E080818068BC
:101C7000808319BC1EBA1092E00200EE10E0F80159
:101C800080818B7F808388818160888380E060E0B1
:101C900042E12FDFE1EEF0E080818E7F8083E2EE93
:101CA000F0E0808181608083808188608083F8019A
:101CB00080818E7F8083888180618883DF91CF914E
:101CC0001F910F910895E8EDF0E080818F7E808371
:101CD000E7EDF0E080818160808381E08093E10224
:101CE000B2CFE8EDF0E080818C7F80831092E2003B
:101CF00008951092DA001092E10008951F920F9259
:101D00000FB60F920BB60F9211242F933F934F9360
:101D10005F936F937F938F939F93AF93BF93EF9353
:101D2000FF938091DA0080FF1DC08091D80080FF72
:101D300019C08091DA008E7F8093DA008091D900FB
:101D400080FF0CC08CE089BD8EE089BD09B400FE27
:101D5000FDCF81E08EBB0E94E90104C019BC1EBA10
:101D60000E94EB018091E10080FF17C08091E200AA
:101D700080FF13C08091E2008E7F8093E20080910B
:101D8000E20080618093E2008091D80080628093BD
:101D9000D80019BC85E08EBBC1D18091E10084FFE1
:101DA0002CC08091E20084FF28C08CE089BD8EE0C9
:101DB00089BD09B400FEFDCF8091D8008F7D80934E
:101DC000D8008091E1008F7E8093E1008091E20055
:101DD0008F7E8093E2008091E20081608093E20038
:101DE0008091E002882321F48091E30087FF02C004
:101DF00084E001C081E08EBB91D18091E10083FF3E
:101E000021C08091E20083FF1DC08091E100877FA7
:101E10008093E10082E08EBB1092E0028091E100AD
:101E20008E7F8093E1008091E2008E7F8093E200BC
:101E30008091E20080618093E20080E060E042E116
:101E400058DE6CD1FF91EF91BF91AF919F918F912F
:101E50007F916F915F914F913F912F910F900BBEAA
:101E60000F900FBE0F901F9018951F93DF93CF9385
:101E7000CDB7DEB7AD970FB6F894DEBF0FBECDBFBE
:101E8000E2EEF2E08091F100819322E0EA3EF20777
:101E9000C9F70E94E0018091E80083FF27C180918B
:101EA000E2029091E302953009F46CC0963040F460
:101EB000913069F1913070F0933009F017C127C06B
:101EC000983009F4E5C0993009F4F4C0963009F06F
:101ED0000DC17AC0803881F0823809F007C1809145
:101EE000E6028F708093E9009091EB0081E095FF0E
:101EF00080E01092E90001C080E09091E800977FB7
:101F00009093E8008093F1001092F100CCC08823F8
:101F100019F0823009F0EAC08F71823009F0E6C012
:101F20008091E402882341F52091E6022F7009F4A4
:101F3000DDC02093E9008091EB0080FF1DC08091FF
:101F4000E302833021F48091EB00806213C0809122
:101F5000EB0080618093EB0081E090E002C0880F8D
:101F6000991F2A95E2F78093EA001092EA00809187
:101F7000EB0088608093EB001092E9008091E8000C
:101F8000877F94C0882309F0B1C01091E4021F77C5
:101F90008091E3008078812B8093E3008091E800BA
:101FA000877F8093E800FDDD8091E80080FFFCCF13
:101FB0008091E30080688093E300112311F083E0B7
:101FC00001C082E08EBB92C08058823008F08EC083
:101FD0008091E4029091E50223E08C3D920789F51F
:101FE00083E08D838AE28C835FB7F894DE011696D6
:101FF00080E090E04EE061E2E42FF0E06093570073
:10200000E49180FF03C0E295EF704F5FEF702E2FD9
:1020100030E0EA3018F0295C3F4F02C0205D3F4FAE
:102020002D933D9301968431910531F75FBF8091E7
:10203000E800877F8093E800CE0104966AE270E0B2
:1020400020C06091E602AE014E5F5F4F9E012F5FA0
:102050003F4F0E940302BC01009709F447C08091E2
:10206000E800877F8093E8002981222321F48A8178
:102070009B817BDC07C08A819B81213011F4D1DCFC
:1020800001C018DC8091E8008B778093E8002EC0B7
:10209000803861F58091E800877F8093E800809127
:1020A000E0028093F1008091E8008E778093E80051
:1020B00078DD1CC08823D1F49091E4029230B0F412
:1020C0008091E800877F8093E8009093E00269DDCB
:1020D0008091E002882321F48091E30087FF02C011
:1020E00084E001C081E08EBB0E94B7018091E800CE
:1020F00083FF0AC08091E800877F8093E800809189
:10210000EB0080628093EB00AD960FB6F894DEBFD3
:102110000FBECDBFCF91DF911F91089508951F93FA
:102120008EB38823A9F08091E9008F709091EC0024
:1021300090FF02C010E801C010E0182B1092E900D7
:102140008091E80083FF01C090DE1F701093E900CA
:102150001F910895CF93DF93EC018091E80083FFF6
:10216000A3C0888190E02091E6023091E702281711
:10217000390709F099C08091E302813269F0823217
:1021800020F4803209F090C03CC0823209F46BC068
:10219000833209F089C07AC08091E202813A09F065
:1021A00083C08091E800877F8093E8008091E800F9
:1021B00080FFFCCF8C899D89AE89BF898093F10017
:1021C000292F3A2F4B2F55272093F1009D014427AB
:1021D00055272093F1008B2F9927AA27BB2780939F
:1021E000F100888D8093F100898D8093F1008A8DB4
:1021F0008093F1008091E8008E778093E800D1DC35
:1022000053C08091E202813209F04EC08091E80013
:10221000877F8093E80004C08EB3882309F444C00C
:102220008091E80082FFF8CF3091F1002091F10019
:102230009091F1008091F1003C8B2D8B9E8B8F8BC8
:102240008091F100888F8091F100898F8091F10059
:102250008A8F8091E8008B778093E800A2DCCE0122
:102260000E94ED0121C08091E2028132E9F4809167
:10227000E800877F8093E80094DC8091E4029091ED
:10228000E502998B888BCE01DAD00EC08091E202F4
:10229000813251F48091E800877F8093E80081DCEF
:1022A000CE016091E402CBD0DF91CF910895CF931E
:1022B000DF93EC014096FC018BE0DF011D928A95D3
:1022C000E9F782E08C83898783E08E87CE010196CF
:1022D00061E023DC882359F0CE01069661E01DDC25
:1022E000882329F0CE010B9661E017DC01C080E065
:1022F000DF91CF910895DF93CF930F92CDB7DEB7E3
:10230000FC018EB38430F9F42489358946895789D4
:102310002115310541055105B1F081818F70809300
:10232000E9008091E80085FD0AC08091E8008E7781
:102330008093E800698354DC6981882329F46093E1
:10234000F10080E001C082E00F90CF91DF9108950D
:10235000FC018EB3843029F5248935894689578953
:102360002115310541055105E1F081818F70809380
:10237000E9008091F2009091F3000097A1F0909114
:10238000E8008091E8008E778093E80095FD0DC00D
:1023900027DC882359F49091E8009E779093E80019
:1023A000089582E0089580E0089580E008952EB3B6
:1023B000243099F4FC0124893589468957892115EF
:1023C00031054105510549F021812F702093E90025
:1023D0002091E80020FF01C0BBCF0895FC018EB31F
:1023E000843049F524893589468957892115310575
:1023F0004105510501F186818F708093E90080913C
:10240000E80082FF18C08091F2009091F3000097DD
:1024100021F02091F10030E002C02FEF3FEF8091DA
:10242000F2009091F300009741F48091E8008B77DF
:102430008093E80002C02FEF3FEFC901089508958F
:10244000A1E21A2EAA1BBB1BFD010DC0AA1FBB1FB8
:10245000EE1FFF1FA217B307E407F50720F0A21B2A
:10246000B30BE40BF50B661F771F881F991F1A9497
:1024700069F760957095809590959B01AC01BD01C1
:10248000CF010895F999FECF92BD81BDF89A9927A1
:1024900080B50895262FF999FECF92BD81BDF89A97
:1024A000019700B4021639F01FBA20BD0FB6F89498
:0C24B000FA9AF99A0FBE0895F894FFCF35
:1024BC0000831000000104100000018208000001DC
:1024CC0000000000000000000000000902200001D4
:1024DC000100C0320904000002FF00000007058261
:1024EC000240000A0705020240000A1C03300030BB
:1024FC000030003200300030003000310032003348
:10250C000034003500000000004156524953505F22
:10251C004D4B3200800100810100900100910101BE
:10252C009201149401219803069E0301A10100A4B9
:10253C000300C00100012000333240206830222A01
:10254C003218242C354C081A232333232323262614
:10255C003626262601010100000138391289AB45C7
:0C256C00CDD888FF1289AB45CDD888FF80
:00000001FF
