:10000000F9C0000013C1000011C100000FC10000C1
:100010000DC100000BC1000009C1000007C10000B4
:1000200005C1000003C1000001C100000C94FA11D9
:10003000FDC00000FBC00000F9C0000063C7000065
:10004000F5C00000F3C00000F1C0000085C1000051
:10005000EDC00000EBC00000E9C00000E7C00000F8
:10006000E5C00000E3C00000E1C00000DFC0000008
:10007000DDC0000012011001FF000010EB0304219D
:10008000000201020301040309040C0341005400AF
:100090004D0045004C00000018034100560052007E
:1000A00049005300500020006D006B0049004900DA
:1000B000000009000A000A000B000C000D000D00F2
:1000C0000E000F00100010001200130013001400A7
:1000D00016001600180019001A001C001D001F0051
:1000E0002000220023002500270029002B002E00DD
:1000F00030003200340037003A003D004000430039
:1001000046004A004E00520055005A005E0063004F
:1001100068006D00730078007E0084008B00910001
:100120009900A000A900B100B900C300CC00D6001E
:10013000E100EC00F700040111011E012D013B015B
:100140004B015B016C017D019101A501BA01CF0159
:10015000E601FE01160231024C026A028802A80280
:10016000CA02ED021103380360038B03B803E703EF
:1001700018044B048104B904F50434057505B90568
:1001800001064E069D06EF064807A307040865080A
:10019000D0084009B6092B0AAB0A300BC30B510C2F
:1001A000EE0C8F0D400EF60EAF0F681047111412B3
:1001B000F512ED13E214F015F9161B185C19911ADB
:1001C000E51B251D831E0320AB21302332250F277D
:1001D000F128F82A1A2D492FA1311434A1364539B6
:1001E000173C1A3F34426045DF48704C40004101E3
:1001F0004243030011241FBECFEFD2E0DEBFCDBFCC
:1002000011E0A0E0B1E0E2ECF7E202C005900D924F
:10021000A23AB107D9F711E0A2EAB1E001C01D92FC
:10022000A53BB107E1F744D00C94DF13E9CE95B1BB
:100230009F71982B95B9089584B7877F84BF88E113
:100240000FB6F89480936000109260000FBE90E0AB
:1002500080E80FB6F89480936100909361000FBE20
:1002600084B1806E84B985B18F7185B90C94EB111E
:1002700080ECDDCF80E4DBCF82E060E842E30E94E7
:10028000511180FF02C080E801C080E4D0CF8EB35E
:10029000843069F4C8D182E08093E9008091E8005D
:1002A00082FF05C080ECC3DF74D080E8C0CF089522
:1002B000C3DF67D080E4BBDF7894489B02C090E046
:1002C00001C090E285B18F7D892B85B9E0DF0E9466
:1002D000AA13F3CF01C00895F9011082923029F0DA
:1002E000933049F0913071F528C0908360E270E05E
:1002F000E0E0F1E02BC0813051F0813028F0823015
:1003000049F08330F9F40BC0E6E8F0E005C0EAE814
:10031000F0E002C0E8E9F0E0649170E017C060919D
:10032000200170E082E390E090932F0180932E01F2
:1003300082E08083E0E2F1E009C062E170E0E4E79E
:10034000F0E004C060E070E0E0E0F0E0DA01119677
:10035000FC93EE93CB01089578941F920F920FB601
:100360000F9211248F938AB5882321F08AB581508A
:100370008ABD01C015BC8F910F900FBE0F901F90CA
:1003800018958BE987BD82E084BD80936E0030D1E3
:10039000E9C50F931F93DF93CF930F92CDB7DEB7CD
:1003A0001091F10084E68ABD85E085BD143109F421
:1003B000CCC0153110F51A3009F4AEC01B3068F40A
:1003C000143038F4123008F054C0113009F0D5C0A0
:1003D00033C0163009F0D1C079C0113109F4B0C072
:1003E000123120F4103109F0C8C0A8C0123109F44C
:1003F000AFC0133109F0C1C0A5C0193109F4ADC0B7
:100400001A3168F4163109F4A0C0163108F49AC004
:10041000173109F4A2C0183109F0AFC09BC01D31DB
:1004200009F49EC01D3108F495C0103509F49CC034
:10043000113509F0A2C096C08091E8008B778093B7
:10044000E80082E08093E9008091EC008160809375
:10045000EC001093F1001092F1008AE08093F1001B
:100460008EE391E06AE070E040E050E00E94250FEA
:100470009AC00091F100123019F46091F10001C0AE
:1004800060E08091E8008B778093E80082E08093C1
:10049000E9008091EC0081608093EC001093F10002
:1004A000802F6983C1D06981123039F481FF0CC07B
:1004B0001092F100802FC8D076C080FF05C0109246
:1004C000F100802FB9D06DC080EC6BC086EA91E05E
:1004D00064E070E040E050E00E94E10F8091E800AD
:1004E0008B778093E80082E08093E9008091EC00B4
:1004F00081608093EC008091A6019091A701A0916A
:10050000A801B091A901B7FF03C081E08093A501C4
:1005100086E08093F1000FC08091E8008B77809394
:10052000E80082E08093E9008091EC008160809394
:10053000EC001093F1001092F10035C052D438C095
:100540001CD436C0812FC3D033C0812FEFD130C02F
:10055000C6D32EC0812F8AD22BC0812FE6D228C0CD
:100560002AD326C02BD724C059D722C08091E800B7
:100570008B778093E8000E9484118091F200803490
:10058000A9F38091E8008B778093E80082E0809364
:10059000E9008091EC0081608093EC001093F10001
:1005A00089EC8093F1008091E8008E778093E800D9
:1005B00015BC0E94841182E08093E9008091EC00D8
:1005C0008E7F8093EC000F90CF91DF911F910F9160
:1005D0000895E9E4F1E09081891741F091E0E43673
:1005E000F90711F03396F7CFE0E0F0E0CF0108957E
:1005F0000F931F9380E090E00E94C513082F81E0C5
:1006000090E00E94C513182F0F3F21F08EE9E1DF23
:10061000FC0102831F3F21F088E9DBDFFC0112832C
:100620001F910F9108950895D4DF009719F0FC01F0
:100630008181089580E00895CCDF009719F0FC01D6
:100640008281089580E008951F93DF93CF930F92E6
:10065000CDB7DEB7182F6983BCDFFC016981009735
:1006600061F062831E3919F480E090E004C018390B
:1006700021F481E090E00E94CD130F90CF91DF91A3
:100680001F910895282F892F922F08959091670127
:10069000992329F08EBD0DB407FEFDCF0895CBC47C
:1006A00090916701992331F08EBD0DB407FEFDCF07
:1006B0008EB50895C0C480916701882331F01EBCB7
:1006C0000DB407FEFDCF8EB5089580E0B4C44F92FF
:1006D0005F926F927F928F929F92AF92BF92CF92D2
:1006E000DF92EF92FF920F931F93DF93CF93CDB7DB
:1006F000DEB7C950D1400FB6F894DEBF0FBECDBFF4
:10070000182FCE01019669E070E040E050E00E94B1
:10071000830F89819A81B6DFBC019A83898381E046
:100720006130780788F08091E8008B778093E8004B
:1007300082E08093E9008091EC0081608093EC007E
:100740001093F10080ECD3C0CE010A9640E050E057
:100750000E94830F89819A810A968F739070009707
:1007600039F48091E8008B778093E8000E9484112F
:100770008091E8008B778093E80082E08093E90025
:100780008091EC0081608093EC00133111F4988427
:1007900001C099845090A6016090A7019AE0A92E0B
:1007A000B12CAC0EBD1ECC24DD24EE24FF2488E049
:1007B000882E7724739464C0F50141905F010B810A
:1007C0008091A501882319F089D41092A5018D810B
:1007D0005DDF8091A7015ADF8091A60157DF842D4C
:1007E00055DF133119F48D8188258D83E114F104CF
:1007F00081F4491471F0C0FE05C0133119F48F81E2
:10080000886002C08F81877F8F83E090A601F0907F
:10081000A70100FD11C0E114F10421F403FD02C0A1
:10082000097F0260802FB701492D2C810F815FD491
:10083000882369F5EE24FF24C0FC02C01531E9F4D9
:100840008091A6019091A701A091A801B091A90162
:100850000196A11DB11D8093A6019093A701A093BD
:10086000A801B093A901133141F4A070B0700097B2
:10087000A105B10511F47092A5010894C11CD11C09
:1008800089819A81C816D90608F496CF80E09B81A9
:1008900097FF2BC08E81FADE862DF8DE852DF6DEE1
:1008A00080E0F4DE8B8185FF06C0E114F10419F4C9
:1008B0008F7C80618B838B81B701492D2C810F81C7
:1008C00016D4133191F42091A6013091A7014091E3
:1008D000A8015091A90140705070211531054105C2
:1008E000510519F491E09093A5011093F1008093C4
:1008F000F1008091E8008E778093E800C75FDE4FBB
:100900000FB6F894DEBF0FBECDBFCF91DF911F9120
:100910000F91FF90EF90DF90CF90BF90AF909F909E
:100920008F907F906F905F904F900895DF92EF923D
:10093000FF920F931F93DF93CF9300D00F92CDB709
:10094000DEB7F82ECE01019663E070E040E050E0A3
:100950000E94830F89819A8195DE9A838983809191
:10096000E8008B778093E80082E08093E900809133
:10097000EC0081608093EC00F092F1001092F100A5
:1009800000E010E028E0D22EEE24E3944AC08091EB
:10099000A501882319F0A2D31092A5018B8176DEE0
:1009A0008091A70173DE8091A60170DE84DE8093C2
:1009B000F1008091E80085FD07C08091E8008E7706
:1009C0008093E8000E9484118F2D843119F48B816B
:1009D0008D258B8300FD03C08F2D863101F520917D
:1009E000A6013091A7014091A8015091A9012F5F64
:1009F0003F4F4F4F5F4F2093A6013093A701409385
:100A0000A8015093A9018F2D863149F04070507094
:100A1000211531054105510511F4E092A5010F5F43
:100A20001F4F89819A810817190708F4B0CF1092D7
:100A3000F1009091E8008091E8008E778093E800C3
:100A400095FD09C00E9484118091E8008E77809303
:100A5000E8000E9484110F900F900F90CF91DF91CA
:100A60001F910F91FF90EF90DF900895BF92CF926A
:100A7000DF92EF92FF920F931F93DF93CF93CDB747
:100A8000DEB729970FB6F894DEBF0FBECDBFB82EE4
:100A9000CE01059665E070E040E050E00E94830FD3
:100AA0008091E8008B778093E80082E08093E900F2
:100AB0008091EC0081608093EC008E010A5F1F4FF3
:100AC0007E010894E11CF11C3AE0C32ED12CCC0E1F
:100AD000DD1EF80181918F01E3DDF70181937F0134
:100AE0000C151D05B1F7B092F1001092F1008D8147
:100AF000FE01E80FF11D80818093F1001092F1005A
:100B00008091E8008E778093E80029960FB6F894DC
:100B1000DEBF0FBECDBFCF91DF911F910F91FF9030
:100B2000EF90DF90CF90BF900895DF92EF92FF9209
:100B30000F931F93DF93CF9300D000D0CDB7DEB7D4
:100B4000D82E8E010F5F1F4FC80164E070E040E0B7
:100B500050E00E94830F8091E8008B778093E8003B
:100B600082E08093E9008091EC0081608093EC004A
:100B700045E0E42EF12CEC0EFD1EF80181918F0171
:100B800085DD0E151F05C9F7D092F1001092F10016
:100B90001092F1008091E8008E778093E8000F902A
:100BA0000F900F900F90CF91DF911F910F91FF90B9
:100BB000EF90DF900895EF92FF920F931F93DF93D2
:100BC000CF93CDB7DEB7C250D1400FB6F894DEBF99
:100BD0000FBECDBFCE01019663E070E040E050E073
:100BE0000E94830F8E010C5F1F4F6981C80170E066
:100BF00040E050E00E94830F8091E8008B77809363
:100C0000E80082E08093E9008091EC0081608093AD
:100C1000EC008DE18093F1001092F100FF240BC0F5
:100C20008981F81628F4F801EF0DF11D808101C0CB
:100C300080E02CDDF3948B81F81690F3EE248E0186
:100C40000C5F1F4F19C08981F81638F4F801EF0DB9
:100C5000F11DF394808124DD01C02DDD8093F1002E
:100C60008091E80085FD07C08091E8008E77809331
:100C7000E8000E948411E3948A81E81620F3109220
:100C8000F1009091E8008091E8008E778093E80071
:100C900095FD09C00E9484118091E8008E778093B1
:100CA000E8000E948411CE5FDE4F0FB6F894DEBFDD
:100CB0000FBECDBFCF91DF911F910F91FF90EF90AD
:100CC000089506C0EFE9FFE03197F1F700C000009A
:100CD000882321F09AB581509923A1F70895EF92C6
:100CE000FF920F931F93DF93CF9300D000D000D0DB
:100CF000CDB7DEB7CE01019666E070E040E050E08F
:100D00000E94830F8091E8008B778093E80082E057
:100D10008093E9008091EC0081608093EC008E016B
:100D20000D5F1F4F57E0E52EF12CEC0EFD1EF80174
:100D300081918F01ABDC0E151F05C9F78A818823CD
:100D400021F48981BEDF80E001C0AAD192E19093B5
:100D5000F1008093F1008091E8008E778093E800A5
:100D600026960FB6F894DEBF0FBECDBFCF91DF91B0
:100D70001F910F91FF90EF9008950F931F93DF93B2
:100D8000CF9300D0CDB7DEB7CE01019662E070E020
:100D900040E050E00E94830F08EE10E0F8018081EF
:100DA0008B77808382E08093E900ECEEF0E0808135
:100DB00081608083898185DF80E066D1E7D08A8188
:100DC00080DFE1EFF0E081E180831082F801808133
:100DD0008E7780830F900F90CF91DF911F910F91AD
:100DE00008958F929F92AF92BF92CF92DF92EF922F
:100DF000FF920F931F93DF93CF93CDB7DEB72F975B
:100E00000FB6F894DEBF0FBECDBFCE0105966BE0E6
:100E100070E040E050E00E94830F8091E8008B7703
:100E20008093E80082E08093E9008091EC0081608B
:100E30008093EC001092A6011092A7011092A801D5
:100E40001092A9018F813DDFCDD081E01DD18E812F
:100E500038DF7CE0C72ED12CCC0EDD1E5E0108945D
:100E6000A11CB11C60E1862E912C8C0E9D1E1EC013
:100E7000898527DFF80181918F0112DCF7018193C9
:100E80007F0108151905A1F78B858823D9F0FE018C
:100E9000E80FF11D90818A859817A1F080E0F4D0C9
:100EA0008E810FDF81E0F0D08E810BDF8885982F57
:100EB00091509887882341F08AB5882329F08601CC
:100EC0007501D6CF80E001C080EC90E19093F100F5
:100ED0008093F1008091E8008E778093E8002F9650
:100EE0000FB6F894DEBF0FBECDBFCF91DF911F913B
:100EF0000F91FF90EF90DF90CF90BF90AF909F90B9
:100F00008F9008951F920F920FB60F9211248F9316
:100F1000199908C08091A20187FF02C02A9A1BC0BC
:100F20002A9819C08091A201880F8093A201809114
:100F3000A30181508093A3018091A301882321F410
:100F40001092810082E086BB1B9B05C08091A201AC
:100F500081608093A201199A8F910F900FBE0F901C
:100F60001F9018953E9A10926F0010928500109273
:100F7000840081E090E0909389008093880080E471
:100F80008093800089E080938100089580916701BB
:100F9000882349F084B1897F84B985B1867F85B97A
:100FA0001CBC1DBC089584B1897F84B985B1867F3E
:100FB00085B9D8CF92E090936F001092850010927F
:100FC000840090E0880F991F8C559F4FFC0125915C
:100FD0003491309389002093880010928000109201
:100FE0008100089588E928DB8730E0F491E0909350
:100FF0006701E82FF0E0E451FE4FE491E061209AB0
:10100000289A84B1866084B923982B9AE6FF03C09E
:101010008DB5816002C08DB58E7F8DBD2098E06456
:10102000ECBD08951092670194B1966094B995B1A2
:10103000996095B9BFCF8093A20188E08093A30106
:101040008091A20187FF02C02A9A01C02A981092BB
:101050008500109284008AE0809381008091A30132
:10106000882319F08AB58823C9F7109281008091EE
:10107000A201089590916701992329F08EBD0DB4C6
:1010800007FEFDCF0895D7CF882339F0249A8EE943
:10109000D3DA882319F42C9A089524982C9808956B
:1010A00080EFE8DF80E0E6DF80E0E4DF8091670149
:1010B000882331F01EBC0DB407FEFDCF8EB502C0F3
:1010C00080E0B9DF80FF03C08AB5882349F78AB57D
:1010D000882311F080E0089581E808958DE4CADF47
:1010E00080E0C8DF8091A801C5DF80E0C3CFEF9228
:1010F000FF920F931F93162FF72EE42EE82FF0E0A8
:10110000EE77E830F10589F1E930F1053CF4E230A1
:10111000F10569F0E430F10551F50CC0E032F1055C
:1011200049F0E034F10509F1E031F10501F5822FD4
:10113000C8DD1DC0802F9EDF8F2D9CDF812F9ADFA1
:1011400080916701882331F01EBC0DB407FEFDCFEE
:101150008EB502C080E06FDF8E1519F48AB5882342
:1011600049F78AB5882329F002C09ADF03C080E0DE
:1011700001C080E894E69ABD1F910F91FF90EF9017
:1011800008959B01692F782F832F922F0895282F80
:10119000892F922F0895AF92BF92CF92DF92EF9254
:1011A000FF920F931F93DF93CF93CDB7DEB7C85055
:1011B000D1400FB6F894DEBF0FBECDBFCE01019671
:1011C00068E070E040E050E09ED66B817C818D81CC
:1011D0009E81D7DF6B837C838D839E838F819885EF
:1011E000D6DFBC0198878F83CE01099640E050E09E
:1011F0008AD68F81988509968F739070009739F4FD
:101200008091E8008B778093E8000E9484118091A0
:10121000E8008B778093E80082E08093E90080917A
:10122000EC0081608093EC008091A4018823A1F5FB
:10123000298121502630A0F430E0F901E858FE4F12
:101240009081F901E258FE4F8081F901EC57FE4F81
:10125000608126573E4FF9012081222399F003C077
:1012600066E283E29EE2EB80FC800D811E81AF800E
:10127000B884492F2A8199E0C92ED12CCC0EDD1ECD
:1012800003D412C02B813C814D815E81892FBA012C
:10129000A9012985D5D308C04F8158858B819C81B0
:1012A000BE01675F7F4F7BD5882311F080E001C0CE
:1012B00083E090E59093F10094E09093F1008093A7
:1012C000F1008091E8008E778093E800C85FDE4FE0
:1012D0000FB6F894DEBF0FBECDBFCF91DF911F9147
:1012E0000F91FF90EF90DF90CF90BF90AF90089557
:1012F000DF93CF93CDB7DEB7C750D1400FB6F89488
:10130000DEBF0FBECDBFCE01019667E070E040E0CA
:1013100050E0F9D56A817B818C819D8132DF6A83BF
:101320007B838C839D838E819F8131DF9F838E831E
:101330008091E8008B778093E80082E08093E90059
:101340008091EC0081608093EC008091A4012E815B
:101350003F81AE01485F5F4F882331F46A817B8112
:101360008C819D8132D305C08A819B81BA01A901FC
:10137000E9D4882311F080E001C083E090E59093E8
:10138000F10095E09093F1008093F100882339F407
:101390006E817F81CE01089640E050E056D5809165
:1013A000E8008E778093E800C95FDE4F0FB6F894AF
:1013B000DEBF0FBECDBFCF91DF910895DF93CF93F6
:1013C0000F92CDB7DEB7CE01019661E070E040E04C
:1013D00050E099D58091E8008B778093E80082E017
:1013E0008093E9008091EC0081608093EC0089811A
:1013F0008093A40181E58093F1008981813011F00F
:1014000080E001C080EC8093F1008091E8008E774D
:101410008093E8000F90CF91DF910895DF93CF93F1
:10142000CDB7DEB729970FB6F894DEBF0FBECDBF9C
:101430008091F100843009F494C0853048F4823002
:1014400089F1833008F04AC0813009F027C10AC011
:10145000863009F48AC0863008F485C0873009F0E8
:101460001DC1C7C08091E8008B778093E80082E0BF
:101470008093E9008091EC0081608093EC00809182
:10148000A401882311F41DD205C0823011F411D4B7
:1014900001C080E090E59093F10091E09093F1001D
:1014A0008927F5C09091E8009B779093E80080939E
:1014B000E9008091EC0081608093EC008091A401B0
:1014C000882311F440D201C032D480E58093F1002A
:1014D00082E08093F1001092F100DBC0CE0105960E
:1014E00065E070E040E050E00ED56E817F81888538
:1014F000998547DE6E837F83888799878091E8008E
:101500008B778093E80082E08093E9008091EC0083
:1015100081608093EC008091A401ED81882379F4AF
:10152000E150E83028F4F0E0E059FE4F808101C03E
:1015300080E04E815F81688579850DD308C0E130F8
:1015400011F480E101C084E16E817F8163D488233E
:1015500011F080E001C083E090E59093F10093E00A
:1015600094C019DE9BC0C4DE99C0CE01059661E02F
:1015700070E040E050E0C7D48091E8008B77809322
:10158000E80082E08093E9008091EC008160809324
:10159000EC008091A401882391F4ED81E150E230C8
:1015A00028F4F0E0E057FE4F808101C088E7BE01DB
:1015B0006F5F7F4FD3D1882321F080E003C081E0AB
:1015C00001C083E090E59093F10096E09093F100E4
:1015D0008093F100882309F05CC089819A81AB81F6
:1015E000BC81CD01AA27BB278093F10099818A8114
:1015F0004CC08091F100833031F1843028F4813087
:1016000041F0823081F516C0843011F1853059F5F2
:1016100024C08091F1009091F1002091F10030916F
:10162000F100309368012093690190936A018093DF
:101630006B0117C08091F1009091F10090936C01C3
:1016400080936D010EC08091F10080936E0109C0FE
:101650008091F10080936F0104C08091F10080912E
:10166000F10080E001C081E09091E8009B779093C9
:10167000E80092E09093E9009091EC0091609093E3
:10168000EC0090E59093F10097E09093F100809347
:10169000F1008091E8008E778093E80029960FB6DC
:1016A000F894DEBF0FBECDBFCF91DF9108954D9965
:1016B000FECF4D9BFECF4D99FECF5B9A539A809102
:1016C000C9008F7E8093C9008091C9008860809393
:1016D000C90081E08093AA0108958091C80086FF27
:1016E000FCCF8091C80080648093C8008091C900BD
:1016F000877F8093C9008091C90080618093C90071
:1017000053985B981092AA0108958091AA018823AA
:1017100009F0E3DF80EC8093C8001092C9001092BA
:10172000CA008AB1877D8AB98BB1837D8BB9089550
:101730008091AA01882309F0D0DF8091C800806CD5
:101740008093C8001092C9001092CA008AB1877DA8
:101750008AB98BB1837D8BB924982C980895DF9337
:10176000CF930F92CDB7DEB79091AA01992319F4C8
:1017700089839DDF89819091C80095FFFCCF90916E
:10178000C80090649093C8008093CE000F90CF91D2
:10179000DF9108958091AA01882309F09EDF80914E
:1017A000C80087FD03C08AB58823C9F78091CE00A1
:1017B00008958091AA01882309F479DF8CE04D997E
:1017C000FECF4D9BFECF4D99FECF8150C1F70895BE
:1017D0001092AA01249A2C9885E08A95F1F70000CE
:1017E0008AB188628AB952988FE190E09093CD00D7
:1017F0008093CC0088E08093C9008FE68093CA0074
:10180000D8DFD7CF1092AA018AB188628AB95298DC
:101810005B9A85E08A95F1F700008FE190E0909364
:10182000CD008093CC0088E08093C9008FE6809340
:10183000CA00BFDFBECF1F93DF93CF9300D0CDB7D9
:10184000DEB7182F862F79839A8389DF7981872FD6
:1018500086DF812F84DF9A81892F81DF0F900F909F
:10186000CF91DF911F910895682F70E080E090E0A4
:10187000209168013091690140916A0150916B019A
:10188000622B732B842B952BD6CF80E868DF82DF09
:101890009AB5992321F081FFF8CF81E0089580E087
:1018A00008958BE65CDF8FE0DFDF80E258DF72DFD8
:1018B0009AB5992321F087FDF8CF81E0089580E063
:1018C0000895CF92DF92EF92FF920F931F93DF93D1
:1018D000CF93CDB7DEB728970FB6F894DEBF0FBE13
:1018E000CDBF90DF81EC3BDF89E539DF82EC37DF6C
:1018F00082E035DF80EE33DF8E01075F1F4F7E0110
:101900000894E11CF11C6701D601E2E9F1E088E0EE
:1019100001900D928150E1F7F80182918F011FDF54
:101920000E151F0589F7B1DF28960FB6F894DEBFB4
:101930000FBECDBFCF91DF911F910F91FF90EF9020
:10194000DF90CF900895A1DF81EC09DF80E007DF11
:1019500081E805DF1FDF8823B9F7D7CE1F93CF9328
:10196000DF93182FEB01188219821A821B8299DFEC
:10197000882331F18CE4F3DE8AE076DF812FEFDE1D
:101980008CE4EDDE8BE070DF81E0E9DE7EDF882332
:10199000B9F087DF8823A1F08BE6E1DE84E064DF25
:1019A00080EADDDE82E0DBDE84E2D9DEF3DE8883FE
:1019B000F1DE8983EFDE8A839AB581E0992309F409
:1019C00080E0DF91CF911F910895CF92DF92EF9247
:1019D000FF920F931F93CF93DF936B017C018A01DA
:1019E000E9015FDF882311F18CE4B9DE8AE03CDF96
:1019F00083E4B5DE8BE6B3DEC701B6011CDF80EA07
:101A0000AEDE9E012150822FAADE84E2A8DE04C051
:101A1000C1DEF80181938F01209721F08AB52197CB
:101A20008823B1F79AB581E0992309F480E0DF912A
:101A3000CF911F910F91FF90EF90DF90CF9008957D
:101A4000CF92DF92EF92FF920F931F93D82E7A01DD
:101A50008B01C22E26DF882379F08CE480DE8AE0B9
:101A600003DF8D2D7CDE8CE47ADEC801B701E3DE76
:101A70008C2D75DE81E001C080E01F910F91FF90F9
:101A8000EF90DF90CF9008957F928F929F92AF92C8
:101A9000BF92CF92DF92EF92FF920F931F93CF935B
:101AA000DF93882E962E742EE601D22E20FF10C0D2
:101AB000F8DE882309F440C08CE451DE8AE0D4DEED
:101AC000892D4DDE8CE44BDE8BE0CEDE81E047DEFF
:101AD000A114B104E9F0E5DE882371F18CE43FDE66
:101AE0008AE0C2DE882D3BDE8BE639DEC801B70115
:101AF000A2DE80EA34DE8A2D815031DE84E62FDEDC
:101B000089912DDE0894A108B108A114B104C1F790
:101B1000D1FE10C0C6DE882379F08CE420DE8AE096
:101B2000A3DE872D1CDE8CE41ADEC801B70183DE3C
:101B300080E015DE81E001C080E0DF91CF911F9150
:101B40000F91FF90EF90DF90CF90BF90AF909F905C
:101B50008F907F900895DF92EF92FF920F931F93E3
:101B6000D82E7A018B019DDE882309F459C08D2D72
:101B7000803431F48CE4F3DD8AE076DE80E43AC030
:101B80008D2D803309F03DC08CE4E9DD8AE06CDE08
:101B900086E3E5DD8CE4E3DD8BE066DE81E0DFDD1E
:101BA00080DE882309F43CC08CE4D9DD8AE05CDE69
:101BB00083E3D5DD8BE6D3DDC801B7013CDE80EAE7
:101BC000CEDD80916C018150CADD84E6C8DD10E075
:101BD00003C080E0C4DD1F5F212F30E080916C01E5
:101BE00090916D0128173907A0F38CE4B8DD8AE0E5
:101BF0003BDE80E3B4DD8CE4B2DD8BE035DE81E0FA
:101C00000CC08CE4ACDD8AE02FDE8D2DA8DD8CE4E9
:101C1000A6DDC801B7010FDE80E0A1DD36DE01C020
:101C200080E01F910F91FF90EF90DF900895282F93
:101C30002F70206990E080739070880F991F822B1D
:101C40008ECD1F93DF93CF930F92CDB7DEB7182FB2
:101C500088E6998384DD812F82DD89E680DD9981A4
:101C6000892F7DDD0F90CF91DF911F91089580E83E
:101C700076DD90DD9AB5992321F081FFF8CF81E0E0
:101C8000089580E0089580916F01282F2F702061C2
:101C900090E080739070880F991F822B60DD7ADD51
:101CA0009AB5992321F087FDEECF81E0089580E079
:101CB0000895CF92DF92EF92FF920F931F93DF93DD
:101CC000CF93CDB7DEB728970FB6F894DEBF0FBE1F
:101CD000CDBF7EDD82EC43DD82E041DD80EE3FDD85
:101CE0008E01075F1F4F7E010894E11CF11C670104
:101CF000D601EAE9F1E088E001900D928150E1F728
:101D0000F80182918F012BDD0E151F0589F7AFDFDA
:101D100028960FB6F894DEBF0FBECDBFCF91DF91EE
:101D20001F910F91FF90EF90DF90CF9008959FDF6C
:101D300080EC15DD80E013DD81E811DD2BDD8823EB
:101D4000B9F7F6CCEF92FF920F931F93CF93DF93E7
:101D50008C01EB017A0197DF8823C9F080916E0135
:101D600066DF80E0FCDCC8016CDF04C084E2F7DCE5
:101D700011DD8993E114F10431F08AB50894E1088A
:101D8000F108882399F79AB581E0992309F480E056
:101D9000DF91CF911F910F91FF90EF900895EF92F7
:101DA000FF920F931F93CF93DF938C01EB017A0186
:101DB0006ADF882339F1E0FE08C0FE01EE0DFF1D49
:101DC0008FEF80830894E11CF11C80916E012FDF5E
:101DD0008DE1C5DCC80135DF10C055DF882391F0E7
:101DE00084E6BDDC8881BBDC84E6B9DC898122968F
:101DF000B6DC8EEF9FEFE80EF91EE114F10469F7EF
:101E000081E001C080E0DF91CF911F910F91FF90A1
:101E1000EF9008951F93CF93DF93182FEB0133DFDB
:101E2000882371F080916E0102DF812F98DCCE0152
:101E3000816007DF80E693DC80E091DC24DF01C075
:101E400080E0DF91CF911F9108958F929F92BF9272
:101E5000CF92DF92EF92FF920F931F93DF93CF9376
:101E60000F92CDB7DEB7E82E4B018A0199834CD291
:101E7000B82E99818823C9F5F92E0115110539F07D
:101E8000F80120813181821A930AE20EF31ECC24DC
:101E9000DD2426C08091E80085FD17C08091E80010
:101EA0008E778093E80056D40115110551F0F801A2
:101EB000808191818C0D9D1D9183808325E0B22EC0
:101EC00014C022D2882361F00FC0F70181917F01F5
:101ED0008093F1000894810891080894C11CD11CDA
:101EE00081149104B9F601C0B82E8B2D0F90CF91BB
:101EF000DF911F910F91FF90EF90DF90CF90BF90F7
:101F00009F908F9008958F929F92BF92CF92DF9271
:101F1000EF92FF920F931F93DF93CF930F92CDB762
:101F2000DEB7E82E4B018A019983EED1B82E998154
:101F30008823C9F5F92E0115110539F0F801208122
:101F40003181821A930AE20EF31ECC24DD2426C0CE
:101F50008091E80085FD17C08091E8008B77809321
:101F6000E800F8D30115110551F0F8018081918145
:101F70008C0D9D1D9183808345E0B42E14C0C4D187
:101F8000882361F00FC08091F100F70181937F01F8
:101F90000894810891080894C11CD11C81149104F3
:101FA000B9F601C0B82E8B2D0F90CF91DF911F9104
:101FB0000F91FF90EF90DF90CF90BF909F908F9008
:101FC0000895BF92CF92DF92EF92FF920F931F93EB
:101FD000CF93DF936C01EB017A0196D1B82E882361
:101FE000D9F58E01015010400C0D1D1DE114F104B6
:101FF00039F0F70120813181C21BD30B021B130B77
:10200000CC24DD2425C08091E80085FD17C0809197
:10201000E8008B778093E8009DD3E114F10451F040
:10202000F701808191818C0D9D1D9183808355E006
:10203000B52E12C069D1882359F00DC08091F100EE
:10204000F80180830150104021970894C11CD11CD5
:102050002097C9F601C0B82E8B2DDF91CF911F912B
:102060000F91FF90EF90DF90CF90BF900895282FB1
:10207000392FF9018091B3019091B4018617970728
:1020800018F4BC0120E034C061157105D9F78091C6
:10209000E8008E778093E800F5CF8EB38823E9F1CE
:1020A0008530B9F18091E80083FD35C08091E8006A
:1020B00082FD29C08091E80080FF1AC08091F20063
:1020C00090E006C021912093F1006150704001968C
:1020D0006115710519F080319105A0F321E080317F
:1020E000910509F020E08091E8008E778093E80068
:1020F0006115710591F6222381F605C08EB3882300
:1021000061F0853061F08091E80082FFF7CF80E0D8
:10211000089583E0089581E0089582E0089583E0C2
:102120000895E82FF92F8091B3019091B40186179B
:10213000970718F4BC0120E036C061157105D9F786
:102140008091E8008E778093E800F5CF8EB38823E6
:1021500009F43EC08530C1F18091E80083FD36C0AE
:102160008091E80082FD2AC08091E80080FF1BC0BA
:102170008091F20090E007C024912093F100319605
:102180006150704001966115710519F0803191051B
:1021900098F321E08031910509F020E08091E8007A
:1021A0008E778093E8006115710581F6222371F620
:1021B00005C08EB3882361F0853061F08091E8001E
:1021C00082FFF7CF80E0089583E0089581E00895CD
:1021D00082E0089583E00895EF92FF920F931F939A
:1021E000CF93DF93EB01E82EF92E8091B30190910C
:1021F000B4018617970718F4EC0180E036C02097E9
:10220000E1F78091E8008E778093E800F6CF9EB3E7
:102210009923E9F19530E9F19091E80093FD35C0FB
:102220009091E80092FD2BC09091E80090FF1DC0B6
:102230000091F20010E00AC0C701A7D28093F1001C
:102240000894E11CF11C21970F5F1F4F209719F094
:102250000031110588F381E00031110509F080E0BB
:102260009091E8009E779093E800209781F688236C
:1022700071F605C08EB3882351F0853051F08091FE
:10228000E80082FFF7CF80E005C081E003C082E074
:1022900001C083E0DF91CF911F910F91FF90EF90EC
:1022A00008958F708093E900EBEEF0E0808181600B
:1022B0008083EDEEF0E010826093EC00408380912B
:1022C000EE00881F8827881F08958091AD0187FF41
:1022D00011C003C08EB38823B1F08091E80082FF63
:1022E000F9CF8091E8008B778093E80008958EB352
:1022F000882349F08091E80080FFF9CF8091E800C1
:102300008E778093E80008958091E4009091E50035
:1023100044E62091EC0020FF25C02091E80020FD3C
:1023200015C02EB32223A1F02530A1F02091EB009F
:1023300025FD12C02091E4003091E50028173907EF
:1023400041F3442359F04150C901E3CF80E008959F
:1023500082E0089583E0089581E0089584E008957F
:1023600080E008952091E80022FFDBCFF9CF3CD038
:102370003ED08091D8008F778093D8008091D8008C
:1023800080688093D8008091D8008F7D8093D8009A
:1023900084E089BD86E089BD09B400FEFDCF1EBA88
:1023A0001092AB0180E060E042E17BDF8091E100D0
:1023B0008E7F8093E1008091E20081608093E20053
:1023C0008091E20088608093E2008091E0008E7F3F
:1023D0008093E0000895E3E6F0E080818E7F8083C3
:1023E00081E08093AC01C3CF1092E2000895109277
:1023F000E10008951F920F920FB60F9211242F93B0
:102400003F934F935F936F937F938F939F93AF937C
:10241000BF93EF93FF938091E10080FF17C08091FD
:10242000E20080FF13C08091E2008E7F8093E20083
:102430008091E20080618093E2008091D800806208
:102440008093D80019BC1EBA0E943A018091E10025
:1024500084FF2DC08091E20084FF29C084E089BD03
:1024600086E089BD09B400FEFDCF8091D8008F7D44
:102470008093D8008091E1008F7E8093E10080916D
:10248000E2008F7E8093E2008091E2008160809381
:10249000E2008091AB01882321F48091E30087FF63
:1024A00002C084E001C081E08EBB0E9438018091AF
:1024B000E10083FF21C08091E20083FF1DC0809175
:1024C000E100877F8093E10082E08EBB1092AB0138
:1024D0008091E1008E7F8093E1008091E2008E7F09
:1024E0008093E2008091E20080618093E20080E0CE
:1024F00060E042E1D6DE2DD1FF91EF91BF91AF9127
:102500009F918F917F916F915F914F913F912F910B
:102510000F900FBE0F901F9018951F93DF93CF93CE
:1025200000D00F92CDB7DEB7EDEAF1E08091F10077
:10253000819381E0E53BF807C9F70BD18091E80072
:1025400083FFF2C08091AD019091AE01953009F406
:102550006CC0963040F4913069F1913070F0933056
:1025600009F0E2C027C0983009F4B0C0993009F4EE
:10257000BFC0963009F0D8C07AC0803881F0823868
:1025800009F0D2C08091B1018F708093E9009091E1
:10259000EB0081E095FF80E01092E90001C080E04F
:1025A0009091E800977F9093E8008093F10010925B
:1025B000F10097C0882319F0823009F0B5C08F71FF
:1025C000823009F0B1C08091AF01882341F520919C
:1025D000B1012F7009F4A8C02093E9008091EB00AD
:1025E00080FF1DC08091AE01833021F48091EB000B
:1025F000806213C08091EB0080618093EB0081E0EA
:1026000090E002C0880F991F2A95E2F78093EA00B4
:102610001092EA008091EB0088608093EB001092AA
:10262000E9008091E800877F5FC0882309F07CC0C3
:102630001091AF011F778091E3008078812B809308
:10264000E3008091E800877F8093E8003EDE809180
:10265000E80080FFFCCF8091E30080688093E30076
:10266000112311F083E001C082E08EBB5DC0805871
:10267000823008F059C08091AF019091B001609113
:10268000B101AE014E5F5F4F9E012F5F3F4F0E9431
:102690006A01BC01009709F447C08091E800877F78
:1026A0008093E8002981222321F48A819B8139DDEE
:1026B00007C08A819B81213011F48EDD01C0D7DCF7
:1026C0008091E8008B778093E8002EC0803861F518
:1026D0008091E800877F8093E8008091AB01809330
:1026E000F1008091E8008E778093E800EEDD1CC059
:1026F0008823D1F49091AF019230B0F48091E8003A
:10270000877F8093E8009093AB01DFDD8091AB0180
:10271000882321F48091E30087FF02C084E001C098
:1027200081E08EBB0E943C018091E80083FF0AC0DB
:102730008091E800877F8093E8008091EB008062C1
:102740008093EB000F900F900F90CF91DF911F912E
:10275000089508951F938EB38823A9F08091E9000E
:102760008F709091EC0090FF02C010E801C010E063
:10277000182B1092E9008091E80083FF01C0CDDEA4
:102780001F701093E9001F910895F999FECF92BD33
:1027900081BDF89A992780B50895262FF999FECF23
:1027A00092BD81BDF89A019700B4021639F01FBAA4
:1027B00020BD0FB6F894FA9AF99A0FBE0895F894CE
:0227C000FFCF49
:1027C20009022000010100C0320904000002FF00DA
:1027D20000000705820240000A0705020240000AC3
:1027E2001C03300030003000320030003000300076
:1027F2003100320033003400350000000000415641
:10280200524953505F4D4B320080010081010090CC
:1028120001009101019201149401219803069E0383
:1028220001A10100A4030001C00100012000333214
:1028320040206830222A3218242C354C081A2323CF
:1028420033232323262636262626010101000001F2
:1028520038391289AB45CDD888FF1289AB45CDD81E
:0228620088FFED
:00000001FF
