:1000000079C0000094C0000092C0000090C00000C1
:100010008EC000008CC000008AC0000088C00000B4
:1000200086C0000084C000001BC3000080C0000028
:100030007EC000007CC000007AC0000078C00000D4
:1000400076C0000074C0000072C0000070C00000E4
:100050006EC000006CC000006AC0000068C00000F4
:1000600066C0000064C0000062C0000060C0000004
:100070005EC000005CC000005AC0000058C0000014
:1000800056C0000054C0000052C0000050C0000024
:100090004EC000004CC0000012011001FF0000081B
:1000A000B40411FD00020102030109021200010162
:1000B0000080FA0904000000FF00000004030904A6
:1000C0000C0353004900530050004D00000016037C
:1000D000520065006C006100790042006F00610011
:1000E0007200640000000C0330003000300030006B
:1000F0003100000011241FBECFEFD0E2DEBFCDBF24
:1001000011E0A0E0B1E0E4E4FAE000E00BBF02C0DF
:1001100007900D92A030B107D9F711E0A0E0B1E04F
:1001200001C01D92AC30B107E1F71ED089C468CF81
:1001300084B7877F84BF88E10FB6F894809360000E
:10014000109260000FBE90E080E80FB6F8948093A4
:100150006100909361000FBE68D287B1806F87B94C
:1001600088B18F7088B90895E3DF789460D4FECFAA
:10017000DF93CF93CDB7DEB727970FB6F894DEBFE6
:100180000FBECDBF1B821C821D821E8281E08F8329
:1001900019821A8280910501813009F451C0893099
:1001A00009F09EC080910401813209F099C080E17C
:1001B00089B98091E800877F8093E800CE0101969D
:1001C00062E070E023D18091E8008E7F8093E800A8
:1001D000809106019091070123E086309207D9F0C3
:1001E00023E08730920730F423E08330920709F050
:1001F00077C00AC023E089309207A1F023E08C3059
:10020000920709F06DC015C08A81882311F04798C4
:1002100067C0479A65C08A81882311F0469860C0FC
:10022000469A5EC08A81882311F0459859C0459A44
:1002300057C08A81882311F0449852C0449A50C014
:1002400080910401813A09F04BC080E189B9809125
:10025000E800877F8093E800809106019091070174
:1002600023E08630920719F123E08730920748F4A3
:1002700023E08130920771F023E08330920719F573
:100280000FC023E089309207A9F023E08C30920759
:10029000D1F413C0CE01039665E070E05CD013C0CA
:1002A00088B18095881F8827881F8E5F0BC0469B6A
:1002B00008C005C0459B05C002C0449B02C082E047
:1002C00001C083E08A838A81882329F0CE010196C8
:1002D00062E070E040D08091E8008B7F8093E8007E
:1002E00027960FB6F894DEBF0FBECDBFCF91DF913A
:1002F0000895923029F0933041F0913011F51CC0EF
:1003000022E130E0EAEAF0E020C0813051F08130B3
:1003100028F0823049F08330A1F409C0ECEBF0E022
:1003200008C0E0ECF0E005C0EEECF0E002C0E6EE64
:10033000F0E0249130E009C022E130E0E8E9F0E0AB
:1003400004C020E030E0E0E0F0E0DA011196FC9338
:10035000EE93C9010895282F392FF90180910A01E0
:1003600090910B018617970718F4BC0120E035C067
:1003700061157105D9F78091E8008E7F8093E800C0
:10038000F5CF8EB38823F1F18530C1F18091E8007B
:1003900083FD36C08091E80082FD2AC08091E8008C
:1003A00080FF1BC08091F2009091F30006C0219164
:1003B0002093F1006150704001966115710519F0AC
:1003C00088309105A0F321E08830910509F020E004
:1003D0008091E8008E7F8093E8006115710589F6B1
:1003E000222379F605C08EB3882361F0853061F051
:1003F0008091E80082FFF7CF80E0089583E00895C0
:1004000081E0089582E0089583E008956115710503
:1004100029F51FC02EB32223A1F1253071F12091BF
:10042000E80023FD2CC02091E80022FFF3CFE82F45
:10043000F92F07C08091F1008193CF016150704086
:1004400041F0CF012091F2003091F30021153105E8
:1004500089F72091E8002B7F2093E8006115710552
:10046000C9F605C08EB3882361F0853061F08091B4
:10047000E80080FFF7CF80E0089583E0089581E0F1
:10048000089582E0089583E00895E82FF92F809180
:100490000A0190910B018617970718F4BC0120E020
:1004A00037C061157105D9F78091E8008E7F809380
:1004B000E800F5CF8EB3882309F43FC08530C9F139
:1004C0008091E80083FD37C08091E80082FD2BC059
:1004D0008091E80080FF1CC08091F2009091F300B1
:1004E00007C024912093F10031966150704001962D
:1004F0006115710519F08830910598F321E0883075
:10050000910509F020E08091E8008E7F8093E8005B
:100510006115710579F6222369F605C08EB388232B
:1005200061F0853061F08091E80082FFF7CF80E0D4
:10053000089583E0089581E0089582E0089583E0BE
:100540000895EBEEF0E0808181608083EDEEF0E0D5
:1005500010826093EC0040838091EE00881F882712
:10056000881F08958091040187FF11C003C08EB3D6
:100570008823B1F08091E80082FFF9CF8091E800F4
:100580008B7F8093E80008958EB3882349F0809193
:10059000E80080FFF9CF8091E8008E7F8093E8002B
:1005A00008950F931F93CF93DF934DD054D0C8ED90
:1005B000D0E088818F77888388818068888388816C
:1005C0008F7D8883E7EDF0E080818068808319BCAF
:1005D0001EBA10920001109202011092010100EE69
:1005E00010E0F80180818B7F80838881816088831F
:1005F00080E060E042E0A5DFE1EEF0E080818E7F08
:100600008083E2EEF0E08081816080838081886079
:100610008083F80180818E7F8083888180618883D8
:10062000DF91CF911F910F910895E8EDF0E0808167
:100630008F7E8083E7EDF0E080818160808381E0C0
:1006400080930301AECFE8EDF0E080818C7F808362
:100650001092E20008951092DA001092E1000895DD
:100660001F920F920FB60F920BB60F9211242F9379
:100670003F934F935F936F937F938F939F93AF932A
:10068000BF93EF93FF938091E10082FF0AC08091B6
:10069000E20082FF06C08091E1008B7F8093E10041
:1006A000C5D18091DA0080FF1BC08091D80080FF07
:1006B00017C08091DA008E7F8093DA008091D90094
:1006C00080FF0BC08CE089BD8EE089BD09B400FEBF
:1006D000FDCF81E08EBBAAD103C019BC1EBAA6D142
:1006E0008091E10080FF17C08091E20080FF13C07D
:1006F0008091E2008E7F8093E2008091E200806131
:100700008093E2008091D80080628093D80019BC69
:1007100085E08EBB8BD18091E10084FF2CC080915D
:10072000E20084FF28C08CE089BD8EE089BD09B459
:1007300000FEFDCF8091D8008F7D8093D8008091FE
:10074000E1008F7E8093E1008091E2008F7E8093B4
:10075000E2008091E20081608093E20080910001DC
:10076000882321F48091E30087FF02C084E001C068
:1007700081E08EBB5BD18091E10083FF21C080913D
:10078000E20083FF1DC08091E100877F8093E1003C
:1007900082E08EBB109200018091E1008E7F8093F9
:1007A000E1008091E2008E7F8093E2008091E20080
:1007B00080618093E20080E060E042E0C2DE36D1FA
:1007C000FF91EF91BF91AF919F918F917F916F9129
:1007D0005F914F913F912F910F900BBE0F900FBEE5
:1007E0000F901F9018951F93DF93CF93CDB7DEB76F
:1007F000AC970FB6F894DEBF0FBECDBFE4E0F1E0DA
:100800008091F100819321E0EC30F207C9F7B0DC70
:100810008091E80083FFF2C08091040120910501DE
:10082000253009F446C0263040F4213049F121300A
:1008300070F0233009F0E2C023C0283009F4B1C0C1
:10084000293009F4C0C0263009F0D8C054C080381F
:1008500021F0823809F0D2C008C080910101909146
:100860000201992319F0826001C080E09091E800B4
:10087000977F9093E8008093F1001092F1009CC064
:10088000882319F0823009F0B9C090E08F71907020
:10089000009709F0B3C080910601813009F0AEC025
:1008A000233009F080E0809302018091E800877F87
:1008B00086C0882309F0A2C0109106011F7780919D
:1008C000E3008078812B8093E3008091E800877FAC
:1008D0008093E80047DE8091E80080FFFCCF8091A4
:1008E000E30080688093E300112311F083E001C0EE
:1008F00082E08EBB83C08058823008F07FC0809138
:1009000006019091070123E08C3D920791F583E069
:100910008C838AE28B835FB7F894DE01159680E0C2
:1009200090E04EE061E2E42FF0E060935700E49144
:1009300080FF03C0E295EF704F5FEF702E2F30E025
:10094000EA3018F0295C3F4F02C0205D3F4F2D93E5
:100950003D9301968431910531F75FBF8091E800A6
:10096000877F8093E800CE0103966AE270E0F3DCB3
:1009700012C060910801AE014F5F5F4FBADCBC014D
:10098000009709F43BC08091E800877F8093E800DE
:1009900089819A817ADD8091E8008B7F8093E800DD
:1009A0002DC0803859F58091E800877F8093E8005A
:1009B000809100018093F1008091E8008E7F809308
:1009C000E800D0DD1BC08823C9F490910601923065
:1009D000A8F48091E800877F8093E800909300015D
:1009E000C1DD80910001882321F48091E30087FF1D
:1009F00002C084E001C081E08EBB18D08091E80085
:100A000083FF0AC08091E800877F8093E80080918F
:100A1000EB0080628093EB00AC960FB6F894DEBFDB
:100A20000FBECDBFCF91DF911F91089508958EB372
:100A3000882329F08091E80083FF01C0D4CE089577
:040A4000F894FFCF58
:00000001FF
