:1000000007C2000023C2000021C200001FC200007E
:100010001DC200001BC2000019C2000017C2000070
:1000200015C2000013C200000C94B82D0C94152FBB
:100030000DC200000BC2000009C2000007C2000090
:1000400005C200000C94341C01C20000FFC1000076
:10005000FDC10000FBC10000F9C10000F7C10000B4
:10006000F5C10000F3C10000F1C10000EFC10000C4
:10007000EDC10000EBC10000E9C10000E7C10000D4
:10008000E5C10000E3C10000E1C10000DFC10000E4
:10009000DDC10000DBC1000012011001EF02010808
:1000A000EB03692001000102DC0109025D0003018C
:1000B000008032080B00020202FF00090400000168
:1000C0000202FF000524001001042402000524069A
:1000D0000001070585030800FF09040100020A006A
:1000E00000000705020240000507058102400005E7
:1000F00009040200020806500007058302400005BB
:1001000007050402400005040309041803440065C0
:100110000061006E002000430061006D0065007208
:1001200000610000001E034C005500460041002005
:10013000005700650062007300650072007600657C
:100140000072000000485454502F312E31203230BC
:1001500030204F4B0D0A5365727665723A204C552C
:100160004641203133303330330D0A436F6E6E65B4
:100170006374696F6E3A20636C6F73650D0A4D4945
:100180004D452D76657273696F6E3A20312E300DB4
:100190000A436F6E74656E742D547970653A200051
:1001A000485454502F312E3120343034204E6F7447
:1001B00020466F756E640D0A5365727665723A203B
:1001C0004C554641203133303330330D0A436F6E86
:1001D0006E656374696F6E3A20636C6F73650D0AA8
:1001E0004D494D452D76657273696F6E3A20312EFB
:1001F000300D0A436F6E74656E742D547970653AD4
:1002000020746578742F706C61696E0D0A0D0A4553
:1002100072726F72203430343A2046696C65204E19
:100220006F7420466F756E643A202F00696E6465A6
:10023000782E68746D00746578742F706C61696EC7
:1002400000474554000D0A0D0A002A2A2A2A2A2AA4
:100250002A2A2A2A2A2A2A2A2A2A2A2A2A2A2A2AFE
:100260002A2A2A2A2A2A2A2A2A2A2A2A2A2A2A2AEE
:100270002A2A2A2A2A2A0D0A2A2020202020202061
:100280004C5546412075495020576562736572761A
:100290006572202854454C4E4554292020202020AA
:1002A0002020202A0D0A2A2A2A2A2A2A2A2A2A2A09
:1002B0002A2A2A2A2A2A2A2A2A2A2A2A2A2A2A2A9E
:1002C0002A2A2A2A2A2A2A2A2A2A2A2A2A2A2A2A8E
:1002D0002A2A0D0A000D0A20203D3D204176616941
:1002E0006C61626C6520436F6D6D616E64733A2062
:1002F0003D3D0D0A20202020206329204C69737485
:10030000204163746976652054435020436F6E6EBC
:10031000656374696F6E730D0A20203D3D3D3D3D60
:100320003D3D3D3D3D3D3D3D3D3D3D3D3D3D3D3DFD
:100330003D3D3D3D0D0A0D0A3E000D0A2A20437544
:100340007272656E742054435020436F6E6E656305
:1003500074696F6E733A202A0D0A00496E76616CDB
:10036000696420436F6D6D616E642E0D0A00257502
:10037000292025642E25642E25642E256420284CF2
:100380006F63616C20506F7274202575203C3D3E78
:100390002052656D6F746520506F72742025752929
:1003A0000D0A000101010002020100020101000327
:1003B0000101000401010006010100110101000713
:1003C0000101000A0101000B0101000C0101000DF7
:1003D0000101000E010100110101001401010001E1
:1003E00001020002010200030102000401020005F3
:1003F00001020001010101020101010301010104E7
:1004000001010101010201020102010301020100D7
:1004100011241FBECFEFD0E2DEBFCDBF13E0A0E0BE
:10042000B1E0E0E9F0E800E00BBF02C007900D92F8
:10043000A635B107D9F71DE0A6E5B3E001C01D92CE
:10044000A63BB107E1F733D00C944640D9CD84B731
:10045000877F84BF88E10FB6F89480936000109284
:1004600060000FBE90E080E80FB6F89480936100C2
:10047000909361000FBE209A289A84B1866084B957
:1004800023982B9A8DB581608DBD20988CE58CBD0D
:100490008DB183608DB98EB183608EB98AB1806F62
:1004A0008AB98BB18F708BB983E00C947A2DCFDF32
:1004B0008BB18F7080618BB978948091D903823031
:1004C00011F47ED001C035D00E94A632F6CF923012
:1004D00029F0933041F09130E9F417C02DE530E078
:1004E000EAEAF0E01BC0813041F0813018F0823040
:1004F00089F406C0E7E0F1E005C0EBE0F1E002C0FE
:10050000E5E2F1E0249130E009C022E130E0E8E9E1
:10051000F0E004C020E030E0E0E0F0E0DA01119625
:10052000FC93EE93C90108959BB19F70982B9BB9E2
:1005300008958091D903813049F4FCD583E191E09D
:100540000E94683781EB91E00C943233089580E388
:10055000EBDF93C580E1E8CF1F9383E191E00E9438
:100560004137182F81EB91E00E941433212F30E0A6
:1005700090E02823392320FF02C080E201C080E9F7
:10058000D3DF1F91089583E191E00E94653481EBF0
:1005900091E00C94D5321F93CF93DF93EC0180ED63
:1005A000C3DFCE01EFD0182F80E2BEDF812FDF91B5
:1005B000CF911F9108959BB19F70982B9BB908957F
:1005C0008091D903823009F4B5C5089580E3F3CF53
:1005D00080E1F1CF0F931F93DF93CF93CDB7DEB7B9
:1005E000C650D2400FB6F894DEBF0FBECDBF80E339
:1005F000E2DF8E01095F1F4F81E0BE016F5F7F4F19
:10060000A80120E032E00E94542F882371F4698110
:100610007A818AEE91E0A8010E94F838882329F4B3
:1006200081E00E948232882311F080E933C08AEE93
:1006300091E00E94CE39882329F589E090E0A0E07E
:10064000B0E08B839C83AD83BE838AEE91E04EE065
:1006500051E061E070E09E012D5F3F4F04E010E04B
:100660000E94443A882371F48AEE91E042E051E01E
:1006700061E071E02CED33E006E010E00E94E33A27
:10068000882331F080E997DF80E00E94823203C046
:10069000F4D480E290DFCA5FDD4F0FB6F894DEBF7E
:1006A0000FBECDBFCF91DF911F910F9108950E9492
:1006B000D32C80E980DFFFCF80E97DCF282F892FE1
:1006C000922F0895AF92BF92CF92DF92EF92FF9256
:1006D0000F931F93DF93CF930F92CDB7DEB75C01DB
:1006E000FC017B96E580F4800381128187819085EF
:1006F0006983E4DF6C01698180E0E81680E8F80630
:1007000080E0080780E0180768F080910C02807F85
:10071000856080930C0281E280931602109217028A
:1007200080E024C0662331F0C501B801A70196011D
:10073000D8D205C0C501B801A701960197D1EE2412
:10074000FF2489E0CC0CDD1CEE1CFF1C8A95D1F740
:10075000F50184899589A689B7898C199D09AE0907
:10076000BF09848B958BA68BB78B81E00F90CF91BF
:10077000DF911F910F91FF90EF90DF90CF90BF908E
:10078000AF900895CF92DF92EF92FF920F931F9355
:10079000DF93CF93CDB7DEB728970FB6F894DEBFBF
:1007A0000FBECDBF8C01FC01838D8D3109F4B2C029
:1007B0008E3178F4833009F458C0843020F48823D3
:1007C00009F4E5C0EAC08231B9F08A3109F0E5C028
:1007D000C4C0883209F4BBC0893238F48E3109F4C0
:1007E000D6C0853209F0D9C067C08A3209F4ACC0DE
:1007F0008F3209F0D2C0CBC0F801868D978D5EDFB5
:100800006C01F801848D90E083709070009709F07E
:1008100085C0858D882309F081C07601F5E2CF1669
:10082000D10418F024E2E22EF12C8CE192E0B70121
:1008300040E050E00E942926C6018E199F0960E021
:1008400070E00E94E4258091E8008E778093E800B4
:10085000970140E050E0F80184899589A689B7891D
:10086000821B930BA40BB50B8DC0F801C78CEC2C2D
:10087000FC2DF33110F092E1E92E8AE092E06E2D2A
:1008800070E040E050E00E9429268C2D90E08E1907
:10089000910960E070E00E94E4258091E8008E7785
:1008A0008093E800F80184899589A689B7898E1913
:1008B0009109A109B10966C08FEF9FE7A0E0B0E000
:1008C00089839A83AB83BC8380E092E0A0E0B0E0B0
:1008D0008D839E83AF83B887CE01019664E070E07C
:1008E00040E050E00E948626CE01059664E070E06C
:1008F00040E050E00E9486268091E8008E77809349
:10090000E800F80184899589A689B7890897A10923
:10091000B10938C0F801848D82FD08C080910C02B5
:10092000807F856080930C0284E23EC076D388236A
:1009300071F580910C02807F846080930C0210928C
:100940001602109217023EC0C80160E002C0C80142
:1009500061E0B8DE8823B1F12AC01092F100109254
:10096000F1001092F1001092F1008091E8008E7772
:100970008093E800F80184899589A689B78904974E
:10098000A109B109848B958BA68BB78B10C0F80198
:10099000148A158A168A178A0AC080910C02807FF1
:1009A000856080930C0280E280931602CACF80910A
:1009B0000C02807F80930C02109216021092170294
:1009C00081E001C080E028960FB6F894DEBF0FBE2C
:1009D000CDBFCF91DF911F910F91FF90EF90DF90EE
:1009E000CF9008952EB123602EB920E48030920775
:1009F00058F480FF05C08EB183608D7F8EB9089555
:100A00008EB183608E7F8EB908958EB19EB1936052
:100A10009EB99EB18C6F936089238EB90895F5DFDE
:100A200087ED8EBD0DB407FEFDCF1EBC0DB407FED5
:100A3000FDCF0EB407FEF9CFE8CF9C013695279580
:100A400036E0969587953A95E1F78EBD0DB407FE91
:100A5000FDCF220F220F220F272B2EBD0DB407FE34
:100A6000FDCF6EBD0DB407FEFDCF08956F927F924E
:100A70009F92AF92BF92CF92DF92EF92FF920F932D
:100A80001F93DF93CF930F92CDB7DEB76C0179013F
:100A9000DB01CA0119E0880F991FAA1FBB1F1A9515
:100AA000D1F7FAE0B695A79597958795FA95D1F77E
:100AB0003C018A01102F0027110F137093DF83E58B
:100AC0008EBD0DB407FEFDCFC30160E070E0B5DF61
:100AD000A6DF84E88EBD0DB407FEFDCF80E090E078
:100AE000B801ABDF0E94C828882309F0EBC074E08E
:100AF000169507957A95E1F7902F870165E0000F2D
:100B0000111F6A95E1F7BB2499249394BCC050E26D
:100B1000A52E8091E80085FD0CC08091E8008B77C0
:100B20008093E80099830E94C8289981882309F05E
:100B3000C9C0903409F03AC072DFBB2011F086E8DA
:100B400001C083E88EBD0DB407FEFDCFC30160E098
:100B500070E073DF0894611C711C8EB18095837006
:100B6000823009F4B924C3013DDF0034110578F463
:100B700056DFBB2011F085E501C083E58EBD0DB4C5
:100B800007FEFDCFC30160E070E057DF48DFBB2008
:100B900011F087E801C084E88EBD0DB407FEFDCFDB
:100BA00080E090E060E070E048DF90E08091F1004C
:100BB0008EBD0DB407FEFDCF8091F1008EBD0DB44A
:100BC00007FEFDCF8091F1008EBD0DB407FEFDCF75
:100BD0008091F1008EBD0DB407FEFDCF8091F10034
:100BE0008EBD0DB407FEFDCF8091F1008EBD0DB41A
:100BF00007FEFDCF8091F1008EBD0DB407FEFDCF45
:100C00008091F1008EBD0DB407FEFDCF8091F10003
:100C10008EBD0DB407FEFDCF8091F1008EBD0DB4E9
:100C200007FEFDCF8091F1008EBD0DB407FEFDCF14
:100C30008091F1008EBD0DB407FEFDCF8091F100D3
:100C40008EBD0DB407FEFDCF8091F1008EBD0DB4B9
:100C500007FEFDCF8091F1008EBD0DB407FEFDCFE4
:100C60008091F1008EBD0DB407FEFDCFF60180AD81
:100C7000882341F59F5FAA9409F04BCF0894E108BF
:100C8000F10800521040E114F10409F040CFC7DE32
:100C9000BB2011F086E801C083E88EBD0DB407FECD
:100CA000FDCFC30160E070E0C8DEB9DE8091E800EE
:100CB00085FD05C08091E8008B778093E8008EB1B8
:100CC00083608EB90F90CF91DF911F910F91FF90AC
:100CD000EF90DF90CF90BF90AF909F907F906F90FC
:100CE0000895BF92CF92DF92EF92FF920F931F93DE
:100CF000CF93DF936C017901DB01CA0169E0880FB2
:100D0000991FAA1FBB1F6A95D1F73AE0B695A79520
:100D1000979587953A95D1F7EC018A01102F002716
:100D2000110F13705FDE82ED8EBD0DB407FEFDCF97
:100D3000CE01B80182DE1EBC0DB407FEFDCF1EBC85
:100D40000DB407FEFDCF1EBC0DB407FEFDCF1EBCCB
:100D50000DB407FEFDCF0E94C828882309F0C0C04B
:100D600094E0169507959A95E1F782EDB82EA8C004
:100D700010E28091E80085FD0AC08091E8008E773E
:100D80008093E8000E94C828882309F0A9C0003495
:100D9000E1F42196CE0126DEBEBC0DB407FEFDCFE8
:100DA000CE0160E070E049DE1EBC0DB407FEFDCF51
:100DB0001EBC0DB407FEFDCF1EBC0DB407FEFDCF5B
:100DC0001EBC0DB407FEFDCF00E01EBC0DB407FE37
:100DD000FDCF8EB58093F1001EBC0DB407FEFDCF94
:100DE0008EB58093F1001EBC0DB407FEFDCF8EB50D
:100DF0008093F1001EBC0DB407FEFDCF8EB580932D
:100E0000F1001EBC0DB407FEFDCF8EB58093F1003E
:100E10001EBC0DB407FEFDCF8EB58093F1001EBC45
:100E20000DB407FEFDCF8EB58093F1001EBC0DB44E
:100E300007FEFDCF8EB58093F1001EBC0DB407FEFA
:100E4000FDCF8EB58093F1001EBC0DB407FEFDCF23
:100E50008EB58093F1001EBC0DB407FEFDCF8EB59C
:100E60008093F1001EBC0DB407FEFDCF8EB58093BC
:100E7000F1001EBC0DB407FEFDCF8EB58093F100CE
:100E80001EBC0DB407FEFDCF8EB58093F1001EBCD5
:100E90000DB407FEFDCF8EB58093F1001EBC0DB4DE
:100EA00007FEFDCF8EB58093F100F60180AD88235B
:100EB000B9F40F5F115009F05CCF0894E108F10814
:100EC000E114F10409F054CF8091E80085FD05C0DC
:100ED0008091E8008E778093E8008EB183608EB9B0
:100EE000DF91CF911F910F91FF90EF90DF90CF9006
:100EF000BF9008959F92AF92BF92CF92DF92EF92F0
:100F0000FF920F931F93CF93DF935A0169019B01C7
:100F1000AC01F9E0220F331F441F551FFA95D1F79A
:100F2000EAE05695479537952795EA95D1F7E90177
:100F30008B01102F0027110F1370C80144E0969504
:100F400087954A95E1F7F82EC9014CDD82ED8EBDFB
:100F50000DB407FEFDCFCE01B8016FDD1EBC0DB490
:100F600007FEFDCF1EBC0DB407FEFDCF1EBC0DB4A9
:100F700007FEFDCF1EBC0DB407FEFDCF39C08601B4
:100F800080E2E82E8F2D8034E1F42196CE012ADD17
:100F90009EBC0DB407FEFDCFCE0160E070E04DDDDC
:100FA0001EBC0DB407FEFDCF1EBC0DB407FEFDCF69
:100FB0001EBC0DB407FEFDCF1EBC0DB407FEFDCF59
:100FC000FF24F80180E11EBC0DB407FEFDCF9EB5E5
:100FD00091938150C1F7005F1F4FF394EA9491F60B
:100FE00080E092E0C80ED91E0894A108B10802C0A2
:100FF00002ED902EA114B10409F0C1CF8EB183602F
:101000008EB9DF91CF911F910F91FF90EF90DF90FC
:10101000CF90BF90AF909F9008958EB183608E7FE8
:101020008EB98FE98EBD0DB407FEFDCF1EBC0DB489
:1010300007FEFDCF9EB58EB183608EB99F31B1F4AE
:101040008EB183608D7F8EB98FE98EBD0DB407FEA2
:10105000FDCF1EBC0DB407FEFDCF9EB58EB18360E3
:101060008EB981E09F3119F080E0089580E0089505
:101070009BB19F70982B9BB908951F930E944B1CA6
:1010800086E593E062E370E00E94091C8AE593E044
:1010900068EE73E00E94091C0E9476100E94F3190A
:1010A0001091D903113049F51093DC031092DD0340
:1010B0001093DE031092DF031093E0031092E1031C
:1010C000A2D39AE09093990710929A0710929B07E7
:1010D00082E080939C078FEF80939507809396071B
:1010E0008093970710929807909391071092920718
:1010F000109293071093940701C0B9D18091DC033B
:1011000080935E038091DD0380935F038091DE0313
:10111000809360038091DF03809361038091E003FB
:10112000809362038091E10380936303DDD460D6F2
:101130001F9108950F931F93CF93DF938091D9034D
:10114000823019F48EB38B3049F08091D90381300D
:1011500009F0C6C08EB3843009F0C2C08091D903B3
:10116000813091F483E191E00E94AB37882309F448
:1011700045C080ED7DDF83E191E06DE977E045E2F8
:1011800056E00E94C23710C08AEE91E00E94833B75
:101190008823A1F180ED6CDF8AEE91E06DE977E0C4
:1011A00045E256E00E94A03B8091250690912606DC
:1011B000009711F18091A9079091AA0788309105B5
:1011C00029F026E088309207B9F40CC081E00E9433
:1011D0005D118091250690912606009769F00E9486
:1011E000F91A08C00E944B1A809125069091260694
:1011F000009711F00E94601C80E23ADFC0E0D0E06E
:1012000001E710E0C09FC001C19F900DD09F900DDD
:1012100011248C5C994F909333068093320683E0BF
:101220000E945D118091250690912606009721F07D
:101230000E94F91A0E94601C2196C330D10511F753
:1012400086E593E00E941E1C009709F43DC086E5E8
:1012500093E00E94141C80ED0BDFC0E0D0E001E7BA
:1012600010E0C09FC001C19F900DD09F900D112430
:101270008C5C994F909333068093320682E00E94F3
:101280005D118091250690912606009721F00E941D
:10129000F91A0E94601C2196C330D10511F78BE822
:1012A0009DE090932F0680932E0685E00E945D11AD
:1012B0008091250690912606009721F00E94F91A48
:1012C0000E94601C80E2D4DE8AE593E00E941E1C2E
:1012D000009731F08AE593E00E94141C0E940F1AD7
:1012E000DF91CF911F910F910895E0913206F09117
:1012F00033068481958127E18030920729F020E52B
:101300008030920711F4F8C376C50895E0912E0657
:10131000F0912F068481958123E48030920729F093
:1013200024E48030920711F4B5C086C208950F936B
:101330001F93CF93DF93EC01142F05C0898190E0B8
:101340000296C80FD91F08810F3FC1F76883198320
:10135000AE014E5F5F4FCA01B901412F50E00E94BC
:101360000A3DC10FD11D0A83812F8E5FDF91CF917E
:101370001F910F910895FC01CA0110C021813617F9
:1013800041F43296BF01422F50E00E940A3D81E0B5
:10139000089530E02E5F3F4FE20FF31F30813F3F53
:1013A00069F780E00895CF93DF93FC01EA0180EFB5
:1013B000DF011D928A95E9F781E08083818386E0D1
:1013C0008283138286E694E5A4E2B3E18483958365
:1013D000A683B7831186108680E890E09387828782
:1013E0008091990790919A07A0919B07B0919C07D3
:1013F00084879587A687B7878D819E81AF81B885C1
:10140000808B918BA28BB38B89899A89AB89BC899C
:10141000848B958BA68BB78BEF016C96ACEDB3E00C
:1014200086E00D9009928150E1F7EF01C451DF4F42
:1014300083E692E8A3E5B3E688839983AA83BB8316
:10144000DF01A051BF4F85E38C93DF01AF50BF4F49
:1014500081E08C93DF01AE50BF4F6C93ED50FF4F96
:101460008FEF808384EF90E0DF91CF91089580E249
:1014700093E060E073E486D6009759F020E034E40E
:10148000FC013583248311860A9662E370E00C9494
:10149000091C0895AF92BF92CF92DF92EF92FF9214
:1014A0000F931F93DF93CF9300D000D00F92CDB74F
:1014B000DEB700912E0610912F06A801475F5F4FFF
:1014C000E0903006F0903106D80119968C9119976A
:1014D000813009F443C0813038F0823009F488C08B
:1014E000833009F001C1B1C0C8010E96FC0180E152
:1014F000DF011D928A95E9F7F80186859785A08915
:10150000B1898093990790939A07A0939B07B09312
:101510009C07C70161E047DF6C01DE011396E0E440
:10152000F2E083E001900D928150E1F7C701805114
:101530009F4F67E343E09E012D5F3F4FF8DEB6010A
:10154000680F711D80913006909131060E94DE185F
:10155000C8010A960E94141C81E072C080912D0679
:1015600081FF77C0F70184819581A681B781863696
:10157000F4E59F07F4E2AF07F3E1BF0709F0B4C059
:1015800080EFC82ED12CCE0CDF1CC60165E3AE0166
:101590004F5F5F4FF0DE882309F4A6C0A9802A2D93
:1015A000223009F0A1C0F70180899189A289B3890D
:1015B000F80186879787A08BB18BA8014E5E5F4F9D
:1015C000C60161E0D8DEA8014A5E5F4FC60163E054
:1015D000D2DEA801465E5F4FC60166E3CCDEC801DD
:1015E0000A960E94141CD8011996AC9219977CC0D7
:1015F000C70163E0D8DE5C01E0EFF0E0EE0EFF1E15
:101600009801225F3F4FC70162E344E090DEC82E9D
:101610009801265E3F4FC70166E344E088DE682FED
:1016200070E06C0D711D6A0D7B1D809130069091EC
:1016300031060E94DE18C8010A960E94141C83E03D
:10164000D80119968C9319974FC080912D0681FD72
:101650000AC0C8010A960E941E1C009709F444C0E3
:10166000F801118641C0F70184819581A681B78177
:101670008636F4E59F07F4E2AF07F3E1BF07A1F573
:10168000C70180519F4F65E3AE014E5F5F4F73DE30
:10169000882351F18A81853039F5F801868597854F
:1016A000A089B1898093990790939A07A0939B078B
:1016B000B0939C0782899389A489B5898093950703
:1016C00090939607A0939707B09398078689978978
:1016D000A08DB18D8093910790939207A09393076B
:1016E000B093940784E081870F900F900F900F9034
:1016F0000F90CF91DF911F910F91FF90EF90DF90AE
:10170000CF90BF90AF900895EF92FF920F931F93E9
:10171000CF93DF93FC0180EFEF0119928A95E9F7EF
:10172000608381E0818386E082831382E482F58294
:101730000683178311861086138612868091990777
:1017400090919A07A0919B07B0919C07848B958BF1
:10175000A68BB78BE90188819981AA81BB81808B97
:10176000918BA28BB38BEF016C96842F952FDC01AC
:1017700086E00D9009928150E1F7EF01C451DF4FEF
:1017800083E692E8A3E5B3E688839983AA83BB83C3
:10179000DF01A051BF4F85E38C93DF01AF50BF4FF6
:1017A00081E08C93DF01AE50BF4F6C93ED50FF4F43
:1017B0008FEF808384EF90E0DF91CF911F910F91A5
:1017C000FF90EF9008958823D1F090919C0789179E
:1017D000C1F0982F977021E030E002C0220F331F34
:1017E0009A95E2F7869586958695E82FF0E0EE517A
:1017F000FC4F9081922381E029F480E0089581E0FC
:10180000089581E0089580E093E49ED480E293E01F
:1018100060E074E4B7D4009739F020E033E4DC01F1
:1018200015963C932E9314978FE1E2EEF3E0DF01DF
:101830001D928A95E9F70895AF92BF92CF92DF92F9
:10184000EF92FF920F931F93DF93CF93CDB7DEB745
:1018500064970FB6F894DEBF0FBECDBF90913006EF
:101860008091310620912D0621FF2DC1092F182FBF
:1018700080EFA82EB12CA00EB11EC50165E3AE010C
:101880004F5F5F4F78DD882309F41DC18091950774
:1018900090919607A0919707B09198078A839B83B0
:1018A000AC83BD838091910790919207A09193079B
:1018B000B09194078E839F83A887B987DE011E9617
:1018C000F8017C9686E001900D928150E1F7F801D5
:1018D000C480D580E680F780C50162E3AE01465F33
:1018E0005F4F49DD882361F48091240390912503A3
:1018F000A0912603B09127038A879B87AC87BD8779
:101900008981833009F462C0873009F4C3C0813013
:1019100009F0D9C08D8557DF8823B9F080919907E8
:1019200090919A07A0919B07B0919C078A879B870B
:10193000AC87BD8791E09D87892F9C8B44DF9C8974
:10194000882319F09F5F9E3FB1F7C80162E0AE01A6
:10195000425F5F4F9E01265F3F4F87017601D4DED5
:101960008C01C50161E044E09E012E5F3F4FDFDC4A
:10197000F82EC50163E044E09E012A5F3F4FD7DCAB
:10198000C82EDD24CF0CD11C80910104909102045B
:10199000909333068093320683E08FD4E0912E0635
:1019A000F0912F068091200390912103A0912203B2
:1019B000B091230380839183A283B383B601600F28
:1019C000711F809130069091310661C08D85FBDEDC
:1019D000AE01425F5F4F882399F5C80165E09E0123
:1019E000265F3F4F870176018FDE8C01C50161E0E4
:1019F00044E09E012E5F3F4F9ADCF82EC50163E064
:101A000044E09E012A5F3F4F92DCC82EDD24CF0CBC
:101A1000D11CC00ED11E8D85E82FE695E695E69582
:101A2000F0E0EE51FC4F282F277081E090E002C0DB
:101A3000880F991F2A95E2F72081282B208308C060
:101A4000C80166E024E233E0870176015DDE6C01C7
:101A500080910104909102049093330680933206A2
:101A600083E02BD4E0912E06F0912F068091200385
:101A700090912103A0912203B0912303808391834D
:101A8000A283B3838091300690913106B6010E9403
:101A9000DE1819C0E0912E06F0912F068381E82F01
:101AA000E695E695E695F0E0EE51FC4F282F27707D
:101AB00081E090E002C0880F991F2A95E2F7809597
:101AC00090818923808364960FB6F894DEBF0FBEA1
:101AD000CDBFCF91DF911F910F91FF90EF90DF90DD
:101AE000CF90BF90AF90089580E090E52DD380E037
:101AF00063E074E00C941E1FAF92BF92CF92DF920E
:101B0000EF92FF920F931F93CF93DF93C091320612
:101B1000D091330680912D06682F85FD04C087FD86
:101B200002C084FF03C083E08C8F8D8F66FF12C0DC
:101B30001C8E1D8EFE01E659FF4F1082FE01E559F5
:101B4000FF4F1082118212821382FE01E159FF4F72
:101B50001182108260FF18C0FE01E559FF4FDE01BF
:101B6000A159BF4F8D919C91A0E0B0E020813181BF
:101B700042815381820F931FA41FB51F80839183DD
:101B8000A283B3838D8D8C8F62FF0CC0FE01E5595B
:101B9000FF4F4081518162817381CE01805B9F4FF5
:101BA0000E947C2420912D0630E022FD0BC0C9014B
:101BB00083709070009731F4C90188749070009719
:101BC00009F40BC18C8D813009F460C0813038F08C
:101BD000823009F4D0C0833009F0FFC0EFC0C0915B
:101BE0003206D0913306809130069091310621FF64
:101BF000F4C063E472E00E94073D8C0180E090E055
:101C000063E472E00E94073D7C01C80161E472E078
:101C10000E94E33C009721F080E280932D06DDC016
:101C20008E01025E1F4FB7016F5F7F4FC80142E315
:101C300050E00E94393DD8010D900020E9F711973E
:101C4000A01BFE01EA0FF11D858D8F3211F0AA2332
:101C500069F4B0E0CD014E9642E350E04A1B5B0BC5
:101C60008C0F9D1F6CE272E00E94F33CCE01805B02
:101C70009F4FB80141E00E94341FFE01E659FF4F1B
:101C800091E0811190E0908381E0A5C0009132063F
:101C900010913306A0903006B0903106E8016E96A0
:101CA000CE016EE270E00E94253D6C01F801E6591C
:101CB000FF4F80818823C1F4C50160EA71E00E9472
:101CC000EC3CC501BE010E941A3DF501DF010D90FB
:101CD0000020E9F7BD01615070406E1B7F0BC5010C
:101CE0000E94DE1883E044C0C50165E471E00E94F3
:101CF000EC3CC114D10429F198EFE92E92E0F92EC1
:101D0000C0E0D0E00894C11CD11CD7016D917C913A
:101D1000C6010E94303D009761F4CC0FDD1FCC0F4F
:101D2000DD1FC850DD4F6A817B81C5010E941A3DCD
:101D30000DC02196E4E0F0E0EE0EFF1ECA30D105A2
:101D400021F7C50166E372E00E94D83CC50165E455
:101D500072E00E94D83CD5010D900020E9F7BD014A
:101D6000615070406A197B09C5010E94DE1882E04B
:101D7000F801858F32C0C0913206D0913306E090D1
:101D80003006F0903106CA88DB888E0101591F4F5A
:101D9000CE01805B9F4FB701A60198010E941623D8
:101DA000D8016D917C91C7010E94DE18F8018081F5
:101DB0009181C816D90689F083E00EC0CE01805B00
:101DC0009F4F0E947124FE01E659FF4F108280E16F
:101DD00080932D0684E08C8F8D8FDF91CF911F91A2
:101DE0000F91FF90EF90DF90CF90BF90AF9008954C
:101DF00080E097E1A9C19F92AF92BF92CF92DF920C
:101E0000EF92FF920F931F93CF93DF93C090320610
:101E1000D0903306409130060091310680912D0616
:101E200090E086FF04C0D6015C961C925C9780FF10
:101E300003C0F601258D248F82FD0BC09C01237009
:101E400030702115310529F488749070009709F4D9
:101E5000C9C0E42EE7017E01F02EE701D6015C96B1
:101E60008C915C97813061F0813030F08230E9F004
:101E7000833009F0B7C02AC0C7016AE472E09FC08E
:101E8000C70165ED72E00E94EC3CEE2DF02FDF0102
:101E90000D900020E9F7BD01615070406E1B7F0B73
:101EA000CE010E94DE1882E09BC0809125069091B1
:101EB0002606009709F496C08881D6015E968C9319
:101EC0005E9783E05C968C935C978CC0F601868D60
:101ED000833609F071C0C7016AE373E00E94EC3CED
:101EE000EE2DF02FDF010D900020E9F77D01089421
:101EF000E108F108EE1AFF0A04E316E099248EE6E1
:101F0000A82E83E0B82EF801818D882309F44AC0F9
:101F100093948DB79EB742970FB6F8949EBF0FBEAD
:101F20008DBFEDB7FEB73196CE018E0D9F1DADB7BB
:101F3000BEB712969C938E931197B382A28294821D
:101F40001582D8018C918683178211968C911197F6
:101F50008087118612968C9112978287138613962A
:101F60008C9113978487158614968D919C91159763
:101F70009827892798279787868716968D919C9111
:101F80001797982789279827918B808B0E94743DFB
:101F9000E80EF91EEDB7FEB772960FB6F894FEBFC5
:101FA0000FBEEDBF0F581F4FF7E007381F0709F0AE
:101FB000AACFCE01B70111C0C7016BE573E00E9443
:101FC000EC3CEC2FF02FDF010D900020E9F7BD0174
:101FD000615070406E1B7F0BCE010E94DE1881E0C5
:101FE000F601858FDF91CF911F910F91FF90EF90B8
:101FF000DF90CF90BF90AF909F9008959C0141508B
:102000005040460F571FDB0110C0FC91E0E01196D5
:102010008C911197BF01680F711D260F371F26176E
:10202000370710F42F5F3F4F1296A417B50768F3D8
:10203000A417B50749F49C9180E0280F391F281791
:10204000390710F42F5F3F4FC9010895FC01438108
:10205000460F40932C06872F99272281280F209323
:102060002B06A181A0932A0650815093290630E0C7
:102070002817390748F48A2F8F5F80932A06882310
:1020800019F45F5F50932906842F90E070708617D3
:10209000970798F480912B068F5F80932B068823F7
:1020A00061F480912A068F5F80932A06882329F4A1
:1020B000809129068F5F809329060895BC01809145
:1020C0003206909133060896C1DFE0913206F09116
:1020D000330680912906808780912A068187809126
:1020E0002B06828780912C068387089580E009C0A3
:1020F000E82FF0E0EE0FFF1FE957F84F1182108232
:102100008F5F8530A8F340E081E790E00DC0242F79
:1021100030E0289FF001299FF00D389FF00D112429
:10212000EC5CF94F118E4F5F433088F380E094E010
:1021300090936F0380936E0381E080936A03109203
:10214000900D10928F0D089540E013C0E42FF0E041
:10215000542F5F5FEE0FFF1FE957F84F2081318149
:102160002115310529F440936A03918380830895F2
:10217000452F453058F340936A030895382F292F8F
:10218000C9010895CF92DF92EF92FF920F931F93B0
:10219000CF93DF93EC016B01E0908F0DF090900DE9
:1021A00000916E0310916F030F5F1F4F8DE700309A
:1021B000180710F000E010E1C801E0DFE816F906AA
:1021C00099F310936F0300936E0380918F0D90919C
:1021D000900D009779F410926A03902F812F9093BD
:1021E000900D80938F0DD092920DC092910D2097FB
:1021F00081F406C081E080936A0320E030E01AC0D9
:1022000010928B0D10928C0D10928D0D10928E0DE0
:102210000CC088819981AA81BB8180938B0D90939A
:102220008C0DA0938D0DB0938E0D80E48093930D53
:102230002BE83DE0C901DF91CF911F910F91FF90F5
:10224000EF90DF90CF90089580E090E06BEA77E028
:1022500044E150E0D3DE009719F090DF9C0102C00A
:102260002FEF3FEFC90108959C01AB0180E090E0A2
:10227000B901C4DE83CFCF93DF938091AE07C82F1F
:10228000D0E064979091AD0780E0C80FD91FCE01D0
:10229000069667EB77E048E050E0B0DE6FEB77E062
:1022A000AE01ACDE009719F069DF9C0102C02FEF90
:1022B0003FEFC901DF91CF910895EF92FF920F9305
:1022C0001F93CF93DF93C0913206D09133068430B1
:1022D00009F46CC203ED17E0109331060093300649
:1022E0001093280600932706833099F4898D8F7008
:1022F000833009F056C788899989009709F051C73A
:1023000010928A0D1092890D1092260610922506C1
:102310008DC0823009F08EC0809167038F5F8093FB
:102320006703882399F4809166038F5F8093660327
:10233000882361F4809165038F5F80936503882310
:1023400029F4809164038F5F8093640310922606C2
:102350001092250610928A0D1092890D898D873072
:1023600011F0853041F48A8D8F5F8A8F883709F0AC
:1023700018C7198E16C7882309F413C72889398905
:102380002115310509F44EC09A8D292F21502A8F2D
:10239000992309F006C79B8D983031F0282F2150E2
:1023A000223048F4953039F4198E80E880932D0658
:1023B0000E947509D1C5953048F423E030E0092E1C
:1023C00002C0220F331F0A94E2F701C020E32A8FD4
:1023D0009F5F9B8F90E08F70907083309105E1F04C
:1023E000843091054CF48130910509F4B7C38230F3
:1023F000910509F0D6C60DC08630910509F449C58E
:102400008830910509F445C58430910509F0C9C6A5
:1024100040C51092CC07A5C384E080932D060E948E
:102420007509CCC58F70833009F0BBC688E08093F6
:102430002D0687C5853019F5E0912E06F0912F06FF
:1024400084819581009709F4ACC6109233061092EE
:1024500032060C5010401093310600933006109352
:1024600028060093270610928A0D1092890D10926B
:1024700026061092250688E080932D0695C1085205
:1024800010408091AB07853409F08BC69091AD0761
:1024900080E02091AE077C01E20EF11C80912506C0
:1024A000909126068E159F0508F47BC6F0922606AD
:1024B000E09225068091B10790E08F7390700097AD
:1024C00009F06FC68091B207882309F06AC680912F
:1024D000990790919A072091240330912503821740
:1024E000930761F460919B0770919C0740912603CC
:1024F000509127036417750709F44BC04091B40746
:10250000413199F56091BB077091BC074091200360
:10251000509121036417750741F56091BD077091D3
:10252000BE07409122035091230364177507E9F415
:10253000E7EBF7E08091B7079091B8078217930710
:1025400009F070C02091B9073091BA078091260335
:10255000909127032817390709F064C08FEF809303
:10256000B7078183828383835DC02091BB0730914D
:10257000BC072817390709F014C62091BD07309110
:10258000BE0780919B0790919C072817390709F097
:1025900008C65ADE2FEF8F3F920709F002C68091DE
:1025A000B407863009F44EC18131E1F1813009F080
:1025B000F8C5EBEAF7E08091BF07883009F0F1C574
:1025C000148A8091C1079091C2076FEF873F9607E9
:1025D00010F0099601C00896978B868B8091B707FB
:1025E0009091B807A091B907B091BA078093BB0743
:1025F0009093BC07A093BD07B093BE078091990745
:1026000090919A07A0919B07B0919C078093B70780
:102610009093B807A093B907B093BA0780E4F80184
:102620008087A4C5C7014C97909326068093250602
:102630008BE89DE090932F0680932E06A0912403B3
:10264000B0912503609126037091270340912003E8
:1026500050912103209122033091230340C08481B3
:1026600095810097B9F1C091C107D091C207C817F1
:10267000D90781F586819781009739F0C091BF070E
:10268000D091C007C817D90729F5808191818A1791
:102690009B0731F4C281D381C617D70709F46FC0F5
:1026A0008417950731F4C281D381C217D30709F487
:1026B00066C0C091B707D091B807C817D90751F4C1
:1026C000C091B907D091BA0782819381C817D90701
:1026D00009F455C07E96F0932F06E0932E06E09104
:1026E0002E06F0912F068DE0E93AF80708F4B7CFEF
:1026F000E7ECF7E0DF015C978CE10D9001928150EF
:10270000E1F7CBEAD7E083E08C8B8D8B1F8A1E8AA2
:10271000CE01449664E270E0A7DD809590959F8B92
:102720008E8B8091B7079091B807A091B907B091AF
:10273000BA078093BB079093BC07A093BD07B093E3
:10274000BE078091990790919A07A0919B07B0913D
:102750009C078093B7079093B807A093B907B093ED
:10276000BA0788E390E090932606809325061A82A4
:1027700088E38B8380E4888781E08987F7C410929F
:1027800033061092320682E080932D0687EC97E0A4
:102790009093310680933006909328068093270605
:1027A00010928A0D1092890D0E9486098091890DE0
:1027B00090918A0D009709F4F4C49C01245E3F4F68
:1027C0003093260620932506EBEAF7E03283238335
:1027D000C0912E06D0912F062885208721E12187E0
:1027E0000896982789279827918F808F138E128EAD
:1027F0008C819D81958B848B8E819F81978B868B1D
:102800008091990790919A07A0919B07B0919C079E
:102810008093B7079093B807A093B907B093BA070E
:1028200088819981AA81BB818093BB079093BC0763
:10283000A093BD07B093BE07B896F0933106E0931E
:10284000300694C418DDEFEF8F3F9E0709F0A9C44E
:10285000C4E3D6E0498D442329F12091C10730918A
:10286000C2078C819D8128173907E1F42091BF07A9
:102870003091C0078E819F812817390799F42091E4
:10288000B7073091B807888199812817390751F423
:102890002091B9073091BA078A819B81281739079F
:1028A00009F476C1CF58DF4FF7E0C738DF0791F65C
:1028B0008091CC078F738230D9F48091C1079091B9
:1028C000C207909369038093680340E00DC0E42F32
:1028D000F0E0EE0FFF1FE957F84F208131814F5F85
:1028E0008217930709F46EC0453088F340936A035A
:1028F0008091CC0782FD55C484E1F80181A388E270
:1029000090E0909326068093250680E580A3809131
:10291000C6079091CA07938F3091C5079091C90758
:10292000928F368F2091C4079091C807918F258F81
:102930009091C30790936A034091C707408F948F8B
:102940008F5F878F882361F4832F8F5F868F882323
:1029500039F4822F8F5F858F882311F49F5F948FC6
:102960008091BF079091C00790936903809368039B
:102970002091C1073091C207F801358B248B978BCA
:10298000868B8091B7079091B807A091B907B09155
:10299000BA078093BB079093BC07A093BD07B09381
:1029A000BE078091990790919A07A0919B07B091DB
:1029B0009C078093B7079093B807A093B907B0938B
:1029C000BA07C1C310926A0340E0C0E0D0E081E7DB
:1029D00090E026C0242F30E0289FF001299FF00DC1
:1029E000389FF00D1124EC5CF94F218D222321F446
:1029F00040936A03EF0118C0273089F4209721F033
:102A0000328D2A8D231758F4242F30E0289FE001BF
:102A1000299FD00D389FD00D1124CC5CD94F4F5F2A
:102A20004330C0F240936A03209709F4BAC3D093AD
:102A30003306C093320683E08A8F888F1E8A84E033
:102A40008F8B1B8E8091C1079091C2079D838C83D1
:102A50008091BF079091C0079F838E838091B707B5
:102A60009091B807A091B907B091BA07888399836C
:102A7000AA83BB8381E0898F809164038C878091D6
:102A800065038D87809166038E87809167038F87AA
:102A900081E090E0998B888B8091C6078B8780912D
:102AA000C5078A878091C40789878091C307888773
:102AB00081E090E003DB8091CB07282F30E0207F7E
:102AC0003070213531050CF449C082958F7090E04B
:102AD0000597880F991F880F991F50916B0340E04D
:102AE00034C0F901E356F84F56A9552329F4409311
:102AF0006A0310926B0332C0513011F44F5F25C04E
:102B00005230E1F467A96430C9F440936A035093EA
:102B10006B0330AD20E081AD90E0822B932B90933E
:102B2000690380936803F5E0853B9F0710F084EB11
:102B300095E09B8B8A8B9D8B8C8B10C02356384FD6
:102B4000F90127A9222331F0420F242F30E0281762
:102B500039073CF240936A0350936B0380E1809302
:102B6000CC07EBEAF7E08091CC07826081A382E09A
:102B700080A784E081A785E082A784EB83A78CE20D
:102B800090E0909326068093250680E680A399C264
:102B9000D0933306C093320610922D068091CC0755
:102BA00090E082FF03C0198E80E235C22091CB07EE
:102BB00022952F70220F220F20936A03B701621B08
:102BC00071099B012451304030932606209325063D
:102BD0004F70423031F4AC014F73507042315105A7
:102BE00009F12115310531F49C0123703070211554
:102BF0003105C1F03091C3072885321709F055C25D
:102C00003091C4072985321709F04FC23091C507AA
:102C10002A85321709F049C23091C6072B85321731
:102C200009F043C284FF49C068897989611571053B
:102C300009F443C0CE010C9609DA3091C7078091A0
:102C400029063817D1F52091C80780912A06281740
:102C5000A1F59091C90780912B06981771F5809185
:102C6000CA0740912C06841741F53C872D879E8723
:102C70008F878B8D8823D1F42E89888D9A8D891B1F
:102C8000922F969596959695891B280F2E8B87FDEA
:102C900081959F89392F36953695931B980F9F8B79
:102CA000822F869586958695890F888F81E08093FF
:102CB0002D06888D8A8F198A188A298D30E0C901DE
:102CC0008F7090708430910509F4AAC18530910508
:102CD00064F48230910589F1833091050CF0B0C025
:102CE0008130910509F05DC211C08630910509F46B
:102CF000D4C1863091050CF4B2C18730910509F436
:102D0000D4C18830910509F04CC27FC180912D0655
:102D100080FF47C283E0898F80E480932D06198A63
:102D2000188A8091250690912606009709F405C11E
:102D300022E420932D06C2D900C180912D0680FF88
:102D400074C08091CC078F73823109F06EC080917E
:102D5000CB07282F30E0207F3070213531050CF46F
:102D600049C082958F7090E00597880F991F880F52
:102D7000991F50916B0340E034C0F901E356F84FBE
:102D800056A9552329F440936A0310926B0332C06D
:102D9000513011F44F5F25C05230E1F467A964301F
:102DA000C9F440936A0350936B0330AD20E081ADCA
:102DB00090E0822B932B909369038093680375E0D6
:102DC000853B970710F084EB95E09B8B8A8B9D8B5E
:102DD0008C8B10C02356384FF90127A9222331F0DC
:102DE000420F242F30E0281739073CF240936A0342
:102DF00050936B0383E0898F8091C307888780910C
:102E0000C40789878091C5078A878091C6078B8709
:102E100081E090E053D982E480932D06198A188AC4
:102E2000109226061092250688C080E280932D0617
:102E30000E947509E0913206F0913306118E58CD4B
:102E40008091CC0780FF29C024FD27C088899989FB
:102E5000009709F0A6C1809125069091260601965B
:102E60002DD920912D06822F806180932D0680918F
:102E7000250690912606009719F0226120932D06D1
:102E80000E94750981E090E0998B888B88E0898F9A
:102E90001B8E81E18093CC070BC185FF1CC0509134
:102EA000D10740E08091D20790E0842B952B409190
:102EB000300650913106480F591F50933106409308
:102EC00030064091250650912606481B590B509319
:102ED00026064093250680912506909126060097A8
:102EE00041F024FD06C020912D06226020932D067E
:102EF000E5D89091CD0780E02091CE07820F911DFB
:102F000090936903809368032C893D8928173907BA
:102F100010F0009721F430936903209368038091A7
:102F20006803909169039B8B8A8B80912D0690E0BA
:102F300083709070009709F434C110928A0D10923A
:102F4000890D0E94750980912D0685FF07C010929A
:102F50008A0D1092890D198E84E19CCF84FF0AC0DE
:102F600010928A0D1092890D81E090E0998B888BE8
:102F700084E08DCF2091890D30918A0D2115310586
:102F8000E1F080FF02C0198A188A88899989009720
:102F900081F48A899B898217930720F490938A0D84
:102FA0008093890D8091890D90918A0D998B888BE2
:102FB00004C090938A0D8093890D1B8E8091270603
:102FC0009091280690933106809330068091890D68
:102FD00090918A0D009759F088899989009739F066
:102FE0008896909326068093250688E10BC08091F1
:102FF0002D0681FFD6C088E290E09093260680934C
:10300000250680E18093CC0759C080912D0680FF72
:10301000C8C0198E80E180932D060E947509C1C039
:103020008091250690912606009709F047D8909147
:10303000CC0780912D0690FF0BC080FF06C087E073
:10304000898F1A8E198A188A18C086E0898F15C050
:1030500080FF1CC085E0898F198A188AA2C08091E0
:10306000250690912606009709F028D88091CC0774
:1030700080FF0CC087E0898F1A8E81E090E01ED817
:1030800080E180932D060E9475090FC0809125066E
:1030900090912606009749F484C080912D0680FF08
:1030A00080C087E0898F1A8E7CC080E1F80181A3FF
:1030B00088E290E0909326068093250680E5809331
:1030C000CB07EBEAF7E08885848F8985858F8A8531
:1030D000868F8B85878F8C85808F8D85818F8E8560
:1030E000828F8F85838F86E081878C819D81958BF0
:1030F000848B8E819F81978B868B8091990790918D
:103100009A07A0919B07B0919C078093B707909373
:10311000B807A093B907B093BA0788819981AA81AB
:10312000BB818093BB079093BC07A093BD07B0936E
:10313000BE07898D84FF03C013A212A204C085E0DC
:1031400082A384EB83A3CBEAD7E080E488878091D5
:103150002506909126069A838B831FA21EA21DA28C
:103160001CA289D8809590959DA38CA3CBEAD7E02B
:1031700085E48093AB0719821F821E8280916C03C5
:1031800090916D03019690936D0380936C039C83E3
:103190008D831B861A8658D8809590959B878A8741
:1031A00004C0109226061092250610922D06DF917B
:1031B000CF911F910F91FF90EF900895AC01E09196
:1031C0002706F0912806882799278E1B9F0B895781
:1031D000924F262F372F821793070CF49C0112165B
:1031E000130664F42093890D30938A0D4E175F0700
:1031F00029F0CF01BA01A9010C940A3D0895CF929C
:10320000DF92FF920F931F93CF93DF93FC01F72E72
:1032100010927403C0912403D0912503C09026031B
:10322000D090270370E0A0E0B0E02BE030E056C083
:10323000872F90E0829FD001839FB00D929FB00DA9
:103240001124AB58BC4F4D915C9111974C175D0701
:1032500039F412960D90BC91A02DAC15BD05A1F1CD
:10326000A081B181A417B50779F5829FA001839F42
:10327000500D929F500D1124DA01AB58BC4F0281C2
:10328000138112960D90BC91A02D0A171B07E1F433
:1032900070937403FA01E758FC4F262F3F2DD90194
:1032A00026E00D9001922150E1F72BE030E0829F63
:1032B000F001839FF00D929FF00D1124EB58FC4F0D
:1032C0008091CD03828787C0829FD001839FB00DFC
:1032D000929FB00D1124AB58BC4F7F5F783008F43B
:1032E000A7CF10927403409124035091250320919D
:1032F00026033091270370E08BE090E019C0C72FC0
:10330000D0E0C89FD001C99FB00DD89FB00D112447
:10331000AB58BC4FCD91DC911197C417D50739F448
:103320001296CD91DC911397C217D30719F07F5FE6
:10333000783028F3709374037830B9F50091CD0399
:10334000402F50E070E020E030E08BE090E019C0CA
:10335000C32FD0E0C89FD001C99FB00DD89FB00D3A
:103360001124AB58BC4F1A96CC90EA01CC19D10964
:10337000A72FB0E0AC17BD071CF4702F7C19232FCA
:103380003F5F383028F37093CE032093CF03209310
:10339000740330E08BE090E0289FD001299FB00DAE
:1033A000389FB00D1124AB58BC4F20813181428130
:1033B0005381FD012193319341935193862F9F2D8A
:1033C000EC0186E0099001928150E1F78091CD03F4
:1033D0001A968C931A97DF91CF911F910F91FF90BE
:1033E000DF90CF900895109274038BE090E012C0AC
:1033F000242F30E0289FF001299FF00D389FF00D19
:103400001124EB58FC4F10821182128213824F5FFD
:103410004093740340917403483050F308958091B1
:10342000CD038F5F8093CD03109274036BE070E047
:1034300040912403509125032091260330912703C6
:1034400025C08A2F90E0869FF001879FF00D969F00
:10345000F00D1124EB58FC4F808191818417950762
:1034600091F4828193818217930769F48091CD034F
:1034700090E0B2858B1B91098837910524F010826A
:10348000118212821382AF5FA0937403A091740320
:10349000A830B8F2089580912506909126068A32C8
:1034A000910528F410922606109225060895109290
:1034B0002606109225068091B1079091B20721E06F
:1034C0008030920731F022E08030920709F090C0FE
:1034D00074C02091C3073091C407809199079091DF
:1034E0009A072817390709F083C02091C507309142
:1034F000C60780919B0790919C072817390709F010
:1035000077C089EB97E063EB77E079DE80E092E0CB
:103510009093B2078093B107EDEBF7E0DF011A97C4
:1035200086E00D9001928150E1F7A3EBB7E0EEE564
:10353000F3E086E001900D928150E1F7A3EAB7E055
:10354000EEE5F3E086E001900D928150E1F7EDE9C0
:10355000F7E0DF01909686E00D9001928150E1F74F
:103560008091B9079091BA07A091BB07B091BC07B1
:103570008093C3079093C407A093C507B093C60771
:103580008091990790919A07A0919B07B0919C0711
:103590008093B9079093BA07A093BB07B093BC0779
:1035A00088E096E09093AA078093A9078AE290E0CA
:1035B000909326068093250608952091C3073091A5
:1035C000C4078091990790919A072817390781F4C9
:1035D0002091C5073091C60780919B0790919C0769
:1035E0002817390729F489EB97E063EB77E007CEDA
:1035F00008952091BB073091BC07809120039091E2
:10360000210328173907A9F42091BD073091BE077F
:1036100080912203909123032817390751F4ADE9D3
:10362000B7E0E8E2F3E086E001900D928150E1F727
:10363000D7C08091BB079091BC072091990730912A
:103640009A07822793272091950730919607822326
:103650009323009791F48091BD079091BE0720912C
:103660009B0730919C0782279327209197073091E1
:10367000980782239323009749F0809191079091B6
:103680009207A0919307B091940708C08091BB075F
:103690009091BC07A091BD07B091BE0780937003C5
:1036A00090937103A0937203B09373031092740309
:1036B0004091700350917103209172033091730314
:1036C000A0E0E0E0F0E08BE090E016C06A2F70E050
:1036D000689FF001699FF00D789FF00D1124EB5861
:1036E000FC4F608171814617570729F4628173810D
:1036F0002617370719F0AF5FA83040F3A093740383
:10370000A83009F065C08DE997E06FEF70E046E002
:1037100050E00E94133DADEBB7E086E0FD01119251
:103720008A95E9F75A97EEE5F3E086E001900D926D
:103730008150E1F7A3EBB7E0EEE5F3E086E001901E
:103740000D928150E1F78091700390917103A091E7
:103750007203B09173038093C3079093C407A0933F
:10376000C507B093C6078091990790919A07A091D9
:103770009B07B0919C078093B9079093BA07A093D9
:10378000BB07B093BC0780E091E09093B2078093B1
:10379000B1079093AC078093AB0788E090E09093DB
:1037A000AE078093AD0786E08093AF0784E08093F7
:1037B000B00788E096E09093AA078093A90783ED6D
:1037C00097E090933106809330068AE290E01CC027
:1037D000ADE9B7E0349686E001900D928150E1F7B3
:1037E000A3EAB7E0EEE5F3E086E001900D928150A8
:1037F000E1F788E090E09093AA078093A907809171
:103800002506909126060E9690932606809325060F
:103810000895CF93DF93EC017B836A8349D099832A
:103820008883DF91CF910895FC018081918122816D
:103830003381820F931F918380830895CF93DF9309
:10384000EC0136D028813981AC01421B530B21E0B9
:1038500030E08A819B814817590710F420E030E05E
:10386000C901DF91CF9108951F920F920FB60F9269
:1038700011248F939F938091D0039091D10301964F
:103880009093D1038093D0039F918F910F900FBE9F
:103890000F901F9018958DE490E09093890080938D
:1038A00088008DE08093810082E080936F0008950E
:1038B000F8942091D0033091D1037894C9010895F0
:1038C000CF93DF93CBEAD7E08091B407863009F03D
:1038D00075C0809125069091260625E08A3E9207C4
:1038E00009F06CC080E193E0909326068093250652
:1038F00083E08A8382E08B831DA21CA20E943B117D
:10390000809590959DA38CA31B861A860E942411F6
:10391000809590959B878A878091D9034091250651
:1039200050912606813041F483E191E0BE016E5052
:1039300070400E94213807C08AEE91E0BE016E50AF
:1039400070400E941A3C80E193E090932606809399
:10395000250683E08A8382E08B83909130068091F4
:103960003106E92FF82FDF01A652BD4F8AED92E014
:103970000D9001920197E1F783EC97E06AED72E018
:103980000E94261080912906888F80912A06898FAF
:1039900080912B068A8F80912C068B8F1DA21CA2F2
:1039A0000E943B11809590959DA38CA31B861A863F
:1039B0000E942411809590959B878A878091D903D6
:1039C0004091250650912606813039F483E191E03B
:1039D0006DE977E00E94213806C08AEE91E06DE93A
:1039E00077E00E941A3CDF91CF91089580E008951E
:1039F00080E008950F93FB01CA01B901402F50E008
:103A00009F010E947A0780E00F910895FC01A08138
:103A1000B181109799F08C91882381F016962D91A1
:103A20003C911797828193812817390739F41196B1
:103A30008C91DEDF80FF04C083E0089589E0089563
:103A400080E00895CF92DF92EF92FF920F93CF9391
:103A5000DF93EC016A017B018E8D9F8DA8A1B9A136
:103A600084179507A607B707A1F041155105610511
:103A7000710579F0BE016E5D7F4F8981A7019601C6
:103A800001E0B8DF882339F4CE8EDF8EE8A2F9A2F8
:103A900003C080E001C081E0DF91CF910F91FF90E2
:103AA000EF90DF90CF900895EF92FF920F93CF9316
:103AB000DF93EC019A01AB0182E2E82EF12CEC0ECF
:103AC000FD1E8981B70101E095DF882341F5FE01E4
:103AD000E05EFD4F808191812AEA8535920709F5E4
:103AE000F70186A997A9A0ADB1ADB0708634F1E415
:103AF0009F07F4E5AF07F0E0BF07A9F0CC58DF4F10
:103B0000288139814A815B81507081E0263491E4BB
:103B1000390794E5490790E0590731F404C083E080
:103B200003C082E001C080E0DF91CF910F91FF9050
:103B3000EF900895FB01228D338D40E050E08330FB
:103B400059F484899589A0E0B0E0DC0199278827A1
:103B5000282B392B4A2B5B2BB901CA010895CF932F
:103B6000DF93EC01CB01BA0162507040804090407D
:103B70002A853B854C855D85225030404040504031
:103B8000621773078407950788F42A8130E040E0C4
:103B900050E00E948E3C9B01AC018A8D9B8DAC8DC8
:103BA000BD8D280F391F4A1F5B1F03C020E030E086
:103BB000A901B901CA01DF91CF910895BF92CF92B7
:103BC000DF92EF92FF920F931F93CF93DF93EC015D
:103BD0006A017B01423051056105710508F49EC000
:103BE0008A859B85AC85BD85481759076A077B0781
:103BF00008F094C08881823009F454C0833009F4FD
:103C00006CC0813009F08FC08A0116950795040FAA
:103C1000151FA801452F5527469560E070E08A8959
:103C20009B89AC89BD89480F591F6A1F7B1FCE0134
:103C300009DF882309F077C0F801F170EC0FFD1F50
:103C4000B2A00F5F1F4FA801452F5527469560E092
:103C500070E08A899B89AC89BD89480F591F6A1F0A
:103C60007B1FCE01EFDE882309F05DC02B2D30E0F5
:103C700011700C0F1D1FF80192A180E0282B392B29
:103C8000F1E0CF22DD24C114D10431F014E03695E7
:103C900027951A95E1F71EC040E050E03F70407054
:103CA000507044C0452F562F672F77278A899B89EC
:103CB000AC89BD89480F591F6A1F7B1FCE01C2DE28
:103CC000882389F5F601EE0FFF1FF170EC0FFD1F41
:103CD00022A133A140E050E029C0E7E07695679546
:103CE00057954795EA95D1F78A899B89AC89BD8913
:103CF000480F591F6A1F7B1FCE01A4DE882399F449
:103D0000F601EE0FFF1FEE0FFF1FF170EC0FFD1F0E
:103D100022A133A144A155A15F7008C021E030E089
:103D200040E050E003C02FEF3FEFA901B901CA0105
:103D3000DF91CF911F910F91FF90EF90DF90CF9087
:103D4000BF9008950F931F93CF93DF93EC011D82D3
:103D50001C824E815F8168857985413051056105FE
:103D6000710509F465C008811981F8018285938580
:103D7000A485B585481759076A077B0708F058C01E
:103D80004115510561057105F9F48081833049F4CD
:103D900046895789608D718D411551056105710501
:103DA00099F41A861B861C861D86F80180859185EC
:103DB000009709F43DC086899789A08DB18D8E87C3
:103DC0009F87A88BB98B2CC0F80182818823F1F4DE
:103DD00088819981F3DEAB01BC014F3FFFEF5F07A4
:103DE000FFEF6F07FFEF7F0709F1423051056105D3
:103DF0007105F0F0E881F98182859385A485B58508
:103E0000481759076A077B0718F312C04A875B8770
:103E10006C877D87C801A3DE6E877F87888B998B2F
:103E20000E5D1F4F1B8B0A8B80E003C081E001C039
:103E300082E0DF91CF911F910F910895882391F433
:103E4000E091D203F091D303309709F0108261150D
:103E5000710511F0FB0110827093D3036093D203BC
:103E600080E008958BE008952F923F924F925F92E9
:103E70006F927F928F929F92AF92BF92CF92DF927A
:103E8000EF92FF920F931F93DF93CF93CDB7DEB7DF
:103E9000E8970FB6F894DEBF0FBECDBF9CA38BA3EF
:103EA0007B014FAB009709F469C3DC0111961C92AA
:103EB0001E92FB01808190E0C0978A30910540F40A
:103EC00021812A3329F422E030E0E20EF31E02C001
:103ED00080E090E0009709F0AAC10091D203109110
:103EE000D3030115110509F4A4C11E870D87D8015C
:103EF0008C91882329F011968C917ADD80FF59C32B
:103F0000F8011082118280E071DD80FD94C1C8014A
:103F100040E050E0BA01C8DD8130B9F4F801EC515D
:103F2000FE4F8081882309F48AC1F801E851FE4FD1
:103F300020813181428153812BA73CA74DA75EA7E9
:103F4000C801BA01A901B0DD04C01BA61CA61DA6AC
:103F50001EA6833009F471C1882309F070C1B2E252
:103F60004B2E512C400E511ED2011B968D919C91CF
:103F70001C97B2E080309B0709F061C1F20186898D
:103F800097899C0140E050E02DA33EA34FA358A782
:103F9000211531054105510559F4D20194968D91B1
:103FA0009D910D90BC91A02D8DA39EA3AFA3B8A70A
:103FB0002DA13EA14FA158A5D8011E962D933D934A
:103FC0004D935C935197D2962C91D29713962C9344
:103FD0001397822F8150823008F031C19F963C9018
:103FE0009F9712963C921297332009F428C1432DD3
:103FF00050E0CA01019784239523009709F01FC15F
:10400000F2010188F289E02DFAA7E9A71996FC933D
:10401000EE931897CF018F709070009709F00FC141
:10402000D20153966D907C90549788249924611402
:1040300071048104910431F490966D907D908D907F
:104040009C909397F201A684B784A114B10409F45B
:10405000F6C030E040E050E06DA17EA18FA198A5B0
:104060000E948E3C6FA778AB89AB9AAB950140E07C
:1040700050E02BAB3CAB4DAB5EABA9A4BAA4A4E023
:10408000B694A794AA95E1F7CC24DD24A20EB31E22
:10409000C41ED51EA60EB71EC81ED91E6A147B04E8
:1040A0008C049D0408F4CBC0C401B3016A197B09D8
:1040B0008C099D09232D30E040E050E00E94AD3C8A
:1040C000211531054105510509F4B9C0263F8FE09E
:1040D000380780E0480780E0580750F0263F9FEF00
:1040E000390790E0490790E0590720F462E003C0E7
:1040F00061E001C063E02E5F3F4F4F4F5F4FD8013B
:104100001A962D933D934D935C931D978BA59CA57B
:10411000ADA5BEA5A80EB91ECA1EDB1ED8015A96B3
:10412000AD92BD92CD92DC925D97ABA4BCA4CDA420
:10413000DEA48BA99CA9ADA9BEA9A80EB91ECA1E52
:10414000DB1ED8015296AD92BD92CD92DC9255976E
:104150006330C9F4E9A5FAA5309709F070C0F201FF
:1041600084A595A5A6A5B7A5F801868B978BA08FEA
:10417000B18FDA01C901F2E0880F991FAA1FBB1F96
:10418000FA95D1F72AC089A59AA5009709F457C0D6
:104190008FA598A9A9A9BAA98A0D9B1DAC1DBD1D03
:1041A000F801868B978BA08FB18FDA01C901880F38
:1041B000991FAA1FBB1F623081F0820F931FA41F9B
:1041C000B51FB695A795979587952170307040706B
:1041D0005070820F931FA41FB51F81509E4FAF4F89
:1041E000BF4F29E0B695A795979587952A95D1F762
:1041F0002DA13EA14FA158A5281739074A075B07F3
:10420000F0F0D8016C938091D4039091D50301967E
:104210009093D5038093D40317969C938E9316970F
:10422000F801168E178E10A211A21482C2C12BE0C3
:10423000A6C12CE0A4C123E0A2C121E0A0C12DE0D1
:104240009EC18C3519F40894E11CF11C1B8A1C8A50
:104250001D8A1E8AD7018C91803238F4CE010D96CA
:1042600071DD282F18A21F8E78C190E2392E85E0CB
:10427000282E0DE0802E912C8C0E9D1E3701F7010B
:1042800080810894E11CF11C8F32C1F38C35B1F3AD
:10429000E9A1FAA1DF018BE090E001C03D92019716
:1042A0002FEF8F3F9207D1F780E090E0AA24BB2444
:1042B00028E030E060E0D301AA0DBB1D7C9108949A
:1042C000A11CB11C713208F460C07F3209F45FC0D8
:1042D0007C3509F45CC07E3219F08217930770F0C8
:1042E0002830310509F034C17E3209F031C1660F42
:1042F000660F88E090E02BE030E0DDCF77FD636073
:10430000472F41584F3118F04F554D3100F5D3012B
:10431000AA0DBB1D0C91402F40544F3320F0405448
:104320004D3708F015C1A901415050408417950739
:1043300008F00EC10894A11CB11CDF01A80FB91F21
:104340007C930196DF01A80FB91F0C931CC0072FA7
:1043500010E0AEE2B3E04D91442329F050E0401765
:104360005107C9F7F5C0472F41544A3110F4626034
:1043700006C0472F41564A3110F461607052DF0188
:10438000A80FB91F7C93019696CF44E001C040E08E
:10439000009709F4DDC08081853E09F42082283031
:1043A000310511F4660F660F70E0CB0183709070D9
:1043B0008130910509F440616C7070706430710552
:1043C00009F448604387C401BDDC882309F0A1C01B
:1043D0004B8D5C8D6D8D7E8D8D859E8533DB882329
:1043E00009F097C0EF8DF8A19081992309F490C04E
:1043F000938593FD0DC0A9A1BAA1AF01455F5F4FA1
:10440000E417F50709F485C021919D912917C1F39F
:10441000E988FA880894E11CF11CE114F10409F41C
:1044200077C08B8D9C8DAD8DBE8D0097A105B1059C
:1044300009F46EC01FE0412E512C4E205F20411424
:10444000510409F052C00196A11DB11D8B8F9C8FA4
:10445000AD8FBE8F4F89588D698D7A8D8D859E85E4
:10446000411551056105710549F4DC0118968D91DE
:104470009C911997E816F906C0F14AC0FC01228107
:1044800030E021503040F701A4E0F695E795AA9579
:10449000E1F72E233F232115310539F58FDBAB01E1
:1044A000BC01423051056105710570F14F3FFFEFCE
:1044B0005F07FFEF6F07FFEF7F0741F18D859E8557
:1044C000DC011A960D911D912D913C911D9740177D
:1044D000510762077307E0F44F8B588F698F7A8F0B
:1044E0003EDB6B8F7C8F8D8F9E8FFA8AE98A8D855C
:1044F0009E85829635E0440C551C3A95E1F7840D73
:10450000951D98A38F8F64CF82E003C081E001C026
:1045100084E0E9A1FAA19385882331F0282F243083
:10452000E1F492FF17C019C092FD16C06F8D78A1FB
:10453000FB01838584FF0EC07301EA0CFB1CED8533
:10454000FE858081F7DA6B8B7C8B8D8B9E8B96CE74
:1045500026E003C025E001C0282F0F8D18A12223DB
:1045600071F40115110541F0D8011B968C911B9730
:1045700084FF29C024E003C026E001C029E0822F87
:10458000E8960FB6F894DEBF0FBECDBFCF91DF9196
:104590001F910F91FF90EF90DF90CF90BF90AF9061
:1045A0009F908F907F906F905F904F903F902F9053
:1045B0000895CE0101969AA389A3F70180818F32D5
:1045C00009F03FCE40CE8FA98170ABA1BCA114965B
:1045D0008C93ED84FE84F7018081B80128AFAADABC
:1045E000ABA1BCA11E966D937D938D939C93519727
:1045F000F801848D958DA68DB78DEBA1FCA18287E6
:104600009387A487B5871682178210861186168A2B
:10461000178A108E118EF182E082D70116968D9145
:104620009C9117979383828328ADA9CF2F923F92B5
:104630004F925F926F927F928F929F92AF92BF92B2
:10464000CF92DF92EF92FF920F931F93DF93CF935E
:1046500000D0CDB7DEB71C017A013901D9011D9216
:104660001C9269837A83D2D9182F69817A81882331
:1046700009F021C1F101848187FD1AC180FF1AC1AF
:1046800082859385A485B5852681378140855185AE
:10469000821B930BA40BB50B970140E050E08217EF
:1046A0009307A407B50708F47C01862E972E412CAA
:1046B00072E0572EF8C0D10116962D913D914D9183
:1046C0005C911997DA01C9019170A070B0700097E0
:1046D000A105B10509F083C0F101808191815901E3
:1046E0006A0169E0D694C794B794A7946A95D1F704
:1046F000DC0112960C91129701500A2129F521151F
:1047000031054105510529F46685778580899189B0
:1047100006C0F10142895389648975894FDA623094
:1047200071058105910500F16F3FBFEF7B07BFEF7A
:104730008B07BFEF9B0709F441C0D10152966D93DF
:104740007D938D939C935597F101A080B180428910
:10475000538964897589C50102DA9B01AC01611531
:1047600071058105910549F4D10114968C91149736
:10477000806814968C9314979BC0200F311D411DA7
:10478000511D6701CD2CDD24C694C114D10401F163
:10479000F5016281802F90E0F601E80FF91F70E0CB
:1047A0006E177F0718F46B01C81AD90AD501119644
:1047B0008C91B4010C2D1ED9882329F0F10184813C
:1047C0008068848322C0B601762F6627770F4EC09B
:1047D000D10156962D933D934D935C935997F101DA
:1047E000A680B780C084D18446895789608D718D39
:1047F0008081918127D9882351F0D10114968C9121
:104800001497806814968C93149711E054C0C501D6
:104810009170F201E81BF90BB701EE15FF0508F4E2
:10482000BF01D1018D919C911197829616962D9181
:104830003C9117973170820F931FDC01F4019B01AB
:1048400006C04D915D9141935193225030402230EA
:104850003105B8F79B012E7FF401E20FF31F820FA1
:10486000931F60FF03C0DC018C918083860E971E2E
:104870009B0140E050E0F10186819781A085B185E0
:10488000820F931FA41FB51F86839783A087B187CC
:10489000D3018D919C911197860F971F11969C9330
:1048A0008E93E61AF70AE114F10409F004CF03C06D
:1048B00012E001C017E0812F0F900F90CF91DF9190
:1048C0001F910F91FF90EF90DF90CF90BF90AF902E
:1048D0009F908F907F906F905F904F903F902F9020
:1048E0000895CF93DF93EC0191D8882311F41982B6
:1048F0001882DF91CF9108952F923F924F925F924D
:104900006F927F929F92AF92BF92CF92DF92EF927F
:10491000FF920F931F93DF93CF93CDB7DEB7289706
:104920000FB6F894DEBF0FBECDBF1C014D835E8372
:104930006F8378876BD8982E4D815E816F817885E3
:10494000882309F028C1D10114968C91149787FD12
:1049500020C11A968D919D910D90BC91A02DE42EB1
:10496000F52E062F172F8E159F05A007B10710F4FF
:104970007C018D01F10186819781A085B185168228
:10498000178210861186E114F1040105110509F45E
:10499000E0C020813181F901A280BB24CC24DD2438
:1049A00029E0AA0CBB1CCC1CDD1C2A95D1F7009772
:1049B000A105B105E9F12C013D0108944108510818
:1049C00061087108C801B701615070408040904093
:1049D000A60195010E94AD3C29833A834B835C83F9
:1049E000C301B201A60195010E94AD3C89819A8163
:1049F000AB81BC8182179307A407B507C8F088274D
:104A00009927DC018A199B09AC09BD0984219521EC
:104A1000A621B721F10186839783A087B187E81A81
:104A2000F90A0A0B1B0B42895389648975890CC0EA
:104A3000D1011E964D915D916D917C915197F1013F
:104A4000428B538B648B758B411551056105710544
:104A500009F47FC045C0D1018D919C91AFD8AB01C5
:104A6000BC014F3FBFEF5B07BFEF6B07BFEF7B079B
:104A700039F4F101848180688483992493948BC0F4
:104A8000423051056105710560F0D101ED91FC9155
:104A900082859385A485B585481759076A077B07E2
:104AA00028F0F10184818068848373C0D10152961B
:104AB0004D935D936D937C93559716968D919D9133
:104AC0000D90BC91A02D8A0D9B1DAC1DBD1DF1014B
:104AD00086839783A087B187EA18FB080C091D0914
:104AE000AE14BF04C006D10608F4B5CFF10186812B
:104AF0009781A085B1858E0D9F1DA01FB11F868354
:104B00009783A087B187D801C7019170A070B0705A
:104B10000097A105B105E9F08081918120D8611548
:104B200071058105910549F4D10114968C91149772
:104B3000806814968C9314972CC0F9E0169507950D
:104B4000F794E794FA95D1F7E60EF71E081F191FA0
:104B500003C0EE24FF248701F10186819781A0859F
:104B6000B1859170A070B0700097A105B10599F062
:104B700086899789A08DB18DE816F9060A071B076B
:104B800051F0D1015696ED92FD920D931C935997D9
:104B900002C0E2E09E2E892D28960FB6F894DEBF63
:104BA0000FBECDBFCF91DF911F910F91FF90EF907E
:104BB000DF90CF90BF90AF909F907F906F905F906D
:104BC0004F903F902F900895DF92EF92FF920F93B6
:104BD0001F93CF93DF93EC018B01DAD2D82E882379
:104BE00079F50115110529F0F80120813181C21BE9
:104BF000D30BEE24FF2420C08091E80085FD16C071
:104C00008091E8008E778093E8000115110551F03E
:104C1000F801808191818E0D9F1D9183808395E0A5
:104C2000D92E0EC0B5D2882339F009C01092F100F8
:104C300021970894E11CF11C2097F1F601C0D82EB1
:104C40008D2DDF91CF911F910F91FF90EF90DF900D
:104C500008958F929F92BF92CF92DF92EF92FF9230
:104C60000F931F93DF93CF930F92CDB7DEB7E82E4C
:104C70004B018A0199838CD2B82E99818823C1F582
:104C8000F92E0115110539F0F80120813181821AC0
:104C9000930AE20EF31ECC24DD2425C08091E800A7
:104CA00085FD16C08091E8008E778093E80001159D
:104CB000110551F0F801808191818C0D9D1D91832A
:104CC000808325E0B22E14C063D2882361F00FC028
:104CD000F70181917F018093F10008948108910888
:104CE0000894C11CD11C81149104C1F601C0B82ED6
:104CF0008B2D0F90CF91DF911F910F91FF90EF902F
:104D0000DF90CF90BF909F908F900895BF92CF92E9
:104D1000DF92EF92FF920F931F93CF93DF936C017B
:104D2000EB017A0135D2B82E8823D1F58E010150DE
:104D300010400C0D1D1DE114F10439F0F701208124
:104D40003181C21BD30B021B130BCC24DD2424C0E6
:104D50008091E80085FD16C08091E8008E778093F1
:104D6000E800E114F10451F0F701808191818C0D8C
:104D70009D1D9183808335E0B32E12C009D2882314
:104D800059F00DC0F80180818093F100015010406E
:104D900021970894C11CD11C2097D1F601C0B82ED0
:104DA0008B2DDF91CF911F910F91FF90EF90DF90AE
:104DB000CF90BF9008958F929F92BF92CF92DF9233
:104DC000EF92FF920F931F93DF93CF930F92CDB784
:104DD000DEB7E82E4B018A019983DAD1B82E99818A
:104DE0008823C1F5F92E0115110539F0F80120814C
:104DF0003181821A930AE20EF31ECC24DD2425C0F1
:104E00008091E80085FD16C08091E8008B77809343
:104E1000E8000115110551F0F801808191818C0D98
:104E20009D1D9183808345E0B42E14C0B1D18823A9
:104E300061F00FC08091F100F70181937F01089428
:104E4000810891080894C11CD11C81149104C1F6F9
:104E500001C0B82E8B2D0F90CF91DF911F910F9134
:104E6000FF90EF90DF90CF90BF909F908F9008952C
:104E7000282F392FF9018091B40D9091B50D861727
:104E8000970718F4BC0120E035C061157105D9F70A
:104E90008091E8008E778093E800F5CF8EB3882369
:104EA000F1F18530C1F18091E80083FD36C0809139
:104EB000E80082FD2AC08091E80080FF1BC080913D
:104EC000F2009091F30006C021912093F10061500F
:104ED000704001966115710519F088309105A0F3B5
:104EE00021E08830910509F020E08091E8008E777C
:104EF0008093E8006115710589F6222379F605C0D3
:104F00008EB3882361F0853061F08091E80082FFE4
:104F1000F7CF80E0089583E0089581E0089582E06E
:104F2000089583E008956115710529F51FC02EB31A
:104F30002223A1F1253071F12091E80023FD2CC03E
:104F40002091E80022FFF3CFE82FF92F07C08091CE
:104F5000F1008193CF016150704041F0CF01209169
:104F6000F2003091F3002115310589F72091E80016
:104F70002B772093E80061157105C9F605C08EB343
:104F8000882361F0853061F08091E80080FFF7CFE1
:104F900080E0089583E0089581E0089582E0089517
:104FA00083E00895E82FF92F8091B40D9091B50D0D
:104FB0008617970718F4BC0120E037C0611571050A
:104FC000D9F78091E8008E778093E800F5CF8EB313
:104FD000882309F43FC08530C9F18091E80083FD42
:104FE00037C08091E80082FD2BC08091E80080FFEF
:104FF0001CC08091F2009091F30007C0249120938F
:10500000F10031966150704001966115710519F0FB
:105010008830910598F321E08830910509F020E06F
:105020008091E8008E778093E8006115710579F62C
:10503000222369F605C08EB3882361F0853061F0C4
:105040008091E80082FFF7CF80E0089583E0089523
:1050500081E0089582E0089583E00895982F2CC0A0
:10506000292F2F702093E900981739F07091EC00E8
:105070002091ED005091F00003C0242F762F50E0D6
:1050800021FF19C03091EB003E7F3093EB0030914F
:10509000ED003D7F3093ED003091EB0031603093B7
:1050A000EB007093EC002093ED005093F000209102
:1050B000EE0027FF08C09F5F973090F28F708093BB
:1050C000E90081E0089580E00895EF92FF920F9348
:1050D0001F93CF93DF93162FE82EE7017E01F92E61
:1050E000E70100E02AC09881992329F16B81E981C9
:1050F000FA812C81892F8F70873018F56295660FA1
:10510000660F607C991F9927991F692B223010F038
:1051100096E001C092E028E030E040E003C04F5F3D
:10512000220F331F2E173F07D0F34295407F492BA4
:1051300095DF882331F00F5F25960117A0F281E0FB
:1051400001C080E0DF91CF911F910F91FF90EF9010
:1051500008958091AE0D87FF11C003C08EB38823E0
:10516000B1F08091E80082FFF9CF8091E8008B7761
:105170008093E80008958EB3882349F08091E80079
:1051800080FFF9CF8091E8008E778093E800089542
:105190008091E4009091E50044E62091EC0020FF2E
:1051A00025C02091E80020FD15C02EB32223A1F0D8
:1051B0002530A1F02091EB0025FD12C02091E400E4
:1051C0003091E5002817390741F3442359F0415045
:1051D000C901E3CF80E0089582E0089583E0089557
:1051E00081E0089584E0089580E008952091E8002A
:1051F00022FFDBCFF9CF80919E0090E0817090700C
:105200002091A0002D7F2093A00020919E0022607D
:1052100020939E0020919E0021FDFCCF20919E00B6
:10522000216020939E001092AC0D2091A00030E0F0
:10523000207230704091A0004F7D4093A0004091BB
:105240009F004F7D40939F004AE050919F0055FF83
:105250000BC040919F004F7D40939F0040919F0065
:105260004D7F40939F0008C0EFECF7E03197F1F7D6
:1052700000C00000415049F72115310529F0209167
:10528000A00020622093A000009729F480919E0046
:105290008E7F80939E008091A00082608093A0000A
:1052A000089540919E0050E0417050702091A00000
:1052B00030E0207230709091A0009F7D9093A0000C
:1052C00090919F009F7D90939F0090919E00916090
:1052D00090939E0029C090919F0095FF06C09091E9
:1052E0009F009F7D90939F0081509EB39130F9F075
:1052F0009091D9039230D9F49091A60094FF09C0FF
:105300001092F5008091A6008F7E8093A60082E027
:105310000FC09091A60091FF07C08091A6008D7FDD
:105320008093A60083E004C08823A9F601C081E031
:105330004115510529F490919E009E7F90939E0007
:105340002115310529F09091A00090629093A00062
:1053500008950F931F93DF93CF93CDB7DEB72897B0
:105360000FB6F894DEBF0FBECDBF8EB3853009F403
:1053700096C0863068F48230B9F1833018F48823FF
:10538000A1F0FFC08330C9F1843009F0FAC060C0D9
:10539000873009F49AC0873008F48BC0883009F44C
:1053A000B3C0893009F0EDC0D3C00091D70310918C
:1053B000D8030115110509F4E4C081E072DF682FFC
:1053C000882329F08091D6038EBB81E0CDC00150A7
:1053D00010401093D8030093D7030115110509F06D
:1053E000D0C08091D60307C088EE93E09093D80395
:1053F0008093D70383E08EBBC4C08091D703909184
:10540000D8039C01215030403093D8032093D70318
:10541000009739F08FEC97E00197F1F700C000009A
:10542000B0C077988091D80080618093D800809137
:10543000DD008B7F8093DD008091D70080618093B9
:10544000D7008091DD0082608093DD0084E0D3CFBF
:1054500080919F0080FF95C080919F008E7F8093F8
:105460009F0080919F008D7F80939F008091DF003F
:105470008D7F8093DF008091DE0082608093DE006C
:1054800080919E00816080939E0025D21EBA84E6A2
:1054900090E09093D8038093D70385E056C0ABDEAD
:1054A0001EBA88EC90E09093D8038093D70386E0EF
:1054B0004CC080E060E040E020E430E001E07DD1DD
:1054C000882309F44DC087E096CFAEEABDE0E5E45D
:1054D000F3E088E001900D928150E1F71092A7006F
:1054E000CE0101960ED7682F882309F03CC088852D
:1054F00080934D0380DE1EBA88EC90E09093D80331
:105500008093D70388E021C020914D0380E060E0C4
:1055100040E030E001E051D1882311F1AEEABDE076
:10552000EDE3F3E088E001900D928150E1F780E037
:1055300090E0E7D6682F8823B1F41EBA84E690E0A5
:105540009093D8038093D70389E08093D60319C042
:1055500081E08093A1008AE08EBB0E94EA0211C024
:1055600060E084E001C083E09EB3913051F00E947E
:105570005C038091DD0081608093DD000E94E80281
:105580002CD228960FB6F894DEBF0FBECDBFCF91B8
:10559000DF911F910F910895DF92EF92FF920F9389
:1055A0001F93CF93DF93EC018B018091AA008F7C36
:1055B00080618093AA00C9D1D82E882379F501157E
:1055C000110529F0F80120813181C21BD30BEE2493
:1055D000FF2420C08091A60085FD16C08091A60002
:1055E0008E778093A6000115110551F0F801808196
:1055F00091818E0D9F1D9183808384E0D82E0EC0F3
:10560000A4D1882339F009C08091AF002197089474
:10561000E11CF11C2097F1F601C0D82E8D2DDF91F1
:10562000CF911F910F91FF90EF90DF9008958F928F
:105630009F92BF92CF92DF92EF92FF920F931F93B0
:10564000DF93CF930F92CDB7DEB7E82E4B018A01DF
:105650008091AA008F7C80628093AA00998375D183
:10566000B82E99818823C1F5F92E0115110539F05D
:10567000F80120813181821A930AE20EF31ECC24B4
:10568000DD2425C08091A60085FD16C08091A6006E
:105690008B778093A6000115110551F0F8018081E8
:1056A00091818C0D9D1D9183808324E0B22E14C0C6
:1056B0004CD1882361F00FC0F70181917F01809365
:1056C000AF000894810891080894C11CD11C811472
:1056D0009104C1F601C0B82E8B2D0F90CF91DF91B0
:1056E0001F910F91FF90EF90DF90CF90BF909F9010
:1056F0008F9008958F929F92BF92CF92DF92EF92F8
:10570000FF920F931F93DF93CF930F92CDB7DEB726
:10571000E82E4B018A018091AA008F7C80618093E2
:10572000AA00998312D1B82E99818823C1F5F92E48
:105730000115110539F0F80120813181821A930A8F
:10574000E20EF31ECC24DD2425C08091A60085FD49
:1057500016C08091A6008E778093A60001151105D2
:1057600051F0F801808191818C0D9D1D9183808382
:1057700044E0B42E14C0E9D0882361F00FC08091BA
:10578000AF00F70181937F01089481089108089484
:10579000C11CD11C81149104C1F601C0B82E8B2DFF
:1057A0000F90CF91DF911F910F91FF90EF90DF90BD
:1057B000CF90BF909F908F9008950F93582F5F7058
:1057C00087FF02C080E101C080E2573008F059C075
:1057D000662309F480E04F706295660F660F607C67
:1057E000642B682B452F0260842F8F708093A70055
:1057F0004517A1F488E090E070E003C07F5F880F58
:10580000991F8217930710F47530C1F7872F82957F
:10581000807F802BF62F70E0E0E008C0F091AA00B6
:105820008091AB00E091AD007091AE0081FF20C08F
:105830009091A9009E7F9093A9009091AB009D7FCD
:105840009093AB009091A90091609093A900F09380
:10585000AA008093AB00E093AD007093AE008091FE
:10586000A90080628093A9008091AC0087FF09C0E5
:105870004F5F473009F0B8CF5F705093A70081E0C9
:1058800001C080E00F910895EF92FF920F931F9354
:10589000CF93DF93162FE82EE7017E01F92EE70163
:1058A000FF240DC08881882341F029813A816C81D1
:1058B0004B810D8182DF882331F0F3942696F11617
:1058C00088F381E001C080E0DF91CF911F910F91BB
:1058D000FF90EF9008951092F80080E0982F9F704D
:1058E0009093A7001092AE001092A6001092AB0009
:1058F0009091A9009E7F9093A9008F5F873071F7E8
:1059000008954091A7009091AA0090E0292F2F7050
:105910002093A7002091AC0027FF0CC03091AA0073
:10592000532F5F7030FF02C020E001C020E8252B1C
:10593000281749F09F5F973049F7842F8F70809325
:10594000A70080E0089581E008958091A2009091E1
:10595000A30044E62091AA002073203129F420916D
:10596000A60020FF05C017C02091A60022FD13C08D
:105970002091A60021FD11C02EB3213081F020918D
:10598000A2003091A3002817390721F3442349F0DE
:105990004150C901DFCF80E0089581E0089582E0A1
:1059A000089583E00895CFD0DAD0E0EEF0E0808172
:1059B00081608083E8EDF0E080818F77808319BC7F
:1059C000A7EDB0E08C918E7F8C9380818F7E808359
:1059D0001092D9031092AD0D08951F931091D70026
:1059E000B2D0BDD08091D8008F778093D8008091BD
:1059F000D80080688093D80016FF05C08091D80039
:105A000082608093D8008091D8008F7D8093D800E9
:105A10008091D903813059F58091D70080688093B7
:105A2000D70019BC1EBA1092A90D1092AB0D10929E
:105A3000AA0D8091E0008B7F8093E0008091D800D8
:105A400081608093D80080E060E042E007DB8091D5
:105A5000E1008E7F8093E1008091E200816080937D
:105A6000E2008091E20088608093E20037C080917C
:105A7000D9038230C1F58091D7008F778093D7000A
:105A80008CE089BD8EE089BD09B400FEFDCF81E0C8
:105A90008EBB1092AC0D80E480934D038091D800B2
:105AA00080648093D8008091DD0081608093DD0068
:105AB0008091DD0084608093DD008091D7008F7E2F
:105AC0008093D7006F9A779A8091DE0081608093EF
:105AD000DE008091DE0084608093DE008091E00033
