:100000009DC00000B6C00000B4C00000B2C0000037
:10001000B0C00000AEC00000ACC00000AAC000002C
:10002000A8C00000A6C00000A4C00000F9C30000E2
:100030009AC400009EC000009CC000009AC000004E
:1000400098C0000096C0000094C0000092C000005C
:1000500090C000008EC000008CC00000C1C1000034
:1000600088C0000086C0000084C0000082C000007C
:1000700080C000007EC000007CC000007AC000008C
:1000800078C0000076C0000074C0000072C000009C
:1000900070C000006EC000001201100102000008D4
:1000A000EB03602001000102DC0109023E000201B5
:1000B00000C0320904000001020201000524001002
:1000C0000104240206052406000107058203080036
:1000D000FF09040100020A000000070504021000E5
:1000E00005070583021000050403090418034400F2
:1000F000650061006E002000430061006D00650036
:100100007200610000003403420065006E00690067
:1001100074006F00200041007200640075006900E7
:100120006E006F002000500072006F0067007200C8
:1001300061006D006D0065007200000011241FBE9B
:10014000CFEFD4E0DEBFCDBF11E0A0E0B1E0EAE444
:10015000F0E102C005900D92AE31B107D9F711E080
:10016000AEE1B1E001C01D92AB3BB107E1F723D096
:100170006AC746CF98B18095906C892388B9089555
:1001800084B7877F84BF88E10FB6F89480936000BE
:10019000109260000FBE87B1806C87B988B1806C07
:1001A00088B92FD38DE787BD82E084BD83E085BD0C
:1001B0005C9854980895CF92DF92EF92FF920F933C
:1001C0001F93CF93DF93DCDF0FE111E0F8012FB72E
:1001D000F8948BE291E0918380839383828395836B
:1001E00084838BEA91E09783868380E890E091870F
:1001F0008087138612862FBF78943EE1F32E2AE083
:10020000C22E90ECD92E84E6E82E8091C80085FF9E
:100210000DC081E091E0A0D6009741F081E091E02F
:10022000C2D68093CE004798F092AC01A99B7BC0C8
:10023000A89A8091AB01882369F08091AB0181502D
:100240008093AB018091AB01882321F488B1806C4D
:1002500088B954988091AE01882361F08091AE01F5
:1002600081508093AE018091AE01882319F4D6B8F5
:10027000E092AE018091AC01882351F08091AC01F5
:1002800081508093AC018091AC01882309F4479A96
:100290008091AD01882351F08091AD018150809310
:1002A000AD018091AD01882309F4469A8FB7F89487
:1002B000C0912901D0912A018FBF80910001815006
:1002C00080930001882319F0C93CD10560F1C092E8
:1002D0000001209731F14698F092AD0122C0E091E3
:1002E0002101F091220181E091E06081C4D5882351
:1002F000D1F4F801828193810196938382832681D0
:1003000037818217930721F48481958193838283B7
:100310002FB7F894828593850197938782872FBFA3
:1003200021972097E1F681E091E0FFD5B9D46DCF18
:1003300084E68093AE0180E81DCF1092AE0180E08C
:1003400019CF81E091E073D51092AE0180FF02C019
:1003500080E001C080EC0ECF81E091E0BCC41F932F
:10036000FC01A18DA150A23028F4B0E0A45EBE4FE4
:100370001C9101C010E0808D823009F41860828DDC
:10038000873031F0883031F0863029F4126003C0B4
:10039000146001C016601092C9001092C80010923B
:1003A000CA002489358946895789CA01B9019695B9
:1003B000879577956795605C7D4B804F9F4F21D6E1
:1003C000215030403093CD002093CC001093CA00D0
:1003D00082E08093C80088E98093C9001F91089546
:1003E0001F920F920FB60F9211242F933F938F936A
:1003F0009F93AF93BF93EF93FF938091CE009EB3F3
:100400009430D9F4EFE1F1E0A081B1818C93808147
:10041000918101969183808326813781821793078A
:1004200021F484819581918380832FB7F89482850C
:1004300093850196938782872FBFFF91EF91BF919C
:10044000AF919F918F913F912F910F900FBE0F9081
:100450001F9018951F93FC011089117080911E0147
:10046000882341F4112331F080EC84DE549A8AE031
:100470008093AB0110931E011F910895923029F0D3
:10048000933041F09130E9F417C02EE330E0EAEA0E
:10049000F0E01BC0813041F0813018F0823089F4E7
:1004A00006C0E8EEF0E005C0ECEEF0E002C0E6E0E9
:1004B000F1E0249130E009C022E130E0E8E9F0E029
:1004C00004C020E030E0E0E0F0E0DA011196FC93B7
:1004D000EE93C9010895282F392FF9018091B901B0
:1004E0009091BA018617970718F4BC0120E034C038
:1004F00061157105D9F78091E8008E778093E80047
:10050000F5CF8EB38823E9F18530B9F18091E80009
:1005100083FD35C08091E80082FD29C08091E8000C
:1005200080FF1AC08091F20090E006C021912093D4
:10053000F1006150704001966115710519F0883025
:100540009105A0F321E08830910509F020E0809129
:10055000E8008E778093E8006115710591F62223FB
:1005600081F605C08EB3882361F0853061F08091FB
:10057000E80082FFF7CF80E0089583E0089581E0EE
:10058000089582E0089583E00895E82FF92F80917F
:10059000B9019091BA018617970718F4BC0120E0C1
:1005A00036C061157105D9F78091E8008E77809388
:1005B000E800F5CF8EB3882309F43EC08530C1F141
:1005C0008091E80083FD36C08091E80082FD2AC05A
:1005D0008091E80080FF1BC08091F20090E007C08E
:1005E00024912093F100319661507040019661157D
:1005F000710519F08830910598F321E08830910554
:1006000009F020E08091E8008E778093E800611582
:10061000710581F6222371F605C08EB3882361F03F
:10062000853061F08091E80082FFF7CF80E0089587
:1006300083E0089581E0089582E0089583E00895BD
:100640008F708093E900EBEEF0E080818160808321
:10065000EDEEF0E010826093EC0040838091EE00BC
:10066000881F8827881F0895EF92FF920F931F938A
:10067000CF93DF93162FE82EE7017E01F92EE701D5
:1006800000E02AC09881992329F16B81E981FA81E0
:100690002C81892F8F70853018F56295660F660F53
:1006A000607C991F9927991F692B223010F096E0E2
:1006B00001C092E028E030E040E003C04F5F220F2D
:1006C000331F2E173F07D0F34295407F492BB8DFE9
:1006D000882331F00F5F25960117A0F281E001C059
:1006E00080E0DF91CF911F910F91FF90EF900895DF
:1006F0008091B30187FF11C003C08EB38823B1F08E
:100700008091E80082FFF9CF8091E8008B77809399
:10071000E80008958EB3882349F08091E80080FFB7
:10072000F9CF8091E8008E778093E800089580915A
:10073000E4009091E50044E62091EC0020FF25C004
:100740002091E80020FD15C02EB32223A1F0253012
:10075000A1F02091EB0025FD12C02091E400309122
:10076000E5002817390741F3442359F04150C901E6
:10077000E3CF80E0089582E0089583E0089581E06A
:10078000089584E0089580E008952091E80022FF14
:10079000DBCFF9CF3FD041D08091D8008F778093C5
:1007A000D8008091D80080688093D8008091D800CC
:1007B0008F7D8093D80019BC82E089BD09B400FE0A
:1007C000FDCF1EBA1092AF011092B1011092B0018C
:1007D00080E060E042E034DF8091E1008E7F809332
:1007E000E1008091E20081608093E2008091E2006C
:1007F00088608093E2008091E0008E7F8093E0002B
:100800000895E3E6F0E080818E7F808381E080932D
:10081000B201C0CF1092E20008951092E100089555
:100820001F920F920FB60F9211242F933F934F9365
:100830005F936F937F938F939F93AF93BF93EF9348
:10084000FF938091E10082FF0AC08091E20082FF65
:1008500006C08091E1008B7F8093E10020D28091DF
:10086000E10080FF16C08091E20080FF12C08091FD
:10087000E2008E7F8093E2008091E20080618093AD
:10088000E2008091D80080628093D80019BC1EBA23
:1008900054DD8091E10084FF2BC08091E20084FF51
:1008A00027C019BC82E089BD09B400FEFDCF80914C
:1008B000D8008F7D8093D8008091E1008F7E809357
:1008C000E1008091E2008F7E8093E2008091E2005F
:1008D00081608093E2008091AF01882321F48091B0
:1008E000E30087FF02C084E001C081E08EBB20DD11
:1008F0008091E10083FF26C08091E20083FF22C047
:100900008091E100877F8093E10082E08EBB1092AE
:10091000AF018091E1008E7F8093E1008091E20041
:100920008E7F8093E2008091E20080618093E200FC
:1009300080E060E042E084DE8091F0008860809397
:10094000F000ADD1FF91EF91BF91AF919F918F9149
:100950007F916F915F914F913F912F910F900FBEBB
:100960000F901F9018951F920F920FB60F9211249F
:100970001F932F933F934F935F936F937F938F9327
:100980009F93AF93BF93EF93FF931091E9001F7074
:100990008091EC001092E9008091F000877F8093B5
:1009A000F00078941BD01092E9008091F0008860EC
:1009B0008093F0001093E900FF91EF91BF91AF9108
:1009C0009F918F917F916F915F914F913F912F9167
:1009D0001F910F900FBE0F901F9018951F93DF93DC
:1009E000CF93CDB7DEB7AC970FB6F894DEBF0FBE8E
:1009F000CDBFE3EBF1E08091F100819321E0EB3B8F
:100A0000F207C9F7A9DC8091E80083FF30C180912B
:100A1000B3012091B401253009F484C0263040F49C
:100A20002130A1F1213070F0233009F020C12EC017
:100A3000283009F4EFC0293009F4FEC0263009F04F
:100A400016C192C0803821F0823809F010C108C068
:100A50008091B0019091B101992371F082600CC036
:100A60008091B7018F708093E9009091EB0081E055
:100A700095FF80E01092E9009091E800977F9093B5
:100A8000E8008093F1001092F100CFC0882319F0A4
:100A9000823009F0ECC090E08F719070009729F0DF
:100AA0008230910509F0E3C00BC08091B50181301F
:100AB00009F0DDC0233009F080E08093B1012CC043
:100AC0008091B501882341F52091B7012F7009F479
:100AD000CEC02093E9008091EB0080FF1DC0809183
:100AE000B401833021F48091EB00806213C08091C7
:100AF000EB0080618093EB0081E090E002C0880F02
:100B0000991F2A95E2F78093EA001092EA008091FB
:100B1000EB0088608093EB001092E9008091E80080
:100B2000877F86C0882309F0A2C01091B5011F7786
:100B30008091E3008078812B8093E3008091E8002E
:100B4000877F8093E800D4DD8091E80080FFFCCFB0
:100B50008091E30080688093E300112311F083E02B
:100B600001C082E08EBB83C08058823008F07FC015
:100B70008091B5019091B60123E08C3D920791F5EB
:100B800083E08C838AE28B835FB7F894DE0115964D
:100B900080E090E04EE061E2E42FF0E060935700E7
:100BA000E49180FF03C0E295EF704F5FEF702E2F4E
:100BB00030E0EA3018F0295C3F4F02C0205D3F4F23
:100BC0002D933D9301968431910531F75FBF80915C
:100BD000E800877F8093E800CE0103966AE270E028
:100BE0007ADC12C06091B701AE014F5F5F4F46DC07
:100BF000BC01009709F43BC08091E800877F809397
:100C0000E80089819A81C1DC8091E8008B7780932C
:100C1000E8002DC0803859F58091E800877F8093E7
:100C2000E8008091AF018093F1008091E8008E7719
:100C30008093E8005DDD1BC08823C9F49091B50165
:100C40009230A8F48091E800877F8093E800909329
:100C5000AF014EDD8091AF01882321F48091E30044
:100C600087FF02C084E001C081E08EBB6ADB809117
:100C7000E80083FF0AC08091E800877F8093E80046
:100C80008091EB0080628093EB00AC960FB6F894F5
:100C9000DEBF0FBECDBFCF91DF911F9108950895A4
:100CA0001F938EB38823A9F08091E9008F709091F3
:100CB000EC0090FF02C010E801C010E0182B109269
:100CC000E9008091E80083FF01C088DE1F70109367
:100CD000E9001F910895CF93DF93EC018091E80024
:100CE00083FFA2C0888190E02091B7013091B801C4
:100CF0002817390709F098C08091B401813269F052
:100D0000823220F4803209F08FC03CC0823209F474
:100D10006AC0833209F088C079C08091B301813AFA
:100D200009F082C08091E800877F8093E80080917D
:100D3000E80080FFFCCF8C899D89AE89BF898093B4
:100D4000F100292F3A2F4B2F55272093F1009D01B9
:100D5000442755272093F1008B2F9927AA27BB27DB
:100D60008093F100888D8093F100898D8093F1004C
:100D70008A8D8093F1008091E8008E778093E8005F
:100D8000B7DC52C08091B301813209F04DC080912F
:100D9000E800877F8093E80004C08EB3882309F4BD
:100DA00043C08091E80082FFF8CF3091F10020919C
:100DB000F1009091F1008091F1003C8B2D8B9E8B86
:100DC0008F8B8091F100888F8091F100898F8091C5
:100DD000F1008A8F8091E8008B778093E80088DCAF
:100DE000CE01BDDA21C08091B3018132E9F4809156
:100DF000E800877F8093E8007BDC8091B5019091CB
:100E0000B601998B888BCE0125DB0EC08091B30192
:100E1000813251F48091E800877F8093E80068DC9C
:100E2000CE016091B501ECD0DF91CF910895CF93C1
:100E3000DF93EC014096FC018BE0DF011D928A9567
:100E4000E9F782E08C83898783E08E87CE01019663
:100E500061E00ADC882359F0CE01069661E004DCEB
:100E6000882329F0CE010B9661E0FEDB01C080E013
:100E7000DF91CF910895DF93CF930F92CDB7DEB777
:100E8000FC018EB38430F9F4248935894689578969
:100E90002115310541055105B1F081818F70809395
:100EA000E9008091E80085FD0AC08091E8008E7716
:100EB0008093E80069833BDC6981882329F460938F
:100EC000F10080E001C082E00F90CF91DF910895A2
:100ED000FC018EB3843019F52489358946895789F8
:100EE0002115310541055105D1F081818F70809325
:100EF000E9008091F2008823A1F09091E8008091B0
:100F0000E8008E778093E80095FD0DC010DC882303
:100F100059F49091E8009E779093E800089582E05C
:100F2000089580E0089580E008952EB3243099F468
:100F3000FC012489358946895789211531054105E8
:100F4000510549F021812F702093E9002091E8009C
:100F500020FF01C0BDCF0895FC018EB38430F9F4A9
:100F6000248935894689578921153105410551055F
:100F7000B1F086818F708093E9008091E80082FF54
:100F80000EC08091F200882331F48091E8008B77C5
:100F90008093E80004C02091F20030E002C020E01D
:100FA00030E0C9010895FC018EB3843029F524890D
:100FB0003589468957892115310541055105E1F0EB
:100FC00086818F708093E9008091E80082FF14C0D1
:100FD0008091F200882321F02091F10030E002C0DE
:100FE0002FEF3FEF8091F200882341F48091E800D9
:100FF0008B778093E80002C02FEF3FEFC90108957F
:101000000895A1E21A2EAA1BBB1BFD010DC0AA1F49
:10101000BB1FEE1FFF1FA217B307E407F50720F061
:10102000A21BB30BE40BF50B661F771F881F991FDC
:101030001A9469F760957095809590959B01AC0125
:0A104000BD01CF010895F894FFCF21
:10104A000A00831000000104100000018208000059
:0E105A00010000000000000000000000302037
:00000001FF
