:1000000020C100003CC100003AC1000038C100001E
:1000100036C1000034C1000032C1000030C1000010
:100020002EC100002CC100000C945C1D0C94261EF7
:1000300026C1000024C1000022C1000020C1000030
:100040001EC1000022C100001AC1000018C100003A
:1000500016C1000014C1000012C1000010C1000050
:100060000EC100000CC100000AC1000008C1000060
:1000700006C1000004C1000002C1000000C1000070
:10008000FEC00000FCC00000FAC00000F8C0000084
:10009000F6C00000F4C000000600FF0901A101093C
:1000A00002150025FF750895078102090315002533
:1000B000FF750895079102C01201100100000008A9
:1000C000EB03632001000102DC0109023900020197
:1000D00000C0320904000002080650000705830230
:1000E0004000050705040240000509040100010362
:1000F00000000009211101000122200007058103F1
:100100001000050403090418034400650061006E33
:10011000002000430061006D006500720061000076
:10012000002E03540065006D0070006500720061D0
:1001300000740075007200650020004400610074C6
:100140000061006C006F00670067006500720000CE
:1001500000B403B003AB03A603A0039A0394038E79
:1001600003880381037A0373036B0363035B035305
:10017000034A03410338032F0325031B031103071D
:1001800003FC02F102E602DB02D002C402B802ACB8
:1001900002A002940288027C026F02630256024AA5
:1001A000023D023102250218020C020002F301E7AF
:1001B00001DB01CF01C401B801AC01A10196018BA3
:1001C00001800176016B01610157014D0144013A43
:1001D00001310128011F0117010F010601FE00F77F
:1001E00000EF00E800E100DA00D300CD00C700C056
:1001F00000BA00B500AF00AA00A4009F009A0096C4
:100200000091008C008800840080007C00780074DD
:100210000071006D006A006700640061005E005BB1
:100220000058005500530050004E004C0049004754
:10023000004500430041003F003D003C003A0038CB
:10024000000011241FBECFEFD0E2DEBFCDBF11E012
:10025000A0E0B1E0E6E7F0E500E00BBF02C00790E8
:100260000D92AE3CB107D9F714E0AEECB1E001C09D
:100270001D92A633B107E1F780D10C943928C0CE86
:100280009BB19F70982B9BB908951F920F920FB648
:100290000F920BB60F9211249F92AF92BF92CF9202
:1002A000DF92EF92FF920F931F932F933F934F9301
:1002B0005F936F937F938F939F93AF93BF93EF93CE
:1002C000FF93DF93CF93CDB7DEB7CC56D040DEBFE0
:1002D000CDBFFBB080911D0490911E0401969093B8
:1002E0001E0480931D042091CE0130E082179307F5
:1002F00008F45CC010921E0410921D0480E2C0DF5E
:100300008EB3882309F04FC0CE010396C8D69E80D5
:10031000AF80B884CB80DC80ED800E94B1242DB703
:100320003EB7225130400FB6F8943EBF0FBE2DBFEE
:10033000EDB7FEB731968E01075F1F4FADB7BEB761
:1003400012961C930E93119720E031E033832283A1
:1003500094821582A6821782B0861186C286138681
:10036000D4861586E6861786992787FD9095918B0A
:10037000808B0E944D25AC0189835A832DB73EB7EF
:100380002E5E3F4F0FB6F8943EBF0FBE2DBF8FECD1
:1003900091E0B8019E012F5F3F4F0E9472158FECD4
:1003A00091E00E946F178F2D807F6ADFC459DF4F65
:1003B000DEBFCDBFCF91DF91FF91EF91BF91AF91A4
:1003C0009F918F917F916F915F914F913F912F916D
:1003D0001F910F91FF90EF90DF90CF90BF90AF9063
:1003E0009F900F900BBE0F900FBE0F901F9018950F
:1003F000EF92FF920F931F93DF93CF93CDB7DEB7AA
:1004000062970FB6F894DEBF0FBECDBFCE01019646
:1004100046D68DB79EB70A970FB6F8949EBF0FBE0B
:100420008DBFEDB7FEB731968E01095F1F4FADB797
:10043000BEB712961C930E9311978FE291E09383AF
:1004400082838C81848315828D81868317828E813D
:10045000808711860E944D258DB79EB70A960FB6EC
:10046000F8949EBF0FBE8DBF80E06FEE71E00E94DA
:1004700042108FECE82E81E0F82EC701B80142E16E
:100480000E9458104091D9015091DA016091DB012E
:100490007091DC01C7010E94261862960FB6F8948D
:1004A000DEBF0FBECDBFCF91DF911F910F91FF90A7
:1004B000EF900895CF93DF93CFECD1E0CE010E946F
:1004C0006F17CE010E941B18DF91CF91089584B75A
:1004D000877F84BF88E10FB6F89480936000109204
:1004E00060000FBE90E080E80FB6F8948093610042
:1004F000909361000FBE8AB1806F8AB98BB18F7003
:100500008BB9209A289A84B1866084B923982B9A53
:100510008DB581608DBD20988CE58CBD87EA809378
:100520007A00809880917E00816080937E008DB1FA
:1005300083608DB98EB183608EB90E94411D809118
:10054000BC0084608093BC0081E08093B9008CE0A3
:100550008093B80081E49FE09093890080938800A5
:100560008DE08093810082E080936F0001D5882325
:1005700019F480E985DEFFCFADC4A9DF80E090E00B
:100580000E947F278093CE018F3F19F48AE08093E9
:10059000CE012EDF80E174DE789480E491E00E9449
:1005A000622289E791E00E943D210E94CA1FF5CF97
:1005B00080EA66DE7FCF80E163DE1ACF1F9389E792
:1005C00091E00E942421182F80E491E00E944622AD
:1005D000212F30E090E02823392320FF02C080E65D
:1005E00001C080E94DDE1F91089580E491E00E94F2
:1005F000092289E791E00C94E51F1F93CF93DF93C5
:10060000EC0180E23DDECE012ED6182F80E638DEEA
:10061000812FDF91CF911F910895EF92FF920F9359
:100620001F93CF93DF93E22EE7017E01F32EE701C4
:10063000C70135D58091CE018E8387E090E0F80127
:100640009183808381E0DF91CF911F910F91FF9083
:10065000EF900895EF92FF92CF93DF93E22EE701A0
:100660007E01F32EE701C701AED46E818091CE01E9
:10067000861731F06093CE0180E090E00E948727DA
:10068000DF91CF91FF90EF900895933089F09430EF
:1006900028F4913049F1923061F505C09132D1F0E2
:1006A000923239F51CC029E330E0EAECF0E025C0D5
:1006B000813041F0813018F08230D9F406C0E3E097
:1006C000F1E005C0E7E0F1E002C0E1E2F1E02491F1
:1006D00030E013C029E030E0E3EFF0E00EC020E2AC
:1006E00030E0E8E9F0E009C022E130E0E8EBF0E0DA
:1006F00004C020E030E0E0E0F0E0DA011196FC9385
:10070000EE93C90108952EB123602EB920E4803004
:10071000920758F480FF05C08EB183608D7F8EB93B
:1007200008958EB183608E7F8EB908958EB19EB18B
:1007300093609EB99EB18C6F936089238EB90895A2
:10074000F5DF87ED8EBD0DB407FEFDCF1EBC0DB4E9
:1007500007FEFDCF0EB407FEF9CFE8CF9C0136951A
:10076000279536E0969587953A95E1F78EBD0DB4BD
:1007700007FEFDCF220F220F220F272B2EBD0DB417
:1007800007FEFDCF6EBD0DB407FEFDCF08956F923D
:100790007F929F92AF92BF92CF92DF92EF92FF92A1
:1007A0000F931F93DF93CF930F92CDB7DEB76C01FA
:1007B0007901DB01CA0119E0880F991FAA1FBB1F2D
:1007C0001A95D1F7FAE0B695A79597958795FA957A
:1007D000D1F73C018A01102F0027110F137093DF0E
:1007E00083E58EBD0DB407FEFDCFC30160E070E070
:1007F000B5DFA6DF84E88EBD0DB407FEFDCF80E037
:1008000090E0B801ABDF0E94CA1C882309F0EBC05E
:1008100074E0169507957A95E1F7902F870165E0CA
:10082000000F111F6A95E1F7BB2499249394BCC073
:1008300050E2A52E8091E80085FD0CC08091E80073
:100840008B778093E80099830E94CA1C9981882342
:1008500009F0C9C0903409F03AC072DFBB2011F032
:1008600086E801C083E88EBD0DB407FEFDCFC3014D
:1008700060E070E073DF0894611C711C8EB180959C
:100880008370823009F4B924C3013DDF00341105BF
:1008900078F456DFBB2011F085E501C083E58EBDFD
:1008A0000DB407FEFDCFC30160E070E057DF48DF05
:1008B000BB2011F087E801C084E88EBD0DB407FEAF
:1008C000FDCF80E090E060E070E048DF90E0809154
:1008D000F1008EBD0DB407FEFDCF8091F1008EBDFD
:1008E0000DB407FEFDCF8091F1008EBD0DB407FE63
:1008F000FDCF8091F1008EBD0DB407FEFDCF80913C
:10090000F1008EBD0DB407FEFDCF8091F1008EBDCC
:100910000DB407FEFDCF8091F1008EBD0DB407FE32
:10092000FDCF8091F1008EBD0DB407FEFDCF80910B
:10093000F1008EBD0DB407FEFDCF8091F1008EBD9C
:100940000DB407FEFDCF8091F1008EBD0DB407FE02
:10095000FDCF8091F1008EBD0DB407FEFDCF8091DB
:10096000F1008EBD0DB407FEFDCF8091F1008EBD6C
:100970000DB407FEFDCF8091F1008EBD0DB407FED2
:10098000FDCF8091F1008EBD0DB407FEFDCFF601C5
:1009900080AD882341F59F5FAA9409F04BCF08945E
:1009A000E108F10800521040E114F10409F040CFD1
:1009B000C7DEBB2011F086E801C083E88EBD0DB410
:1009C00007FEFDCFC30160E070E0C8DEB9DE8091B4
:1009D000E80085FD05C08091E8008B778093E800F2
:1009E0008EB183608EB90F90CF91DF911F910F91DF
:1009F000FF90EF90DF90CF90BF90AF909F907F904F
:100A00006F900895BF92CF92DF92EF92FF920F9373
:100A10001F93CF93DF936C017901DB01CA0169E079
:100A2000880F991FAA1FBB1F6A95D1F73AE0B695A8
:100A3000A795979587953A95D1F7EC018A01102FE4
:100A40000027110F13705FDE82ED8EBD0DB407FE1F
:100A5000FDCFCE01B80182DE1EBC0DB407FEFDCF76
:100A60001EBC0DB407FEFDCF1EBC0DB407FEFDCFAE
:100A70001EBC0DB407FEFDCF0E94CA1C882309F0DE
:100A8000C0C094E0169507959A95E1F782EDB82ECF
:100A9000A8C010E28091E80085FD0AC08091E800BE
:100AA0008E778093E8000E94CA1C882309F0A9C0B1
:100AB0000034E1F42196CE0126DEBEBC0DB407FE63
:100AC000FDCFCE0160E070E049DE1EBC0DB407FE34
:100AD000FDCF1EBC0DB407FEFDCF1EBC0DB407FE3E
:100AE000FDCF1EBC0DB407FEFDCF00E01EBC0DB453
:100AF00007FEFDCF8EB58093F1001EBC0DB407FE3E
:100B0000FDCF8EB58093F1001EBC0DB407FEFDCF66
:100B10008EB58093F1001EBC0DB407FEFDCF8EB5DF
:100B20008093F1001EBC0DB407FEFDCF8EB58093FF
:100B3000F1001EBC0DB407FEFDCF8EB58093F10011
:100B40001EBC0DB407FEFDCF8EB58093F1001EBC18
:100B50000DB407FEFDCF8EB58093F1001EBC0DB421
:100B600007FEFDCF8EB58093F1001EBC0DB407FECD
:100B7000FDCF8EB58093F1001EBC0DB407FEFDCFF6
:100B80008EB58093F1001EBC0DB407FEFDCF8EB56F
:100B90008093F1001EBC0DB407FEFDCF8EB580938F
:100BA000F1001EBC0DB407FEFDCF8EB58093F100A1
:100BB0001EBC0DB407FEFDCF8EB58093F1001EBCA8
:100BC0000DB407FEFDCF8EB58093F100F60180AD28
:100BD0008823B9F40F5F115009F05CCF0894E10845
:100BE000F108E114F10409F054CF8091E80085FD8B
:100BF00005C08091E8008E778093E8008EB1836015
:100C00008EB9DF91CF911F910F91FF90EF90DF9000
:100C1000CF90BF9008956F927F928F929F92AF92E4
:100C2000BF92CF92DF92EF92FF920F931F93CF93D9
:100C3000DF935A0139019B01AC0119E0220F331FE8
:100C4000441F551F1A95D1F7BAE056954795379529
:100C50002795BA95D1F7E9018B01102F0027110FC5
:100C60001370C801F4E096958795FA95E1F7D82EB0
:100C7000C90149DD83E58EBD0DB407FEFDCFCE0170
:100C800060E070E06BDD5CDD84E88EBD0DB407FED6
:100C9000FDCF80E090E0B80161DD7501E5E0EE0C8C
:100CA000FF1CEA95E1F7CC24882483945BC0830180
:100CB00070E2972E8D2D803409F03AC041DDCC20B2
:100CC00011F086E801C083E88EBD0DB407FEFDCFAC
:100CD000CE0160E070E042DD21968EB18095837098
:100CE000823009F4C824CE010EDD90E4E916F10447
:100CF00078F426DDCC2011F085E501C083E58EBDBA
:100D00000DB407FEFDCFCE0160E070E027DD18DDF9
:100D10000DDDCC2011F087E801C084E88EBD0DB454
:100D200007FEFDCF80E090E060E070E017DDDD249D
:100D3000F80180E191919EBD0DB407FEFDCF815079
:100D4000C9F7005F1F4FD3949A9409F0B3CF80E0A6
:100D500092E0680E791E0894A108B10880EE9FEF1A
:100D6000E80EF91EA114B10409F0A1CFE9DCCC20F2
:100D700011F086E801C083E88EBD0DB407FEFDCFFB
:100D8000CE0160E070E0EADCDBDC8EB183608EB91E
:100D9000DF91CF911F910F91FF90EF90DF90CF9057
:100DA000BF90AF909F908F907F906F9008959F928B
:100DB000AF92BF92CF92DF92EF92FF920F931F9369
:100DC000CF93DF935A0169019B01AC01F9E0220F37
:100DD000331F441F551FFA95D1F7EAE05695479502
:100DE00037952795EA95D1F7E9018B01102F002758
:100DF000110F1370C80144E0969587954A95E1F765
:100E0000F82EC90180DC82ED8EBD0DB407FEFDCF4A
:100E1000CE01B801A3DC1EBC0DB407FEFDCF1EBC85
:100E20000DB407FEFDCF1EBC0DB407FEFDCF1EBCEA
:100E30000DB407FEFDCF39C0860180E2E82E8F2D6C
:100E40008034E1F42196CE015EDC9EBC0DB407FE39
:100E5000FDCFCE0160E070E081DC1EBC0DB407FE6A
:100E6000FDCF1EBC0DB407FEFDCF1EBC0DB407FEAA
:100E7000FDCF1EBC0DB407FEFDCFFF24F80180E1BD
:100E80001EBC0DB407FEFDCF9EB591938150C1F7F6
:100E9000005F1F4FF394EA9491F680E092E0C80E51
:100EA000D91E0894A108B10802C002ED902EA11429
:100EB000B10409F0C1CF8EB183608EB9DF91CF91BB
:100EC0001F910F91FF90EF90DF90CF90BF90AF9068
:100ED0009F9008958EB183608E7F8EB987ED8EBD11
:100EE0000DB407FEFDCF1EBC0DB407FEFDCF0EB442
:100EF00001FE15C01BDC8DE38EBD0DB407FEFDCFDA
:100F00008AE28EBD0DB407FEFDCF8FE78EBD0DB416
:100F100007FEFDCF8AE98EBD0DB407FEFDCF8EB171
:100F200083608D7F8EB987ED8EBD0DB407FEFDCF3A
:100F30001EBC0DB407FEFDCF0EB401FE15C0F6DBDE
:100F40008DE38EBD0DB407FEFDCF8AE28EBD0DB4DC
:100F500007FEFDCF8FE78EBD0DB407FEFDCF8AE9FA
:100F60008EBD0DB407FEFDCF8EB183608EB908959E
:100F70008EB183608E7F8EB98FE98EBD0DB407FE72
:100F8000FDCF1EBC0DB407FEFDCF9EB58EB18360B4
:100F90008EB99F31B1F48EB183608D7F8EB98FE9A8
:100FA0008EBD0DB407FEFDCF1EBC0DB407FEFDCFF8
:100FB0009EB58EB183608EB981E09F3119F080E0DB
:100FC000089580E00895EF920F931F93DF93CF93DE
:100FD000CDB7DEB728970FB6F894DEBF0FBECDBFF2
:100FE000FC01198282812AE0622F0E94022587700B
:100FF0008295807F892B8A8381810E940225877058
:101000008295807F3B813078382B392B3B838081E0
:101010000E94022583708295807F3C81307C382B32
:10102000392B3F7B3C838D81887F8D8383810E9418
:10103000022583708295807F3E81307C382B392B4E
:101040003E8384810E94022581708295807F3F814A
:10105000307E382B392B3F8385810E940225829573
:10106000807F892B888780EDAE014F5F5F4F21E045
:101070008E010E5F1F4F97E0E92E0E946D2491E0D4
:10108000811190E0892F28960FB6F894DEBF0FBE2D
:10109000CDBFCF91DF911F910F91EF900895CF9227
:1010A000DF92EF920F931F93DF93CF93CDB7DEB70D
:1010B00028970FB6F894DEBF0FBECDBF6C01198222
:1010C00080ED6AE0AE014F5F5F4F21E08E010E5F61
:1010D0001F4F37E0E32E0E942124882309F050C0DF
:1010E0002A81922F9695969596959E70892F880FB6
:1010F000880F890F2F70820FF60182832B81922F28
:101100009695969596959E70892F880F880F890FD2
:101110002F70820F81832C81922F969596959695AC
:101120009670892F880F880F890F2F70820F808308
:101130002E81922F9695969596959670892F880F69
:10114000880F890F2F70820F83832F81922F96959E
:10115000969596959270892F880F880F890F2F701A
:10116000820F84832885922F92959F70990F892FE3
:10117000880F880F890F2F70820F858381E001C04F
:1011800080E028960FB6F894DEBF0FBECDBFCF919A
:10119000DF911F910F91EF90DF90CF900895282F4E
:1011A000892F922F0895AF92BF92CF92DF92EF9244
:1011B000FF920F931F93DF93CF930F92CDB7DEB7BC
:1011C0005C01FC017B96E580F480038112818781BC
:1011D00090856983E4DF6C01698180E0E81680E82E
:1011E000F80680E0080780E0180768F080918B011E
:1011F000807F856080938B0181E2809395011092BE
:10120000960180E024C0662331F0C501B801A70132
:101210009601F8DB05C0C501B801A7019601B7DA50
:10122000EE24FF2489E0CC0CDD1CEE1CFF1C8A950B
:10123000D1F7F50184899589A689B7898C199D090B
:10124000AE09BF09848B958BA68BB78B81E00F907D
:10125000CF91DF911F910F91FF90EF90DF90CF9092
:10126000BF90AF900895CF92DF92EF92FF920F93CD
:101270001F93DF93CF93CDB7DEB728970FB6F894BF
:10128000DEBF0FBECDBF8C01FC01838D8D3109F413
:10129000B2C08E3178F4833009F458C0843020F421
:1012A000882309F4E5C0EAC08231B9F08A3109F037
:1012B000E5C0C4C0883209F4BBC0893238F48E312D
:1012C00009F4D6C0853209F0D9C067C08A3209F462
:1012D000ACC08F3209F0D2C0CBC0F801868D978D9B
:1012E0005EDF6C01F801848D90E083709070009750
:1012F00009F085C0858D882309F081C07601F5E26B
:10130000CF16D10418F024E2E22EF12C8BE991E003
:10131000B70140E050E00E942B1AC6018E199F09C8
:1013200060E070E00E94E6198091E8008E7780937B
:10133000E800970140E050E0F80184899589A6898A
:10134000B789821B930BA40BB50B8DC0F801C78C1A
:10135000EC2CFC2DF33110F092E1E92E89E891E0BC
:101360006E2D70E040E050E00E942B1A8C2D90E032
:101370008E19910960E070E00E94E6198091E80002
:101380008E778093E800F80184899589A689B789CA
:101390008E199109A109B10966C08FEF9FE7A0E0FE
:1013A000B0E089839A83AB83BC8380E092E0A0E0C5
:1013B000B0E08D839E83AF83B887CE01019664E051
:1013C00070E040E050E00E94881ACE01059664E08B
:1013D00070E040E050E00E94881A8091E8008E772B
:1013E0008093E800F80184899589A689B7890897D0
:1013F000A109B10938C0F801848D82FD08C080912F
:101400008B01807F856080938B0184E23EC0B0DDDC
:10141000882371F580918B01807F846080938B019C
:1014200010929501109296013EC0C80160E002C082
:10143000C80161E0B8DE8823B1F12AC01092F10042
:101440001092F1001092F1001092F1008091E800EA
:101450008E778093E800F80184899589A689B789F9
:101460000497A109B109848B958BA68BB78B10C00B
:10147000F801148A158A168A178A0AC080918B018E
:10148000807F856080938B0180E280939501CACF35
:1014900080918B01807F80938B0110929501109237
:1014A000960181E001C080E028960FB6F894DEBF77
:1014B0000FBECDBFCF91DF911F910F91FF90EF90A5
:1014C000DF90CF90089580E0089580E008950F9315
:1014D000FB01CA01B901402F50E09F0168DC80E0A8
:1014E0000F9108950F93FB01CA01B901402F50E0FD
:1014F0009F0191DB80E00F910895662311F480E055
:10150000089584E00895DF93CF9300D000D000D0F9
:10151000CDB7DEB7CE010196C2DD2C8130E040E0D0
:1015200050E0A901332722278D8190E0A0E0B0E0B0
:10153000F5E1880F991FAA1FBB1FFA95D1F7282B39
:10154000392B4A2B5B2B898190E0A0E0B0E0EBE0E7
:10155000880F991FAA1FBB1FEA95D1F7282B392B9B
:101560004A2B5B2B8A8190E0A0E0B0E075E0880F09
:10157000991FAA1FBB1F7A95D1F7282B392B4A2B0D
:101580005B2B8B81869590E0A0E0B0E0282B392B77
:101590004A2B5B2B8E8190E04496AA2797FDA0955D
:1015A000BA2F69E1880F991FAA1FBB1F6A95D1F74F
:1015B000282B392B4A2B5B2BB901CA0126960FB673
:1015C000F894DEBF0FBECDBFCF91DF910895CF93CA
:1015D000DF939C01CB01DB01F901BA0106C0CD917B
:1015E000DD91C193D1936250704062307105B8F7BC
:1015F000BA016E7F260F371F860F971F40FF04C06A
:10160000FC018081F9018083DF91CF910895282F1B
:10161000392FF90103C061934150504041155105E4
:10162000D1F70895FC01538F428F758B648B089519
:10163000FC01A081B181109799F08C91882381F0F1
:1016400016962D913C91179782819381281739071F
:1016500039F411968C9139DF80FF04C083E008953E
:1016600089E0089580E008956F927F928F929F9213
:10167000AF92BF92CF92DF92EF92FF920F931F93A0
:10168000CF93DF93EC014A015B01CAA4DBA4ECA475
:10169000FDA4C416D506E606F70609F449C08C81F8
:1016A000882391F18EE2682E712C6C0E7D1E89814B
:1016B000B301A701960101E015DF8823D9F51C824B
:1016C0008A8D9B8DAC8DBD8D2E8D3F8D48A159A1EE
:1016D000820F931FA41FB51FC816D906EA06FB0682
:1016E00098F41B810FC08A8D9B8DAC8DBD8DC80E6B
:1016F000D91EEA1EFB1E8981B301A701960101E0F4
:10170000F1DE1150123078F781149104A104B10474
:1017100079F0BE01625D7F4F8981A501940101E0EE
:10172000D6DE882339F48AA69BA6ACA6BDA603C044
:1017300080E001C081E0DF91CF911F910F91FF9078
:10174000EF90DF90CF90BF90AF909F908F907F9061
:101750006F900895EF92FF920F93CF93DF93EC0178
:101760009A01AB019EE2E92EF12CEC0EFD1E89815F
:10177000B70101E0ACDE882341F5FE01E45DFD4FD9
:10178000808191812AEA8535920709F5F70186A9BA
:1017900097A9A0ADB1ADB0708634F1E49F07F4E530
:1017A000AF07F0E0BF07A9F0C058DF4F28813981AB
:1017B0004A815B81507081E0263491E4390794E5D9
:1017C000490790E0590731F404C083E003C082E088
:1017D00001C080E0DF91CF910F91FF90EF900895CD
:1017E000FB01228D338D40E050E0833059F4848931
:1017F0009589A0E0B0E0DC0199278827282B392BB8
:101800004A2B5B2BB901CA010895CF93DF93EC01FA
:10181000CB01BA0162507040804090402E893F89D0
:10182000488D598D22503040404050406217730718
:101830008407950788F42A8130E040E050E00E9458
:10184000E3249B01AC018EA19FA1A8A5B9A5280FF7
:10185000391F4A1F5B1F03C020E030E0A901B90116
:10186000CA01DF91CF910895BF92CF92DF92EF929C
:10187000FF920F931F93CF93DF93EC016A017B01DB
:10188000423051056105710508F49EC08E899F891B
:10189000A88DB98D481759076A077B0708F094C0CF
:1018A0008881823009F454C0833009F46CC08130DF
:1018B00009F08FC08A0116950795040F151FA8011E
:1018C000452F5527469560E070E08E8D9F8DA8A12D
:1018D000B9A1480F591F6A1F7B1FCE01C5DE88239F
:1018E00009F077C0F801F170EC0FFD1FB6A40F5F8F
:1018F0001F4FA801452F5527469560E070E08E8D5B
:101900009F8DA8A1B9A1480F591F6A1F7B1FCE0147
:10191000ABDE882309F05DC02B2D30E011700C0F79
:101920001D1FF80196A580E0282B392BF1E0CF226E
:10193000DD24C114D10431F014E0369527951A95B1
:10194000E1F71EC040E050E03F704070507044C06E
:10195000452F562F672F77278E8D9F8DA8A1B9A170
:10196000480F591F6A1F7B1FCE017EDE882389F531
:10197000F601EE0FFF1FF170EC0FFD1F26A537A536
:1019800040E050E029C0E7E0769567955795479588
:10199000EA95D1F78E8D9F8DA8A1B9A1480F591F47
:1019A0006A1F7B1FCE0160DE882399F4F601EE0FDB
:1019B000FF1FEE0FFF1FF170EC0FFD1F26A537A5CF
:1019C00040A951A95F7008C021E030E040E050E03C
:1019D00003C02FEF3FEFA901B901CA01DF91CF91F9
:1019E0001F910F91FF90EF90DF90CF90BF900895DF
:1019F0000F931F93CF93DF93EC011D821C824E81C6
:101A00005F8168857985413051056105710509F46B
:101A100065C008811981F80186899789A08DB18DEB
:101A2000481759076A077B0708F058C04115510548
:101A300061057105F9F48081833049F442A153A115
:101A400064A175A1411551056105710599F41A86C6
:101A50001B861C861D86F80180859185009709F4F8
:101A60003DC082A193A1A4A1B5A18E879F87A88B19
:101A7000B98B2CC0F80182818823F1F48881998187
:101A8000F3DEAB01BC014F3FFFEF5F07FFEF6F07D6
:101A9000FFEF7F0709F14230510561057105F0F054
:101AA000E881F98186899789A08DB18D48175907FA
:101AB0006A077B0718F312C04A875B876C877D87AC
:101AC000C801A3DE6E877F87888B998B025D1F4FCD
:101AD0001B8B0A8B80E003C081E001C082E0DF91B4
:101AE000CF911F910F9108958F929F92AF92BF92C5
:101AF000CF92DF92EF92FF920F931F93CF93DF93DA
:101B0000EC016A017B014801590142305105610530
:101B1000710508F4BFC08E899F89A88DB98D4817BB
:101B200059076A077B0708F0B5C08881823009F43D
:101B300066C0833009F47DC0813009F0A7C08A01F6
:101B4000169507950C0D1D1DA801452F5527469587
:101B500060E070E08E8D9F8DA8A1B9A1480F591F3C
:101B60006A1F7B1FCE0180DD882309F090C0C80169
:101B70009170E1E0CE22DD24C114D10451F0FE01C8
:101B8000E80FF91F36A53F70282D2295207F232BC3
:101B900001C0282D8C0F9D1FFC0126A70F5F1F4F32
:101BA00081E08C83A801452F5527469560E070E0C1
:101BB0008E8D9F8DA8A1B9A1480F591F6A1F7B1F49
:101BC000CE0152DD882309F062C01170C114D10426
:101BD00049F094E0B694A794979487949A95D1F796
:101BE000982D08C0FE01E00FF11F96A5907F292DCA
:101BF0002F70922B0C0F1D1FF80196A748C0452F80
:101C0000562F672F77278E8D9F8DA8A1B9A1480FDA
:101C1000591F6A1F7B1FCE0127DD8823C1F5F601FE
:101C2000EE0FFF1FF170BE96EC0FFD1F91828082B8
:101C30002EC0E7E07695679557954795EA95D1F7D9
:101C40008E8D9F8DA8A1B9A1480F591F6A1F7B1FB8
:101C5000CE010ADD8823D9F4F601EE0FFF1FEE0F47
:101C6000FF1FF170BE96EC0FFD1F20813181428174
:101C70005381207030704070507F282939294A29BB
:101C80005B29208331834283538301C082E091E04A
:101C90009C8301C082E0DF91CF911F910F91FF9053
:101CA000EF90DF90CF90BF90AF909F908F9008956E
:101CB0004F925F926F927F928F929F92AF92BF925C
:101CC000CF92DF92EF92FF920F931F93CF93DF9308
:101CD000EC012A013B01411551056105710599F49B
:101CE0008A849B84AC84BD8481149104A104B104D2
:101CF00001F18E899F89A88DB98D88169906AA064B
:101D0000BB06B8F41BC0B0DD9B01AC0162307105AD
:101D10008105910508F490C08E899F89A88DB98DA1
:101D2000281739074A075B0708F48AC053014201A4
:101D300005C061E0862E912CA12CB12C75016401A7
:101D40000894C11CD11CE11CF11C8E899F89A88DAF
:101D5000B98DC816D906EA06FB0660F022E08216A5
:101D60009104A104B10408F460C052E0C52ED12C46
:101D7000E12CF12CCE01B701A60176DD9B01AC016F
:101D80006115710581059105A9F02F3F8FEF380787
:101D90008FEF48078FEF580709F452C02130310503
:101DA0004105510509F44CC0C814D904EA04FB04E8
:101DB00039F63BC08C2CBD2CAE2C9F2CCE01A6013D
:101DC000B7010FEF1FEF2FEF3FE08EDE882339F5CD
:101DD000411451046104710441F0CE01B301A20128
:101DE0008601970181DE8823D1F48A86BB86AC8682
:101DF0009D868E859F85A889B9898F3F2FEF920791
:101E00002FEFA2072FEFB207A1F00197A109B109A7
:101E10008E879F87A88BB98B81E08D830AC0813024
:101E200059F42FEF3FEFA9010BC020E030E0A901EA
:101E300007C0A701960104C021E030E040E050E077
:101E4000B901CA01DF91CF911F910F91FF90EF90DF
:101E5000DF90CF90BF90AF909F908F907F906F90CA
:101E60005F904F9008958F929F92AF92BF92CF92C2
:101E7000DF92EF92FF920F931F93CF93DF93EC01CA
:101E80005B01CC80DD800894C11CD11CC114D1043D
:101E900009F4E4C08E859F85A889B9890097A105BA
:101EA000B10509F4DBC01FE0812E912C8C209D2010
:101EB0008114910409F0C2C00196A11DB11D8E8745
:101EC0009F87A88BB98B4A855B856C857D858881CA
:101ED0009981411551056105710541F4FC01808529
:101EE0009185C816D90608F4A9C0B8C0FC012281A2
:101EF00030E021503040F601A4E0F695E795AA9530
:101F0000E1F72E233F232115310509F097C0ACDC02
:101F10007B018C01623071058105910508F4A2C036
:101F20008FEFE8168FEFF8068FEF08078FEF18078F
:101F300009F49AC088819981FC0126893789408DEE
:101F4000518DE216F3060407150708F46AC0A114C0
:101F5000B10409F483C04A855B856C857D85A8DE64
:101F60007B018C01611571058105910509F478C02B
:101F7000613071058105910509F474C08FEFE81691
:101F80008FEFF8068FEF08078FEF180709F46CC082
:101F90008881998140E050E0BA0166DB882309F02E
:101FA00063C0888199818E9660E070E040E052E0E5
:101FB0002EDBA880B980C501B801A70126DCF50198
:101FC00062A773A784A795A7BB24AA24A39418C0CB
:101FD000A4828881998140E050E0BA0145DB8823E2
:101FE00009F042C0E881F98182A593A5A4A5B5A511
:101FF0000196A11DB11D82A793A7A4A7B5A7B3946D
:10200000E881F9818281B81618F382A593A5A4A569
:10201000B5A58B199109A109B10982A793A7A4A716
:10202000B5A7EA86FB860C871D8788819981B80150
:10203000A701EBDB6E877F87888B998BDD82CC8253
:10204000888199818E9675E0880C991C7A95E1F7C4
:10205000880D991D9B8B8A8B80E007C084E005C0AA
:1020600087E003C082E001C081E0DF91CF911F9142
:102070000F91FF90EF90DF90CF90BF90AF909F9027
:102080008F900895882391F4E0912604F09127041D
:10209000309709F010826115710511F0FB01108273
:1020A000709327046093260480E008958BE00895E0
:1020B0002F923F924F925F926F927F928F929F9258
:1020C000AF92BF92CF92DF92EF92FF920F931F9346
:1020D000DF93CF93CDB7DEB7E8970FB6F894DEBFA6
:1020E0000FBECDBF9CA38BA31B01009709F4A3C413
:1020F000DC0111961C921E92FB01808190E0C0973A
:102100008A30910540F421812A3329F422E030E01D
:10211000220E331E02C080E090E0009709F028C232
:10212000E0902604F0902704E114F10409F422C29F
:10213000342F3F713DA3142F1E71FE86ED86D7010B
:102140008C91882359F011968C91BFD980FD06C0DF
:10215000112309F4A0C482FD11C29DC4F7011082AD
:10216000118280E0B0D980FD07C2112311F082FDF9
:1021700005C2C70140E050E0BA01ECDA8130B9F4A1
:10218000F701E051FE4F8081882309F4F9C1F7017E
:10219000EC50FE4F20813181428153812EA33FA319
:1021A00048A759A7C701BA01A901D4DA04C01EA2E1
:1021B0001FA218A619A6833009F4EFC3882309F0DB
:1021C000DFC1AEE2CA2ED12CCE0CDF1CD6011B968D
:1021D0008D919C911C97B2E080309B0709F0D0C193
:1021E000F601868997899C0140E050E02AA73BA729
:1021F0004CA75DA7211531054105510559F4D601BC
:1022000094968D919D910D90BC91A02D8AA79BA72E
:10221000ACA7BDA72AA53BA54CA55DA5D7015A969D
:102220002D933D934D935C935D97DE962C91DE97B5
:1022300013962C931397822F8150823008F0A0C1FF
:10224000DB960C91DB9712960C931297002309F4FE
:1022500097C1402F50E0CA0101978423952300972E
:1022600009F08EC1F6010188F289E02DFFA7EEA7E3
:102270001996FC93EE931897CF018F70907000978A
:1022800009F07EC1D60153964D905C905497662418
:102290007724411451046104710431F490964D90F7
:1022A0005D906D907C909397F6018684978481145D
:1022B000910409F465C130E040E050E06AA57BA5D7
:1022C0008CA59DA50E94E32468AB79AB8AAB9BAB40
:1022D000940140E050E02CAB3DAB4EAB5FAB8EA425
:1022E0009FA4F4E096948794FA95E1F7AA24BB247E
:1022F000820E931EA41EB51E860E971EA81EB91E22
:10230000481459046A047B0408F43AC1C301B201B9
:10231000681979098A099B09202F30E040E050E0D4
:102320000E940E25211531054105510509F428C1EA
:10233000263F8FE0380780E0480780E0580750F0DC
:10234000263F9FEF390790E0490790E0590720F4B6
:1023500012E003C011E001C013E02E5F3F4F4F4F6A
:102360005F4FD70156962D933D934D935C935997AC
:102370008EA19FA1A8A5B9A5880E991EAA1EBB1E55
:10238000D70196968D929D92AD92BC9299978EA010
:102390009FA0A8A4B9A48CA99DA9AEA9BFA9880E85
:1023A000991EAA1EBB1ED7015E968D929D92AD927C
:1023B000BC9291971330C9F4EEA5FFA5309709F0B0
:1023C000DFC0F60184A595A5A6A5B7A5F70182A350
:1023D00093A3A4A3B5A3DA01C901E2E0880F991F72
:1023E000AA1FBB1FEA95D1F72AC08EA59FA500970B
:1023F00009F4C6C088A999A9AAA9BBA9880D991DE5
:10240000AA1DBB1DF70182A393A3A4A3B5A3DA0160
:10241000C901880F991FAA1FBB1F123081F0820FBC
:10242000931FA41FB51FB695A79597958795217003
:10243000307040705070820F931FA41FB51F8150E1
:102440009E4FAF4FBF4F29E0B695A79597958795BB
:102450002A95D1F72AA53BA54CA55DA528173907D4
:102460004A075B0708F48CC08FEF9FEFDC01F70190
:1024700086879787A08BB18BD7011A961D921D92E4
:102480001D921C921D97133009F05CC015961C928A
:10249000F60120A931A940E050E08EA19FA1A8A596
:1024A000B9A5280F391F4A1F5B1FD70152962D93DC
:1024B0003D934D935C935597B701625D7F4F1196A5
:1024C0008C9101E004D88823E9F5F601E250FE4F33
:1024D00080819181BAEA85359B07A1F5F70186A530
:1024E00097A5A0A9B1A98235F2E59F07F1E6AF074C
:1024F000F1E4BF0739F5F601EC51FE4F808191817F
:10250000A281B381823722E7920721E4A20721E664
:10251000B207C1F4F601E451FE4F80819181A2819E
:10252000B381F70182879387A487B587F601E851C5
:10253000FE4F80819181A281B381F70186879787C1
:10254000A08BB18BD7011C93809128049091290412
:102550000196909329048093280417969C938E9358
:102560001697F70112A613A614A615A6148293C2F5
:102570002BE064C22CE062C223E060C22AE05EC2AB
:102580002DE05CC28C3519F40894211C311C1B8A87
:102590001C8A1D8A1E8AD1018C91803238F4CE01AA
:1025A0000D9626DA282F18A21F8EF8C085E0482E37
:1025B0000DE0802E912C8C0E9D1E6101F101808119
:1025C0000894211C311C8F32C1F38C35B1F309A161
:1025D0001AA1C80160E270E04BE050E018D880E03A
:1025E00090E0EE24FF2428E030E060E0F601EE0DFC
:1025F000FF1D70810894E11CF11C713208F460C069
:102600007F3209F45FC07C3509F45CC07E3219F07A
:102610008217930770F02830310509F0BAC07E3276
:1026200009F0B7C0660F660F88E090E02BE030E05D
:10263000DDCF77FD6360472F41584F3118F04F557C
:102640004D3100F5F601EE0DFF1DA0814A2F4054DB
:102650004F3320F040544D3708F09BC0A901415042
:1026600050408417950708F094C00894E11CF11CB1
:10267000F801E80FF91F70830196F801E80FF91FC0
:10268000A0831CC0A72FB0E0EFEBF1E04191442301
:1026900029F050E04A175B07C9F77BC0472F415428
:1026A0004A3110F4626006C0472F41564A3110F497
:1026B00061607052F801E80FF91F7083019696CFA0
:1026C00044E001C040E0009709F463C0D8018C9158
:1026D000853E09F44C922830310511F4660F660FDF
:1026E00070E0CB01837090708130910509F44061F6
:1026F0006C7070706430710509F44860F8014387AC
:10270000C40176D9882321F54B8D5C8D6D8D7E8D2E
:102710008D859E850E94340B8823D1F4EF8DF8A11E
:1027200090819923A1F0938593FD0CC0A9A1BAA132
:10273000AF01455F5F4FE417F50751F021919D917F
:102740002917C9F3C40160E070E08DDBDBCF84E0C2
:10275000E9A1FAA19385882331F0282F2430F1F4E0
:1027600092FF19C01BC092FD18C06F8D78A1DB01CC
:102770001B968C911B9784FF0EC016012E0C3F1CDC
:10278000ED85FE8580812CD86B8B7C8B8D8B9E8B11
:1027900014CF26E003C025E001C0282FEF8CF8A05D
:1027A000222321F4E114F10409F426E0BDA18B2FCA
:1027B00090E0AC014C7150704115510509F4EFC027
:1027C000222309F447C02430E1F58E01035F1F4F37
:1027D000C8010ED9282F8823A1F5E02E4B8D5C8DE2
:1027E0006D8D7E8D8D859E850E94340B882341F5ED
:1027F000EF8DF8A18081853E09F43AC1882309F460
:1028000037C18E2D912F61E070E02DDB882331F3ED
:1028100017C00F8D18A1C80160E070E040E250E0E1
:1028200028AF0E94070B69A17AA1C8014BE050E0D4
:102830000E94E70AED85FE8581E0848328AD01C012
:10284000282FEF8CF8A0222309F0F8C0EDA1E86052
:10285000EDA309C0D7011B962C911B97217109F09C
:1028600018C182FD12C1BDA1B3FFA6C00E94830A98
:10287000F70166877787808B918B1386D7015C96EB
:102880001D921D921D921C925F97ED85FE858081A1
:10289000B7010E94F00B2B013C01C70140E050E062
:1028A000BA010E94120BCD84DE8481E0F60184839C
:1028B000411451046104710409F47EC0D6019A9652
:1028C0002D913D914D915C919D972AA73BA74CA7D7
:1028D0005DA7B2E04B1651046104710408F45BC0BB
:1028E00086899789A08DB18D481659066A067B06A0
:1028F00008F051C053014201222423944EA25FA24A
:1029000068A679A63CC0C601B501A4010E94340C9A
:102910002B013C01611571058105910509F4C5C0C4
:102920006130710581059105B1F16F3F2FEF72079D
:102930002FEF82072FEF920781F1C601B501A401A5
:1029400000E010E09801D0D8882309F076C0F601A5
:1029500086859785A089B1898F3FFFEF9F07FFEF9D
:10296000AF07FFEFBF0749F00196A11DB11DF601AA
:1029700086879787A08BB18B258253014201F60190
:1029800086899789A08DB18D88169906AA06BB06FF
:1029900008F4B9CF8AC022E051C021E04FC0222301
:1029A00009F04CC0D7011B962C911B9724FD6FC0DA
:1029B00081FF02C020FD6DC0BDA1B3FF02C0B062A7
:1029C000BDA30D851E85F80182A593A5A4A5B5A577
:1029D000EBA1FCA1828F938FA48FB58FF78EE68E2B
:1029E0002DA12483D8018C91B7010E94F00BEBA19B
:1029F000FCA166877787808B918BF701848D958DFD
:102A0000A68DB78DEBA1FCA182879387A487B5879C
:102A10001682178210861186168A178A108E118EDA
:102A200011830083D80116968D919C9117979383FB
:102A3000828320E003C029E001C0282F822FE8967E
:102A40000FB6F894DEBF0FBECDBFCF91DF911F91BF
:102A50000F91FF90EF90DF90CF90BF90AF909F903D
:102A60008F907F906F905F904F903F902F90089540
:102A70004B8D5C8D6D8D7E8D8D859E850E94340B7A
:102A8000282F882309F0DDCEC4CE28E0D7CF24E05C
:102A9000D5CF27E0D3CFCE0101969AA389A3F10128
:102AA00080818F3209F06ECD6FCD4EA05FA068A4FB
:102AB00079A48D859E8508944108510861087108A4
:102AC000DC011A964D925D926D927C921D974AA5FB
:102AD0005BA56CA57DA50E94340B282F882309F4E3
:102AE0006BCFACCF2F923F924F925F926F927F92BB
:102AF0008F929F92AF92BF92CF92DF92EF92FF920E
:102B00000F931F93DF93CF9300D000D0CDB7DEB7E4
:102B10009C838B835A011901D9011D921C928B81D0
:102B20009C8169837A830E94180B182F69817A81AE
:102B3000882309F0BCC1EB81FC81848187FDB4C18D
:102B400081FFB4C12285338544855585C501A0E048
:102B5000B0E0820F931FA41FB51F82179307A4072D
:102B6000B50710F4AA24BB24462E572E7CC1AB8196
:102B7000BC8116962D913D914D915C911997DA018A
:102B8000C9019170A070B0700097A105B10509F05E
:102B90000EC1EB81FC818081918169017A0109E09C
:102BA000F694E794D794C7940A95D1F7DC0112966E
:102BB0000C91129701500C2109F041C021153105EB
:102BC00041055105B1F42685378540895189211584
:102BD000310541055105F1F440E050E0BA0168D8F3
:102BE0009B01AC01EB81FC8166877787808B918BA1
:102BF0000BC0AB81BC8152964D915D916D917C91E2
:102C0000559756D89B01AC01211531054105510559
:102C100009F42DC1213031054105510509F43FC0AA
:102C20002F3FFFEF3F07FFEF4F07FFEF5F0709F46D
:102C3000A6C0EB81FC81228B338B448B558BAB81FF
:102C4000BC81ED91FC91119762A573A584A595A512
:102C500056962D913D914D915C915997621773074E
:102C60008407950749F4CF0140E050E0BA010E9483
:102C7000340B882309F0AFC0AB81BC81CD90DC90D0
:102C8000119752964D915D916D917C915597C6012A
:102C90000E94050C611571058105910531F4EB81E8
:102CA000FC81848180688483FFC03B014C01600EFD
:102CB000711C811C911C7501EF2CFF24E694E1141A
:102CC000F10409F445C0D60112962C911297802F79
:102CD00090E0A701480F591F30E02417350718F47A
:102CE0007901E81AF90AF6018181B201A401930180
:102CF0000E2D0E94720A882309F041C0AB81BC816D
:102D0000ED91FC91119762A573A584A595A566190F
:102D1000770988099909970140E050E06217730725
:102D20008407950788F4762F6627770F640D751D45
:102D3000CF018E9640E052E00E94E70AAB81BC8151
:102D4000ED91FC9111971482FE2CEE24FF0C6DC0C6
:102D5000EB81FC8126813781408551858285938571
:102D6000A485B585281739074A075B07D0F0C60147
:102D700040E050E0BA010E94340B882351F0AB814F
:102D8000BC8114968C911497806814968C93149738
:102D900027C0AB81BC81ED91FC9162A673A684A68D
:102DA00095A6EB81FC81668A778A808E918EAB81B5
:102DB000BC811696CD90DD90ED90FC9019975696BB
:102DC0004D915D916D917C9159978D919C910E944F
:102DD000340B882339F0EB81FC8184818068848303
:102DE00011E065C0C601917020E032E0281B390B6C
:102DF00075012A153B0508F47901AB81BC812D9141
:102E00003C911197225D3F4F16968D919C9117979B
:102E10009170820F931FB201A7010E94E70AAB8154
:102E2000BC81ED91FC91B1E0B4834E0C5F1C970125
:102E300040E050E0EB81FC8186819781A085B185DF
:102E4000820F931FA41FB51F86839783A087B18726
:102E5000D1018D919C9111978E0D9F1D11969C9380
:102E60008E93AE18BF08A114B10409F080CEEB8197
:102E7000FC8186819781A085B18522853385448533
:102E80005585281739074A075B0720F482879387FF
:102E9000A487B587AB81BC8114968C91149780620E
:102EA00014968C93149703C012E001C017E0812F91
:102EB0000F900F900F900F90CF91DF911F910F9176
:102EC000FF90EF90DF90CF90BF90AF909F908F904A
:102ED0007F906F905F904F903F902F9008950F9349
:102EE0001F93CF93DF93EC010E94180B982F882338
:102EF00009F09BC08C8185FF98C04A8D5B8D6C8DDD
:102F00007D8D888199810E94340B982F882309F048
:102F10008CC00E8D1F8DF8018385806283878A8522
:102F20009B85AC85BD85848F958FA68FB78F4E8589
:102F30005F8568897989C8010E94120B0E94830A03
:102F4000F801668B778B808F918F138A128A8C8120
:102F50008F7D8C83E881F98181E084830990D88119
:102F6000C02DCE0140E050E0BA010E94340B982FF2
:102F7000882309F05AC08881833009F04CC08D81C4
:102F8000882309F448C01AA61BA61CA61DA68E01FC
:102F9000025D1F4FC80160E070E040E052E00E9417
:102FA000070BFE01E45DFD4F85E59AEA918380837E
:102FB00082E592E5A1E6B1E48EA79FA7A8ABB9ABE5
:102FC000FE01EE5EFD4F82E792E7A1E4B1E6808369
:102FD0009183A283B383FE01EA5EFD4F8E859F85B8
:102FE000A889B98980839183A283B383FE01E65EB9
:102FF000FD4F8A859B85AC85BD8580839183A283A7
:10300000B3832A893B894C895D898981B80101E0B4
:103010000E94720A1D82898160E040E050E00E94B7
:103020007D0A91E0882309F490E0892FDF91CF9108
:103030001F910F910895CF93DF93EC0150DF882308
:1030400011F419821882DF91CF9108952F923F9247
:103050004F925F926F927F929F92AF92BF92CF9268
:10306000DF92EF92FF920F931F93DF93CF9300D0E5
:1030700000D000D0CDB7DEB79E838D837A018B015F
:103080000E94180B982E882309F087C1AD81BE815C
:1030900014962C91149727FD7EC11A968D919D91BF
:1030A0000D90BC91A02D8E159F05A007B10720F4AF
:1030B00021FD02C07C018D01ED81FE818681978119
:1030C000A085B1851682178210861186E114F1045D
:1030D0000105110509F42DC120803180F101A28084
:1030E000BB24CC24DD2439E0AA0CBB1CCC1CDD1C89
:1030F0003A95D1F70097A105B105F1F12C013D01F9
:1031000008944108510861087108C801B70161506D
:10311000704080409040A60195010E940E252983B1
:103120003A834B835C83C301B201A60195010E94DF
:103130000E2589819A81AB81BC8182179307A407F0
:10314000B507D0F088279927DC018A199B09AC09BB
:10315000BD0984219521A621B721ED81FE818683B9
:103160009783A087B187E81AF90A0A0B1B0B4289DB
:1031700053896489758936C0AD81BE811E964D9193
:103180005D916D917C9151974115510561057105D6
:1031900009F5C10140E050E0BA010E94580EAB01B0
:1031A000BC01413051056105710519F4ED81FE81C5
:1031B0005FC04F3FFFEF5F07FFEF6F07FFEF7F0736
:1031C00019F4AD81BE8136C0ED81FE8146875787F7
:1031D000608B718BAD81BE8152964D935D936D93E3
:1031E0007C935597411551056105710509F4A1C0FE
:1031F0004D805E805BC0F20124818081918121FF3E
:103200000AC00E94580EAB01BC0141155105610571
:10321000710529F454C00E94340CAB01BC014F3F2E
:10322000FFEF5F07FFEF6F07FFEF7F0769F45E8235
:103230004D82D20114968C911497806814968C93C9
:10324000149799249394A9C04230510561057105E2
:1032500060F0D201ED91FC9186899789A08DB18DA6
:10326000481759076A077B0738F05E824D82F201E2
:103270008481806884838FC0D20152964D935D9380
:103280006D937C93559716968D919D910D90BC9161
:10329000A02D8A0D9B1DAC1DBD1DF2018683978359
:1032A000A087B187EA18FB080C091D09AE14BF04FA
:1032B000C006D10608F49FCF5E824D8204C05E82B4
:1032C0004D8286017501ED81FE8186819781A08501
:1032D000B1858E0D9F1DA01FB11F86839783A08788
:1032E000B187D801C7019170A070B0700097A10597
:1032F000B105F9F0808191810E94050C611571057D
:103300008105910551F4AD81BE8114968C9114977D
:10331000806814968C9314973EC029E01695079503
:10332000F794E7942A95D1F7E60EF71E081F191FA8
:1033300003C0EE24FF248701ED81FE8126813781C1
:1033400040855185DA01C9019170A070B070009775
:10335000A105B10569F086899789A08DB18DE81620
:10336000F9060A071B0721F0E68AF78A008F118FFA
:10337000ED81FE8182859385A485B58582179307AB
:10338000A407B50750F42287338744875587848183
:103390008062848302C082E0982E892D26960FB623
:1033A000F894DEBF0FBECDBFCF91DF911F910F917B
:1033B000FF90EF90DF90CF90BF90AF909F907F9065
:1033C0006F905F904F903F902F900895DF92EF9213
:1033D000FF920F931F93CF93DF93EC018B01DAD20F
:1033E000D82E882379F50115110529F0F8012081DF
:1033F0003181C21BD30BEE24FF2420C08091E80052
:1034000085FD16C08091E8008E778093E800011555
:10341000110551F0F801808191818E0D9F1D9183DE
:10342000808395E0D92E0EC0B5D2882339F009C02B
:103430001092F10021970894E11CF11C2097F1F6FD
:1034400001C0D82E8D2DDF91CF911F910F91FF904C
:10345000EF90DF9008958F929F92BF92CF92DF926C
:10346000EF92FF920F931F93DF93CF930F92CDB7FD
:10347000DEB7E82E4B018A0199838CD2B82E998150
:103480008823C1F5F92E0115110539F0F8012081C5
:103490003181821A930AE20EF31ECC24DD2425C06A
:1034A0008091E80085FD16C08091E8008E778093BA
:1034B000E8000115110551F0F801808191818C0D12
:1034C0009D1D9183808325E0B22E14C063D2882392
:1034D00061F00FC0F70181917F018093F1000894A2
:1034E000810891080894C11CD11C81149104C1F673
:1034F00001C0B82E8B2D0F90CF91DF911F910F91AE
:10350000FF90EF90DF90CF90BF909F908F900895A5
:10351000BF92CF92DF92EF92FF920F931F93CF93C0
:10352000DF936C01EB017A0135D2B82E8823D1F5F7
:103530008E01015010400C0D1D1DE114F10439F0F5
:10354000F70120813181C21BD30B021B130BCC244A
:10355000DD2424C08091E80085FD16C08091E8003C
:103560008E778093E800E114F10451F0F701808137
:1035700091818C0D9D1D9183808335E0B32E12C007
:1035800009D2882359F00DC0F80180818093F100A1
:103590000150104021970894C11CD11C2097D1F6EE
:1035A00001C0B82E8B2DDF91CF911F910F91FF900D
:1035B000EF90DF90CF90BF9008958F929F92BF922F
:1035C000CF92DF92EF92FF920F931F93DF93CF93EF
:1035D0000F92CDB7DEB7E82E4B018A019983DAD17D
:1035E000B82E99818823C1F5F92E0115110539F0FE
:1035F000F80120813181821A930AE20EF31ECC2455
:10360000DD2425C08091E80085FD16C08091E8008A
:103610008B778093E8000115110551F0F801808146
:1036200091818C0D9D1D9183808345E0B42E14C043
:10363000B1D1882361F00FC08091F100F70181932F
:103640007F010894810891080894C11CD11C811441
:103650009104C1F601C0B82E8B2D0F90CF91DF9150
:103660001F910F91FF90EF90DF90CF90BF909F90B0
:103670008F900895282F392FF9018091340490916B
:1036800035048617970718F4BC0120E035C0611592
:103690007105D9F78091E8008E778093E800F5CF27
:1036A0008EB38823F1F18530C1F18091E80083FD6C
:1036B00036C08091E80082FD2AC08091E80080FF3A
:1036C0001BC08091F2009091F30006C021912093DD
:1036D000F1006150704001966115710519F0883054
:1036E0009105A0F321E08830910509F020E0809158
:1036F000E8008E778093E8006115710589F6222332
:1037000079F605C08EB3882361F0853061F0809131
:10371000E80082FFF7CF80E0089583E0089581E01C
:10372000089582E0089583E008956115710529F5F3
:103730001FC02EB32223A1F1253071F12091E800A2
:1037400023FD2CC02091E80022FFF3CFE82FF92FB2
:1037500007C08091F1008193CF016150704041F02A
:10376000CF012091F2003091F3002115310589F746
:103770002091E8002B772093E80061157105C9F6C8
:1037800005C08EB3882361F0853061F08091E80038
:1037900080FFF7CF80E0089583E0089581E00895E9
:1037A00082E0089583E00895E82FF92F8091340492
:1037B000909135048617970718F4BC0120E037C0B4
:1037C00061157105D9F78091E8008E778093E80044
:1037D000F5CF8EB3882309F43FC08530C9F18091BD
:1037E000E80083FD37C08091E80082FD2BC0809106
:1037F000E80080FF1CC08091F2009091F30007C0A8
:1038000024912093F100319661507040019661152A
:10381000710519F08830910598F321E08830910501
:1038200009F020E08091E8008E778093E800611530
:10383000710579F6222369F605C08EB3882361F0FD
:10384000853061F08091E80082FFF7CF80E0089535
:1038500083E0089581E0089582E0089583E008956B
:10386000982F2CC0292F2F702093E900981739F03A
:103870007091EC002091ED005091F00003C0242FD6
:10388000762F50E021FF19C03091EB003E7F30933E
:10389000EB003091ED003D7F3093ED003091EB0077
:1038A00031603093EB007093EC002093ED00509367
:1038B000F0002091EE0027FF08C09F5F973090F244
:1038C0008F708093E90081E0089580E00895EF9281
:1038D000FF920F931F93CF93DF93162FE82EE701EC
:1038E0007E01F92EE70100E02AC09881992329F191
:1038F0006B81E981FA812C81892F8F70873018F5CF
:103900006295660F660F607C991F9927991F692B36
:10391000223010F096E001C092E028E030E040E074
:1039200003C04F5F220F331F2E173F07D0F342957E
:10393000407F492B95DF882331F00F5F25960117D3
:10394000A0F281E001C080E0DF91CF911F910F9143
:10395000FF90EF90089580912E0487FF11C003C05F
:103960008EB38823B1F08091E80082FFF9CF809177
:10397000E8008B778093E80008958EB3882349F0A0
:103980008091E80080FFF9CF8091E8008E778093E6
:10399000E80008958091E4009091E50044E62091CC
:1039A000EC0020FF25C02091E80020FD15C02EB3BB
:1039B0002223A1F02530A1F02091EB0025FD12C0BB
:1039C0002091E4003091E5002817390741F34423A2
:1039D00059F04150C901E3CF80E0089582E0089595
:1039E00083E0089581E0089584E0089580E00895DB
:1039F0002091E80022FFDBCFF9CF0F931F93CF93E5
:103A0000DF934DD054D0C8EDD0E088818F77888384
:103A100088818068888388818F7D8883E7EDF0E0E6
:103A200080818068808319BC1EBA10922A0410928B
:103A30002C0410922B0400EE10E0F80180818B7FA3
:103A4000808388818160888380E060E042E008DFD5
:103A5000E1EEF0E080818E7F8083E2EEF0E0808115
:103A600081608083808188608083F80180818E7F7F
:103A70008083888180618883DF91CF911F910F912E
:103A80000895E8EDF0E080818F7E8083E7EDF0E03F
:103A900080818160808381E080932D04AECFE8ED4A
:103AA000F0E080818C7F80831092E2000895109274
:103AB000DA001092E10008951F920F920FB60F9254
:103AC0000BB60F9211242F933F934F935F936F93F5
:103AD0007F938F939F93AF93BF93EF93FF938091C7
:103AE000E10082FF0AC08091E20082FF06C080915F
:103AF000E1008B7F8093E1004CD28091DA0080FF5F
:103B00001DC08091D80080FF19C08091DA008E7F9F
:103B10008093DA008091D90080FF0CC08CE089BDD1
:103B20008EE089BD09B400FEFDCF81E08EBB0E940E
:103B3000D80204C019BC1EBA0E94DB028091E100C9
:103B400080FF17C08091E20080FF13C08091E200E7
:103B50008E7F8093E2008091E20080618093E2009A
:103B60008091D80080628093D80019BC85E08EBB1C
:103B700010D28091E10084FF2CC08091E20084FF8C
:103B800028C08CE089BD8EE089BD09B400FEFDCF60
:103B90008091D8008F7D8093D8008091E1008F7E46
:103BA0008093E1008091E2008F7E8093E20080911B
:103BB000E20081608093E20080912A04882321F44E
:103BC0008091E30087FF02C084E001C081E08EBBEA
:103BD000E0D18091E10083FF26C08091E20083FF65
:103BE00022C08091E100877F8093E10082E08EBB5C
:103BF00010922A048091E1008E7F8093E1008091F1
:103C0000E2008E7F8093E2008091E20080618093E9
:103C1000E20080E060E042E023DE8091F000886016
:103C20008093F000B6D1FF91EF91BF91AF919F913A
:103C30008F917F916F915F914F913F912F910F9055
:103C40000BBE0F900FBE0F901F9018951F920F92F2
:103C50000FB60F920BB60F9211241F932F933F9321
:103C60004F935F936F937F938F939F93AF93BF9384
:103C7000EF93FF931091E9001F708091EC00109278
:103C8000E9008091F000877F8093F00078941DD048
:103C90001092E9008091F00088608093F00010930A
:103CA000E900FF91EF91BF91AF919F918F917F912B
:103CB0006F915F914F913F912F911F910F900BBE8C
:103CC0000F900FBE0F901F9018951F93DF93CF9307
:103CD000CDB7DEB7AC970FB6F894DEBF0FBECDBF41
:103CE000EEE2F4E08091F100819324E0E633F20704
:103CF000C9F70E94F5028091E80083FF32C18091EC
:103D00002E0420912F04253009F484C0263040F47D
:103D10002130A1F1213070F0233009F022C12EC0F2
:103D2000283009F4F0C0293009F4FFC0263009F02A
:103D300018C192C0803821F0823809F012C108C041
:103D400080912B0490912C04992371F082600CC017
:103D5000809132048F708093E9009091EB0081E0B4
:103D600095FF80E01092E9009091E800977F909392
:103D7000E8008093F1001092F100D0C0882319F080
:103D8000823009F0EEC090E08F719070009729F0BA
:103D90008230910509F0E5C00BC08091300481307C
:103DA00009F0DFC0233009F080E080932C042CC0A0
:103DB00080913004882341F5209132042F7009F45A
:103DC000D0C02093E9008091EB0080FF1DC080915E
:103DD0002F04833021F48091EB00806213C0809126
:103DE000EB0080618093EB0081E090E002C0880FDF
:103DF000991F2A95E2F78093EA001092EA008091D9
:103E0000EB0088608093EB001092E9008091E8005D
:103E1000877F87C0882309F0A4C0109130041F77E2
:103E20008091E3008078812B8093E3008091E8000B
:103E3000877F8093E8008FDD8091E80080FFFCCFD2
:103E40008091E30080688093E300112311F083E008
:103E500001C082E08EBB85C08058823008F081C0EE
:103E6000809130049091310423E08C3D920791F5CC
:103E700083E08C838AE28B835FB7F894DE0115962A
:103E800080E090E04EE061E2E42FF0E060935700C4
:103E9000E49180FF03C0E295EF704F5FEF702E2F2B
:103EA00030E0EA3018F0295C3F4F02C0205D3F4F00
:103EB0002D933D9301968431910531F75FBF809139
:103EC000E800877F8093E800CE0103966AE270E005
:103ED000D1DB13C060913204AE014F5F5F4F0E948F
:103EE0004503BC01009709F43CC08091E800877F3E
:103EF0008093E80089819A8157DC8091E8008B7774
:103F00008093E8002EC0803861F58091E800877FBB
:103F10008093E80080912A048093F1008091E8006A
:103F20008E778093E80017DD1CC08823D1F4909130
:103F300030049230B0F48091E800877F8093E800ED
:103F400090932A0408DD80912A04882321F480912B
:103F5000E30087FF02C084E001C081E08EBB0E94C5
:103F6000DE028091E80083FF0AC08091E800877F2D
:103F70008093E8008091EB0080628093EB00AC9628
:103F80000FB6F894DEBF0FBECDBFCF91DF911F916A
:103F9000089508951F938EB38823A9F08091E900B6
:103FA0008F709091EC0090FF02C010E801C010E00B
:103FB000182B1092E9008091E80083FF01C085DE94
:103FC0001F701093E9001F9108956F927F928F9256
:103FD0009F92AF92BF92CF92DF92EF92FF920F9398
:103FE0001F93DF93CF9300D00F92CDB7DEB77C0144
:103FF0006DB67EB68091E80083FF0FC1F701808126
:1040000090E020913204309133042817390709F0E9
:1040100004C180912F04833009F4A6C0843030F4A9
:10402000813071F0823009F0F8C0DBC08A3009F4C9
:10403000C0C08B3009F4A9C0893009F0EEC04DC072
:1040400080912E04813A09F0E8C0CDB6DEB69DB667
:104050008D2C1B821A828091300400913104898357
:10406000F7014085C41AD1080FB6F894DEBE0FBE22
:10407000CDBE0894C11CD11CBC2CAD2CC60160E087
:1040800070E050E003D5402F4150C701BE016F5F83
:104090007F4F96018E010E5F1F4F0E940D03F701A7
:1040A000268137812115310529F04085C901B601E6
:1040B00050E0E3D41092E9008091E800877F80937C
:1040C000E8006A817B818B2D9A2DD4DA8091E800FB
:1040D0008B778093E80094013FC080912E04813259
:1040E00009F09BC0CDB6DEB6BDB69D2C0091340460
:1040F00010913504A0903004809031048DB79EB7A4
:10410000801B910B0FB6F8949EBF0FBE8DBFCDB62E
:10411000DEB60894C11CD11C8091E800877F809393
:10412000E800C601B80101DB8091E8008E7780933A
:10413000E80081E090E0AA2011F480E090E0482DB2
:1041400041509601280F391F081B190BC7016A2D12
:104150000E942A033B2D292D832F922F0FB6F8940E
:104160009EBF0FBE8DBF59C080912E04813A09F0C9
:1041700054C08091E800877F8093E8008091E80038
:1041800080FFFCCFF701818540C080912E048132F1
:1041900009F043C08091E800877F8093E800DBDB73
:1041A0009091300481E0992309F480E0F701818740
:1041B00034C080912E04813281F58091E800877FA0
:1041C0008093E800C8DB80913004909131048070C6
:1041D00036E0969587953A95E1F7F70195878487BC
:1041E0001CC080912E04813AC1F48091E800877F41
:1041F0008093E8008091E80080FFFCCFF701848580
:10420000958596958795969587958093F1008091F1
:10421000E8008E778093E8009EDB0FB6F8947EBEB0
:104220000FBE6DBE0F900F900F90CF91DF911F9139
:104230000F91FF90EF90DF90CF90BF90AF909F9045
:104240008F907F906F900895CF93DF93FC01099634
:10425000DC0187E0ED0119928A95E9F781E0818719
:1042600084EF91E09587848783E08483CF01019672
:1042700061E02DDBDF91CF9108955F926F927F9285
:104280008F929F92AF92BF92CF92DF92EF92FF9266
:104290000F931F93DF93CF9300D000D0CDB7DEB73D
:1042A0007C016DB67EB68EB3843009F099C08091E2
:1042B000E4009091E500F70122853385281739073E
:1042C00009F48EC081818F708093E9008091E800AD
:1042D00085FF86C08DB6572C4085CDB6DEB6C41A94
:1042E000D1080FB6F894DEBE0FBECDBE0DB71EB717
:1042F0000F5F1F4FB02EA12E19821B821A82C80198
:1043000060E070E050E0C2D3C701BE016F5F7F4F35
:1043100040E098018E010E5F1F4F0E940D03982E02
:10432000F70184859585009759F081E090E0268516
:1043300037852115310511F080E090E06C0102C055
:10434000CC24DD24F7010681178101151105A1F0A8
:104350004A815B818B2D9A2DB80182D321E0009791
:1043600009F420E0F7014085C8016B2D7A2D50E05B
:104370002C8383D32C8101C020E08A819B8100970C
:1043800009F1992029F4222319F4C114D104D1F0A0
:10439000F701848595859787868781818F708093C3
:1043A000E9008981882311F08093F1006A817B8183
:1043B0008B2D9A2D40E050E04ED88091E8008E770A
:1043C0008093E8008091E4009091E500F7019387E5
:1043D0008287882D952D0FB6F8949EBF0FBE8DBF96
:1043E0000FB6F8947EBE0FBE6DBE0F900F900F906B
:1043F0000F90CF91DF911F910F91FF90EF90DF9081
:10440000CF90BF90AF909F908F907F906F905F9074
:104410000895CF93DF93EC018091E80083FF33C0D0
:10442000888190E0209132043091330428173907B5
:1044300051F580912F048E3F79F08F3F21F58091C7
:104440002E04813201F58091E800877F8093E80097
:1044500082DA81E088AF17C080912E04813A99F406
:104460008091E800877F8093E8008091E80080FFDA
:10447000FCCF8B8581508093F1008091E8008E778E
:104480008093E80068DADF91CF910895CF93DF93AE
:10449000EC010C96FC018DE2DF011D928A95E9F793
:1044A00082E08C838987CE01019661E010DA88234F
:1044B00029F0CE01069661E00ADA01C080E0DF91C2
:1044C000CF910895CF92DF92EF92FF920F931F93B7
:1044D000DF93CF9300D0CDB7DEB78C018EB384309D
:1044E00009F016C1F80186818F708093E9008091F0
:1044F000E80082FFD3C086818F708093E9001A8222
:1045000019822CE0C22ED12CC00ED11E7E0108943F
:10451000E11CF11C05C0F80180AD882309F0BEC084
:10452000C6016FE070E0A70148D88530A1F3F8011B
:1045300084859585A685B7858535F3E59F07F2E4E3
:10454000AF07F3E4BF0781F4F801918D83859817D5
:1045500058F4808D90E08F719070009729F4828DCF
:10456000882311F0813180F08091EB00806280938C
:10457000EB00F80181818F708093E9008091EB005E
:1045800080628093EB008AC01A8219829BE1C92E57
:10459000D12CC00ED11E7E010894E11CF11C05C077
:1045A000F80180AD882309F079C0F801628DC60159
:1045B00070E0A70102D8853099F38091E8008B77ED
:1045C0008093E800F801808D87FF04C081818F709F
:1045D0008093E900C8010E94FD0291E09827F8014C
:1045E00097AB25E533E542E453E523A734A745A778
:1045F00056A7208931894289538927A730AB41AB1F
:1046000052AB248935894689578923AB34AB45ABF6
:1046100056AB882351F4211531054105510529F088
:104620008091EB0080628093EB00F80186818F70AF
:104630008093E90004C0F80180AD882379F580916A
:10464000EB0085FDF8CFF80181818F708093E90040
:1046500004C0F80180AD882309F58091EB0085FD49
:10466000F8CF1A8219828BE2C82ED12CC00ED11E2F
:104670007E010894E11CF11C04C0F80180AD882380
:1046800069F4C6016DE070E0A7010E942B1A853025
:10469000A1F38091E8008E778093E800F80180AD67
:1046A0008823B1F126812F7081E090E0AC0102C037
:1046B000440F551F2A95E2F74093EA001092EA0052
:1046C00021812F7002C0880F991F2A95E2F78093ED
:1046D000EA001092EA0086818F708093E900809151
:1046E000EB0080618093EB008091EB008860809309
:1046F000EB0081818F708093E9008091EB008061F5
:104700008093EB008091EB0088608093EB0010AE0B
:104710000F900F90CF91DF911F910F91FF90EF902D
:10472000DF90CF90089594EA9093BC0094E6699F3F
:10473000B0011124AB0190E0E4EA22C02091BC005A
:1047400027FF18C02091B90030E0287F3070203159
:10475000310579F02833310521F02830310521F475
:1047600008C0E093BC000CC084E08093BC0081E0F2
:10477000089591E02AE12A95F1F700C04150504098
:104780004115510519F09923C9F226C084E08093A0
:10479000BC0082E008958091BC0087FD0BC08AE1D7
:1047A0008A95F1F700C0615070406115710599F765
:1047B00083E008958091B90090E0887F90708831FF
:1047C000910541F08034910529F084E98093BC0083
:1047D00084E0089580E008958093BB0084E880938E
:1047E000BC00E3CF8093BB0084E88093BC00809141
:1047F000BC0087FFFCCF9091B900987F81E0983290
:1048000009F080E00895662311F024E801C024EC4B
:104810002093BC002091BC0027FFFCCF2091BB005F
:10482000FC0120839091B900987F662329F081E0F4
:10483000983531F080E0089581E0903509F080E00E
:104840000895AF92BF92CF92DF92EF92FF920F93B3
:104850001F93DF93CF9300D0CDB7DEB7D82EF62EBF
:10486000C22E8E7F49835A835EDFB82E49815A81DA
:10487000882329F55A0107C0F50181915F01B2DF54
:10488000CA94882311F0CC20B9F78D2D81606F2D4B
:104890004ADFB82E882359F012C0EA9461E009F08B
:1048A00060E0C801B0DF882329F00F5F1F4FEE20C2
:1048B000A1F702C085E0B82E84E98093BC008B2D5F
:1048C0000F900F90CF91DF911F910F91FF90EF907C
:1048D000DF90CF90BF90AF900895AF92BF92DF92DC
:1048E000EF92FF920F931F93DF93CF9300D0CDB73A
:1048F000DEB7F22E8E7F49835A8315DFD82E498189
:104900005A81882309F55A0107C0F50181915F0199
:1049100069DFFA94882359F0FF20B9F70AC0F8013B
:1049200081918F015FDFEA94882331F408C025E08C
:10493000D22E402F512F8A01EE2089F702C095E038
:10494000D92E84E98093BC008D2D0F900F90CF91CC
:10495000DF911F910F91FF90EF90DF90BF90AF908C
:10496000089580E480937C0080917A008064809335
:104970007A0080917A0084FFFCCF80917A00806178
:1049800080937A002091780030917900E1E5F1E0A0
:104990008591949182179307A0F080E090E0FC014C
:1049A000EE0FFF1FEF5AFE4F4591549142175307E8
:1049B00010F48551089501968837910581F782E6B4
:1049C00008958BEE0895629FD001739FF001829F3E
:1049D000E00DF11D649FE00DF11D929FF00D839F8E
:1049E000F00D749FF00D659FF00D9927729FB00D2B
:1049F000E11DF91F639FB00DE11DF91FBD01CF013E
:104A000011240895991B79E004C0991F961708F0A6
:104A1000961B881F7A95C9F780950895A1E21A2EF2
:104A2000AA1BBB1BFD010DC0AA1FBB1FEE1FFF1F52
:104A3000A217B307E407F50720F0A21BB30BE40BA2
:104A4000F50B661F771F881F991F1A9469F76095E9
:104A50007095809590959B01AC01BD01CF010895A3
:104A6000FB01DC0104C08D910190801921F44150BB
:104A70005040C8F7881B990B0895FB01DC0102C068
:104A800001900D9241505040D8F70895DC0101C0CB
:104A90006D9341505040E0F708950F931F93DF93BB
:104AA000CF93CDB7DEB72E970FB6F894DEBF0FBE0B
:104AB000CDBF0D891E8986E08C831A8309838FEF11
:104AC0009FE79E838D839E01275E3F4FCE01019617
:104AD0006F89788DA90110D0EF81F885E00FF11F63
:104AE00010822E960FB6F894DEBF0FBECDBFCF91C9
:104AF000DF911F910F9108952F923F924F925F92F5
:104B00006F927F928F929F92AF92BF92CF92DF92DD
:104B1000EF92FF920F931F93DF93CF93CDB7DEB742
:104B20002C970FB6F894DEBF0FBECDBF6C011B01F2
:104B30008A01FC0117821682838181FFC4C12E0184
:104B40000894411C511CF6019381F10193FD85915C
:104B500093FF81911F01882309F4B1C1853239F493
:104B600093FD859193FF81911F01853221F490E09F
:104B7000B601F5D1E8CFEE24FF2420E02032B0F4D6
:104B80008B3269F08C3228F4803251F0833271F428
:104B90000BC08D3239F0803349F421602CC0226083
:104BA000246029C0286027C0206125C027FD2CC0B3
:104BB000382F30533A3098F426FF08C08E2D880FD6
:104BC000E82EEE0CEE0CE80EE30E15C08F2D880FCC
:104BD000F82EFF0CFF0CF80EF30E20620CC08E3284
:104BE00021F426FD6CC1206406C08C3611F42068C7
:104BF00002C0883649F4F10193FD859193FF8191BC
:104C00001F01882309F0BACF982F9554933018F0DC
:104C10009052933028F40C5F1F4FFFE3F9830DC0CF
:104C2000833631F0833771F0833509F05CC021C0E1
:104C3000F801808189830E5F1F4F420171E0A72E2A
:104C4000B12C15C062E0662E712C600E711EF80149
:104C50008080918026FF03C06E2D70E002C06FEF50
:104C60007FEFC4012C8770D15C0183012C852F77E5
:104C700016C052E0652E712C600E711EF801808006
:104C8000918026FF03C06E2D70E002C06FEF7FEFB2
:104C9000C4012C874ED15C012C852068830123FD43
:104CA0001EC007C080E290E0B6012C8758D1FA946C
:104CB0002C858F2D90E0A816B906A0F310C0F40142
:104CC00027FD859127FF81914F0190E0B6012C8748
:104CD00046D12C85F110FA940894A108B108A114CA
:104CE000B10469F7E9C0843611F0893641F527FF30
:104CF00008C0F80160817181828193810C5F1F4F30
:104D000009C0F80160817181882777FD8095982F0F
:104D10000E5F1F4F4FE6B42EB22297FF09C0909549
:104D20008095709561957F4F8F4F9F4FF0E8BF2A18
:104D3000A2012AE030E03FD1782E741844C08537B4
:104D400031F43FEEB32EB2222AE030E025C099EFD5
:104D5000B92EB2228F36C1F0803720F4883509F0A1
:104D6000AEC00DC0803721F0883709F0A8C002C05E
:104D700020E1B22AB4FE0BC084E0B82A08C0B4FE19
:104D800009C0E6E0BE2A06C028E030E005C020E108
:104D900030E002C020E132E0B7FE08C0F8016081D7
:104DA0007181828193810C5F1F4F07C0F801608180
:104DB000718180E090E00E5F1F4FA201FCD0782E41
:104DC0007418FFE7BF22B6FE0BC02EEFB2227E148E
:104DD00038F4B4FE07C0B2FC05C08FEEB82202C0A2
:104DE000A72C01C0AE2C8B2D90E0B4FE0DC0FE01AF
:104DF000E70DF11D2081203319F4E9EEBE2209C030
:104E0000A394B2FE06C004C086789070009709F0A3
:104E1000A3948B2C9924B3FC13C0B0FE0EC0AF1426
:104E200028F4E72CEF0CEA18AF2C07C0E72C05C0DC
:104E300080E290E0B60193D0A394AF14C8F304C00D
:104E4000AF1410F4FA1801C0FF2484FE0EC080E3F2
:104E500090E0B60184D082FE1DC081FE03C088E5CB
:104E600090E010C088E790E00DC0C4018678907093
:104E7000009781F081FC02C080E201C08BE2B7FCA8
:104E80008DE290E0B6016BD005C080E390E0B60102
:104E900066D0EA947E14C8F37A94F201E70DF11D0E
:104EA000808190E0B6015BD07720B1F705C080E249
:104EB00090E0B60154D0FA94FF20C9F744CEF60131
:104EC0002681378102C02FEF3FEFC9012C960FB624
:104ED000F894DEBF0FBECDBFCF91DF911F910F9130
:104EE000FF90EF90DF90CF90BF90AF909F908F900A
:104EF0007F906F905F904F903F902F900895F99919
:104F0000FECF92BD81BDF89A992780B50895262FCE
:104F1000F999FECF92BD81BDF89A019700B40216AF
:104F200039F01FBA20BD0FB6F894FA9AF99A0FBE5D
:104F30000895FC010590615070400110D8F78095EC
:104F400090958E0F9F1F0895FC0161507040019055
:104F50000110D8F7809590958E0F9F1F08950F939D
:104F60001F93CF93DF938C01EB018B8181FF1BC0DB
:104F700082FF0DC02E813F818C819D8128173907CA
:104F800064F4E881F9810193F983E88306C0E88538
:104F9000F985802F0995009731F48E819F810196C4
:104FA0009F838E8302C00FEF1FEFC801DF91CF9167
:104FB0001F910F910895FA01AA27283051F120314D
:104FC00081F1E8946F936E7F6E5F7F4F8F4F9F4F9D
:104FD000AF4FB1E03ED0B4E03CD0670F781F891FDF
:104FE0009A1FA11D680F791F8A1F911DA11D6A0FAD
:104FF000711D811D911DA11D20D009F468943F9160
:105000002AE0269F11243019305D3193DEF6CF015E
:105010000895462F4770405D4193B3E00FD0C9F724
:10502000F6CF462F4F70405D4A3318F0495D31FD91
:105030004052419302D0A9F7EACFB4E0A6959795E4
:10504000879577956795BA95C9F7009761057105BA
:1050500008959B01AC010A2E069457954795379504
:105060002795BA95C9F7620F731F841F951FA01D5E
:065070000895F894FFCF43
:10507600253032642F253032642F323025303264A9
:105086002C20253032643A253032643A2530326499
:105096002C20256420446567726565730D0A00251A
:1050A60030326425303264253032642E63737600E4
:1050B60000834000000104400000010100000000E0
:1050C60000000000000000000000000000000000DA
:1050D60000000000000000000000000000000000CA
:1050E6000000000000000000000181100000011F08
:1050F600040700000000000000700000000000002F
:105106000A00000000000000000000008000021FEE
:105116000000004C55464100000000446174616681
:105126006C617368204469736B0000302E30302246
:0E5136002A2B2C3A3B3C3D3E3F5B5D7C7F00CC
:00000001FF
