:10000000A6C00000C1C00000BFC00000BDC000000D
:10001000BBC00000B9C00000B7C00000B5C0000000
:10002000B3C00000B1C000004FC40000ADC000006C
:10003000ABC00000A9C00000A7C00000A5C0000020
:10004000A3C00000A1C000009FC000009DC0000030
:100050009BC000009FC0000097C0000095C000003A
:1000600093C0000091C000008FC000008DC0000050
:100070008BC0000089C0000087C0000085C0000060
:1000800083C0000081C000007FC000007DC0000070
:100090007BC0000079C000001201100100000008C0
:1000A000EB03482001000102000109026500020182
:1000B00000C0320904000000010100000924010011
:1000C00001090001010904010002010300000724E5
:1000D000010001410006240201010006240202027F
:1000E00000092403010301020100092403020401A1
:1000F000010100090501024000050000052501017C
:1001000001090582024000050000052501010304E4
:1001100003090418034400650061006E00200043D9
:100120000061006D0065007200610000001E034C5C
:100130000055004600410020004D004900440049A0
:10014000002000440065006D006F000000001124D5
:100150001FBECFEFD0E2DEBFCDBF12E0A0E0B1E026
:10016000E4E4FEE000E00BBF02C007900D92AC306B
:10017000B107D9F712E0ACE0B2E001C01D92A6339E
:10018000B107E1F785D05CC63BCF9BB19F70982B40
:100190009BB908951F920F920FB60F920BB60F9254
:1001A00011242F933F934F935F936F937F938F937C
:1001B0009F93AF93BF93EF93FF93EDE0F2E060E086
:1001C00070E080818823B9F0258136814781508590
:1001D000A52FB0E0A45FBE4F8C91680F711D818187
:1001E0009281A381B481820F931FA41FB51F8583C1
:1001F0009683A783B0873A9682E0EB32F80709F737
:10020000CB016F3F710519F010F08FEF90E09093E4
:10021000990080939800FF91EF91BF91AF919F91CA
:100220008F917F916F915F914F913F912F910F909F
:100230000BBE0F900FBE0F901F90189584B7877F4D
:1002400084BF88E10FB6F89480936000109260003C
:100250000FBE90E080E80FB6F89480936100909311
:1002600061000FBE8AB1806F8AB98BB18F708BB974
:1002700010D382E080936E0090E497BD84BD85BD6D
:100280003E9A82EC8093900089E0809391000895DB
:10029000EF92FF920F931F93DF93CF9300D000D084
:1002A000CDB7DEB7CBDF80E170DF78947E010894B4
:1002B000E11CF11C80E091E0B70182D5882309F4AC
:1002C00078C08981893009F059C08A8190E08F70A7
:1002D0009070009709F06DC0ECE0F2E080E090E0F3
:1002E0008F012181222379F4282F30E08901000F2A
:1002F000111F73E0220F331F7A95E1F7020F131FCE
:10030000045F1D4F19C04081D8012C91421768F03D
:100310008C01000F111F9C0153E0220F331F5A95CF
:10032000E1F7020F131F045F1D4F4F5F40830196DB
:100330003A9683309105A9F66B81F801618370E0EC
:1003400065517040882777FD8095982F26EB36EF12
:100350004CE251E056D562567D4E834E9E4FD801F9
:1003600012966D937D938D939C931597F801168249
:10037000178210861186108280E11AC08830C9F475
:100380008A8190E08F709070009799F42B81EDE056
:10039000F2E080E09081921711F4108202C0911176
:1003A00081E03A9692E0EB32F907A1F7882309F44D
:1003B000ECDE80E091E0F6D4ACD47CCF80EAE5DEE0
:1003C0003E9A089580E1E1DE10920D02109217022C
:1003D000109221023E98089580E091E0B5D480FF0C
:1003E00002C080E601C080E9D0CE0895923029F0A5
:1003F000933041F09130E9F417C025E630E0EAEAA5
:10040000F0E01BC0813041F0813018F0823089F477
:1004100006C0EFE0F1E005C0E3E1F1E002C0EDE28B
:10042000F1E0249130E009C022E130E0E8E9F0E0B9
:1004300004C020E030E0E0E0F0E0DA011196FC9347
:10044000EE93C90108958F929F92BF92CF92DF924F
:10045000EF92FF920F931F93DF93CF930F92CDB73D
:10046000DEB7E82E4B018A0199839CD1B82E998181
:100470008823C9F5F92E0115110539F0F8012081FD
:100480003181821A930AE20EF31ECC24DD2426C0A9
:100490008091E80085FD17C08091E8008B778093FC
:1004A000E80037D40115110551F0F80180819181E0
:1004B0008C0D9D1D9183808345E0B42E14C072D1B4
:1004C000882361F00FC08091F100F70181937F01D3
:1004D0000894810891080894C11CD11C81149104CE
:1004E000B9F601C0B82E8B2D0F90CF91DF911F91DF
:1004F0000F91FF90EF90DF90CF90BF909F908F90E3
:100500000895282F392FF9018091340290913502F6
:100510008617970718F4BC0120E035C061157105F6
:10052000D9F78091E8008E778093E800F5CF8EB3FD
:100530008823F1F18530C1F18091E80083FD36C058
:100540008091E80082FD2AC08091E80080FF1BC0F6
:100550008091F2009091F30006C021912093F10068
:100560006150704001966115710519F08830910550
:10057000A0F321E08830910509F020E08091E800A7
:100580008E778093E8006115710589F6222379F64C
:1005900005C08EB3882361F0853061F08091E8005A
:1005A00082FFF7CF80E0089583E0089581E0089509
:1005B00082E0089583E00895E82FF92F80913402B6
:1005C000909135028617970718F4BC0120E037C0D8
:1005D00061157105D9F78091E8008E778093E80066
:1005E000F5CF8EB3882309F43FC08530C9F18091DF
:1005F000E80083FD37C08091E80082FD2BC0809128
:10060000E80080FF1CC08091F2009091F30007C0C9
:1006100024912093F100319661507040019661154C
:10062000710519F08830910598F321E08830910523
:1006300009F020E08091E8008E778093E800611552
:10064000710579F6222369F605C08EB3882361F01F
:10065000853061F08091E80082FFF7CF80E0089557
:1006600083E0089581E0089582E0089583E008958D
:10067000982F2CC0292F2F702093E900981739F05C
:100680007091EC002091ED005091F00003C0242FF8
:10069000762F50E021FF19C03091EB003E7F309360
:1006A000EB003091ED003D7F3093ED003091EB0099
:1006B00031603093EB007093EC002093ED00509389
:1006C000F0002091EE0027FF08C09F5F973090F266
:1006D0008F708093E90081E0089580E00895EF92A3
:1006E000FF920F931F93CF93DF93162FE82EE7010E
:1006F0007E01F92EE70100E02AC09881992329F1B3
:100700006B81E981FA812C81892F8F70873018F5F0
:100710006295660F660F607C991F9927991F692B58
:10072000223010F096E001C092E028E030E040E096
:1007300003C04F5F220F331F2E173F07D0F34295A0
:10074000407F492B95DF882331F00F5F25960117F5
:10075000A0F281E001C080E0DF91CF911F910F9165
:10076000FF90EF90089580912E0287FF11C003C083
:100770008EB38823B1F08091E80082FFF9CF809199
:10078000E8008B778093E80008958EB3882349F0C2
:100790008091E80080FFF9CF8091E8008E77809308
:1007A000E80008958091E4009091E50044E62091EE
:1007B000EC0020FF25C02091E80020FD15C02EB3DD
:1007C0002223A1F02530A1F02091EB0025FD12C0DD
:1007D0002091E4003091E5002817390741F34423C4
:1007E00059F04150C901E3CF80E0089582E00895B7
:1007F00083E0089581E0089584E0089580E00895FD
:100800002091E80022FFDBCFF9CF0F931F93CF9306
:10081000DF934DD054D0C8EDD0E088818F778883A6
:1008200088818068888388818F7D8883E7EDF0E008
:1008300080818068808319BC1EBA10922A021092AF
:100840002C0210922B0200EE10E0F80180818B7FC9
:10085000808388818160888380E060E042E008DFF7
:10086000E1EEF0E080818E7F8083E2EEF0E0808137
:1008700081608083808188608083F80180818E7FA1
:100880008083888180618883DF91CF911F910F9150
:100890000895E8EDF0E080818F7E8083E7EDF0E061
:1008A00080818160808381E080932D02AECFE8ED6E
:1008B000F0E080818C7F80831092E2000895109296
:1008C000DA001092E10008951F920F920FB60F9276
:1008D0000BB60F9211242F933F934F935F936F9317
:1008E0007F938F939F93AF93BF93EF93FF938091E9
:1008F000E10082FF0AC08091E20082FF06C0809181
:10090000E1008B7F8093E10003D28091DA0080FFC9
:100910001BC08091D80080FF17C08091DA008E7FC5
:100920008093DA008091D90080FF0BC08CE089BDF4
:100930008EE089BD09B400FEFDCF81E08EBB3EDDB7
:1009400003C019BC1EBA3EDD8091E10080FF17C0D4
:100950008091E20080FF13C08091E2008E7F80933F
:10096000E2008091E20080618093E2008091D800F3
:1009700080628093D80019BC85E08EBBC9D180917C
:10098000E10084FF2CC08091E20084FF28C08CE04D
:1009900089BD8EE089BD09B400FEFDCF8091D800ED
:1009A0008F7D8093D8008091E1008F7E8093E1005D
:1009B0008091E2008F7E8093E2008091E20081606E
:1009C0008093E20080912A02882321F48091E30041
:1009D00087FF02C084E001C081E08EBB99D1809185
:1009E000E10083FF21C08091E20083FF1DC0809160
:1009F000E100877F8093E10082E08EBB10922A02A3
:100A00008091E1008E7F8093E1008091E2008E7FF3
:100A10008093E2008091E20080618093E20080E0B8
:100A200060E042E025DE74D1FF91EF91BF91AF917C
:100A30009F918F917F916F915F914F913F912F91F6
:100A40000F900BBE0F900FBE0F901F9018951F9325
:100A5000DF93CF93CDB7DEB7AC970FB6F894DEBF78
:100A60000FBECDBFEEE2F2E08091F100819322E073
:100A7000E633F207C9F7B9DC8091E80083FF30C1A3
:100A800080912E0220912F02253009F484C0263057
:100A900040F42130A1F1213070F0233009F020C161
:100AA0002EC0283009F4EFC0293009F4FEC02630EA
:100AB00009F016C192C0803821F0823809F010C1C7
:100AC00008C080912B0290912C02992371F08260D2
:100AD0000CC0809132028F708093E9009091EB00FE
:100AE00081E095FF80E01092E9009091E800977F07
:100AF0009093E8008093F1001092F100CFC088231A
:100B000019F0823009F0ECC090E08F71907000977E
:100B100029F08230910509F0E3C00BC080913002CA
:100B2000813009F0DDC0233009F080E080932C0291
:100B30002CC080913002882341F5209132022F7021
:100B400009F4CEC02093E9008091EB0080FF1DC026
:100B500080912F02833021F48091EB00806213C0DA
:100B60008091EB0080618093EB0081E090E002C017
:100B7000880F991F2A95E2F78093EA001092EA0005
:100B80008091EB0088608093EB001092E9008091E7
:100B9000E800877F86C0882309F0A2C01091300248
:100BA0001F778091E3008078812B8093E300809110
:100BB000E800877F8093E800D6DD8091E80080FF21
:100BC000FCCF8091E30080688093E300112311F053
:100BD00083E001C082E08EBB83C08058823008F081
:100BE0007FC0809130029091310223E08C3D9207CA
:100BF00091F583E08C838AE28B835FB7F894DE0102
:100C0000159680E090E04EE061E2E42FF0E0609322
:100C10005700E49180FF03C0E295EF704F5FEF70E3
:100C20002E2F30E0EA3018F0295C3F4F02C0205DE3
:100C30003F4F2D933D9301968431910531F75FBF6E
:100C40008091E800877F8093E800CE0103966AE2F6
:100C500070E057DC12C060913202AE014F5F5F4F0F
:100C6000C5DBBC01009709F43BC08091E800877F99
:100C70008093E80089819A819FDC8091E8008B77DE
:100C80008093E8002DC0803859F58091E800877F77
:100C90008093E80080912A028093F1008091E8001F
:100CA0008E778093E8005FDD1BC08823C9F49091A4
:100CB00030029230A8F48091E800877F8093E800AA
:100CC00090932A0250DD80912A02882321F480919A
:100CD000E30087FF02C084E001C081E08EBB7CDBC3
:100CE0008091E80083FF0AC08091E800877F8093AD
:100CF000E8008091EB0080628093EB00AC960FB629
:100D0000F894DEBF0FBECDBFCF91DF911F91089544
:100D100008951F938EB38823A9F08091E9008F7006
:100D20009091EC0090FF02C010E801C010E0182B79
:100D30001092E9008091E80083FF01C088DE1F70F7
:100D40001093E9001F910895CF93DF93EC011B8668
:100D500082E08C838987CE01019661E0C0DC882324
:100D600029F0CE01069661E0BADC01C080E0DF9197
:100D7000CF9108952EB3243089F4FC0181818F70C6
:100D80008093E9008091F2009091F300009741F088
:100D90008091E8008E778093E80004CD82E008958A
:100DA00080E008952EB3243051F4FC0121812F708E
:100DB0002093E9002091E80020FF01C0DBCF0895D7
:100DC000FC01CB012EB32430C1F426812F70209377
:100DD000E9002091E80025FF10C064E070E040E0E9
:100DE00050E031DB8091E80085FD09C08091E8008A
:100DF0008B778093E80081E0089580E0089581E09A
:100E00000895629FD001739FF001829FE00DF11D54
:100E1000649FE00DF11D929FF00D839FF00D749F74
:100E2000F00D659FF00D9927729FB00DE11DF91F20
:100E3000639FB00DE11DF91FBD01CF01112408957D
:040E4000F894FFCF54
:100E44000182400000010140000001008083868986
:100E54008C8F9295989C9FA2A5A8ABAEB0B3B6B95F
:100E6400BCBFC1C4C7C9CCCED1D3D5D8DADCDEE08F
:100E7400E2E4E6E8EAECEDEFF0F2F3F5F6F7F8F980
:100E8400FAFBFCFCFDFEFEFFFFFFFFFFFFFFFFFF81
:100E9400FFFFFEFEFDFCFCFBFAF9F8F7F6F5F3F2B2
:100EA400F0EFEDECEAE8E6E4E2E0DEDCDAD8D5D314
:100EB400D1CECCC9C7C4C1BFBCB9B6B3B0AEABA860
:100EC400A5A29F9C9895928F8C898683807C797645
:100ED40073706D6A6763605D5A5754514F4C49464D
:100EE40043403E3B383633312E2C2A272523211FFD
:100EF4001D1B1917151312100F0D0C0A09080706EC
:100F040005040303020101000000000000000000CA
:100F1400000001010203030405060708090A0C0D79
:100F24000F1012131517191B1D1F212325272A2CF7
:100F34002E313336383B3E404346494C4F5154578B
:0C0F44005A5D6063676A6D707376797C9B
:00000001FF
