:020000021000EC
:10E000004BC0000083C0000081C000007FC0000042
:10E010007DC000007BC0000079C0000077C0000018
:10E0200075C0000073C0000070C500006FC0000024
:10E030006DC000006BC0000069C0000067C0000038
:10E0400065C0000063C0000061C000005FC0000048
:10E0500061C300005BC0000059C0000057C0000051
:10E0600055C0000053C0000051C000004FC0000068
:10E070004DC000004BC0000049C0000047C0000078
:10E0800045C0000043C0000041C000003FC0000088
:10E090003DC000003BC0000011241FBECFEFD0E206
:10E0A000DEBFCDBF04B603FE1AC08091A0019091DF
:10E0B000A1012CED8234920791F484B7877F84BF4D
:10E0C00088E10FB6F89480936000109260000FBE54
:10E0D0001092A1011092A001E0E0F0E0099511E09A
:10E0E000A0E0B1E0E0EFFEEE01E00BBF02C0079060
:10E0F0000D92A239B107D9F711E0A2E9B1E001C050
:10E100001D92A03AB107E1F733D0F0C679CF84E091
:10E110008093E9000DC08091E8008B778093E80040
:10E1200003C08EB3882359F08091E80082FFF9CFB5
:10E130008091E80085FFEFCF8091F100089580E0A5
:10E14000089593E09093E9009091E80095FD0DC04B
:10E150009091E8009E779093E80003C09EB39923C6
:10E1600031F09091E80090FFF9CF8093F10008958D
:10E170002F923F924F925F926F927F928F929F92D7
:10E18000AF92BF92CF92DF92EF92FF920F931F93C5
:10E19000DF93CF93CDB7DEB728970FB6F894DEBFE5
:10E1A0000FBECDBF84B7877F84BF88E10FB6F894D8
:10E1B00080936000109260000FBE90E080E80FB680
:10E1C000F89480936100909361000FBE11E015BF39
:10E1D00082E085BF7FD48AB1806F8AB98BB18F709E
:10E1E0008BB910936F0083E0809381008BB18F70A7
:10E1F00080618BB97894A4E02A2EF3E08F2ECC2492
:10E20000C394E5E03E2E79E0972E68C22092E900A3
:10E210008091E80082FF61C27ADF182F853419F4FB
:10E2200010920F0106C08857823010F0143519F48F
:10E230006EDF8DE02AC21035E1F31C34D1F31437C0
:10E2400011F484E494C0113611F489E51EC211342E
:10E2500011F55DDF182F5BDF282F30E0220F331F11
:10E26000442737FD4095542F110F1C831B82EB80F0
:10E27000FC80C701AA2797FDA095BA2F282B392B20
:10E280004A2B5B2B2093920130939301409394018E
:10E2900050939501CECF103711F483E5F6C11335B5
:10E2A00069F480E091E07C01F70181917F0149DF11
:10E2B000F7E0EF16F1E0FF06B9F7E8C1163521F4F3
:10E2C00081E33FDF80E3E1C1133731F482E839DFD6
:10E2D00087E937DF8EE1D9C1153611F580E090E08E
:10E2E000DC01FC01A0935B0080925700E89507B623
:10E2F00000FCFDCFFC01A0935B0030925700E89535
:10E3000007B600FCFDCF80509F4FAF4FBF4F80300E
:10E3100020EE920721E0A20720E0B20711F789CF93
:10E320001C3649F4F4DE8095E1E0F0E0082E90928E
:10E330005700E8957ECF123719F4E1E0F0E00EC007
:10E34000163419F4E0E0F0E009C01E3419F4E3E0FB
:10E35000F0E004C0113531F4E2E0F0E090925700B3
:10E36000849193C1123631F489E5EBDE81E0E9DE78
:10E3700080E08BC1123419F0173609F0E8C0C7DE0F
:10E38000D82EC5DEE82EC3DEB82E8554823008F0C4
:10E390007BC1DA821982FF2429813A81E22AF32A99
:10E3A000173609F04CC031E130935700E895DD2471
:10E3B000270140C0E0909201F090930100919401F8
:10E3C000109195016B2D6634E9F48D2D90E0A0E05D
:10E3D000B0E08E299F29A02BB12BABBFFC01879108
:10E3E000B0DEDD2069F0D801C7010296A11DB11D84
:10E3F0008093920190939301A0939401B09395011F
:10E40000DC2415C0D801C701B695A79597958795C7
:10E4100057D597DED801C7010296A11DB11D809383
:10E42000920190939301A0939401B0939501089465
:10E43000410851084114510409F0BCCF27C1409054
:10E4400092015090930160909401709095017B2D02
:10E45000763409F064C0F20160925B00809257004C
:10E46000E89507B600FCFDCF5AC08B2D863469F5C0
:10E47000DD2039F1E0909201F09093010091940138
:10E480001091950144DE8E831D828A2D90E0ED81EE
:10E49000FE818E2B9F2B0C01F70100935B00C09235
:10E4A0005700E8951124D801C7010296A11DB11D9E
:10E4B0008093920190939301A0939401B09395015E
:10E4C00002C025DEA82EDC2423C0E0909201F0904B
:10E4D0009301009194011091950116950795F79479
:10E4E000E79415DE682FC701F3D4809192019091D3
:10E4F0009301A0919401B09195010296A11DB11DC7
:10E500008093920190939301A0939401B09395010D
:10E510002F8138852150304038872F8304C0AA24AA
:10E52000DD24F886EF826F8178856115710509F029
:10E530009CCF7B2D763409F07CCEF20160925B009B
:10E5400030925700E89507B600FCFDCF72CE133429
:10E5500099F4E0909201F090930100919401109150
:10E560009501D5DD90E00C01F70100935B00C092AE
:10E570005700E89511245DCE1336C1F4E090920166
:10E58000F09093010091940110919501C0DDA801D4
:10E590009701216090E00C01F90140935B00C0926B
:10E5A0005700E8951124D801C70140C01D3691F4E9
:10E5B0008091920190919301A0919401B091950165
:10E5C000FC01A0935B0030925700E89507B600FC71
:10E5D000FDCF2FCE123581F480919201909193015D
:10E5E000A0919401B0919501ABBFFC01A790B690AA
:10E5F0008B2DA7DD8A2D49C0143421F5E0909201BE
:10E60000F090930100919401109195011695079552
:10E61000F794E7947CDD682FC7015AD4809192016A
:10E6200090919301A0919401B09195010296A11D42
:10E63000B11D8093920190939301A0939401B093A4
:10E640009501F7CD1436F1F4E0909201F09093012A
:10E650000091940110919501D801C701B695A79535
:10E66000979587952DD46DDDD801C7010296A11D20
:10E67000B11D8093920190939301A0939401B09364
:10E68000950104C01B3111F08FE35BDD8092E9003E
:10E690009091E8008091E8008E778093E80095FFE4
:10E6A00004C010C08EB38823C1F08091E80080FFC1
:10E6B000F9CF8091E8008E778093E80003C08EB395
:10E6C000882359F08091E80080FFF9CF2092E9007B
:10E6D0008091E8008B778093E800D7D380910F0179
:10E6E000882309F093CD8091E00081608093E00061
:10E6F00082E49CED9093A1018093A0012CE088E13D
:10E7000090E00FB6F894A895809360000FBE209318
:10E710006000FFCF1F920F920FB60F9211248F93BC
:10E7200080E389B98F910F900FBE0F901F901895BD
:10E7300082E061EC42E05BD183E061E842E157D1E5
:10E7400084E060E842E153C180919801982F9F775F
:10E75000913259F590E399B9909199019032A1F0D5
:10E76000913219F5813A09F58091E800877F80930D
:10E77000E80088E091E067E070E09FD08091E800D9
:10E780008B778093E8000895813279F48091E800D6
:10E79000877F8093E80088E091E067E070E0E8D050
:10E7A0008091E8008E778093E8000895923029F0F8
:10E7B000933041F0913061F410C02EE330E082E2FA
:10E7C00091E01EC0882371F0813089F08230A1F081
:10E7D00020E030E080E090E013C022E130E080E112
:10E7E00091E00EC024E030E080E691E009C028E12D
:10E7F00030E084E691E004C022E130E08EE791E071
:10E80000FA0191838083C901089507B600FCFDCF0A
:10E81000F999FECF23E0FB0180935B002093570022
:10E82000E89507B600FCFDCF81E180935700E8959D
:10E83000089507B600FCFDCFF999FECF25E0FB0156
:10E8400080935B0020935700E89507B600FCFDCF4E
:10E8500081E180935700E895089507B600FCFDCF4D
:10E86000F999FECF21E00A01FB0180935B00209320
:10E870005700E8951124089521E2FC0120935700E8
:10E880008491089529E0FC01209357008491089514
:10E89000E1E0F0E089E0809357008491089507B6A5
:10E8A00000FCFDCFF999FECF809599E0E1E0F0E022
:10E8B000082E90935700E8950895282F392FF901D5
:10E8C00080919E0190919F018617970718F4BC01D3
:10E8D00020E035C061157105D9F78091E8008E7789
:10E8E0008093E800F5CF8EB38823F1F18530C1F134
:10E8F0008091E80083FD36C08091E80082FD2AC047
:10E900008091E80080FF1BC08091F2009091F3009D
:10E9100006C021912093F10061507040019661156D
:10E92000710519F088309105A0F321E08830910538
:10E9300009F020E08091E8008E778093E80061156F
:10E94000710589F6222379F605C08EB3882361F01C
:10E95000853061F08091E80082FFF7CF80E0089574
:10E9600083E0089581E0089582E0089583E00895AA
:10E970006115710529F51FC02EB32223A1F12530A1
:10E9800071F12091E80023FD2CC02091E80022FFC6
:10E99000F3CFE82FF92F07C08091F1008193CF01C9
:10E9A0006150704041F0CF012091F2003091F300AE
:10E9B0002115310589F72091E8002B772093E80095
:10E9C00061157105C9F605C08EB3882361F08530E5
:10E9D00061F08091E80080FFF7CF80E0089583E048
:10E9E000089581E0089582E0089583E008958F708E
:10E9F0008093E900EBEEF0E0808181608083EDEEB2
:10EA0000F0E010826093EC0040838091EE00881F5C
:10EA10008827881F08958091980187FF11C003C03F
:10EA20008EB38823B1F08091E80082FFF9CF809106
:10EA3000E8008B778093E80008958EB3882349F02F
:10EA40008091E80080FFF9CF8091E8008E77809375
:10EA5000E80008950F931F93CF93DF9349D050D0D0
:10EA6000C8EDD0E088818F7788838881806888832B
:10EA700088818F7D8883E7EDF0E0808180688083E6
:10EA800019BC1EBA1092960100EE10E0F8018081C8
:10EA90008B7F808388818160888380E060E042E0B2
:10EAA000A6DFE1EEF0E080818E7F8083E2EEF0E091
:10EAB000808181608083808188608083F80180818B
:10EAC0008E7F8083888180618883DF91CF911F91C1
:10EAD0000F910895E8EDF0E080818F7E8083E7ED6F
:10EAE000F0E080818160808381E080939701B2CFE4
:10EAF000E8EDF0E080818C7F80831092E200089541
:10EB00001092DA001092E10008951F920F920FB652
:10EB10000F920BB60F9211242F933F934F935F9355
:10EB20006F937F938F939F93AF93BF93EF93FF93D5
:10EB30008091DA0080FF1BC08091D80080FF17C051
:10EB40008091DA008E7F8093DA008091D90080FF77
:10EB50000BC08CE089BD8EE089BD09B400FEFDCFFD
:10EB600081E08EBB91D103C019BC1EBA8DD18091BA
:10EB7000E10080FF17C08091E20080FF13C0809108
:10EB8000E2008E7F8093E2008091E20080618093BA
:10EB9000E2008091D80080628093D80019BC85E0A3
:10EBA0008EBB72D18091E10084FF2CC08091E20085
:10EBB00084FF28C08CE089BD8EE089BD09B400FEC9
:10EBC000FDCF8091D8008F7D8093D8008091E100A7
:10EBD0008F7E8093E1008091E2008F7E8093E2003F
:10EBE0008091E20081608093E20080919601882309
:10EBF00021F48091E30087FF02C084E001C081E03E
:10EC00008EBB42D18091E10083FF21C08091E20060
:10EC100083FF1DC08091E100877F8093E10082E047
:10EC20008EBB109296018091E1008E7F8093E1006F
:10EC30008091E2008E7F8093E2008091E20080610B
:10EC40008093E20080E060E042E0D1DE1DD1FF91E0
:10EC5000EF91BF91AF919F918F917F916F915F9154
:10EC60004F913F912F910F900BBE0F900FBE0F90C1
:10EC70001F9018951F93DF93CF9300D0CDB7DEB7C9
:10EC8000E8E9F1E08091F100819381E0E03AF80752
:10EC9000C9F75ADD8091E80083FFE2C080919801B6
:10ECA00090919901953009F46CC0963040F4913000
:10ECB00069F1913070F0933009F0D2C027C09830DC
:10ECC00009F4A1C0993009F4B0C0963009F0C8C069
:10ECD0007AC0803881F0823809F0C2C080919C01EE
:10ECE0008F708093E9009091EB0081E095FF80E0C8
:10ECF0001092E90001C080E09091E800977F909326
:10ED0000E8008093F1001092F10088C0882319F088
:10ED1000823009F0A5C08F71823009F0A1C08091C6
:10ED20009A01882341F520919C012F7009F498C025
:10ED30002093E9008091EB0080FF1DC08091990134
:10ED4000833021F48091EB00806213C08091EB004E
:10ED500080618093EB0081E090E002C0880F991FF2
:10ED60002A95E2F78093EA001092EA008091EB0086
:10ED700088608093EB001092E9008091E800877F23
:10ED800050C0882309F06CC010919A011F778091C0
:10ED9000E3008078812B8093E3008091E800877FF7
:10EDA0008093E80038DE8091E80080FFFCCF8091FE
:10EDB000E30080688093E300112311F083E001C039
:10EDC00082E08EBB4DC08058823008F049C08091EF
:10EDD0009A0190919B0160919C01AE014F5F5F4F42
:10EDE000E5DCBC01009709F43BC08091E800877F17
:10EDF0008093E80089819A8160DD8091E8008B77BB
:10EE00008093E8002DC0803859F58091E800877F15
:10EE10008093E800809196018093F1008091E80052
:10EE20008E778093E800F7DD1BC08823C9F49091AA
:10EE30009A019230A8F48091E800877F8093E800DF
:10EE400090939601E8DD80919601882321F48091CA
:10EE5000E30087FF02C084E001C081E08EBB68DC74
:10EE60008091E80083FF0AC08091E800877F80934B
:10EE7000E8008091EB0080628093EB000F900F9090
:10EE8000CF91DF911F91089508951F938EB388232A
:10EE9000A9F08091E9008F709091EC0090FF02C082
:10EEA00010E801C010E0182B1092E9008091E800F2
:10EEB00083FF01C0DFDE1F701093E9001F910895EA
:10EEC000F999FECF92BD81BDF89A992780B5089532
:10EED000262FF999FECF1FBA92BD81BD20BD0FB676
:10EEE000F894FA9AF99A0FBE01960895F894FFCF14
:10EEF0004C55464143444300000000000000080117
:10EF00001201100102000008EB034A200001010277
:10EF1000000109023E0002010080320904000001E4
:10EF20000202010005240010010424020005240649
:10EF30000001070582030800FF09040100020A001E
:10EF400000000705040210000507058302100005F4
:10EF50000403090418034400650061006E002000EA
:10EF6000430061006D006500720061000000120343
:10EF70004C0055004600410020004300440043007F
:02EF800000008F
:10FFA0000C9405F40C9419F40C942DF40C943CF47A
:10FFB0000C9442F40C9448F40C944FF40895089572
:06FFC00008950895089564
:10FFE000DFCFE0CFE1CFE2CFE3CFE4CFE5CFE6CF85
:08FFF000E6CFE6CFE6CFE6CF35
:08FFF80000E0010000DFFBDC6A
:040000031000E00009
:00000001FF
