:020000021000EC
:10E000004BC0000083C0000081C000007FC0000042
:10E010007DC000007BC0000079C0000077C0000018
:10E0200075C0000073C0000081C500006FC0000013
:10E030006DC000006BC0000069C0000067C0000038
:10E0400065C0000063C0000061C000005FC0000048
:10E05000F9C100005BC0000059C0000057C00000BB
:10E0600055C0000053C0000051C000004FC0000068
:10E070004DC000004BC0000049C0000047C0000078
:10E0800045C0000043C0000041C000003FC0000088
:10E090003DC000003BC0000011241FBECFEFD0E206
:10E0A000DEBFCDBF04B603FE1AC0809185019091FA
:10E0B00086012CED8234920791F484B7877F84BF68
:10E0C00088E10FB6F89480936000109260000FBE54
:10E0D0001092860110928501E0E0F0E0099511E0D0
:10E0E000A0E0B1E0E2E5FEEE01E00BBF02C0079068
:10E0F0000D92A836B107D9F711E0A8E6B1E001C04A
:10E100001D92A538B107E1F756D1A1C679CF18C045
:10E110002091F2003091F3002115310571F49091B6
:10E12000E8009B7F9093E80003C09EB3992351F0D1
:10E130009091E80092FFF9CF02C09091F1008150D8
:10E14000882331F7089530916D0120916C019091F1
:10E150006B0180916A019093710180937201C901F2
:10E16000909373018093740108951F93DF93CF936D
:10E1700000D000D000D0CDB7DEB7809178018823E1
:10E18000D9F080916801843049F480916901882335
:10E1900039F480916A018F3F19F40EC0853061F027
:10E1A0008AE08093000183E0809377018091EB0007
:10E1B00080628093EB00F5C080916801843009F49F
:10E1C00059C0853030F4813059F0833009F0E9C00E
:10E1D00022C0853009F4B2C0863009F0E2C0D5C053
:10E1E00010916901123008F0DCC0ADDF112389F411
:10E1F0008091710190917201A0917501B0E023E0CE
:10E20000FC01A0935B0020935700E89507B600FC43
:10E21000FDCF85E008C080916901882311F082302C
:10E2200029F491DF89E080930001BBC0813009F0BF
:10E23000B8C080E090E0DC01ABBFFC0127912F3F2C
:10E2400069F0A093750190937201809371018AE047
:10E250008093000185E080937701A3C00196A11D02
:10E26000B11D803020EE920721E0A20720E0B20726
:10E2700019F797C080916901833071F581E080932F
:10E28000700180916E0190916F0120916A01009759
:10E2900061F0213009F085C080916D0190916C0191
:10E2A00090937A01809379017CC0222391F482E4D7
:10E2B0009CED90938601809385012CE088E190E0AD
:10E2C0000FB6F894A895809360000FBE209360006D
:10E2D00068C01092010165C0882309F062C0809176
:10E2E0006A018F3F09F05DC080E090E0DC0133E01F
:10E2F00025E0FC01A0935B0030935700E89507B63A
:10E3000000FCFDCFFC01A0935B0020935700E89533
:10E3100007B600FCFDCF80509F4FAF4FBF4F8030FE
:10E3200040EE940741E0A40740E0B40711F781E113
:10E3300080935700E8951092780133C0DE01119662
:10E34000E5E0F1E083E001900D928150E1F7DE011C
:10E350001496E2E0F1E083E001900D928150E1F744
:10E3600080916A0190916901992329F4FE01E80FD7
:10E37000F11D818107C09130A1F4FE01BC97E80F27
:10E38000F11D8081809376010CC0809169018330FA
:10E3900041F480916A01882321F480916B0180937C
:10E3A000750126960FB6F894DEBF0FBECDBFCF9194
:10E3B000DF911F9108951F9384B7877F84BF88E101
:10E3C0000FB6F89480936000109260000FBE90E04A
:10E3D00080E80FB6F89480936100909361000FBEBF
:10E3E00011E015BF82E085BF86D38AB1806F8AB9FC
:10E3F0008BB18F708BB910936F0083E08093810095
:10E400008BB18F7080618BB9789401C001D58091F8
:10E4100001018823D9F7809170018823B9F713D3BC
:10E420008AB18F708AB98BB18F708BB910926F00DF
:10E430001092810081E085BF15BEE0917901F091D5
:10E440007A0109951F920F920FB60F9211248F93A4
:10E4500080E389B98F910F900FBE0F901F90189590
:10E46000CF92DF92EF92FF920F931F93CF93DF93A0
:10E4700080917D018F77813209F0CAC180E389B92B
:10E48000C0918301D0918401D0936F01C0936E013C
:10E4900080917E01833009F485C1843030F481306D
:10E4A00071F0823009F0B4C1EFC0853009F498C131
:10E4B000853008F48DC1863009F0AAC1A0C18091D1
:10E4C000E800877F8093E80080917001882319F02D
:10E4D0004CDE10927001209729F427C08EB3882358
:10E4E00009F496C18091E80082FFF8CF8091F10095
:10E4F000809368012197D0936F01C0936E01E9E684
:10E50000F1E008C08091F1008193219781E0EE361F
:10E51000F80731F08091F2009091F300009791F7A5
:10E52000D0936F01C0936E0120DE80910001853091
:10E5300009F0A6C080916E0190916F01009721F4BF
:10E5400082E0809300019CC08AE1E1DD00917101CD
:10E5500010917201802F8F71DADD609173017091DB
:10E560007401EB012196C01BD10B809169018823B6
:10E5700009F082C0D695C79598014091750150E089
:10E58000DA01C90100E0CC24C394E5E0DE2E13E0FB
:10E5900042C0E091F200F091F300309771F4E09105
:10E5A000E800EB7FE093E80004C0EEB3EE2309F44B
:10E5B0002FC1E091E800E2FFF8CF2197E091F10050
:10E5C000EE2EE091F100FE2E0701FC01A0935B000E
:10E5D000C0925700E89511240F5F0296A11DB11D4E
:10E5E000003811F02097B9F4F90140935B00D09204
:10E5F0005700E89507B600FCFDCF209761F0FC01BD
:10E60000A0935B0010935700E89507B600FCFDCF80
:10E610009C01AD0100E0209709F0BBCF709372011F
:10E620006093710181E180935700E89527C0809144
:10E63000F2009091F300009771F48091E8008B7FD5
:10E640008093E80004C08EB3882309F4E1C0809170
:10E65000E80082FFF8CF6091F10080917101909104
:10E660007201E7D3809171019091720101969093AC
:10E6700072018093710121972097C9F680E147DDEF
:10E680008091E8008B7FB8C08091E800877F8093FD
:10E69000E80004C08EB3882309F4BAC08091E80072
:10E6A00080FFF8CF80910001893081F08A3059F4E1
:10E6B00080916901813039F49091710180917201EA
:10E6C0009093F10094C08091760191C020917301E4
:10E6D000309174014091710150917201E9012196CC
:10E6E000C41BD50B80916901882379F5D695C79510
:10E6F000CA01A0917501B0E021C04091F200509193
:10E70000F3004032510571F44091E8004E7F409390
:10E71000E80004C04EB3442309F47AC04091E800F5
:10E7200040FFF8CFABBFFC01479156914093F100F9
:10E730005093F10021970296A11DB11D2097E9F693
:10E74000309372012093710129C0823039F524C0C1
:10E750008091F2009091F3008032910571F48091E4
:10E76000E8008E7F8093E80004C08EB3882309F40C
:10E770004FC08091E80080FFF8CF009171011091A7
:10E780007201C8014ED38093F1000F5F1F4F1093A9
:10E7900072010093710121972097D1F682E0809356
:10E7A000000127C08091E800877F8093E800809176
:10E7B00077018093F1001092F1001092F100109215
:10E7C000F100809100018093F1001092F10011C0DE
:10E7D0008091E800877F8093E8001092770117C04E
:10E7E0008091E800877F8093E8008091000180930A
:10E7F000F1008091E8008E7F8093E80008C080914E
:10E80000E800877F8093E80082E080930001FCD0DD
:10E81000DF91CF911F910F91FF90EF90DF90CF90FC
:10E820000895923029F0933041F0913061F410C096
:10E830002BE130E08AE191E01EC0882371F0813045
:10E8400089F08230A1F020E030E080E090E013C059
:10E8500022E130E088E091E00EC024E030E085E382
:10E8600091E009C028E130E089E391E004C022E1B1
:10E8700030E083E591E0FA0191838083C901089536
:10E8800007B600FCFDCFF999FECF23E0FB01809392
:10E890005B0020935700E89507B600FCFDCF81E1AF
:10E8A00080935700E895089507B600FCFDCFF999CD
:10E8B000FECF25E0FB0180935B0020935700E89595
:10E8C00007B600FCFDCF81E180935700E8950895DD
:10E8D00007B600FCFDCFF999FECF21E00A01FB014C
:10E8E00080935B0020935700E8951124089521E25E
:10E8F000FC01209357008491089529E0FC012093A6
:10E90000570084910895E1E0F0E089E0809357009A
:10E910008491089507B600FCFDCFF999FECF80954C
:10E9200099E0E1E0F0E0082E90935700E895089513
:10E93000282F392FF9018091830190918401861746
:10E94000970718F4BC0120E035C061157105D9F7AF
:10E950008091E8008E7F8093E800F5CF8EB3882306
:10E96000F1F18530C1F18091E80083FD36C08091DE
:10E97000E80082FD2AC08091E80080FF1BC08091E2
:10E98000F2009091F30006C021912093F1006150B4
:10E99000704001966115710519F080329105A0F360
:10E9A00021E08032910509F020E08091E8008E7F1F
:10E9B0008093E8006115710589F6222379F605C078
:10E9C0008EB3882361F0853061F08091E80082FF8A
:10E9D000F7CF80E0089583E0089581E0089582E014
:10E9E000089583E00895EBEEF0E0808181608083FC
:10E9F000EDEEF0E010826093EC0040838091EE0039
:10EA0000881F8827881F089580917D0187FF11C086
:10EA100003C08EB38823B1F08091E80082FFF9CF64
:10EA20008091E8008B7F8093E80008958EB388235F
:10EA300049F08091E80080FFF9CF8091E8008E7F57
:10EA40008093E800089565D06CD0E0EEF0E080811E
:10EA500081608083E8EDF0E080818F77808319BC4E
:10EA6000A7EDB0E08C918E7F8C9380818F7E808328
:10EA700010927C0108950F931F93CF93DF9349D099
:10EA800050D0C8EDD0E088818F77888388818068F6
:10EA9000888388818F7D8883E7EDF0E080818068BE
:10EAA000808319BC1EBA10927B0100EE10E0F801C1
:10EAB00080818B7F808388818160888380E060E0B3
:10EAC00042E291DFE1EEF0E080818E7F8083E2EE32
:10EAD000F0E0808181608083808188608083F8019C
:10EAE00080818E7F8083888180618883DF91CF9150
:10EAF0001F910F910895E8EDF0E080818F7E808373
:10EB0000E7EDF0E080818160808381E080937C018B
:10EB1000B2CFE8EDF0E080818C7F80831092E2003C
:10EB200008951092DA001092E10008951F920F925A
:10EB30000FB60F920BB60F9211242F933F934F9362
:10EB40005F936F937F938F939F93AF93BF93EF9355
:10EB5000FF938091DA0080FF1BC08091D80080FF76
:10EB600017C08091DA008E7F8093DA008091D900FF
:10EB700080FF0BC08CE089BD8EE089BD09B400FE2A
:10EB8000FDCF81E08EBB43D103C019BC1EBA3FD17B
:10EB90008091E10080FF17C08091E20080FF13C0E8
:10EBA0008091E2008E7F8093E2008091E20080619C
:10EBB0008093E2008091D80080628093D80019BCD5
:10EBC00085E08EBB24D18091E10084FF2CC0809130
:10EBD000E20084FF28C08CE089BD8EE089BD09B4C5
:10EBE00000FEFDCF8091D8008F7D8093D80080916A
:10EBF000E1008F7E8093E1008091E2008F7E809320
:10EC0000E2008091E20081608093E20080917B01CC
:10EC1000882321F48091E30087FF02C084E001C0D3
:10EC200081E08EBBF4D08091E10083FF21C0809110
:10EC3000E20083FF1DC08091E100877F8093E100A7
:10EC400082E08EBB10927B018091E1008E7F8093E9
:10EC5000E1008091E2008E7F8093E2008091E200EB
:10EC600080618093E20080E060E042E2BCDECFD0D1
:10EC7000FF91EF91BF91AF919F918F917F916F9194
:10EC80005F914F913F912F910F900BBE0F900FBE50
:10EC90000F901F9018951F93DF93CF9300D0CDB79F
:10ECA000DEB7EDE7F1E08091F100819381E0E53896
:10ECB000F807C9F7D5DB8091E80083FF94C0809105
:10ECC0007D0190917E01963009F440C0973030F478
:10ECD000992359F0953009F086C016C0983009F490
:10ECE00055C0993009F07FC063C0803819F0823870
:10ECF00009F079C08091E800877F8093E800109246
:10ED0000F1001092F1004DC0882309F06CC0109101
:10ED10007F011F778091E3008078812B8093E3004F
:10ED20008091E800877F8093E8006EDE8091E800A4
:10ED300080FFFCCF8091E30080688093E300112383
:10ED400011F083E001C082E08EBB4DC0805882305C
:10ED500008F049C080917F0190918001609181010C
:10ED6000AE014F5F5F4F5DDDBC01009709F43BC012
:10ED70008091E800877F8093E80089819A81D8DDBF
:10ED80008091E8008B7F8093E8002DC0803859F592
:10ED90008091E800877F8093E80080917B018093D9
:10EDA000F1008091E8008E7F8093E8002DDE1BC08B
:10EDB0008823C9F490917F019230A8F48091E800F3
:10EDC000877F8093E80090937B011EDE80917B011A
:10EDD000882321F48091E30087FF02C084E001C012
:10EDE00081E08EBB14D08091E80083FF0AC080913F
:10EDF000E800877F8093E8008091EB008062809339
:10EE0000EB000F900F90CF91DF911F91089508951F
:10EE10008EB3882329F08091E80083FF01C03BCFA7
:10EE20000895F999FECF92BD81BDF89A992780B5D2
:10EE30000895262FF999FECF1FBA92BD81BD20BD3E
:10EE40000FB6F894FA9AF99A0FBE01960895F894BD
:02EE5000FFCFF2
:10EE520002011E978220DCFB12011001000000203B
:10EE6200EB03FB2F00000102000109021B0001015C
:10EE72000080320904000000FE01020009210300A3
:10EE820000000C100104030904180344006500612A
:10EE9200006E002000430061006D00650072006199
:10EEA20000000012034C00550046004100200044BF
:08EEB2000046005500000000BD
:10FFA0000C9440F40C9454F40C9468F40C9477F48E
:10FFB0000C947DF40C9483F40C948AF408950895C1
:06FFC00008950895089564
:10FFE000DFCFE0CFE1CFE2CFE3CFE4CFE5CFE6CF85
:08FFF000E6CFE6CFE6CFE6CF35
:08FFF80000E0010010DFFBDC5A
:040000031000E00009
:00000001FF
