:1000000086C000009FC000009DC000009BC0000093
:1000100099C0000097C0000095C0000093C0000088
:1000200091C000008FC000008DC000006CC30000B4
:100030000EC4000087C0000085C0000083C000001F
:1000400081C000007FC000007DC000007BC00000B8
:1000500079C0000077C0000075C0000073C00000C8
:1000600071C000006FC000006DC000006BC00000D8
:1000700069C000001201100102000008EB034B20D0
:1000800001000102DC0109023E00020100C0320948
:1000900004000001020201000524001001042402F2
:1000A000060524060001070582030800FF09040174
:1000B00000020A000000070504021000050705837E
:1000C00002100005040309041A03530069006D00BF
:1000D0006F006E00200046006F0073007400650022
:1000E0007200000028035500530042002D00480014
:1000F0004400340034003700380030002000410054
:10010000640061007000740065007200000011243A
:100110001FBECFEFD2E0DEBFCDBF11E0A0E0B1E067
:10012000E6E4FEE002C005900D92AC31B107D9F7CC
:1001300011E0ACE1B1E001C01D92A53BB107E1F7D0
:100140001DD07FC65DCF84B7877F84BF88E10FB69F
:10015000F89480936000109260000FBE90E080E8F9
:100160000FB6F89480936100909361000FBEBCD2EB
:10017000E1D08CE00FD184E085BD08951F93CF932B
:10018000DF93E1DFCCE1D1E0FE012FB7F89488E204
:1001900091E091838083938382839583848388EA2B
:1001A00091E09783868380E890E09187808713862B
:1001B00012862FBF789411E08FB7F8942091260112
:1001C000309127018FBF809124019091250128173C
:1001D000390709F44AC080E091E005D697FD45C093
:1001E000FE01A081B1818C938081918101969183E0
:1001F0008083268137818217930721F4848195813A
:10020000918380832FB7F894828593850196938795
:1002100082872FBF2AC0FE01A281B3818D91B38353
:10022000A28326813781A217B30721F42481358167
:10023000338322839FB7F894228533852150304041
:10024000338722879FBF9091A8018B3139F499237E
:1002500011F0A9D006C01093A80107C0992321F07E
:1002600099D01092A80101C09ED02FB7F894809128
:100270002601909127012FBF009769F680E091E059
:100280009BD582D499CF80E091E045C580E091E094
:1002900096C4923029F0933041F09130E9F417C0C0
:1002A0002EE330E0E6E8F0E01BC0813041F0813021
:1002B00018F0823089F406C0E4ECF0E005C0E8EC08
:1002C000F0E002C0E4EEF0E0249130E009C022E169
:1002D00030E0E4E7F0E004C020E030E0E0E0F0E00F
:1002E000DA011196FC93EE93C90108959BB18F70CA
:1002F0009077892B8BB9000000005F9A0000000006
:100300000000000000000000000000005F980000F6
:100310000000000000000000000000000000089540
:100320001F93182F82958F70E1DF812F8F70DEDF92
:100330001F9108958BB180768BB98AB18F698AB984
:100340008FEF93EFA1E081509040A040E1F700C013
:10035000000083E0CBDFAFE1BEE41197F1F700C00E
:10036000000083E0C3DF8FE891E00197F1F700C060
:10037000000083E0BBDFA7ECB0E01197F1F700C00D
:10038000000082E0B3DF87EC90E00197F1F700C056
:10039000000008955C98C4DF87EC90E00197F1F7C6
:1003A00000C0000008955C9ABBDF5C9887EC90E089
:1003B0000197F1F700C000000895282F392FF901A7
:1003C0008091B3019091B4018617970718F4BC018E
:1003D00020E034C061157105D9F78091E8008E776F
:1003E0008093E800F5CF8EB38823E9F18530B9F129
:1003F0008091E80083FD35C08091E80082FD29C02E
:100400008091E80080FF1AC08091F20090E006C061
:1004100021912093F10061507040019661157105A2
:1004200019F088309105A0F321E08830910509F09A
:1004300020E08091E8008E778093E80061157105D7
:1004400091F6222381F605C08EB3882361F08530B2
:1004500061F08091E80082FFF7CF80E0089583E0AB
:10046000089581E0089582E0089583E00895E82FDB
:10047000F92F8091B3019091B4018617970718F472
:10048000BC0120E036C061157105D9F78091E80004
:100490008E778093E800F5CF8EB3882309F43EC0B1
:1004A0008530C1F18091E80083FD36C08091E8007D
:1004B00082FD2AC08091E80080FF1BC08091F2007D
:1004C00090E007C024912093F10031966150704074
:1004D00001966115710519F08830910598F321E0B6
:1004E0008830910509F020E08091E8008E778093B4
:1004F000E8006115710581F6222371F605C08EB3FF
:10050000882361F0853061F08091E80082FFF7CFA9
:1005100080E0089583E0089581E0089582E00895E1
:1005200083E008958F708093E900EBEEF0E0808126
:1005300081608083EDEEF0E010826093EC004083F8
:100540008091EE00881F8827881F0895EF92FF9200
:100550000F931F93CF93DF93162FE82EE7017E01B1
:10056000F92EE70100E02AC09881992329F16B81D7
:10057000E981FA812C81892F8F70853018F5629579
:10058000660F660F607C991F9927991F692B22308F
:1005900010F096E001C092E028E030E040E003C0B7
:1005A0004F5F220F331F2E173F07D0F34295407F36
:1005B000492BB8DF882331F00F5F25960117A0F291
:1005C00081E001C080E0DF91CF911F910F91FF90FA
:1005D000EF9008958091AD0187FF11C003C08EB3E5
:1005E0008823B1F08091E80082FFF9CF8091E80084
:1005F0008B778093E80008958EB3882349F080912B
:10060000E80080FFF9CF8091E8008E778093E800C2
:1006100008958091E4009091E50044E62091EC007B
:1006200020FF25C02091E80020FD15C02EB3222315
:10063000A1F02530A1F02091EB0025FD12C0209102
:10064000E4003091E5002817390741F3442359F0BD
:100650004150C901E3CF80E0089582E0089583E02E
:10066000089581E0089584E0089580E00895209140
:10067000E80022FFDBCFF9CF40D042D08091D800F4
:100680008F778093D8008091D80080688093D800BD
:100690008091D8008F7D8093D80084E089BD86E06A
:1006A00089BD09B400FEFDCF1EBA1092A9011092B7
:1006B000AB011092AA0180E060E042E033DF80915C
:1006C000E1008E7F8093E1008091E2008160809361
:1006D000E2008091E20088608093E2008091E00077
:1006E0008E7F8093E0000895E3E6F0E080818E7FC6
:1006F000808381E08093AC01BFCF1092E200089527
:100700001092E10008951F920F920FB60F921124DC
:100710002F933F934F935F936F937F938F939F9309
:10072000AF93BF93EF93FF938091E10082FF0AC0E4
:100730008091E20082FF06C08091E1008B7F809370
:10074000E10021D28091E10080FF16C08091E2009B
:1007500080FF12C08091E2008E7F8093E200809142
:10076000E20080618093E2008091D80080628093F3
:10077000D80019BC1EBA07D28091E10084FF2CC0BA
:100780008091E20084FF28C084E089BD86E089BDB5
:1007900009B400FEFDCF8091D8008F7D8093D800F2
:1007A0008091E1008F7E8093E1008091E2008F7E56
:1007B0008093E2008091E20081608093E20080916A
:1007C000A901882321F48091E30087FF02C084E01F
:1007D00001C081E08EBBD7D18091E10083FF26C0AC
:1007E0008091E20083FF22C08091E100877F8093A7
:1007F000E10082E08EBB1092A9018091E1008E7F22
:100800008093E1008091E2008E7F8093E2008091EE
:10081000E20080618093E20080E060E042E082DEFE
:100820008091F00088608093F000ADD1FF91EF914E
:10083000BF91AF919F918F917F916F915F914F91F8
:100840003F912F910F900FBE0F901F9018951F9200
:100850000F920FB60F9211241F932F933F934F9334
:100860005F936F937F938F939F93AF93BF93EF9318
:10087000FF931091E9001F708091EC001092E90045
:100880008091F000877F8093F00078941BD01092C5
:10089000E9008091F00088608093F0001093E900F7
:1008A000FF91EF91BF91AF919F918F917F916F9148
:1008B0005F914F913F912F911F910F900FBE0F901D
:1008C0001F9018951F93DF93CF93CDB7DEB7AC97EA
:1008D0000FB6F894DEBF0FBECDBFEDEAF1E0809118
:1008E000F100819321E0E53BF207C9F7CFDC80916D
:1008F000E80083FF30C18091AD012091AE01253029
:1009000009F484C0263040F42130A1F1213070F088
:10091000233009F020C12EC0283009F4EFC029305F
:1009200009F4FEC0263009F016C192C0803821F0CB
:10093000823809F010C108C08091AA019091AB01E2
:10094000992371F082600CC08091B1018F70809307
:10095000E9009091EB0081E095FF80E01092E900C2
:100960009091E800977F9093E8008093F1001092B7
:10097000F100CFC0882319F0823009F0ECC090E07C
:100980008F719070009729F08230910509F0E3C0D3
:100990000BC08091AF01813009F0DDC0233009F038
:1009A00080E08093AB012CC08091AF01882341F59A
:1009B0002091B1012F7009F4CEC02093E9008091FD
:1009C000EB0080FF1DC08091AE01833021F4809147
:1009D000EB00806213C08091EB0080618093EB009C
:1009E00081E090E002C0880F991F2A95E2F780937A
:1009F000EA001092EA008091EB0088608093EB009F
:100A00001092E9008091E800877F86C0882309F072
:100A1000A2C01091AF011F778091E3008078812BF5
:100A20008093E3008091E800877F8093E800D2DD27
:100A30008091E80080FFFCCF8091E3008068809384
:100A4000E300112311F083E001C082E08EBB83C07C
:100A50008058823008F07FC08091AF019091B00142
:100A600023E08C3D920791F583E08C838AE28B83AF
:100A70005FB7F894DE01159680E090E04EE061E209
:100A8000E42FF0E060935700E49180FF03C0E2950B
:100A9000EF704F5FEF702E2F30E0EA3018F0295CD6
:100AA0003F4F02C0205D3F4F2D933D93019684310F
:100AB000910531F75FBF8091E800877F8093E80060
:100AC000CE0103966AE270E078DC12C06091B10159
:100AD000AE014F5F5F4FDDDBBC01009709F43BC007
:100AE0008091E800877F8093E80089819A81BFDC4C
:100AF0008091E8008B778093E8002DC0803859F50D
:100B00008091E800877F8093E8008091A90180931D
:100B1000F1008091E8008E778093E8005BDD1BC0D8
:100B20008823C9F49091AF019230A8F48091E80035
:100B3000877F8093E8009093A9014CDD8091A90103
:100B4000882321F48091E30087FF02C084E001C084
:100B500081E08EBB98DB8091E80083FF0AC0809122
:100B6000E800877F8093E8008091EB0080628093AB
:100B7000EB00AC960FB6F894DEBF0FBECDBFCF91A1
:100B8000DF911F91089508951F938EB38823A9F0D4
:100B90008091E9008F709091EC0090FF02C010E806
:100BA00001C010E0182B1092E9008091E80083FF4B
:100BB00001C088DE1F701093E9001F910895CF9344
:100BC000DF93EC018091E80083FFA2C0888190E070
:100BD0002091B1013091B2012817390709F098C06E
:100BE0008091AE01813269F0823220F4803209F0C6
:100BF0008FC03CC0823209F46AC0833209F088C0D9
:100C000079C08091AD01813A09F082C08091E800FD
:100C1000877F8093E8008091E80080FFFCCF8C897B
:100C20009D89AE89BF898093F100292F3A2F4B2FE0
:100C300055272093F1009D01442755272093F1006B
:100C40008B2F9927AA27BB278093F100888D80934B
:100C5000F100898D8093F1008A8D8093F10080915D
:100C6000E8008E778093E800B5DC52C08091AD013A
:100C7000813209F04DC08091E800877F8093E800C1
:100C800004C08EB3882309F443C08091E80082FF3A
:100C9000F8CF3091F1002091F1009091F100809116
:100CA000F1003C8B2D8B9E8B8F8B8091F100888F78
:100CB0008091F100898F8091F1008A8F8091E80006
:100CC0008B778093E80086DCCE01BAD021C080917A
:100CD000AD018132E9F48091E800877F8093E800DC
:100CE00079DC8091AF019091B001998B888BCE0116
:100CF000A7D00EC08091AD01813251F48091E800FF
:100D0000877F8093E80066DCCE016091AF0198D0C8
:100D1000DF91CF910895CF93DF93EC014096FC01D2
:100D20008BE0DF011D928A95E9F782E08C83898749
:100D300083E08E87CE01019661E008DC882359F0BC
:100D4000CE01069661E002DC882329F0CE010B96E5
:100D500061E0FCDB01C080E0DF91CF910895FC01F0
:100D60008EB3843019F52489358946895789211530
:100D7000310541055105D1F081818F708093E900E3
:100D80008091F2008823A1F09091E8008091E80022
:100D90008E778093E80095FD0DC03BDC882359F4E5
:100DA0009091E8009E779093E800089582E008957E
:100DB00080E0089580E008952EB3243099F4FC017A
:100DC0002489358946895789211531054105510501
:100DD00049F021812F702093E9002091E80020FF45
:100DE00001C0BDCF0895FC018EB3843029F524895C
:100DF0003589468957892115310541055105E1F0AD
:100E000086818F708093E9008091E80082FF14C092
:100E10008091F200882321F02091F10030E002C09F
:100E20002FEF3FEF8091F200882341F48091E8009A
:100E30008B778093E80002C02FEF3FEFC901089540
:060E40000895F894FFCFB5
:100E46000083100000010410000001820800000168
:0C0E560000000000000000000000000090
:00000001FF
